{
	"contracts/RoyaltyManager.sol": {
		"RoyaltyManager": {
			"abi": [
				{
					"inputs": [
						{
							"internalType": "uint256",
							"name": "tokenId",
							"type": "uint256"
						}
					],
					"name": "getRoyalty",
					"outputs": [
						{
							"components": [
								{
									"internalType": "address",
									"name": "recipient",
									"type": "address"
								},
								{
									"internalType": "uint256",
									"name": "amount",
									"type": "uint256"
								}
							],
							"internalType": "struct RoyaltyManager.Royalty",
							"name": "",
							"type": "tuple"
						}
					],
					"stateMutability": "view",
					"type": "function"
				},
				{
					"inputs": [
						{
							"internalType": "uint256",
							"name": "",
							"type": "uint256"
						}
					],
					"name": "royalties",
					"outputs": [
						{
							"internalType": "address",
							"name": "recipient",
							"type": "address"
						},
						{
							"internalType": "uint256",
							"name": "amount",
							"type": "uint256"
						}
					],
					"stateMutability": "view",
					"type": "function"
				},
				{
					"inputs": [
						{
							"internalType": "uint256",
							"name": "tokenId",
							"type": "uint256"
						},
						{
							"internalType": "address",
							"name": "recipient",
							"type": "address"
						},
						{
							"internalType": "uint256",
							"name": "amount",
							"type": "uint256"
						}
					],
					"name": "setRoyalty",
					"outputs": [],
					"stateMutability": "nonpayable",
					"type": "function"
				}
			],
			"devdoc": {
				"kind": "dev",
				"methods": {},
				"version": 1
			},
			"evm": {
				"assembly": "    /* \"contracts/RoyaltyManager.sol\":60:609  contract RoyaltyManager {... */\n  mstore(0x40, 0x80)\n  callvalue\n  dup1\n  iszero\n  tag_1\n  jumpi\n  0x00\n  dup1\n  revert\ntag_1:\n  pop\n  dataSize(sub_0)\n  dup1\n  dataOffset(sub_0)\n  0x00\n  codecopy\n  0x00\n  return\nstop\n\nsub_0: assembly {\n        /* \"contracts/RoyaltyManager.sol\":60:609  contract RoyaltyManager {... */\n      mstore(0x40, 0x80)\n      callvalue\n      dup1\n      iszero\n      tag_1\n      jumpi\n      0x00\n      dup1\n      revert\n    tag_1:\n      pop\n      jumpi(tag_2, lt(calldatasize, 0x04))\n      shr(0xe0, calldataload(0x00))\n      dup1\n      0x1af9cf49\n      eq\n      tag_3\n      jumpi\n      dup1\n      0x7db3c828\n      eq\n      tag_4\n      jumpi\n      dup1\n      0x7f77f574\n      eq\n      tag_5\n      jumpi\n    tag_2:\n      0x00\n      dup1\n      revert\n        /* \"contracts/RoyaltyManager.sol\":486:606  function getRoyalty(uint256 tokenId) external view returns (Royalty memory) {... */\n    tag_3:\n      tag_6\n      0x04\n      dup1\n      calldatasize\n      sub\n      dup2\n      add\n      swap1\n      tag_7\n      swap2\n      swap1\n      tag_8\n      jump\t// in\n    tag_7:\n      tag_9\n      jump\t// in\n    tag_6:\n      mload(0x40)\n      tag_10\n      swap2\n      swap1\n      tag_11\n      jump\t// in\n    tag_10:\n      mload(0x40)\n      dup1\n      swap2\n      sub\n      swap1\n      return\n        /* \"contracts/RoyaltyManager.sol\":266:478  function setRoyalty(uint256 tokenId, address recipient, uint256 amount) external {... */\n    tag_4:\n      tag_12\n      0x04\n      dup1\n      calldatasize\n      sub\n      dup2\n      add\n      swap1\n      tag_13\n      swap2\n      swap1\n      tag_14\n      jump\t// in\n    tag_13:\n      tag_15\n      jump\t// in\n    tag_12:\n      stop\n        /* \"contracts/RoyaltyManager.sol\":213:257  mapping(uint256 => Royalty) public royalties */\n    tag_5:\n      tag_16\n      0x04\n      dup1\n      calldatasize\n      sub\n      dup2\n      add\n      swap1\n      tag_17\n      swap2\n      swap1\n      tag_8\n      jump\t// in\n    tag_17:\n      tag_18\n      jump\t// in\n    tag_16:\n      mload(0x40)\n      tag_19\n      swap3\n      swap2\n      swap1\n      tag_20\n      jump\t// in\n    tag_19:\n      mload(0x40)\n      dup1\n      swap2\n      sub\n      swap1\n      return\n        /* \"contracts/RoyaltyManager.sol\":486:606  function getRoyalty(uint256 tokenId) external view returns (Royalty memory) {... */\n    tag_9:\n        /* \"contracts/RoyaltyManager.sol\":546:560  Royalty memory */\n      tag_21\n      tag_22\n      jump\t// in\n    tag_21:\n        /* \"contracts/RoyaltyManager.sol\":580:589  royalties */\n      0x00\n        /* \"contracts/RoyaltyManager.sol\":580:598  royalties[tokenId] */\n      dup1\n        /* \"contracts/RoyaltyManager.sol\":590:597  tokenId */\n      dup4\n        /* \"contracts/RoyaltyManager.sol\":580:598  royalties[tokenId] */\n      dup2\n      mstore\n      0x20\n      add\n      swap1\n      dup2\n      mstore\n      0x20\n      add\n      0x00\n      keccak256\n        /* \"contracts/RoyaltyManager.sol\":573:598  return royalties[tokenId] */\n      mload(0x40)\n      dup1\n      0x40\n      add\n      0x40\n      mstore\n      swap1\n      dup2\n      0x00\n      dup3\n      add\n      0x00\n      swap1\n      sload\n      swap1\n      0x0100\n      exp\n      swap1\n      div\n      0xffffffffffffffffffffffffffffffffffffffff\n      and\n      0xffffffffffffffffffffffffffffffffffffffff\n      and\n      0xffffffffffffffffffffffffffffffffffffffff\n      and\n      dup2\n      mstore\n      0x20\n      add\n      0x01\n      dup3\n      add\n      sload\n      dup2\n      mstore\n      pop\n      pop\n      swap1\n      pop\n        /* \"contracts/RoyaltyManager.sol\":486:606  function getRoyalty(uint256 tokenId) external view returns (Royalty memory) {... */\n      swap2\n      swap1\n      pop\n      jump\t// out\n        /* \"contracts/RoyaltyManager.sol\":266:478  function setRoyalty(uint256 tokenId, address recipient, uint256 amount) external {... */\n    tag_15:\n        /* \"contracts/RoyaltyManager.sol\":444:470  Royalty(recipient, amount) */\n      mload(0x40)\n      dup1\n      0x40\n      add\n      0x40\n      mstore\n      dup1\n        /* \"contracts/RoyaltyManager.sol\":452:461  recipient */\n      dup4\n        /* \"contracts/RoyaltyManager.sol\":444:470  Royalty(recipient, amount) */\n      0xffffffffffffffffffffffffffffffffffffffff\n      and\n      dup2\n      mstore\n      0x20\n      add\n        /* \"contracts/RoyaltyManager.sol\":463:469  amount */\n      dup3\n        /* \"contracts/RoyaltyManager.sol\":444:470  Royalty(recipient, amount) */\n      dup2\n      mstore\n      pop\n        /* \"contracts/RoyaltyManager.sol\":423:432  royalties */\n      0x00\n        /* \"contracts/RoyaltyManager.sol\":423:441  royalties[tokenId] */\n      dup1\n        /* \"contracts/RoyaltyManager.sol\":433:440  tokenId */\n      dup6\n        /* \"contracts/RoyaltyManager.sol\":423:441  royalties[tokenId] */\n      dup2\n      mstore\n      0x20\n      add\n      swap1\n      dup2\n      mstore\n      0x20\n      add\n      0x00\n      keccak256\n        /* \"contracts/RoyaltyManager.sol\":423:470  royalties[tokenId] = Royalty(recipient, amount) */\n      0x00\n      dup3\n      add\n      mload\n      dup2\n      0x00\n      add\n      exp(0x0100, 0x00)\n      dup2\n      sload\n      dup2\n      0xffffffffffffffffffffffffffffffffffffffff\n      mul\n      not\n      and\n      swap1\n      dup4\n      0xffffffffffffffffffffffffffffffffffffffff\n      and\n      mul\n      or\n      swap1\n      sstore\n      pop\n      0x20\n      dup3\n      add\n      mload\n      dup2\n      0x01\n      add\n      sstore\n      swap1\n      pop\n      pop\n        /* \"contracts/RoyaltyManager.sol\":266:478  function setRoyalty(uint256 tokenId, address recipient, uint256 amount) external {... */\n      pop\n      pop\n      pop\n      jump\t// out\n        /* \"contracts/RoyaltyManager.sol\":213:257  mapping(uint256 => Royalty) public royalties */\n    tag_18:\n      mstore(0x20, 0x00)\n      dup1\n      0x00\n      mstore\n      keccak256(0x00, 0x40)\n      0x00\n      swap2\n      pop\n      swap1\n      pop\n      dup1\n      0x00\n      add\n      0x00\n      swap1\n      sload\n      swap1\n      0x0100\n      exp\n      swap1\n      div\n      0xffffffffffffffffffffffffffffffffffffffff\n      and\n      swap1\n      dup1\n      0x01\n      add\n      sload\n      swap1\n      pop\n      dup3\n      jump\t// out\n    tag_22:\n      mload(0x40)\n      dup1\n      0x40\n      add\n      0x40\n      mstore\n      dup1\n      and(0xffffffffffffffffffffffffffffffffffffffff, 0x00)\n      dup2\n      mstore\n      0x20\n      add\n      0x00\n      dup2\n      mstore\n      pop\n      swap1\n      jump\t// out\n        /* \"#utility.yul\":88:205   */\n    tag_26:\n        /* \"#utility.yul\":197:198   */\n      0x00\n        /* \"#utility.yul\":194:195   */\n      dup1\n        /* \"#utility.yul\":187:199   */\n      revert\n        /* \"#utility.yul\":334:411   */\n    tag_28:\n        /* \"#utility.yul\":371:378   */\n      0x00\n        /* \"#utility.yul\":400:405   */\n      dup2\n        /* \"#utility.yul\":389:405   */\n      swap1\n      pop\n        /* \"#utility.yul\":334:411   */\n      swap2\n      swap1\n      pop\n      jump\t// out\n        /* \"#utility.yul\":417:539   */\n    tag_29:\n        /* \"#utility.yul\":490:514   */\n      tag_46\n        /* \"#utility.yul\":508:513   */\n      dup2\n        /* \"#utility.yul\":490:514   */\n      tag_28\n      jump\t// in\n    tag_46:\n        /* \"#utility.yul\":483:488   */\n      dup2\n        /* \"#utility.yul\":480:515   */\n      eq\n        /* \"#utility.yul\":470:533   */\n      tag_47\n      jumpi\n        /* \"#utility.yul\":529:530   */\n      0x00\n        /* \"#utility.yul\":526:527   */\n      dup1\n        /* \"#utility.yul\":519:531   */\n      revert\n        /* \"#utility.yul\":470:533   */\n    tag_47:\n        /* \"#utility.yul\":417:539   */\n      pop\n      jump\t// out\n        /* \"#utility.yul\":545:684   */\n    tag_30:\n        /* \"#utility.yul\":591:596   */\n      0x00\n        /* \"#utility.yul\":629:635   */\n      dup2\n        /* \"#utility.yul\":616:636   */\n      calldataload\n        /* \"#utility.yul\":607:636   */\n      swap1\n      pop\n        /* \"#utility.yul\":645:678   */\n      tag_49\n        /* \"#utility.yul\":672:677   */\n      dup2\n        /* \"#utility.yul\":645:678   */\n      tag_29\n      jump\t// in\n    tag_49:\n        /* \"#utility.yul\":545:684   */\n      swap3\n      swap2\n      pop\n      pop\n      jump\t// out\n        /* \"#utility.yul\":690:1019   */\n    tag_8:\n        /* \"#utility.yul\":749:755   */\n      0x00\n        /* \"#utility.yul\":798:800   */\n      0x20\n        /* \"#utility.yul\":786:795   */\n      dup3\n        /* \"#utility.yul\":777:784   */\n      dup5\n        /* \"#utility.yul\":773:796   */\n      sub\n        /* \"#utility.yul\":769:801   */\n      slt\n        /* \"#utility.yul\":766:885   */\n      iszero\n      tag_51\n      jumpi\n        /* \"#utility.yul\":804:883   */\n      tag_52\n      tag_26\n      jump\t// in\n    tag_52:\n        /* \"#utility.yul\":766:885   */\n    tag_51:\n        /* \"#utility.yul\":924:925   */\n      0x00\n        /* \"#utility.yul\":949:1002   */\n      tag_53\n        /* \"#utility.yul\":994:1001   */\n      dup5\n        /* \"#utility.yul\":985:991   */\n      dup3\n        /* \"#utility.yul\":974:983   */\n      dup6\n        /* \"#utility.yul\":970:992   */\n      add\n        /* \"#utility.yul\":949:1002   */\n      tag_30\n      jump\t// in\n    tag_53:\n        /* \"#utility.yul\":939:1002   */\n      swap2\n      pop\n        /* \"#utility.yul\":895:1012   */\n      pop\n        /* \"#utility.yul\":690:1019   */\n      swap3\n      swap2\n      pop\n      pop\n      jump\t// out\n        /* \"#utility.yul\":1025:1151   */\n    tag_31:\n        /* \"#utility.yul\":1062:1069   */\n      0x00\n        /* \"#utility.yul\":1102:1144   */\n      0xffffffffffffffffffffffffffffffffffffffff\n        /* \"#utility.yul\":1095:1100   */\n      dup3\n        /* \"#utility.yul\":1091:1145   */\n      and\n        /* \"#utility.yul\":1080:1145   */\n      swap1\n      pop\n        /* \"#utility.yul\":1025:1151   */\n      swap2\n      swap1\n      pop\n      jump\t// out\n        /* \"#utility.yul\":1157:1253   */\n    tag_32:\n        /* \"#utility.yul\":1194:1201   */\n      0x00\n        /* \"#utility.yul\":1223:1247   */\n      tag_56\n        /* \"#utility.yul\":1241:1246   */\n      dup3\n        /* \"#utility.yul\":1223:1247   */\n      tag_31\n      jump\t// in\n    tag_56:\n        /* \"#utility.yul\":1212:1247   */\n      swap1\n      pop\n        /* \"#utility.yul\":1157:1253   */\n      swap2\n      swap1\n      pop\n      jump\t// out\n        /* \"#utility.yul\":1259:1367   */\n    tag_33:\n        /* \"#utility.yul\":1336:1360   */\n      tag_58\n        /* \"#utility.yul\":1354:1359   */\n      dup2\n        /* \"#utility.yul\":1336:1360   */\n      tag_32\n      jump\t// in\n    tag_58:\n        /* \"#utility.yul\":1331:1334   */\n      dup3\n        /* \"#utility.yul\":1324:1361   */\n      mstore\n        /* \"#utility.yul\":1259:1367   */\n      pop\n      pop\n      jump\t// out\n        /* \"#utility.yul\":1373:1481   */\n    tag_34:\n        /* \"#utility.yul\":1450:1474   */\n      tag_60\n        /* \"#utility.yul\":1468:1473   */\n      dup2\n        /* \"#utility.yul\":1450:1474   */\n      tag_28\n      jump\t// in\n    tag_60:\n        /* \"#utility.yul\":1445:1448   */\n      dup3\n        /* \"#utility.yul\":1438:1475   */\n      mstore\n        /* \"#utility.yul\":1373:1481   */\n      pop\n      pop\n      jump\t// out\n        /* \"#utility.yul\":1557:2065   */\n    tag_35:\n        /* \"#utility.yul\":1698:1702   */\n      0x40\n        /* \"#utility.yul\":1693:1696   */\n      dup3\n        /* \"#utility.yul\":1689:1703   */\n      add\n        /* \"#utility.yul\":1790:1794   */\n      0x00\n        /* \"#utility.yul\":1783:1788   */\n      dup3\n        /* \"#utility.yul\":1779:1795   */\n      add\n        /* \"#utility.yul\":1773:1796   */\n      mload\n        /* \"#utility.yul\":1809:1872   */\n      tag_62\n        /* \"#utility.yul\":1866:1870   */\n      0x00\n        /* \"#utility.yul\":1861:1864   */\n      dup6\n        /* \"#utility.yul\":1857:1871   */\n      add\n        /* \"#utility.yul\":1843:1855   */\n      dup3\n        /* \"#utility.yul\":1809:1872   */\n      tag_33\n      jump\t// in\n    tag_62:\n        /* \"#utility.yul\":1713:1882   */\n      pop\n        /* \"#utility.yul\":1966:1970   */\n      0x20\n        /* \"#utility.yul\":1959:1964   */\n      dup3\n        /* \"#utility.yul\":1955:1971   */\n      add\n        /* \"#utility.yul\":1949:1972   */\n      mload\n        /* \"#utility.yul\":1985:2048   */\n      tag_63\n        /* \"#utility.yul\":2042:2046   */\n      0x20\n        /* \"#utility.yul\":2037:2040   */\n      dup6\n        /* \"#utility.yul\":2033:2047   */\n      add\n        /* \"#utility.yul\":2019:2031   */\n      dup3\n        /* \"#utility.yul\":1985:2048   */\n      tag_34\n      jump\t// in\n    tag_63:\n        /* \"#utility.yul\":1892:2058   */\n      pop\n        /* \"#utility.yul\":1667:2065   */\n      pop\n        /* \"#utility.yul\":1557:2065   */\n      pop\n      pop\n      jump\t// out\n        /* \"#utility.yul\":2071:2381   */\n    tag_11:\n        /* \"#utility.yul\":2208:2212   */\n      0x00\n        /* \"#utility.yul\":2246:2248   */\n      0x40\n        /* \"#utility.yul\":2235:2244   */\n      dup3\n        /* \"#utility.yul\":2231:2249   */\n      add\n        /* \"#utility.yul\":2223:2249   */\n      swap1\n      pop\n        /* \"#utility.yul\":2259:2374   */\n      tag_65\n        /* \"#utility.yul\":2371:2372   */\n      0x00\n        /* \"#utility.yul\":2360:2369   */\n      dup4\n        /* \"#utility.yul\":2356:2373   */\n      add\n        /* \"#utility.yul\":2347:2353   */\n      dup5\n        /* \"#utility.yul\":2259:2374   */\n      tag_35\n      jump\t// in\n    tag_65:\n        /* \"#utility.yul\":2071:2381   */\n      swap3\n      swap2\n      pop\n      pop\n      jump\t// out\n        /* \"#utility.yul\":2387:2509   */\n    tag_36:\n        /* \"#utility.yul\":2460:2484   */\n      tag_67\n        /* \"#utility.yul\":2478:2483   */\n      dup2\n        /* \"#utility.yul\":2460:2484   */\n      tag_32\n      jump\t// in\n    tag_67:\n        /* \"#utility.yul\":2453:2458   */\n      dup2\n        /* \"#utility.yul\":2450:2485   */\n      eq\n        /* \"#utility.yul\":2440:2503   */\n      tag_68\n      jumpi\n        /* \"#utility.yul\":2499:2500   */\n      0x00\n        /* \"#utility.yul\":2496:2497   */\n      dup1\n        /* \"#utility.yul\":2489:2501   */\n      revert\n        /* \"#utility.yul\":2440:2503   */\n    tag_68:\n        /* \"#utility.yul\":2387:2509   */\n      pop\n      jump\t// out\n        /* \"#utility.yul\":2515:2654   */\n    tag_37:\n        /* \"#utility.yul\":2561:2566   */\n      0x00\n        /* \"#utility.yul\":2599:2605   */\n      dup2\n        /* \"#utility.yul\":2586:2606   */\n      calldataload\n        /* \"#utility.yul\":2577:2606   */\n      swap1\n      pop\n        /* \"#utility.yul\":2615:2648   */\n      tag_70\n        /* \"#utility.yul\":2642:2647   */\n      dup2\n        /* \"#utility.yul\":2615:2648   */\n      tag_36\n      jump\t// in\n    tag_70:\n        /* \"#utility.yul\":2515:2654   */\n      swap3\n      swap2\n      pop\n      pop\n      jump\t// out\n        /* \"#utility.yul\":2660:3279   */\n    tag_14:\n        /* \"#utility.yul\":2737:2743   */\n      0x00\n        /* \"#utility.yul\":2745:2751   */\n      dup1\n        /* \"#utility.yul\":2753:2759   */\n      0x00\n        /* \"#utility.yul\":2802:2804   */\n      0x60\n        /* \"#utility.yul\":2790:2799   */\n      dup5\n        /* \"#utility.yul\":2781:2788   */\n      dup7\n        /* \"#utility.yul\":2777:2800   */\n      sub\n        /* \"#utility.yul\":2773:2805   */\n      slt\n        /* \"#utility.yul\":2770:2889   */\n      iszero\n      tag_72\n      jumpi\n        /* \"#utility.yul\":2808:2887   */\n      tag_73\n      tag_26\n      jump\t// in\n    tag_73:\n        /* \"#utility.yul\":2770:2889   */\n    tag_72:\n        /* \"#utility.yul\":2928:2929   */\n      0x00\n        /* \"#utility.yul\":2953:3006   */\n      tag_74\n        /* \"#utility.yul\":2998:3005   */\n      dup7\n        /* \"#utility.yul\":2989:2995   */\n      dup3\n        /* \"#utility.yul\":2978:2987   */\n      dup8\n        /* \"#utility.yul\":2974:2996   */\n      add\n        /* \"#utility.yul\":2953:3006   */\n      tag_30\n      jump\t// in\n    tag_74:\n        /* \"#utility.yul\":2943:3006   */\n      swap4\n      pop\n        /* \"#utility.yul\":2899:3016   */\n      pop\n        /* \"#utility.yul\":3055:3057   */\n      0x20\n        /* \"#utility.yul\":3081:3134   */\n      tag_75\n        /* \"#utility.yul\":3126:3133   */\n      dup7\n        /* \"#utility.yul\":3117:3123   */\n      dup3\n        /* \"#utility.yul\":3106:3115   */\n      dup8\n        /* \"#utility.yul\":3102:3124   */\n      add\n        /* \"#utility.yul\":3081:3134   */\n      tag_37\n      jump\t// in\n    tag_75:\n        /* \"#utility.yul\":3071:3134   */\n      swap3\n      pop\n        /* \"#utility.yul\":3026:3144   */\n      pop\n        /* \"#utility.yul\":3183:3185   */\n      0x40\n        /* \"#utility.yul\":3209:3262   */\n      tag_76\n        /* \"#utility.yul\":3254:3261   */\n      dup7\n        /* \"#utility.yul\":3245:3251   */\n      dup3\n        /* \"#utility.yul\":3234:3243   */\n      dup8\n        /* \"#utility.yul\":3230:3252   */\n      add\n        /* \"#utility.yul\":3209:3262   */\n      tag_30\n      jump\t// in\n    tag_76:\n        /* \"#utility.yul\":3199:3262   */\n      swap2\n      pop\n        /* \"#utility.yul\":3154:3272   */\n      pop\n        /* \"#utility.yul\":2660:3279   */\n      swap3\n      pop\n      swap3\n      pop\n      swap3\n      jump\t// out\n        /* \"#utility.yul\":3285:3403   */\n    tag_38:\n        /* \"#utility.yul\":3372:3396   */\n      tag_78\n        /* \"#utility.yul\":3390:3395   */\n      dup2\n        /* \"#utility.yul\":3372:3396   */\n      tag_32\n      jump\t// in\n    tag_78:\n        /* \"#utility.yul\":3367:3370   */\n      dup3\n        /* \"#utility.yul\":3360:3397   */\n      mstore\n        /* \"#utility.yul\":3285:3403   */\n      pop\n      pop\n      jump\t// out\n        /* \"#utility.yul\":3409:3527   */\n    tag_39:\n        /* \"#utility.yul\":3496:3520   */\n      tag_80\n        /* \"#utility.yul\":3514:3519   */\n      dup2\n        /* \"#utility.yul\":3496:3520   */\n      tag_28\n      jump\t// in\n    tag_80:\n        /* \"#utility.yul\":3491:3494   */\n      dup3\n        /* \"#utility.yul\":3484:3521   */\n      mstore\n        /* \"#utility.yul\":3409:3527   */\n      pop\n      pop\n      jump\t// out\n        /* \"#utility.yul\":3533:3865   */\n    tag_20:\n        /* \"#utility.yul\":3654:3658   */\n      0x00\n        /* \"#utility.yul\":3692:3694   */\n      0x40\n        /* \"#utility.yul\":3681:3690   */\n      dup3\n        /* \"#utility.yul\":3677:3695   */\n      add\n        /* \"#utility.yul\":3669:3695   */\n      swap1\n      pop\n        /* \"#utility.yul\":3705:3776   */\n      tag_82\n        /* \"#utility.yul\":3773:3774   */\n      0x00\n        /* \"#utility.yul\":3762:3771   */\n      dup4\n        /* \"#utility.yul\":3758:3775   */\n      add\n        /* \"#utility.yul\":3749:3755   */\n      dup6\n        /* \"#utility.yul\":3705:3776   */\n      tag_38\n      jump\t// in\n    tag_82:\n        /* \"#utility.yul\":3786:3858   */\n      tag_83\n        /* \"#utility.yul\":3854:3856   */\n      0x20\n        /* \"#utility.yul\":3843:3852   */\n      dup4\n        /* \"#utility.yul\":3839:3857   */\n      add\n        /* \"#utility.yul\":3830:3836   */\n      dup5\n        /* \"#utility.yul\":3786:3858   */\n      tag_39\n      jump\t// in\n    tag_83:\n        /* \"#utility.yul\":3533:3865   */\n      swap4\n      swap3\n      pop\n      pop\n      pop\n      jump\t// out\n\n    auxdata: 0xa2646970667358221220cf3fc39f15e69983cb1a24d576f73418455943e327fb716e4b6ac6143203a45d64736f6c634300081a0033\n}\n",
				"bytecode": {
					"linkReferences": {},
					"object": "6080604052348015600e575f80fd5b506104308061001c5f395ff3fe608060405234801561000f575f80fd5b506004361061003f575f3560e01c80631af9cf49146100435780637db3c828146100735780637f77f5741461008f575b5f80fd5b61005d6004803603810190610058919061027c565b6100c0565b60405161006a9190610322565b60405180910390f35b61008d60048036038101906100889190610365565b610148565b005b6100a960048036038101906100a4919061027c565b6101d9565b6040516100b79291906103d3565b60405180910390f35b6100c8610217565b5f808381526020019081526020015f206040518060400160405290815f82015f9054906101000a900473ffffffffffffffffffffffffffffffffffffffff1673ffffffffffffffffffffffffffffffffffffffff1673ffffffffffffffffffffffffffffffffffffffff1681526020016001820154815250509050919050565b60405180604001604052808373ffffffffffffffffffffffffffffffffffffffff168152602001828152505f808581526020019081526020015f205f820151815f015f6101000a81548173ffffffffffffffffffffffffffffffffffffffff021916908373ffffffffffffffffffffffffffffffffffffffff16021790555060208201518160010155905050505050565b5f602052805f5260405f205f91509050805f015f9054906101000a900473ffffffffffffffffffffffffffffffffffffffff16908060010154905082565b60405180604001604052805f73ffffffffffffffffffffffffffffffffffffffff1681526020015f81525090565b5f80fd5b5f819050919050565b61025b81610249565b8114610265575f80fd5b50565b5f8135905061027681610252565b92915050565b5f6020828403121561029157610290610245565b5b5f61029e84828501610268565b91505092915050565b5f73ffffffffffffffffffffffffffffffffffffffff82169050919050565b5f6102d0826102a7565b9050919050565b6102e0816102c6565b82525050565b6102ef81610249565b82525050565b604082015f8201516103095f8501826102d7565b50602082015161031c60208501826102e6565b50505050565b5f6040820190506103355f8301846102f5565b92915050565b610344816102c6565b811461034e575f80fd5b50565b5f8135905061035f8161033b565b92915050565b5f805f6060848603121561037c5761037b610245565b5b5f61038986828701610268565b935050602061039a86828701610351565b92505060406103ab86828701610268565b9150509250925092565b6103be816102c6565b82525050565b6103cd81610249565b82525050565b5f6040820190506103e65f8301856103b5565b6103f360208301846103c4565b939250505056fea2646970667358221220cf3fc39f15e69983cb1a24d576f73418455943e327fb716e4b6ac6143203a45d64736f6c634300081a0033",
					"opcodes": "PUSH1 0x80 PUSH1 0x40 MSTORE CALLVALUE DUP1 ISZERO PUSH1 0xE JUMPI PUSH0 DUP1 REVERT JUMPDEST POP PUSH2 0x430 DUP1 PUSH2 0x1C PUSH0 CODECOPY PUSH0 RETURN INVALID PUSH1 0x80 PUSH1 0x40 MSTORE CALLVALUE DUP1 ISZERO PUSH2 0xF JUMPI PUSH0 DUP1 REVERT JUMPDEST POP PUSH1 0x4 CALLDATASIZE LT PUSH2 0x3F JUMPI PUSH0 CALLDATALOAD PUSH1 0xE0 SHR DUP1 PUSH4 0x1AF9CF49 EQ PUSH2 0x43 JUMPI DUP1 PUSH4 0x7DB3C828 EQ PUSH2 0x73 JUMPI DUP1 PUSH4 0x7F77F574 EQ PUSH2 0x8F JUMPI JUMPDEST PUSH0 DUP1 REVERT JUMPDEST PUSH2 0x5D PUSH1 0x4 DUP1 CALLDATASIZE SUB DUP2 ADD SWAP1 PUSH2 0x58 SWAP2 SWAP1 PUSH2 0x27C JUMP JUMPDEST PUSH2 0xC0 JUMP JUMPDEST PUSH1 0x40 MLOAD PUSH2 0x6A SWAP2 SWAP1 PUSH2 0x322 JUMP JUMPDEST PUSH1 0x40 MLOAD DUP1 SWAP2 SUB SWAP1 RETURN JUMPDEST PUSH2 0x8D PUSH1 0x4 DUP1 CALLDATASIZE SUB DUP2 ADD SWAP1 PUSH2 0x88 SWAP2 SWAP1 PUSH2 0x365 JUMP JUMPDEST PUSH2 0x148 JUMP JUMPDEST STOP JUMPDEST PUSH2 0xA9 PUSH1 0x4 DUP1 CALLDATASIZE SUB DUP2 ADD SWAP1 PUSH2 0xA4 SWAP2 SWAP1 PUSH2 0x27C JUMP JUMPDEST PUSH2 0x1D9 JUMP JUMPDEST PUSH1 0x40 MLOAD PUSH2 0xB7 SWAP3 SWAP2 SWAP1 PUSH2 0x3D3 JUMP JUMPDEST PUSH1 0x40 MLOAD DUP1 SWAP2 SUB SWAP1 RETURN JUMPDEST PUSH2 0xC8 PUSH2 0x217 JUMP JUMPDEST PUSH0 DUP1 DUP4 DUP2 MSTORE PUSH1 0x20 ADD SWAP1 DUP2 MSTORE PUSH1 0x20 ADD PUSH0 KECCAK256 PUSH1 0x40 MLOAD DUP1 PUSH1 0x40 ADD PUSH1 0x40 MSTORE SWAP1 DUP2 PUSH0 DUP3 ADD PUSH0 SWAP1 SLOAD SWAP1 PUSH2 0x100 EXP SWAP1 DIV PUSH20 0xFFFFFFFFFFFFFFFFFFFFFFFFFFFFFFFFFFFFFFFF AND PUSH20 0xFFFFFFFFFFFFFFFFFFFFFFFFFFFFFFFFFFFFFFFF AND PUSH20 0xFFFFFFFFFFFFFFFFFFFFFFFFFFFFFFFFFFFFFFFF AND DUP2 MSTORE PUSH1 0x20 ADD PUSH1 0x1 DUP3 ADD SLOAD DUP2 MSTORE POP POP SWAP1 POP SWAP2 SWAP1 POP JUMP JUMPDEST PUSH1 0x40 MLOAD DUP1 PUSH1 0x40 ADD PUSH1 0x40 MSTORE DUP1 DUP4 PUSH20 0xFFFFFFFFFFFFFFFFFFFFFFFFFFFFFFFFFFFFFFFF AND DUP2 MSTORE PUSH1 0x20 ADD DUP3 DUP2 MSTORE POP PUSH0 DUP1 DUP6 DUP2 MSTORE PUSH1 0x20 ADD SWAP1 DUP2 MSTORE PUSH1 0x20 ADD PUSH0 KECCAK256 PUSH0 DUP3 ADD MLOAD DUP2 PUSH0 ADD PUSH0 PUSH2 0x100 EXP DUP2 SLOAD DUP2 PUSH20 0xFFFFFFFFFFFFFFFFFFFFFFFFFFFFFFFFFFFFFFFF MUL NOT AND SWAP1 DUP4 PUSH20 0xFFFFFFFFFFFFFFFFFFFFFFFFFFFFFFFFFFFFFFFF AND MUL OR SWAP1 SSTORE POP PUSH1 0x20 DUP3 ADD MLOAD DUP2 PUSH1 0x1 ADD SSTORE SWAP1 POP POP POP POP POP JUMP JUMPDEST PUSH0 PUSH1 0x20 MSTORE DUP1 PUSH0 MSTORE PUSH1 0x40 PUSH0 KECCAK256 PUSH0 SWAP2 POP SWAP1 POP DUP1 PUSH0 ADD PUSH0 SWAP1 SLOAD SWAP1 PUSH2 0x100 EXP SWAP1 DIV PUSH20 0xFFFFFFFFFFFFFFFFFFFFFFFFFFFFFFFFFFFFFFFF AND SWAP1 DUP1 PUSH1 0x1 ADD SLOAD SWAP1 POP DUP3 JUMP JUMPDEST PUSH1 0x40 MLOAD DUP1 PUSH1 0x40 ADD PUSH1 0x40 MSTORE DUP1 PUSH0 PUSH20 0xFFFFFFFFFFFFFFFFFFFFFFFFFFFFFFFFFFFFFFFF AND DUP2 MSTORE PUSH1 0x20 ADD PUSH0 DUP2 MSTORE POP SWAP1 JUMP JUMPDEST PUSH0 DUP1 REVERT JUMPDEST PUSH0 DUP2 SWAP1 POP SWAP2 SWAP1 POP JUMP JUMPDEST PUSH2 0x25B DUP2 PUSH2 0x249 JUMP JUMPDEST DUP2 EQ PUSH2 0x265 JUMPI PUSH0 DUP1 REVERT JUMPDEST POP JUMP JUMPDEST PUSH0 DUP2 CALLDATALOAD SWAP1 POP PUSH2 0x276 DUP2 PUSH2 0x252 JUMP JUMPDEST SWAP3 SWAP2 POP POP JUMP JUMPDEST PUSH0 PUSH1 0x20 DUP3 DUP5 SUB SLT ISZERO PUSH2 0x291 JUMPI PUSH2 0x290 PUSH2 0x245 JUMP JUMPDEST JUMPDEST PUSH0 PUSH2 0x29E DUP5 DUP3 DUP6 ADD PUSH2 0x268 JUMP JUMPDEST SWAP2 POP POP SWAP3 SWAP2 POP POP JUMP JUMPDEST PUSH0 PUSH20 0xFFFFFFFFFFFFFFFFFFFFFFFFFFFFFFFFFFFFFFFF DUP3 AND SWAP1 POP SWAP2 SWAP1 POP JUMP JUMPDEST PUSH0 PUSH2 0x2D0 DUP3 PUSH2 0x2A7 JUMP JUMPDEST SWAP1 POP SWAP2 SWAP1 POP JUMP JUMPDEST PUSH2 0x2E0 DUP2 PUSH2 0x2C6 JUMP JUMPDEST DUP3 MSTORE POP POP JUMP JUMPDEST PUSH2 0x2EF DUP2 PUSH2 0x249 JUMP JUMPDEST DUP3 MSTORE POP POP JUMP JUMPDEST PUSH1 0x40 DUP3 ADD PUSH0 DUP3 ADD MLOAD PUSH2 0x309 PUSH0 DUP6 ADD DUP3 PUSH2 0x2D7 JUMP JUMPDEST POP PUSH1 0x20 DUP3 ADD MLOAD PUSH2 0x31C PUSH1 0x20 DUP6 ADD DUP3 PUSH2 0x2E6 JUMP JUMPDEST POP POP POP POP JUMP JUMPDEST PUSH0 PUSH1 0x40 DUP3 ADD SWAP1 POP PUSH2 0x335 PUSH0 DUP4 ADD DUP5 PUSH2 0x2F5 JUMP JUMPDEST SWAP3 SWAP2 POP POP JUMP JUMPDEST PUSH2 0x344 DUP2 PUSH2 0x2C6 JUMP JUMPDEST DUP2 EQ PUSH2 0x34E JUMPI PUSH0 DUP1 REVERT JUMPDEST POP JUMP JUMPDEST PUSH0 DUP2 CALLDATALOAD SWAP1 POP PUSH2 0x35F DUP2 PUSH2 0x33B JUMP JUMPDEST SWAP3 SWAP2 POP POP JUMP JUMPDEST PUSH0 DUP1 PUSH0 PUSH1 0x60 DUP5 DUP7 SUB SLT ISZERO PUSH2 0x37C JUMPI PUSH2 0x37B PUSH2 0x245 JUMP JUMPDEST JUMPDEST PUSH0 PUSH2 0x389 DUP7 DUP3 DUP8 ADD PUSH2 0x268 JUMP JUMPDEST SWAP4 POP POP PUSH1 0x20 PUSH2 0x39A DUP7 DUP3 DUP8 ADD PUSH2 0x351 JUMP JUMPDEST SWAP3 POP POP PUSH1 0x40 PUSH2 0x3AB DUP7 DUP3 DUP8 ADD PUSH2 0x268 JUMP JUMPDEST SWAP2 POP POP SWAP3 POP SWAP3 POP SWAP3 JUMP JUMPDEST PUSH2 0x3BE DUP2 PUSH2 0x2C6 JUMP JUMPDEST DUP3 MSTORE POP POP JUMP JUMPDEST PUSH2 0x3CD DUP2 PUSH2 0x249 JUMP JUMPDEST DUP3 MSTORE POP POP JUMP JUMPDEST PUSH0 PUSH1 0x40 DUP3 ADD SWAP1 POP PUSH2 0x3E6 PUSH0 DUP4 ADD DUP6 PUSH2 0x3B5 JUMP JUMPDEST PUSH2 0x3F3 PUSH1 0x20 DUP4 ADD DUP5 PUSH2 0x3C4 JUMP JUMPDEST SWAP4 SWAP3 POP POP POP JUMP INVALID LOG2 PUSH5 0x6970667358 0x22 SLT KECCAK256 0xCF EXTCODEHASH 0xC3 SWAP16 ISZERO 0xE6 SWAP10 DUP4 0xCB BYTE 0x24 0xD5 PUSH23 0xF73418455943E327FB716E4B6AC6143203A45D64736F6C PUSH4 0x4300081A STOP CALLER "
				},
				"gasEstimates": {
					"creation": {
						"codeDepositCost": "214400",
						"executionCost": "255",
						"totalCost": "214655"
					},
					"external": {
						"getRoyalty(uint256)": "infinite",
						"royalties(uint256)": "infinite",
						"setRoyalty(uint256,address,uint256)": "infinite"
					}
				},
				"methodIdentifiers": {
					"getRoyalty(uint256)": "1af9cf49",
					"royalties(uint256)": "7f77f574",
					"setRoyalty(uint256,address,uint256)": "7db3c828"
				}
			},
			"storageLayout": {
				"storage": [
					{
						"astId": 11,
						"contract": "contracts/RoyaltyManager.sol:RoyaltyManager",
						"label": "royalties",
						"offset": 0,
						"slot": "0",
						"type": "t_mapping(t_uint256,t_struct(Royalty)6_storage)"
					}
				],
				"types": {
					"t_address": {
						"encoding": "inplace",
						"label": "address",
						"numberOfBytes": "20"
					},
					"t_mapping(t_uint256,t_struct(Royalty)6_storage)": {
						"encoding": "mapping",
						"key": "t_uint256",
						"label": "mapping(uint256 => struct RoyaltyManager.Royalty)",
						"numberOfBytes": "32",
						"value": "t_struct(Royalty)6_storage"
					},
					"t_struct(Royalty)6_storage": {
						"encoding": "inplace",
						"label": "struct RoyaltyManager.Royalty",
						"members": [
							{
								"astId": 3,
								"contract": "contracts/RoyaltyManager.sol:RoyaltyManager",
								"label": "recipient",
								"offset": 0,
								"slot": "0",
								"type": "t_address"
							},
							{
								"astId": 5,
								"contract": "contracts/RoyaltyManager.sol:RoyaltyManager",
								"label": "amount",
								"offset": 0,
								"slot": "1",
								"type": "t_uint256"
							}
						],
						"numberOfBytes": "64"
					},
					"t_uint256": {
						"encoding": "inplace",
						"label": "uint256",
						"numberOfBytes": "32"
					}
				}
			},
			"userdoc": {
				"kind": "user",
				"methods": {},
				"version": 1
			}
		}
	}
}