{
	"contracts/NFT.sol": {
		"NFT": {
			"abi": [
				{
					"inputs": [
						{
							"internalType": "address",
							"name": "_marketplaceAddress",
							"type": "address"
						}
					],
					"stateMutability": "nonpayable",
					"type": "constructor"
				},
				{
					"inputs": [
						{
							"internalType": "address",
							"name": "sender",
							"type": "address"
						},
						{
							"internalType": "uint256",
							"name": "tokenId",
							"type": "uint256"
						},
						{
							"internalType": "address",
							"name": "owner",
							"type": "address"
						}
					],
					"name": "ERC721IncorrectOwner",
					"type": "error"
				},
				{
					"inputs": [
						{
							"internalType": "address",
							"name": "operator",
							"type": "address"
						},
						{
							"internalType": "uint256",
							"name": "tokenId",
							"type": "uint256"
						}
					],
					"name": "ERC721InsufficientApproval",
					"type": "error"
				},
				{
					"inputs": [
						{
							"internalType": "address",
							"name": "approver",
							"type": "address"
						}
					],
					"name": "ERC721InvalidApprover",
					"type": "error"
				},
				{
					"inputs": [
						{
							"internalType": "address",
							"name": "operator",
							"type": "address"
						}
					],
					"name": "ERC721InvalidOperator",
					"type": "error"
				},
				{
					"inputs": [
						{
							"internalType": "address",
							"name": "owner",
							"type": "address"
						}
					],
					"name": "ERC721InvalidOwner",
					"type": "error"
				},
				{
					"inputs": [
						{
							"internalType": "address",
							"name": "receiver",
							"type": "address"
						}
					],
					"name": "ERC721InvalidReceiver",
					"type": "error"
				},
				{
					"inputs": [
						{
							"internalType": "address",
							"name": "sender",
							"type": "address"
						}
					],
					"name": "ERC721InvalidSender",
					"type": "error"
				},
				{
					"inputs": [
						{
							"internalType": "uint256",
							"name": "tokenId",
							"type": "uint256"
						}
					],
					"name": "ERC721NonexistentToken",
					"type": "error"
				},
				{
					"anonymous": false,
					"inputs": [
						{
							"indexed": true,
							"internalType": "address",
							"name": "owner",
							"type": "address"
						},
						{
							"indexed": true,
							"internalType": "address",
							"name": "approved",
							"type": "address"
						},
						{
							"indexed": true,
							"internalType": "uint256",
							"name": "tokenId",
							"type": "uint256"
						}
					],
					"name": "Approval",
					"type": "event"
				},
				{
					"anonymous": false,
					"inputs": [
						{
							"indexed": true,
							"internalType": "address",
							"name": "owner",
							"type": "address"
						},
						{
							"indexed": true,
							"internalType": "address",
							"name": "operator",
							"type": "address"
						},
						{
							"indexed": false,
							"internalType": "bool",
							"name": "approved",
							"type": "bool"
						}
					],
					"name": "ApprovalForAll",
					"type": "event"
				},
				{
					"anonymous": false,
					"inputs": [
						{
							"indexed": false,
							"internalType": "uint256",
							"name": "_fromTokenId",
							"type": "uint256"
						},
						{
							"indexed": false,
							"internalType": "uint256",
							"name": "_toTokenId",
							"type": "uint256"
						}
					],
					"name": "BatchMetadataUpdate",
					"type": "event"
				},
				{
					"anonymous": false,
					"inputs": [
						{
							"indexed": false,
							"internalType": "uint256",
							"name": "_tokenId",
							"type": "uint256"
						}
					],
					"name": "MetadataUpdate",
					"type": "event"
				},
				{
					"anonymous": false,
					"inputs": [
						{
							"indexed": true,
							"internalType": "uint256",
							"name": "tokenId",
							"type": "uint256"
						},
						{
							"indexed": false,
							"internalType": "string",
							"name": "tokenURI",
							"type": "string"
						},
						{
							"indexed": false,
							"internalType": "address",
							"name": "marketplaceAddress",
							"type": "address"
						}
					],
					"name": "TokenMinted",
					"type": "event"
				},
				{
					"anonymous": false,
					"inputs": [
						{
							"indexed": true,
							"internalType": "address",
							"name": "from",
							"type": "address"
						},
						{
							"indexed": true,
							"internalType": "address",
							"name": "to",
							"type": "address"
						},
						{
							"indexed": true,
							"internalType": "uint256",
							"name": "tokenId",
							"type": "uint256"
						}
					],
					"name": "Transfer",
					"type": "event"
				},
				{
					"inputs": [
						{
							"internalType": "address",
							"name": "to",
							"type": "address"
						},
						{
							"internalType": "uint256",
							"name": "tokenId",
							"type": "uint256"
						}
					],
					"name": "approve",
					"outputs": [],
					"stateMutability": "nonpayable",
					"type": "function"
				},
				{
					"inputs": [
						{
							"internalType": "address",
							"name": "owner",
							"type": "address"
						}
					],
					"name": "balanceOf",
					"outputs": [
						{
							"internalType": "uint256",
							"name": "",
							"type": "uint256"
						}
					],
					"stateMutability": "view",
					"type": "function"
				},
				{
					"inputs": [
						{
							"internalType": "uint256",
							"name": "tokenId",
							"type": "uint256"
						}
					],
					"name": "getApproved",
					"outputs": [
						{
							"internalType": "address",
							"name": "",
							"type": "address"
						}
					],
					"stateMutability": "view",
					"type": "function"
				},
				{
					"inputs": [
						{
							"internalType": "uint256",
							"name": "tokenId",
							"type": "uint256"
						}
					],
					"name": "getTokenCreatorById",
					"outputs": [
						{
							"internalType": "address",
							"name": "",
							"type": "address"
						}
					],
					"stateMutability": "view",
					"type": "function"
				},
				{
					"inputs": [],
					"name": "getTokensCreatedByMe",
					"outputs": [
						{
							"internalType": "uint256[]",
							"name": "",
							"type": "uint256[]"
						}
					],
					"stateMutability": "view",
					"type": "function"
				},
				{
					"inputs": [],
					"name": "getTokensOwnedByMe",
					"outputs": [
						{
							"internalType": "uint256[]",
							"name": "",
							"type": "uint256[]"
						}
					],
					"stateMutability": "view",
					"type": "function"
				},
				{
					"inputs": [
						{
							"internalType": "address",
							"name": "owner",
							"type": "address"
						},
						{
							"internalType": "address",
							"name": "operator",
							"type": "address"
						}
					],
					"name": "isApprovedForAll",
					"outputs": [
						{
							"internalType": "bool",
							"name": "",
							"type": "bool"
						}
					],
					"stateMutability": "view",
					"type": "function"
				},
				{
					"inputs": [
						{
							"internalType": "string",
							"name": "tokenURI",
							"type": "string"
						}
					],
					"name": "mintToken",
					"outputs": [
						{
							"internalType": "uint256",
							"name": "",
							"type": "uint256"
						}
					],
					"stateMutability": "nonpayable",
					"type": "function"
				},
				{
					"inputs": [],
					"name": "name",
					"outputs": [
						{
							"internalType": "string",
							"name": "",
							"type": "string"
						}
					],
					"stateMutability": "view",
					"type": "function"
				},
				{
					"inputs": [
						{
							"internalType": "uint256",
							"name": "tokenId",
							"type": "uint256"
						}
					],
					"name": "ownerOf",
					"outputs": [
						{
							"internalType": "address",
							"name": "",
							"type": "address"
						}
					],
					"stateMutability": "view",
					"type": "function"
				},
				{
					"inputs": [
						{
							"internalType": "address",
							"name": "from",
							"type": "address"
						},
						{
							"internalType": "address",
							"name": "to",
							"type": "address"
						},
						{
							"internalType": "uint256",
							"name": "tokenId",
							"type": "uint256"
						}
					],
					"name": "safeTransferFrom",
					"outputs": [],
					"stateMutability": "nonpayable",
					"type": "function"
				},
				{
					"inputs": [
						{
							"internalType": "address",
							"name": "from",
							"type": "address"
						},
						{
							"internalType": "address",
							"name": "to",
							"type": "address"
						},
						{
							"internalType": "uint256",
							"name": "tokenId",
							"type": "uint256"
						},
						{
							"internalType": "bytes",
							"name": "data",
							"type": "bytes"
						}
					],
					"name": "safeTransferFrom",
					"outputs": [],
					"stateMutability": "nonpayable",
					"type": "function"
				},
				{
					"inputs": [
						{
							"internalType": "address",
							"name": "operator",
							"type": "address"
						},
						{
							"internalType": "bool",
							"name": "approved",
							"type": "bool"
						}
					],
					"name": "setApprovalForAll",
					"outputs": [],
					"stateMutability": "nonpayable",
					"type": "function"
				},
				{
					"inputs": [
						{
							"internalType": "bytes4",
							"name": "interfaceId",
							"type": "bytes4"
						}
					],
					"name": "supportsInterface",
					"outputs": [
						{
							"internalType": "bool",
							"name": "",
							"type": "bool"
						}
					],
					"stateMutability": "view",
					"type": "function"
				},
				{
					"inputs": [],
					"name": "symbol",
					"outputs": [
						{
							"internalType": "string",
							"name": "",
							"type": "string"
						}
					],
					"stateMutability": "view",
					"type": "function"
				},
				{
					"inputs": [
						{
							"internalType": "uint256",
							"name": "tokenId",
							"type": "uint256"
						}
					],
					"name": "tokenURI",
					"outputs": [
						{
							"internalType": "string",
							"name": "",
							"type": "string"
						}
					],
					"stateMutability": "view",
					"type": "function"
				},
				{
					"inputs": [
						{
							"internalType": "address",
							"name": "from",
							"type": "address"
						},
						{
							"internalType": "address",
							"name": "to",
							"type": "address"
						},
						{
							"internalType": "uint256",
							"name": "tokenId",
							"type": "uint256"
						}
					],
					"name": "transferFrom",
					"outputs": [],
					"stateMutability": "nonpayable",
					"type": "function"
				}
			],
			"devdoc": {
				"errors": {
					"ERC721IncorrectOwner(address,uint256,address)": [
						{
							"details": "Indicates an error related to the ownership over a particular token. Used in transfers.",
							"params": {
								"owner": "Address of the current owner of a token.",
								"sender": "Address whose tokens are being transferred.",
								"tokenId": "Identifier number of a token."
							}
						}
					],
					"ERC721InsufficientApproval(address,uint256)": [
						{
							"details": "Indicates a failure with the `operator`’s approval. Used in transfers.",
							"params": {
								"operator": "Address that may be allowed to operate on tokens without being their owner.",
								"tokenId": "Identifier number of a token."
							}
						}
					],
					"ERC721InvalidApprover(address)": [
						{
							"details": "Indicates a failure with the `approver` of a token to be approved. Used in approvals.",
							"params": {
								"approver": "Address initiating an approval operation."
							}
						}
					],
					"ERC721InvalidOperator(address)": [
						{
							"details": "Indicates a failure with the `operator` to be approved. Used in approvals.",
							"params": {
								"operator": "Address that may be allowed to operate on tokens without being their owner."
							}
						}
					],
					"ERC721InvalidOwner(address)": [
						{
							"details": "Indicates that an address can't be an owner. For example, `address(0)` is a forbidden owner in EIP-20. Used in balance queries.",
							"params": {
								"owner": "Address of the current owner of a token."
							}
						}
					],
					"ERC721InvalidReceiver(address)": [
						{
							"details": "Indicates a failure with the token `receiver`. Used in transfers.",
							"params": {
								"receiver": "Address to which tokens are being transferred."
							}
						}
					],
					"ERC721InvalidSender(address)": [
						{
							"details": "Indicates a failure with the token `sender`. Used in transfers.",
							"params": {
								"sender": "Address whose tokens are being transferred."
							}
						}
					],
					"ERC721NonexistentToken(uint256)": [
						{
							"details": "Indicates a `tokenId` whose `owner` is the zero address.",
							"params": {
								"tokenId": "Identifier number of a token."
							}
						}
					]
				},
				"events": {
					"Approval(address,address,uint256)": {
						"details": "Emitted when `owner` enables `approved` to manage the `tokenId` token."
					},
					"ApprovalForAll(address,address,bool)": {
						"details": "Emitted when `owner` enables or disables (`approved`) `operator` to manage all of its assets."
					},
					"BatchMetadataUpdate(uint256,uint256)": {
						"details": "This event emits when the metadata of a range of tokens is changed. So that the third-party platforms such as NFT market could timely update the images and related attributes of the NFTs."
					},
					"MetadataUpdate(uint256)": {
						"details": "This event emits when the metadata of a token is changed. So that the third-party platforms such as NFT market could timely update the images and related attributes of the NFT."
					},
					"Transfer(address,address,uint256)": {
						"details": "Emitted when `tokenId` token is transferred from `from` to `to`."
					}
				},
				"kind": "dev",
				"methods": {
					"approve(address,uint256)": {
						"details": "See {IERC721-approve}."
					},
					"balanceOf(address)": {
						"details": "See {IERC721-balanceOf}."
					},
					"getApproved(uint256)": {
						"details": "See {IERC721-getApproved}."
					},
					"isApprovedForAll(address,address)": {
						"details": "See {IERC721-isApprovedForAll}."
					},
					"name()": {
						"details": "See {IERC721Metadata-name}."
					},
					"ownerOf(uint256)": {
						"details": "See {IERC721-ownerOf}."
					},
					"safeTransferFrom(address,address,uint256)": {
						"details": "See {IERC721-safeTransferFrom}."
					},
					"safeTransferFrom(address,address,uint256,bytes)": {
						"details": "See {IERC721-safeTransferFrom}."
					},
					"setApprovalForAll(address,bool)": {
						"details": "See {IERC721-setApprovalForAll}."
					},
					"supportsInterface(bytes4)": {
						"details": "See {IERC165-supportsInterface}"
					},
					"symbol()": {
						"details": "See {IERC721Metadata-symbol}."
					},
					"tokenURI(uint256)": {
						"details": "See {IERC721Metadata-tokenURI}."
					},
					"transferFrom(address,address,uint256)": {
						"details": "See {IERC721-transferFrom}."
					}
				},
				"version": 1
			},
			"evm": {
				"assembly": "    /* \"contracts/NFT.sol\":345:2876  contract NFT is ERC721URIStorage {... */\n  mstore(0x40, 0x80)\n    /* \"contracts/NFT.sol\":661:787  constructor(address _marketplaceAddress) ERC721(\"MarkKop\", \"MARK\") {... */\n  callvalue\n  dup1\n  iszero\n  tag_1\n  jumpi\n  0x00\n  dup1\n  revert\ntag_1:\n  pop\n  mload(0x40)\n  sub(codesize, bytecodeSize)\n  dup1\n  bytecodeSize\n  dup4\n  codecopy\n  dup2\n  dup2\n  add\n  0x40\n  mstore\n  dup2\n  add\n  swap1\n  tag_2\n  swap2\n  swap1\n  tag_3\n  jump\t// in\ntag_2:\n    /* \"@openzeppelin/contracts/token/ERC721/ERC721.sol\":1381:1494  constructor(string memory name_, string memory symbol_) {... */\n  mload(0x40)\n  dup1\n  0x40\n  add\n  0x40\n  mstore\n  dup1\n  0x07\n  dup2\n  mstore\n  0x20\n  add\n  0x4d61726b4b6f7000000000000000000000000000000000000000000000000000\n  dup2\n  mstore\n  pop\n  mload(0x40)\n  dup1\n  0x40\n  add\n  0x40\n  mstore\n  dup1\n  0x04\n  dup2\n  mstore\n  0x20\n  add\n  0x4d41524b00000000000000000000000000000000000000000000000000000000\n  dup2\n  mstore\n  pop\n    /* \"@openzeppelin/contracts/token/ERC721/ERC721.sol\":1455:1460  name_ */\n  dup2\n    /* \"@openzeppelin/contracts/token/ERC721/ERC721.sol\":1447:1452  _name */\n  0x00\n    /* \"@openzeppelin/contracts/token/ERC721/ERC721.sol\":1447:1460  _name = name_ */\n  swap1\n  dup2\n  tag_7\n  swap2\n  swap1\n  tag_8\n  jump\t// in\ntag_7:\n  pop\n    /* \"@openzeppelin/contracts/token/ERC721/ERC721.sol\":1480:1487  symbol_ */\n  dup1\n    /* \"@openzeppelin/contracts/token/ERC721/ERC721.sol\":1470:1477  _symbol */\n  0x01\n    /* \"@openzeppelin/contracts/token/ERC721/ERC721.sol\":1470:1487  _symbol = symbol_ */\n  swap1\n  dup2\n  tag_9\n  swap2\n  swap1\n  tag_8\n  jump\t// in\ntag_9:\n  pop\n    /* \"@openzeppelin/contracts/token/ERC721/ERC721.sol\":1381:1494  constructor(string memory name_, string memory symbol_) {... */\n  pop\n  pop\n    /* \"contracts/NFT.sol\":760:779  _marketplaceAddress */\n  dup1\n    /* \"contracts/NFT.sol\":739:757  marketplaceAddress */\n  0x08\n  0x00\n    /* \"contracts/NFT.sol\":739:779  marketplaceAddress = _marketplaceAddress */\n  0x0100\n  exp\n  dup2\n  sload\n  dup2\n  0xffffffffffffffffffffffffffffffffffffffff\n  mul\n  not\n  and\n  swap1\n  dup4\n  0xffffffffffffffffffffffffffffffffffffffff\n  and\n  mul\n  or\n  swap1\n  sstore\n  pop\n    /* \"contracts/NFT.sol\":661:787  constructor(address _marketplaceAddress) ERC721(\"MarkKop\", \"MARK\") {... */\n  pop\n    /* \"contracts/NFT.sol\":345:2876  contract NFT is ERC721URIStorage {... */\n  jump(tag_11)\n    /* \"#utility.yul\":88:205   */\ntag_13:\n    /* \"#utility.yul\":197:198   */\n  0x00\n    /* \"#utility.yul\":194:195   */\n  dup1\n    /* \"#utility.yul\":187:199   */\n  revert\n    /* \"#utility.yul\":334:460   */\ntag_15:\n    /* \"#utility.yul\":371:378   */\n  0x00\n    /* \"#utility.yul\":411:453   */\n  0xffffffffffffffffffffffffffffffffffffffff\n    /* \"#utility.yul\":404:409   */\n  dup3\n    /* \"#utility.yul\":400:454   */\n  and\n    /* \"#utility.yul\":389:454   */\n  swap1\n  pop\n    /* \"#utility.yul\":334:460   */\n  swap2\n  swap1\n  pop\n  jump\t// out\n    /* \"#utility.yul\":466:562   */\ntag_16:\n    /* \"#utility.yul\":503:510   */\n  0x00\n    /* \"#utility.yul\":532:556   */\n  tag_45\n    /* \"#utility.yul\":550:555   */\n  dup3\n    /* \"#utility.yul\":532:556   */\n  tag_15\n  jump\t// in\ntag_45:\n    /* \"#utility.yul\":521:556   */\n  swap1\n  pop\n    /* \"#utility.yul\":466:562   */\n  swap2\n  swap1\n  pop\n  jump\t// out\n    /* \"#utility.yul\":568:690   */\ntag_17:\n    /* \"#utility.yul\":641:665   */\n  tag_47\n    /* \"#utility.yul\":659:664   */\n  dup2\n    /* \"#utility.yul\":641:665   */\n  tag_16\n  jump\t// in\ntag_47:\n    /* \"#utility.yul\":634:639   */\n  dup2\n    /* \"#utility.yul\":631:666   */\n  eq\n    /* \"#utility.yul\":621:684   */\n  tag_48\n  jumpi\n    /* \"#utility.yul\":680:681   */\n  0x00\n    /* \"#utility.yul\":677:678   */\n  dup1\n    /* \"#utility.yul\":670:682   */\n  revert\n    /* \"#utility.yul\":621:684   */\ntag_48:\n    /* \"#utility.yul\":568:690   */\n  pop\n  jump\t// out\n    /* \"#utility.yul\":696:839   */\ntag_18:\n    /* \"#utility.yul\":753:758   */\n  0x00\n    /* \"#utility.yul\":784:790   */\n  dup2\n    /* \"#utility.yul\":778:791   */\n  mload\n    /* \"#utility.yul\":769:791   */\n  swap1\n  pop\n    /* \"#utility.yul\":800:833   */\n  tag_50\n    /* \"#utility.yul\":827:832   */\n  dup2\n    /* \"#utility.yul\":800:833   */\n  tag_17\n  jump\t// in\ntag_50:\n    /* \"#utility.yul\":696:839   */\n  swap3\n  swap2\n  pop\n  pop\n  jump\t// out\n    /* \"#utility.yul\":845:1196   */\ntag_3:\n    /* \"#utility.yul\":915:921   */\n  0x00\n    /* \"#utility.yul\":964:966   */\n  0x20\n    /* \"#utility.yul\":952:961   */\n  dup3\n    /* \"#utility.yul\":943:950   */\n  dup5\n    /* \"#utility.yul\":939:962   */\n  sub\n    /* \"#utility.yul\":935:967   */\n  slt\n    /* \"#utility.yul\":932:1051   */\n  iszero\n  tag_52\n  jumpi\n    /* \"#utility.yul\":970:1049   */\n  tag_53\n  tag_13\n  jump\t// in\ntag_53:\n    /* \"#utility.yul\":932:1051   */\ntag_52:\n    /* \"#utility.yul\":1090:1091   */\n  0x00\n    /* \"#utility.yul\":1115:1179   */\n  tag_54\n    /* \"#utility.yul\":1171:1178   */\n  dup5\n    /* \"#utility.yul\":1162:1168   */\n  dup3\n    /* \"#utility.yul\":1151:1160   */\n  dup6\n    /* \"#utility.yul\":1147:1169   */\n  add\n    /* \"#utility.yul\":1115:1179   */\n  tag_18\n  jump\t// in\ntag_54:\n    /* \"#utility.yul\":1105:1179   */\n  swap2\n  pop\n    /* \"#utility.yul\":1061:1189   */\n  pop\n    /* \"#utility.yul\":845:1196   */\n  swap3\n  swap2\n  pop\n  pop\n  jump\t// out\n    /* \"#utility.yul\":1202:1301   */\ntag_19:\n    /* \"#utility.yul\":1254:1260   */\n  0x00\n    /* \"#utility.yul\":1288:1293   */\n  dup2\n    /* \"#utility.yul\":1282:1294   */\n  mload\n    /* \"#utility.yul\":1272:1294   */\n  swap1\n  pop\n    /* \"#utility.yul\":1202:1301   */\n  swap2\n  swap1\n  pop\n  jump\t// out\n    /* \"#utility.yul\":1307:1487   */\ntag_20:\n    /* \"#utility.yul\":1355:1432   */\n  0x4e487b7100000000000000000000000000000000000000000000000000000000\n    /* \"#utility.yul\":1352:1353   */\n  0x00\n    /* \"#utility.yul\":1345:1433   */\n  mstore\n    /* \"#utility.yul\":1452:1456   */\n  0x41\n    /* \"#utility.yul\":1449:1450   */\n  0x04\n    /* \"#utility.yul\":1442:1457   */\n  mstore\n    /* \"#utility.yul\":1476:1480   */\n  0x24\n    /* \"#utility.yul\":1473:1474   */\n  0x00\n    /* \"#utility.yul\":1466:1481   */\n  revert\n    /* \"#utility.yul\":1493:1673   */\ntag_21:\n    /* \"#utility.yul\":1541:1618   */\n  0x4e487b7100000000000000000000000000000000000000000000000000000000\n    /* \"#utility.yul\":1538:1539   */\n  0x00\n    /* \"#utility.yul\":1531:1619   */\n  mstore\n    /* \"#utility.yul\":1638:1642   */\n  0x22\n    /* \"#utility.yul\":1635:1636   */\n  0x04\n    /* \"#utility.yul\":1628:1643   */\n  mstore\n    /* \"#utility.yul\":1662:1666   */\n  0x24\n    /* \"#utility.yul\":1659:1660   */\n  0x00\n    /* \"#utility.yul\":1652:1667   */\n  revert\n    /* \"#utility.yul\":1679:1999   */\ntag_22:\n    /* \"#utility.yul\":1723:1729   */\n  0x00\n    /* \"#utility.yul\":1760:1761   */\n  0x02\n    /* \"#utility.yul\":1754:1758   */\n  dup3\n    /* \"#utility.yul\":1750:1762   */\n  div\n    /* \"#utility.yul\":1740:1762   */\n  swap1\n  pop\n    /* \"#utility.yul\":1807:1808   */\n  0x01\n    /* \"#utility.yul\":1801:1805   */\n  dup3\n    /* \"#utility.yul\":1797:1809   */\n  and\n    /* \"#utility.yul\":1828:1846   */\n  dup1\n    /* \"#utility.yul\":1818:1899   */\n  tag_59\n  jumpi\n    /* \"#utility.yul\":1884:1888   */\n  0x7f\n    /* \"#utility.yul\":1876:1882   */\n  dup3\n    /* \"#utility.yul\":1872:1889   */\n  and\n    /* \"#utility.yul\":1862:1889   */\n  swap2\n  pop\n    /* \"#utility.yul\":1818:1899   */\ntag_59:\n    /* \"#utility.yul\":1946:1948   */\n  0x20\n    /* \"#utility.yul\":1938:1944   */\n  dup3\n    /* \"#utility.yul\":1935:1949   */\n  lt\n    /* \"#utility.yul\":1915:1933   */\n  dup2\n    /* \"#utility.yul\":1912:1950   */\n  sub\n    /* \"#utility.yul\":1909:1993   */\n  tag_60\n  jumpi\n    /* \"#utility.yul\":1965:1983   */\n  tag_61\n  tag_21\n  jump\t// in\ntag_61:\n    /* \"#utility.yul\":1909:1993   */\ntag_60:\n    /* \"#utility.yul\":1730:1999   */\n  pop\n    /* \"#utility.yul\":1679:1999   */\n  swap2\n  swap1\n  pop\n  jump\t// out\n    /* \"#utility.yul\":2005:2146   */\ntag_23:\n    /* \"#utility.yul\":2054:2058   */\n  0x00\n    /* \"#utility.yul\":2077:2080   */\n  dup2\n    /* \"#utility.yul\":2069:2080   */\n  swap1\n  pop\n    /* \"#utility.yul\":2100:2103   */\n  dup2\n    /* \"#utility.yul\":2097:2098   */\n  0x00\n    /* \"#utility.yul\":2090:2104   */\n  mstore\n    /* \"#utility.yul\":2134:2138   */\n  0x20\n    /* \"#utility.yul\":2131:2132   */\n  0x00\n    /* \"#utility.yul\":2121:2139   */\n  keccak256\n    /* \"#utility.yul\":2113:2139   */\n  swap1\n  pop\n    /* \"#utility.yul\":2005:2146   */\n  swap2\n  swap1\n  pop\n  jump\t// out\n    /* \"#utility.yul\":2152:2245   */\ntag_24:\n    /* \"#utility.yul\":2189:2195   */\n  0x00\n    /* \"#utility.yul\":2236:2238   */\n  0x20\n    /* \"#utility.yul\":2231:2233   */\n  0x1f\n    /* \"#utility.yul\":2224:2229   */\n  dup4\n    /* \"#utility.yul\":2220:2234   */\n  add\n    /* \"#utility.yul\":2216:2239   */\n  div\n    /* \"#utility.yul\":2206:2239   */\n  swap1\n  pop\n    /* \"#utility.yul\":2152:2245   */\n  swap2\n  swap1\n  pop\n  jump\t// out\n    /* \"#utility.yul\":2251:2358   */\ntag_25:\n    /* \"#utility.yul\":2295:2303   */\n  0x00\n    /* \"#utility.yul\":2345:2350   */\n  dup3\n    /* \"#utility.yul\":2339:2343   */\n  dup3\n    /* \"#utility.yul\":2335:2351   */\n  shl\n    /* \"#utility.yul\":2314:2351   */\n  swap1\n  pop\n    /* \"#utility.yul\":2251:2358   */\n  swap3\n  swap2\n  pop\n  pop\n  jump\t// out\n    /* \"#utility.yul\":2364:2757   */\ntag_26:\n    /* \"#utility.yul\":2433:2439   */\n  0x00\n    /* \"#utility.yul\":2483:2484   */\n  0x08\n    /* \"#utility.yul\":2471:2481   */\n  dup4\n    /* \"#utility.yul\":2467:2485   */\n  mul\n    /* \"#utility.yul\":2506:2603   */\n  tag_66\n    /* \"#utility.yul\":2536:2602   */\n  0xffffffffffffffffffffffffffffffffffffffffffffffffffffffffffffffff\n    /* \"#utility.yul\":2525:2534   */\n  dup3\n    /* \"#utility.yul\":2506:2603   */\n  tag_25\n  jump\t// in\ntag_66:\n    /* \"#utility.yul\":2624:2663   */\n  tag_67\n    /* \"#utility.yul\":2654:2662   */\n  dup7\n    /* \"#utility.yul\":2643:2652   */\n  dup4\n    /* \"#utility.yul\":2624:2663   */\n  tag_25\n  jump\t// in\ntag_67:\n    /* \"#utility.yul\":2612:2663   */\n  swap6\n  pop\n    /* \"#utility.yul\":2696:2700   */\n  dup1\n    /* \"#utility.yul\":2692:2701   */\n  not\n    /* \"#utility.yul\":2685:2690   */\n  dup5\n    /* \"#utility.yul\":2681:2702   */\n  and\n    /* \"#utility.yul\":2672:2702   */\n  swap4\n  pop\n    /* \"#utility.yul\":2745:2749   */\n  dup1\n    /* \"#utility.yul\":2735:2743   */\n  dup7\n    /* \"#utility.yul\":2731:2750   */\n  and\n    /* \"#utility.yul\":2724:2729   */\n  dup5\n    /* \"#utility.yul\":2721:2751   */\n  or\n    /* \"#utility.yul\":2711:2751   */\n  swap3\n  pop\n    /* \"#utility.yul\":2440:2757   */\n  pop\n  pop\n    /* \"#utility.yul\":2364:2757   */\n  swap4\n  swap3\n  pop\n  pop\n  pop\n  jump\t// out\n    /* \"#utility.yul\":2763:2840   */\ntag_27:\n    /* \"#utility.yul\":2800:2807   */\n  0x00\n    /* \"#utility.yul\":2829:2834   */\n  dup2\n    /* \"#utility.yul\":2818:2834   */\n  swap1\n  pop\n    /* \"#utility.yul\":2763:2840   */\n  swap2\n  swap1\n  pop\n  jump\t// out\n    /* \"#utility.yul\":2846:2906   */\ntag_28:\n    /* \"#utility.yul\":2874:2877   */\n  0x00\n    /* \"#utility.yul\":2895:2900   */\n  dup2\n    /* \"#utility.yul\":2888:2900   */\n  swap1\n  pop\n    /* \"#utility.yul\":2846:2906   */\n  swap2\n  swap1\n  pop\n  jump\t// out\n    /* \"#utility.yul\":2912:3054   */\ntag_29:\n    /* \"#utility.yul\":2962:2971   */\n  0x00\n    /* \"#utility.yul\":2995:3048   */\n  tag_71\n    /* \"#utility.yul\":3013:3047   */\n  tag_72\n    /* \"#utility.yul\":3022:3046   */\n  tag_73\n    /* \"#utility.yul\":3040:3045   */\n  dup5\n    /* \"#utility.yul\":3022:3046   */\n  tag_27\n  jump\t// in\ntag_73:\n    /* \"#utility.yul\":3013:3047   */\n  tag_28\n  jump\t// in\ntag_72:\n    /* \"#utility.yul\":2995:3048   */\n  tag_27\n  jump\t// in\ntag_71:\n    /* \"#utility.yul\":2982:3048   */\n  swap1\n  pop\n    /* \"#utility.yul\":2912:3054   */\n  swap2\n  swap1\n  pop\n  jump\t// out\n    /* \"#utility.yul\":3060:3135   */\ntag_30:\n    /* \"#utility.yul\":3103:3106   */\n  0x00\n    /* \"#utility.yul\":3124:3129   */\n  dup2\n    /* \"#utility.yul\":3117:3129   */\n  swap1\n  pop\n    /* \"#utility.yul\":3060:3135   */\n  swap2\n  swap1\n  pop\n  jump\t// out\n    /* \"#utility.yul\":3141:3410   */\ntag_31:\n    /* \"#utility.yul\":3251:3290   */\n  tag_76\n    /* \"#utility.yul\":3282:3289   */\n  dup4\n    /* \"#utility.yul\":3251:3290   */\n  tag_29\n  jump\t// in\ntag_76:\n    /* \"#utility.yul\":3312:3403   */\n  tag_77\n    /* \"#utility.yul\":3361:3402   */\n  tag_78\n    /* \"#utility.yul\":3385:3401   */\n  dup3\n    /* \"#utility.yul\":3361:3402   */\n  tag_30\n  jump\t// in\ntag_78:\n    /* \"#utility.yul\":3353:3359   */\n  dup5\n    /* \"#utility.yul\":3346:3350   */\n  dup5\n    /* \"#utility.yul\":3340:3351   */\n  sload\n    /* \"#utility.yul\":3312:3403   */\n  tag_26\n  jump\t// in\ntag_77:\n    /* \"#utility.yul\":3306:3310   */\n  dup3\n    /* \"#utility.yul\":3299:3404   */\n  sstore\n    /* \"#utility.yul\":3217:3410   */\n  pop\n    /* \"#utility.yul\":3141:3410   */\n  pop\n  pop\n  pop\n  jump\t// out\n    /* \"#utility.yul\":3416:3489   */\ntag_32:\n    /* \"#utility.yul\":3461:3464   */\n  0x00\n    /* \"#utility.yul\":3416:3489   */\n  swap1\n  jump\t// out\n    /* \"#utility.yul\":3495:3684   */\ntag_33:\n    /* \"#utility.yul\":3572:3604   */\n  tag_81\n  tag_32\n  jump\t// in\ntag_81:\n    /* \"#utility.yul\":3613:3678   */\n  tag_82\n    /* \"#utility.yul\":3671:3677   */\n  dup2\n    /* \"#utility.yul\":3663:3669   */\n  dup5\n    /* \"#utility.yul\":3657:3661   */\n  dup5\n    /* \"#utility.yul\":3613:3678   */\n  tag_31\n  jump\t// in\ntag_82:\n    /* \"#utility.yul\":3548:3684   */\n  pop\n    /* \"#utility.yul\":3495:3684   */\n  pop\n  pop\n  jump\t// out\n    /* \"#utility.yul\":3690:3876   */\ntag_34:\n    /* \"#utility.yul\":3750:3870   */\ntag_84:\n    /* \"#utility.yul\":3767:3770   */\n  dup2\n    /* \"#utility.yul\":3760:3765   */\n  dup2\n    /* \"#utility.yul\":3757:3771   */\n  lt\n    /* \"#utility.yul\":3750:3870   */\n  iszero\n  tag_86\n  jumpi\n    /* \"#utility.yul\":3821:3860   */\n  tag_87\n    /* \"#utility.yul\":3858:3859   */\n  0x00\n    /* \"#utility.yul\":3851:3856   */\n  dup3\n    /* \"#utility.yul\":3821:3860   */\n  tag_33\n  jump\t// in\ntag_87:\n    /* \"#utility.yul\":3794:3795   */\n  0x01\n    /* \"#utility.yul\":3787:3792   */\n  dup2\n    /* \"#utility.yul\":3783:3796   */\n  add\n    /* \"#utility.yul\":3774:3796   */\n  swap1\n  pop\n    /* \"#utility.yul\":3750:3870   */\n  jump(tag_84)\ntag_86:\n    /* \"#utility.yul\":3690:3876   */\n  pop\n  pop\n  jump\t// out\n    /* \"#utility.yul\":3882:4425   */\ntag_35:\n    /* \"#utility.yul\":3983:3985   */\n  0x1f\n    /* \"#utility.yul\":3978:3981   */\n  dup3\n    /* \"#utility.yul\":3975:3986   */\n  gt\n    /* \"#utility.yul\":3972:4418   */\n  iszero\n  tag_89\n  jumpi\n    /* \"#utility.yul\":4017:4055   */\n  tag_90\n    /* \"#utility.yul\":4049:4054   */\n  dup2\n    /* \"#utility.yul\":4017:4055   */\n  tag_23\n  jump\t// in\ntag_90:\n    /* \"#utility.yul\":4101:4130   */\n  tag_91\n    /* \"#utility.yul\":4119:4129   */\n  dup5\n    /* \"#utility.yul\":4101:4130   */\n  tag_24\n  jump\t// in\ntag_91:\n    /* \"#utility.yul\":4091:4099   */\n  dup2\n    /* \"#utility.yul\":4087:4131   */\n  add\n    /* \"#utility.yul\":4284:4286   */\n  0x20\n    /* \"#utility.yul\":4272:4282   */\n  dup6\n    /* \"#utility.yul\":4269:4287   */\n  lt\n    /* \"#utility.yul\":4266:4315   */\n  iszero\n  tag_92\n  jumpi\n    /* \"#utility.yul\":4305:4313   */\n  dup2\n    /* \"#utility.yul\":4290:4313   */\n  swap1\n  pop\n    /* \"#utility.yul\":4266:4315   */\ntag_92:\n    /* \"#utility.yul\":4328:4408   */\n  tag_93\n    /* \"#utility.yul\":4384:4406   */\n  tag_94\n    /* \"#utility.yul\":4402:4405   */\n  dup6\n    /* \"#utility.yul\":4384:4406   */\n  tag_24\n  jump\t// in\ntag_94:\n    /* \"#utility.yul\":4374:4382   */\n  dup4\n    /* \"#utility.yul\":4370:4407   */\n  add\n    /* \"#utility.yul\":4357:4368   */\n  dup3\n    /* \"#utility.yul\":4328:4408   */\n  tag_34\n  jump\t// in\ntag_93:\n    /* \"#utility.yul\":3987:4418   */\n  pop\n  pop\n    /* \"#utility.yul\":3972:4418   */\ntag_89:\n    /* \"#utility.yul\":3882:4425   */\n  pop\n  pop\n  pop\n  jump\t// out\n    /* \"#utility.yul\":4431:4548   */\ntag_36:\n    /* \"#utility.yul\":4485:4493   */\n  0x00\n    /* \"#utility.yul\":4535:4540   */\n  dup3\n    /* \"#utility.yul\":4529:4533   */\n  dup3\n    /* \"#utility.yul\":4525:4541   */\n  shr\n    /* \"#utility.yul\":4504:4541   */\n  swap1\n  pop\n    /* \"#utility.yul\":4431:4548   */\n  swap3\n  swap2\n  pop\n  pop\n  jump\t// out\n    /* \"#utility.yul\":4554:4723   */\ntag_37:\n    /* \"#utility.yul\":4598:4604   */\n  0x00\n    /* \"#utility.yul\":4631:4682   */\n  tag_97\n    /* \"#utility.yul\":4679:4680   */\n  0x00\n    /* \"#utility.yul\":4675:4681   */\n  not\n    /* \"#utility.yul\":4667:4672   */\n  dup5\n    /* \"#utility.yul\":4664:4665   */\n  0x08\n    /* \"#utility.yul\":4660:4673   */\n  mul\n    /* \"#utility.yul\":4631:4682   */\n  tag_36\n  jump\t// in\ntag_97:\n    /* \"#utility.yul\":4627:4683   */\n  not\n    /* \"#utility.yul\":4712:4716   */\n  dup1\n    /* \"#utility.yul\":4706:4710   */\n  dup4\n    /* \"#utility.yul\":4702:4717   */\n  and\n    /* \"#utility.yul\":4692:4717   */\n  swap2\n  pop\n    /* \"#utility.yul\":4605:4723   */\n  pop\n    /* \"#utility.yul\":4554:4723   */\n  swap3\n  swap2\n  pop\n  pop\n  jump\t// out\n    /* \"#utility.yul\":4728:5023   */\ntag_38:\n    /* \"#utility.yul\":4804:4808   */\n  0x00\n    /* \"#utility.yul\":4950:4979   */\n  tag_99\n    /* \"#utility.yul\":4975:4978   */\n  dup4\n    /* \"#utility.yul\":4969:4973   */\n  dup4\n    /* \"#utility.yul\":4950:4979   */\n  tag_37\n  jump\t// in\ntag_99:\n    /* \"#utility.yul\":4942:4979   */\n  swap2\n  pop\n    /* \"#utility.yul\":5012:5015   */\n  dup3\n    /* \"#utility.yul\":5009:5010   */\n  0x02\n    /* \"#utility.yul\":5005:5016   */\n  mul\n    /* \"#utility.yul\":4999:5003   */\n  dup3\n    /* \"#utility.yul\":4996:5017   */\n  or\n    /* \"#utility.yul\":4988:5017   */\n  swap1\n  pop\n    /* \"#utility.yul\":4728:5023   */\n  swap3\n  swap2\n  pop\n  pop\n  jump\t// out\n    /* \"#utility.yul\":5028:6423   */\ntag_8:\n    /* \"#utility.yul\":5145:5182   */\n  tag_101\n    /* \"#utility.yul\":5178:5181   */\n  dup3\n    /* \"#utility.yul\":5145:5182   */\n  tag_19\n  jump\t// in\ntag_101:\n    /* \"#utility.yul\":5247:5265   */\n  0xffffffffffffffff\n    /* \"#utility.yul\":5239:5245   */\n  dup2\n    /* \"#utility.yul\":5236:5266   */\n  gt\n    /* \"#utility.yul\":5233:5289   */\n  iszero\n  tag_102\n  jumpi\n    /* \"#utility.yul\":5269:5287   */\n  tag_103\n  tag_20\n  jump\t// in\ntag_103:\n    /* \"#utility.yul\":5233:5289   */\ntag_102:\n    /* \"#utility.yul\":5313:5351   */\n  tag_104\n    /* \"#utility.yul\":5345:5349   */\n  dup3\n    /* \"#utility.yul\":5339:5350   */\n  sload\n    /* \"#utility.yul\":5313:5351   */\n  tag_22\n  jump\t// in\ntag_104:\n    /* \"#utility.yul\":5398:5465   */\n  tag_105\n    /* \"#utility.yul\":5458:5464   */\n  dup3\n    /* \"#utility.yul\":5450:5456   */\n  dup3\n    /* \"#utility.yul\":5444:5448   */\n  dup6\n    /* \"#utility.yul\":5398:5465   */\n  tag_35\n  jump\t// in\ntag_105:\n    /* \"#utility.yul\":5492:5493   */\n  0x00\n    /* \"#utility.yul\":5516:5520   */\n  0x20\n    /* \"#utility.yul\":5503:5520   */\n  swap1\n  pop\n    /* \"#utility.yul\":5548:5550   */\n  0x1f\n    /* \"#utility.yul\":5540:5546   */\n  dup4\n    /* \"#utility.yul\":5537:5551   */\n  gt\n    /* \"#utility.yul\":5565:5566   */\n  0x01\n    /* \"#utility.yul\":5560:6178   */\n  dup2\n  eq\n  tag_107\n  jumpi\n    /* \"#utility.yul\":6222:6223   */\n  0x00\n    /* \"#utility.yul\":6239:6245   */\n  dup5\n    /* \"#utility.yul\":6236:6313   */\n  iszero\n  tag_108\n  jumpi\n    /* \"#utility.yul\":6288:6297   */\n  dup3\n    /* \"#utility.yul\":6283:6286   */\n  dup8\n    /* \"#utility.yul\":6279:6298   */\n  add\n    /* \"#utility.yul\":6273:6299   */\n  mload\n    /* \"#utility.yul\":6264:6299   */\n  swap1\n  pop\n    /* \"#utility.yul\":6236:6313   */\ntag_108:\n    /* \"#utility.yul\":6339:6406   */\n  tag_109\n    /* \"#utility.yul\":6399:6405   */\n  dup6\n    /* \"#utility.yul\":6392:6397   */\n  dup3\n    /* \"#utility.yul\":6339:6406   */\n  tag_38\n  jump\t// in\ntag_109:\n    /* \"#utility.yul\":6333:6337   */\n  dup7\n    /* \"#utility.yul\":6326:6407   */\n  sstore\n    /* \"#utility.yul\":6195:6417   */\n  pop\n    /* \"#utility.yul\":5530:6417   */\n  jump(tag_106)\n    /* \"#utility.yul\":5560:6178   */\ntag_107:\n    /* \"#utility.yul\":5612:5616   */\n  0x1f\n    /* \"#utility.yul\":5608:5617   */\n  not\n    /* \"#utility.yul\":5600:5606   */\n  dup5\n    /* \"#utility.yul\":5596:5618   */\n  and\n    /* \"#utility.yul\":5646:5683   */\n  tag_110\n    /* \"#utility.yul\":5678:5682   */\n  dup7\n    /* \"#utility.yul\":5646:5683   */\n  tag_23\n  jump\t// in\ntag_110:\n    /* \"#utility.yul\":5705:5706   */\n  0x00\n    /* \"#utility.yul\":5719:5927   */\ntag_111:\n    /* \"#utility.yul\":5733:5740   */\n  dup3\n    /* \"#utility.yul\":5730:5731   */\n  dup2\n    /* \"#utility.yul\":5727:5741   */\n  lt\n    /* \"#utility.yul\":5719:5927   */\n  iszero\n  tag_113\n  jumpi\n    /* \"#utility.yul\":5812:5821   */\n  dup5\n    /* \"#utility.yul\":5807:5810   */\n  dup10\n    /* \"#utility.yul\":5803:5822   */\n  add\n    /* \"#utility.yul\":5797:5823   */\n  mload\n    /* \"#utility.yul\":5789:5795   */\n  dup3\n    /* \"#utility.yul\":5782:5824   */\n  sstore\n    /* \"#utility.yul\":5863:5864   */\n  0x01\n    /* \"#utility.yul\":5855:5861   */\n  dup3\n    /* \"#utility.yul\":5851:5865   */\n  add\n    /* \"#utility.yul\":5841:5865   */\n  swap2\n  pop\n    /* \"#utility.yul\":5910:5912   */\n  0x20\n    /* \"#utility.yul\":5899:5908   */\n  dup6\n    /* \"#utility.yul\":5895:5913   */\n  add\n    /* \"#utility.yul\":5882:5913   */\n  swap5\n  pop\n    /* \"#utility.yul\":5756:5760   */\n  0x20\n    /* \"#utility.yul\":5753:5754   */\n  dup2\n    /* \"#utility.yul\":5749:5761   */\n  add\n    /* \"#utility.yul\":5744:5761   */\n  swap1\n  pop\n    /* \"#utility.yul\":5719:5927   */\n  jump(tag_111)\ntag_113:\n    /* \"#utility.yul\":5955:5961   */\n  dup7\n    /* \"#utility.yul\":5946:5953   */\n  dup4\n    /* \"#utility.yul\":5943:5962   */\n  lt\n    /* \"#utility.yul\":5940:6119   */\n  iszero\n  tag_114\n  jumpi\n    /* \"#utility.yul\":6013:6022   */\n  dup5\n    /* \"#utility.yul\":6008:6011   */\n  dup10\n    /* \"#utility.yul\":6004:6023   */\n  add\n    /* \"#utility.yul\":5998:6024   */\n  mload\n    /* \"#utility.yul\":6056:6104   */\n  tag_115\n    /* \"#utility.yul\":6098:6102   */\n  0x1f\n    /* \"#utility.yul\":6090:6096   */\n  dup10\n    /* \"#utility.yul\":6086:6103   */\n  and\n    /* \"#utility.yul\":6075:6084   */\n  dup3\n    /* \"#utility.yul\":6056:6104   */\n  tag_37\n  jump\t// in\ntag_115:\n    /* \"#utility.yul\":6048:6054   */\n  dup4\n    /* \"#utility.yul\":6041:6105   */\n  sstore\n    /* \"#utility.yul\":5963:6119   */\n  pop\n    /* \"#utility.yul\":5940:6119   */\ntag_114:\n    /* \"#utility.yul\":6165:6166   */\n  0x01\n    /* \"#utility.yul\":6161:6162   */\n  0x02\n    /* \"#utility.yul\":6153:6159   */\n  dup9\n    /* \"#utility.yul\":6149:6163   */\n  mul\n    /* \"#utility.yul\":6145:6167   */\n  add\n    /* \"#utility.yul\":6139:6143   */\n  dup9\n    /* \"#utility.yul\":6132:6168   */\n  sstore\n    /* \"#utility.yul\":5567:6178   */\n  pop\n  pop\n  pop\n    /* \"#utility.yul\":5530:6417   */\ntag_106:\n  pop\n    /* \"#utility.yul\":5120:6423   */\n  pop\n  pop\n  pop\n    /* \"#utility.yul\":5028:6423   */\n  pop\n  pop\n  jump\t// out\n    /* \"contracts/NFT.sol\":345:2876  contract NFT is ERC721URIStorage {... */\ntag_11:\n  dataSize(sub_0)\n  dup1\n  dataOffset(sub_0)\n  0x00\n  codecopy\n  0x00\n  return\nstop\n\nsub_0: assembly {\n        /* \"contracts/NFT.sol\":345:2876  contract NFT is ERC721URIStorage {... */\n      mstore(0x40, 0x80)\n      callvalue\n      dup1\n      iszero\n      tag_1\n      jumpi\n      0x00\n      dup1\n      revert\n    tag_1:\n      pop\n      jumpi(tag_2, lt(calldatasize, 0x04))\n      shr(0xe0, calldataload(0x00))\n      dup1\n      0x5ba37742\n      gt\n      tag_20\n      jumpi\n      dup1\n      0x95d89b41\n      gt\n      tag_21\n      jumpi\n      dup1\n      0x95d89b41\n      eq\n      tag_15\n      jumpi\n      dup1\n      0xa22cb465\n      eq\n      tag_16\n      jumpi\n      dup1\n      0xb88d4fde\n      eq\n      tag_17\n      jumpi\n      dup1\n      0xc87b56dd\n      eq\n      tag_18\n      jumpi\n      dup1\n      0xe985e9c5\n      eq\n      tag_19\n      jumpi\n      jump(tag_2)\n    tag_21:\n      dup1\n      0x5ba37742\n      eq\n      tag_11\n      jumpi\n      dup1\n      0x6352211e\n      eq\n      tag_12\n      jumpi\n      dup1\n      0x70a08231\n      eq\n      tag_13\n      jumpi\n      dup1\n      0x867d3397\n      eq\n      tag_14\n      jumpi\n      jump(tag_2)\n    tag_20:\n      dup1\n      0x0a989d9c\n      gt\n      tag_22\n      jumpi\n      dup1\n      0x0a989d9c\n      eq\n      tag_7\n      jumpi\n      dup1\n      0x23b872dd\n      eq\n      tag_8\n      jumpi\n      dup1\n      0x33eba49a\n      eq\n      tag_9\n      jumpi\n      dup1\n      0x42842e0e\n      eq\n      tag_10\n      jumpi\n      jump(tag_2)\n    tag_22:\n      dup1\n      0x01ffc9a7\n      eq\n      tag_3\n      jumpi\n      dup1\n      0x06fdde03\n      eq\n      tag_4\n      jumpi\n      dup1\n      0x081812fc\n      eq\n      tag_5\n      jumpi\n      dup1\n      0x095ea7b3\n      eq\n      tag_6\n      jumpi\n    tag_2:\n      0x00\n      dup1\n      revert\n        /* \"@openzeppelin/contracts/token/ERC721/extensions/ERC721URIStorage.sol\":937:1144  function supportsInterface(bytes4 interfaceId) public view virtual override(ERC721, IERC165) returns (bool) {... */\n    tag_3:\n      tag_23\n      0x04\n      dup1\n      calldatasize\n      sub\n      dup2\n      add\n      swap1\n      tag_24\n      swap2\n      swap1\n      tag_25\n      jump\t// in\n    tag_24:\n      tag_26\n      jump\t// in\n    tag_23:\n      mload(0x40)\n      tag_27\n      swap2\n      swap1\n      tag_28\n      jump\t// in\n    tag_27:\n      mload(0x40)\n      dup1\n      swap2\n      sub\n      swap1\n      return\n        /* \"@openzeppelin/contracts/token/ERC721/ERC721.sol\":2365:2454  function name() public view virtual returns (string memory) {... */\n    tag_4:\n      tag_29\n      tag_30\n      jump\t// in\n    tag_29:\n      mload(0x40)\n      tag_31\n      swap2\n      swap1\n      tag_32\n      jump\t// in\n    tag_31:\n      mload(0x40)\n      dup1\n      swap2\n      sub\n      swap1\n      return\n        /* \"@openzeppelin/contracts/token/ERC721/ERC721.sol\":3497:3651  function getApproved(uint256 tokenId) public view virtual returns (address) {... */\n    tag_5:\n      tag_33\n      0x04\n      dup1\n      calldatasize\n      sub\n      dup2\n      add\n      swap1\n      tag_34\n      swap2\n      swap1\n      tag_35\n      jump\t// in\n    tag_34:\n      tag_36\n      jump\t// in\n    tag_33:\n      mload(0x40)\n      tag_37\n      swap2\n      swap1\n      tag_38\n      jump\t// in\n    tag_37:\n      mload(0x40)\n      dup1\n      swap2\n      sub\n      swap1\n      return\n        /* \"@openzeppelin/contracts/token/ERC721/ERC721.sol\":3323:3436  function approve(address to, uint256 tokenId) public virtual {... */\n    tag_6:\n      tag_39\n      0x04\n      dup1\n      calldatasize\n      sub\n      dup2\n      add\n      swap1\n      tag_40\n      swap2\n      swap1\n      tag_41\n      jump\t// in\n    tag_40:\n      tag_42\n      jump\t// in\n    tag_39:\n      stop\n        /* \"contracts/NFT.sol\":1314:1920  function getTokensOwnedByMe() public view returns (uint256[] memory) {... */\n    tag_7:\n      tag_43\n      tag_44\n      jump\t// in\n    tag_43:\n      mload(0x40)\n      tag_45\n      swap2\n      swap1\n      tag_46\n      jump\t// in\n    tag_45:\n      mload(0x40)\n      dup1\n      swap2\n      sub\n      swap1\n      return\n        /* \"@openzeppelin/contracts/token/ERC721/ERC721.sol\":4143:4721  function transferFrom(address from, address to, uint256 tokenId) public virtual {... */\n    tag_8:\n      tag_47\n      0x04\n      dup1\n      calldatasize\n      sub\n      dup2\n      add\n      swap1\n      tag_48\n      swap2\n      swap1\n      tag_49\n      jump\t// in\n    tag_48:\n      tag_50\n      jump\t// in\n    tag_47:\n      stop\n        /* \"contracts/NFT.sol\":795:1306  function mintToken(string memory tokenURI) public returns (uint256) {... */\n    tag_9:\n      tag_51\n      0x04\n      dup1\n      calldatasize\n      sub\n      dup2\n      add\n      swap1\n      tag_52\n      swap2\n      swap1\n      tag_53\n      jump\t// in\n    tag_52:\n      tag_54\n      jump\t// in\n    tag_51:\n      mload(0x40)\n      tag_55\n      swap2\n      swap1\n      tag_56\n      jump\t// in\n    tag_55:\n      mload(0x40)\n      dup1\n      swap2\n      sub\n      swap1\n      return\n        /* \"@openzeppelin/contracts/token/ERC721/ERC721.sol\":4787:4919  function safeTransferFrom(address from, address to, uint256 tokenId) public {... */\n    tag_10:\n      tag_57\n      0x04\n      dup1\n      calldatasize\n      sub\n      dup2\n      add\n      swap1\n      tag_58\n      swap2\n      swap1\n      tag_49\n      jump\t// in\n    tag_58:\n      tag_59\n      jump\t// in\n    tag_57:\n      stop\n        /* \"contracts/NFT.sol\":2056:2873  function getTokensCreatedByMe() public view returns (uint256[] memory) {... */\n    tag_11:\n      tag_60\n      tag_61\n      jump\t// in\n    tag_60:\n      mload(0x40)\n      tag_62\n      swap2\n      swap1\n      tag_46\n      jump\t// in\n    tag_62:\n      mload(0x40)\n      dup1\n      swap2\n      sub\n      swap1\n      return\n        /* \"@openzeppelin/contracts/token/ERC721/ERC721.sol\":2185:2303  function ownerOf(uint256 tokenId) public view virtual returns (address) {... */\n    tag_12:\n      tag_63\n      0x04\n      dup1\n      calldatasize\n      sub\n      dup2\n      add\n      swap1\n      tag_64\n      swap2\n      swap1\n      tag_35\n      jump\t// in\n    tag_64:\n      tag_65\n      jump\t// in\n    tag_63:\n      mload(0x40)\n      tag_66\n      swap2\n      swap1\n      tag_38\n      jump\t// in\n    tag_66:\n      mload(0x40)\n      dup1\n      swap2\n      sub\n      swap1\n      return\n        /* \"@openzeppelin/contracts/token/ERC721/ERC721.sol\":1920:2128  function balanceOf(address owner) public view virtual returns (uint256) {... */\n    tag_13:\n      tag_67\n      0x04\n      dup1\n      calldatasize\n      sub\n      dup2\n      add\n      swap1\n      tag_68\n      swap2\n      swap1\n      tag_69\n      jump\t// in\n    tag_68:\n      tag_70\n      jump\t// in\n    tag_67:\n      mload(0x40)\n      tag_71\n      swap2\n      swap1\n      tag_56\n      jump\t// in\n    tag_71:\n      mload(0x40)\n      dup1\n      swap2\n      sub\n      swap1\n      return\n        /* \"contracts/NFT.sol\":1928:2048  function getTokenCreatorById(uint256 tokenId) public view returns (address) {... */\n    tag_14:\n      tag_72\n      0x04\n      dup1\n      calldatasize\n      sub\n      dup2\n      add\n      swap1\n      tag_73\n      swap2\n      swap1\n      tag_35\n      jump\t// in\n    tag_73:\n      tag_74\n      jump\t// in\n    tag_72:\n      mload(0x40)\n      tag_75\n      swap2\n      swap1\n      tag_38\n      jump\t// in\n    tag_75:\n      mload(0x40)\n      dup1\n      swap2\n      sub\n      swap1\n      return\n        /* \"@openzeppelin/contracts/token/ERC721/ERC721.sol\":2518:2611  function symbol() public view virtual returns (string memory) {... */\n    tag_15:\n      tag_76\n      tag_77\n      jump\t// in\n    tag_76:\n      mload(0x40)\n      tag_78\n      swap2\n      swap1\n      tag_32\n      jump\t// in\n    tag_78:\n      mload(0x40)\n      dup1\n      swap2\n      sub\n      swap1\n      return\n        /* \"@openzeppelin/contracts/token/ERC721/ERC721.sol\":3718:3862  function setApprovalForAll(address operator, bool approved) public virtual {... */\n    tag_16:\n      tag_79\n      0x04\n      dup1\n      calldatasize\n      sub\n      dup2\n      add\n      swap1\n      tag_80\n      swap2\n      swap1\n      tag_81\n      jump\t// in\n    tag_80:\n      tag_82\n      jump\t// in\n    tag_79:\n      stop\n        /* \"@openzeppelin/contracts/token/ERC721/ERC721.sol\":4985:5193  function safeTransferFrom(address from, address to, uint256 tokenId, bytes memory data) public virtual {... */\n    tag_17:\n      tag_83\n      0x04\n      dup1\n      calldatasize\n      sub\n      dup2\n      add\n      swap1\n      tag_84\n      swap2\n      swap1\n      tag_85\n      jump\t// in\n    tag_84:\n      tag_86\n      jump\t// in\n    tag_83:\n      stop\n        /* \"@openzeppelin/contracts/token/ERC721/extensions/ERC721URIStorage.sol\":1210:1803  function tokenURI(uint256 tokenId) public view virtual override returns (string memory) {... */\n    tag_18:\n      tag_87\n      0x04\n      dup1\n      calldatasize\n      sub\n      dup2\n      add\n      swap1\n      tag_88\n      swap2\n      swap1\n      tag_35\n      jump\t// in\n    tag_88:\n      tag_89\n      jump\t// in\n    tag_87:\n      mload(0x40)\n      tag_90\n      swap2\n      swap1\n      tag_32\n      jump\t// in\n    tag_90:\n      mload(0x40)\n      dup1\n      swap2\n      sub\n      swap1\n      return\n        /* \"@openzeppelin/contracts/token/ERC721/ERC721.sol\":3928:4081  function isApprovedForAll(address owner, address operator) public view virtual returns (bool) {... */\n    tag_19:\n      tag_91\n      0x04\n      dup1\n      calldatasize\n      sub\n      dup2\n      add\n      swap1\n      tag_92\n      swap2\n      swap1\n      tag_93\n      jump\t// in\n    tag_92:\n      tag_94\n      jump\t// in\n    tag_91:\n      mload(0x40)\n      tag_95\n      swap2\n      swap1\n      tag_28\n      jump\t// in\n    tag_95:\n      mload(0x40)\n      dup1\n      swap2\n      sub\n      swap1\n      return\n        /* \"@openzeppelin/contracts/token/ERC721/extensions/ERC721URIStorage.sol\":937:1144  function supportsInterface(bytes4 interfaceId) public view virtual override(ERC721, IERC165) returns (bool) {... */\n    tag_26:\n        /* \"@openzeppelin/contracts/token/ERC721/extensions/ERC721URIStorage.sol\":1039:1043  bool */\n      0x00\n        /* \"@openzeppelin/contracts/token/ERC721/extensions/ERC721URIStorage.sol\":760:770  0x49064906 */\n      0x49064906\n        /* \"@openzeppelin/contracts/token/ERC721/extensions/ERC721URIStorage.sol\":753:771  bytes4(0x49064906) */\n      0xe0\n      shl\n        /* \"@openzeppelin/contracts/token/ERC721/extensions/ERC721URIStorage.sol\":1062:1097  interfaceId == ERC4906_INTERFACE_ID */\n      not(0xffffffffffffffffffffffffffffffffffffffffffffffffffffffff)\n      and\n        /* \"@openzeppelin/contracts/token/ERC721/extensions/ERC721URIStorage.sol\":1062:1073  interfaceId */\n      dup3\n        /* \"@openzeppelin/contracts/token/ERC721/extensions/ERC721URIStorage.sol\":1062:1097  interfaceId == ERC4906_INTERFACE_ID */\n      not(0xffffffffffffffffffffffffffffffffffffffffffffffffffffffff)\n      and\n      eq\n        /* \"@openzeppelin/contracts/token/ERC721/extensions/ERC721URIStorage.sol\":1062:1137  interfaceId == ERC4906_INTERFACE_ID || super.supportsInterface(interfaceId) */\n      dup1\n      tag_97\n      jumpi\n      pop\n        /* \"@openzeppelin/contracts/token/ERC721/extensions/ERC721URIStorage.sol\":1101:1137  super.supportsInterface(interfaceId) */\n      tag_98\n        /* \"@openzeppelin/contracts/token/ERC721/extensions/ERC721URIStorage.sol\":1125:1136  interfaceId */\n      dup3\n        /* \"@openzeppelin/contracts/token/ERC721/extensions/ERC721URIStorage.sol\":1101:1124  super.supportsInterface */\n      tag_99\n        /* \"@openzeppelin/contracts/token/ERC721/extensions/ERC721URIStorage.sol\":1101:1137  super.supportsInterface(interfaceId) */\n      jump\t// in\n    tag_98:\n        /* \"@openzeppelin/contracts/token/ERC721/extensions/ERC721URIStorage.sol\":1062:1137  interfaceId == ERC4906_INTERFACE_ID || super.supportsInterface(interfaceId) */\n    tag_97:\n        /* \"@openzeppelin/contracts/token/ERC721/extensions/ERC721URIStorage.sol\":1055:1137  return interfaceId == ERC4906_INTERFACE_ID || super.supportsInterface(interfaceId) */\n      swap1\n      pop\n        /* \"@openzeppelin/contracts/token/ERC721/extensions/ERC721URIStorage.sol\":937:1144  function supportsInterface(bytes4 interfaceId) public view virtual override(ERC721, IERC165) returns (bool) {... */\n      swap2\n      swap1\n      pop\n      jump\t// out\n        /* \"@openzeppelin/contracts/token/ERC721/ERC721.sol\":2365:2454  function name() public view virtual returns (string memory) {... */\n    tag_30:\n        /* \"@openzeppelin/contracts/token/ERC721/ERC721.sol\":2410:2423  string memory */\n      0x60\n        /* \"@openzeppelin/contracts/token/ERC721/ERC721.sol\":2442:2447  _name */\n      0x00\n        /* \"@openzeppelin/contracts/token/ERC721/ERC721.sol\":2435:2447  return _name */\n      dup1\n      sload\n      tag_101\n      swap1\n      tag_102\n      jump\t// in\n    tag_101:\n      dup1\n      0x1f\n      add\n      0x20\n      dup1\n      swap2\n      div\n      mul\n      0x20\n      add\n      mload(0x40)\n      swap1\n      dup2\n      add\n      0x40\n      mstore\n      dup1\n      swap3\n      swap2\n      swap1\n      dup2\n      dup2\n      mstore\n      0x20\n      add\n      dup3\n      dup1\n      sload\n      tag_103\n      swap1\n      tag_102\n      jump\t// in\n    tag_103:\n      dup1\n      iszero\n      tag_104\n      jumpi\n      dup1\n      0x1f\n      lt\n      tag_105\n      jumpi\n      0x0100\n      dup1\n      dup4\n      sload\n      div\n      mul\n      dup4\n      mstore\n      swap2\n      0x20\n      add\n      swap2\n      jump(tag_104)\n    tag_105:\n      dup3\n      add\n      swap2\n      swap1\n      0x00\n      mstore\n      keccak256(0x00, 0x20)\n      swap1\n    tag_106:\n      dup2\n      sload\n      dup2\n      mstore\n      swap1\n      0x01\n      add\n      swap1\n      0x20\n      add\n      dup1\n      dup4\n      gt\n      tag_106\n      jumpi\n      dup3\n      swap1\n      sub\n      0x1f\n      and\n      dup3\n      add\n      swap2\n    tag_104:\n      pop\n      pop\n      pop\n      pop\n      pop\n      swap1\n      pop\n        /* \"@openzeppelin/contracts/token/ERC721/ERC721.sol\":2365:2454  function name() public view virtual returns (string memory) {... */\n      swap1\n      jump\t// out\n        /* \"@openzeppelin/contracts/token/ERC721/ERC721.sol\":3497:3651  function getApproved(uint256 tokenId) public view virtual returns (address) {... */\n    tag_36:\n        /* \"@openzeppelin/contracts/token/ERC721/ERC721.sol\":3564:3571  address */\n      0x00\n        /* \"@openzeppelin/contracts/token/ERC721/ERC721.sol\":3583:3605  _requireOwned(tokenId) */\n      tag_108\n        /* \"@openzeppelin/contracts/token/ERC721/ERC721.sol\":3597:3604  tokenId */\n      dup3\n        /* \"@openzeppelin/contracts/token/ERC721/ERC721.sol\":3583:3596  _requireOwned */\n      tag_109\n        /* \"@openzeppelin/contracts/token/ERC721/ERC721.sol\":3583:3605  _requireOwned(tokenId) */\n      jump\t// in\n    tag_108:\n      pop\n        /* \"@openzeppelin/contracts/token/ERC721/ERC721.sol\":3623:3644  _getApproved(tokenId) */\n      tag_110\n        /* \"@openzeppelin/contracts/token/ERC721/ERC721.sol\":3636:3643  tokenId */\n      dup3\n        /* \"@openzeppelin/contracts/token/ERC721/ERC721.sol\":3623:3635  _getApproved */\n      tag_111\n        /* \"@openzeppelin/contracts/token/ERC721/ERC721.sol\":3623:3644  _getApproved(tokenId) */\n      jump\t// in\n    tag_110:\n        /* \"@openzeppelin/contracts/token/ERC721/ERC721.sol\":3616:3644  return _getApproved(tokenId) */\n      swap1\n      pop\n        /* \"@openzeppelin/contracts/token/ERC721/ERC721.sol\":3497:3651  function getApproved(uint256 tokenId) public view virtual returns (address) {... */\n      swap2\n      swap1\n      pop\n      jump\t// out\n        /* \"@openzeppelin/contracts/token/ERC721/ERC721.sol\":3323:3436  function approve(address to, uint256 tokenId) public virtual {... */\n    tag_42:\n        /* \"@openzeppelin/contracts/token/ERC721/ERC721.sol\":3394:3429  _approve(to, tokenId, _msgSender()) */\n      tag_113\n        /* \"@openzeppelin/contracts/token/ERC721/ERC721.sol\":3403:3405  to */\n      dup3\n        /* \"@openzeppelin/contracts/token/ERC721/ERC721.sol\":3407:3414  tokenId */\n      dup3\n        /* \"@openzeppelin/contracts/token/ERC721/ERC721.sol\":3416:3428  _msgSender() */\n      tag_114\n        /* \"@openzeppelin/contracts/token/ERC721/ERC721.sol\":3416:3426  _msgSender */\n      tag_115\n        /* \"@openzeppelin/contracts/token/ERC721/ERC721.sol\":3416:3428  _msgSender() */\n      jump\t// in\n    tag_114:\n        /* \"@openzeppelin/contracts/token/ERC721/ERC721.sol\":3394:3402  _approve */\n      tag_116\n        /* \"@openzeppelin/contracts/token/ERC721/ERC721.sol\":3394:3429  _approve(to, tokenId, _msgSender()) */\n      jump\t// in\n    tag_113:\n        /* \"@openzeppelin/contracts/token/ERC721/ERC721.sol\":3323:3436  function approve(address to, uint256 tokenId) public virtual {... */\n      pop\n      pop\n      jump\t// out\n        /* \"contracts/NFT.sol\":1314:1920  function getTokensOwnedByMe() public view returns (uint256[] memory) {... */\n    tag_44:\n        /* \"contracts/NFT.sol\":1365:1381  uint256[] memory */\n      0x60\n        /* \"contracts/NFT.sol\":1394:1424  uint256 numberOfExistingTokens */\n      0x00\n        /* \"contracts/NFT.sol\":1427:1446  _tokenIds.current() */\n      tag_118\n        /* \"contracts/NFT.sol\":1427:1436  _tokenIds */\n      0x07\n        /* \"contracts/NFT.sol\":1427:1444  _tokenIds.current */\n      tag_119\n        /* \"contracts/NFT.sol\":1427:1446  _tokenIds.current() */\n      jump\t// in\n    tag_118:\n        /* \"contracts/NFT.sol\":1394:1446  uint256 numberOfExistingTokens = _tokenIds.current() */\n      swap1\n      pop\n        /* \"contracts/NFT.sol\":1457:1484  uint256 numberOfTokensOwned */\n      0x00\n        /* \"contracts/NFT.sol\":1487:1508  balanceOf(msg.sender) */\n      tag_120\n        /* \"contracts/NFT.sol\":1497:1507  msg.sender */\n      caller\n        /* \"contracts/NFT.sol\":1487:1496  balanceOf */\n      tag_70\n        /* \"contracts/NFT.sol\":1487:1508  balanceOf(msg.sender) */\n      jump\t// in\n    tag_120:\n        /* \"contracts/NFT.sol\":1457:1508  uint256 numberOfTokensOwned = balanceOf(msg.sender) */\n      swap1\n      pop\n        /* \"contracts/NFT.sol\":1519:1549  uint256[] memory ownedTokenIds */\n      0x00\n        /* \"contracts/NFT.sol\":1566:1585  numberOfTokensOwned */\n      dup2\n        /* \"contracts/NFT.sol\":1552:1586  new uint256[](numberOfTokensOwned) */\n      0xffffffffffffffff\n      dup2\n      gt\n      iszero\n      tag_121\n      jumpi\n      tag_122\n      tag_123\n      jump\t// in\n    tag_122:\n    tag_121:\n      mload(0x40)\n      swap1\n      dup1\n      dup3\n      mstore\n      dup1\n      0x20\n      mul\n      0x20\n      add\n      dup3\n      add\n      0x40\n      mstore\n      dup1\n      iszero\n      tag_124\n      jumpi\n      dup2\n      0x20\n      add\n      0x20\n      dup3\n      mul\n      dup1\n      calldatasize\n      dup4\n      calldatacopy\n      dup1\n      dup3\n      add\n      swap2\n      pop\n      pop\n      swap1\n      pop\n    tag_124:\n      pop\n        /* \"contracts/NFT.sol\":1519:1586  uint256[] memory ownedTokenIds = new uint256[](numberOfTokensOwned) */\n      swap1\n      pop\n        /* \"contracts/NFT.sol\":1599:1619  uint256 currentIndex */\n      0x00\n        /* \"contracts/NFT.sol\":1639:1648  uint256 i */\n      dup1\n        /* \"contracts/NFT.sol\":1634:1880  for (uint256 i = 0; i < numberOfExistingTokens; i++) {... */\n    tag_125:\n        /* \"contracts/NFT.sol\":1658:1680  numberOfExistingTokens */\n      dup5\n        /* \"contracts/NFT.sol\":1654:1655  i */\n      dup2\n        /* \"contracts/NFT.sol\":1654:1680  i < numberOfExistingTokens */\n      lt\n        /* \"contracts/NFT.sol\":1634:1880  for (uint256 i = 0; i < numberOfExistingTokens; i++) {... */\n      iszero\n      tag_126\n      jumpi\n        /* \"contracts/NFT.sol\":1702:1717  uint256 tokenId */\n      0x00\n        /* \"contracts/NFT.sol\":1724:1725  1 */\n      0x01\n        /* \"contracts/NFT.sol\":1720:1721  i */\n      dup3\n        /* \"contracts/NFT.sol\":1720:1725  i + 1 */\n      tag_128\n      swap2\n      swap1\n      tag_129\n      jump\t// in\n    tag_128:\n        /* \"contracts/NFT.sol\":1702:1725  uint256 tokenId = i + 1 */\n      swap1\n      pop\n        /* \"contracts/NFT.sol\":1764:1774  msg.sender */\n      caller\n        /* \"contracts/NFT.sol\":1744:1774  ownerOf(tokenId) != msg.sender */\n      0xffffffffffffffffffffffffffffffffffffffff\n      and\n        /* \"contracts/NFT.sol\":1744:1760  ownerOf(tokenId) */\n      tag_130\n        /* \"contracts/NFT.sol\":1752:1759  tokenId */\n      dup3\n        /* \"contracts/NFT.sol\":1744:1751  ownerOf */\n      tag_65\n        /* \"contracts/NFT.sol\":1744:1760  ownerOf(tokenId) */\n      jump\t// in\n    tag_130:\n        /* \"contracts/NFT.sol\":1744:1774  ownerOf(tokenId) != msg.sender */\n      0xffffffffffffffffffffffffffffffffffffffff\n      and\n      eq\n        /* \"contracts/NFT.sol\":1740:1784  if (ownerOf(tokenId) != msg.sender) continue */\n      tag_131\n      jumpi\n        /* \"contracts/NFT.sol\":1776:1784  continue */\n      pop\n      jump(tag_127)\n        /* \"contracts/NFT.sol\":1740:1784  if (ownerOf(tokenId) != msg.sender) continue */\n    tag_131:\n        /* \"contracts/NFT.sol\":1829:1836  tokenId */\n      dup1\n        /* \"contracts/NFT.sol\":1799:1812  ownedTokenIds */\n      dup5\n        /* \"contracts/NFT.sol\":1813:1825  currentIndex */\n      dup5\n        /* \"contracts/NFT.sol\":1799:1826  ownedTokenIds[currentIndex] */\n      dup2\n      mload\n      dup2\n      lt\n      tag_132\n      jumpi\n      tag_133\n      tag_134\n      jump\t// in\n    tag_133:\n    tag_132:\n      0x20\n      mul\n      0x20\n      add\n      add\n        /* \"contracts/NFT.sol\":1799:1836  ownedTokenIds[currentIndex] = tokenId */\n      dup2\n      dup2\n      mstore\n      pop\n      pop\n        /* \"contracts/NFT.sol\":1867:1868  1 */\n      0x01\n        /* \"contracts/NFT.sol\":1851:1868  currentIndex += 1 */\n      dup4\n      tag_135\n      swap2\n      swap1\n      tag_129\n      jump\t// in\n    tag_135:\n      swap3\n      pop\n        /* \"contracts/NFT.sol\":1687:1880  {... */\n      pop\n        /* \"contracts/NFT.sol\":1634:1880  for (uint256 i = 0; i < numberOfExistingTokens; i++) {... */\n    tag_127:\n        /* \"contracts/NFT.sol\":1682:1685  i++ */\n      dup1\n      dup1\n      0x01\n      add\n      swap2\n      pop\n      pop\n        /* \"contracts/NFT.sol\":1634:1880  for (uint256 i = 0; i < numberOfExistingTokens; i++) {... */\n      jump(tag_125)\n    tag_126:\n      pop\n        /* \"contracts/NFT.sol\":1899:1912  ownedTokenIds */\n      dup2\n        /* \"contracts/NFT.sol\":1892:1912  return ownedTokenIds */\n      swap5\n      pop\n      pop\n      pop\n      pop\n      pop\n        /* \"contracts/NFT.sol\":1314:1920  function getTokensOwnedByMe() public view returns (uint256[] memory) {... */\n      swap1\n      jump\t// out\n        /* \"@openzeppelin/contracts/token/ERC721/ERC721.sol\":4143:4721  function transferFrom(address from, address to, uint256 tokenId) public virtual {... */\n    tag_50:\n        /* \"@openzeppelin/contracts/token/ERC721/ERC721.sol\":4251:4252  0 */\n      0x00\n        /* \"@openzeppelin/contracts/token/ERC721/ERC721.sol\":4237:4253  to == address(0) */\n      0xffffffffffffffffffffffffffffffffffffffff\n      and\n        /* \"@openzeppelin/contracts/token/ERC721/ERC721.sol\":4237:4239  to */\n      dup3\n        /* \"@openzeppelin/contracts/token/ERC721/ERC721.sol\":4237:4253  to == address(0) */\n      0xffffffffffffffffffffffffffffffffffffffff\n      and\n      sub\n        /* \"@openzeppelin/contracts/token/ERC721/ERC721.sol\":4233:4320  if (to == address(0)) {... */\n      tag_137\n      jumpi\n        /* \"@openzeppelin/contracts/token/ERC721/ERC721.sol\":4306:4307  0 */\n      0x00\n        /* \"@openzeppelin/contracts/token/ERC721/ERC721.sol\":4276:4309  ERC721InvalidReceiver(address(0)) */\n      mload(0x40)\n      0x64a0ae9200000000000000000000000000000000000000000000000000000000\n      dup2\n      mstore\n      0x04\n      add\n      tag_138\n      swap2\n      swap1\n      tag_38\n      jump\t// in\n    tag_138:\n      mload(0x40)\n      dup1\n      swap2\n      sub\n      swap1\n      revert\n        /* \"@openzeppelin/contracts/token/ERC721/ERC721.sol\":4233:4320  if (to == address(0)) {... */\n    tag_137:\n        /* \"@openzeppelin/contracts/token/ERC721/ERC721.sol\":4538:4559  address previousOwner */\n      0x00\n        /* \"@openzeppelin/contracts/token/ERC721/ERC721.sol\":4562:4596  _update(to, tokenId, _msgSender()) */\n      tag_139\n        /* \"@openzeppelin/contracts/token/ERC721/ERC721.sol\":4570:4572  to */\n      dup4\n        /* \"@openzeppelin/contracts/token/ERC721/ERC721.sol\":4574:4581  tokenId */\n      dup4\n        /* \"@openzeppelin/contracts/token/ERC721/ERC721.sol\":4583:4595  _msgSender() */\n      tag_140\n        /* \"@openzeppelin/contracts/token/ERC721/ERC721.sol\":4583:4593  _msgSender */\n      tag_115\n        /* \"@openzeppelin/contracts/token/ERC721/ERC721.sol\":4583:4595  _msgSender() */\n      jump\t// in\n    tag_140:\n        /* \"@openzeppelin/contracts/token/ERC721/ERC721.sol\":4562:4569  _update */\n      tag_141\n        /* \"@openzeppelin/contracts/token/ERC721/ERC721.sol\":4562:4596  _update(to, tokenId, _msgSender()) */\n      jump\t// in\n    tag_139:\n        /* \"@openzeppelin/contracts/token/ERC721/ERC721.sol\":4538:4596  address previousOwner = _update(to, tokenId, _msgSender()) */\n      swap1\n      pop\n        /* \"@openzeppelin/contracts/token/ERC721/ERC721.sol\":4627:4631  from */\n      dup4\n        /* \"@openzeppelin/contracts/token/ERC721/ERC721.sol\":4610:4631  previousOwner != from */\n      0xffffffffffffffffffffffffffffffffffffffff\n      and\n        /* \"@openzeppelin/contracts/token/ERC721/ERC721.sol\":4610:4623  previousOwner */\n      dup2\n        /* \"@openzeppelin/contracts/token/ERC721/ERC721.sol\":4610:4631  previousOwner != from */\n      0xffffffffffffffffffffffffffffffffffffffff\n      and\n      eq\n        /* \"@openzeppelin/contracts/token/ERC721/ERC721.sol\":4606:4715  if (previousOwner != from) {... */\n      tag_142\n      jumpi\n        /* \"@openzeppelin/contracts/token/ERC721/ERC721.sol\":4675:4679  from */\n      dup4\n        /* \"@openzeppelin/contracts/token/ERC721/ERC721.sol\":4681:4688  tokenId */\n      dup3\n        /* \"@openzeppelin/contracts/token/ERC721/ERC721.sol\":4690:4703  previousOwner */\n      dup3\n        /* \"@openzeppelin/contracts/token/ERC721/ERC721.sol\":4654:4704  ERC721IncorrectOwner(from, tokenId, previousOwner) */\n      mload(0x40)\n      0x64283d7b00000000000000000000000000000000000000000000000000000000\n      dup2\n      mstore\n      0x04\n      add\n      tag_143\n      swap4\n      swap3\n      swap2\n      swap1\n      tag_144\n      jump\t// in\n    tag_143:\n      mload(0x40)\n      dup1\n      swap2\n      sub\n      swap1\n      revert\n        /* \"@openzeppelin/contracts/token/ERC721/ERC721.sol\":4606:4715  if (previousOwner != from) {... */\n    tag_142:\n        /* \"@openzeppelin/contracts/token/ERC721/ERC721.sol\":4223:4721  {... */\n      pop\n        /* \"@openzeppelin/contracts/token/ERC721/ERC721.sol\":4143:4721  function transferFrom(address from, address to, uint256 tokenId) public virtual {... */\n      pop\n      pop\n      pop\n      jump\t// out\n        /* \"contracts/NFT.sol\":795:1306  function mintToken(string memory tokenURI) public returns (uint256) {... */\n    tag_54:\n        /* \"contracts/NFT.sol\":854:861  uint256 */\n      0x00\n        /* \"contracts/NFT.sol\":874:895  _tokenIds.increment() */\n      tag_146\n        /* \"contracts/NFT.sol\":874:883  _tokenIds */\n      0x07\n        /* \"contracts/NFT.sol\":874:893  _tokenIds.increment */\n      tag_147\n        /* \"contracts/NFT.sol\":874:895  _tokenIds.increment() */\n      jump\t// in\n    tag_146:\n        /* \"contracts/NFT.sol\":906:923  uint256 newItemId */\n      0x00\n        /* \"contracts/NFT.sol\":926:945  _tokenIds.current() */\n      tag_148\n        /* \"contracts/NFT.sol\":926:935  _tokenIds */\n      0x07\n        /* \"contracts/NFT.sol\":926:943  _tokenIds.current */\n      tag_119\n        /* \"contracts/NFT.sol\":926:945  _tokenIds.current() */\n      jump\t// in\n    tag_148:\n        /* \"contracts/NFT.sol\":906:945  uint256 newItemId = _tokenIds.current() */\n      swap1\n      pop\n        /* \"contracts/NFT.sol\":956:984  _mint(msg.sender, newItemId) */\n      tag_149\n        /* \"contracts/NFT.sol\":962:972  msg.sender */\n      caller\n        /* \"contracts/NFT.sol\":974:983  newItemId */\n      dup3\n        /* \"contracts/NFT.sol\":956:961  _mint */\n      tag_150\n        /* \"contracts/NFT.sol\":956:984  _mint(msg.sender, newItemId) */\n      jump\t// in\n    tag_149:\n        /* \"contracts/NFT.sol\":1018:1028  msg.sender */\n      caller\n        /* \"contracts/NFT.sol\":995:1004  _creators */\n      0x09\n        /* \"contracts/NFT.sol\":995:1015  _creators[newItemId] */\n      0x00\n        /* \"contracts/NFT.sol\":1005:1014  newItemId */\n      dup4\n        /* \"contracts/NFT.sol\":995:1015  _creators[newItemId] */\n      dup2\n      mstore\n      0x20\n      add\n      swap1\n      dup2\n      mstore\n      0x20\n      add\n      0x00\n      keccak256\n      0x00\n        /* \"contracts/NFT.sol\":995:1028  _creators[newItemId] = msg.sender */\n      0x0100\n      exp\n      dup2\n      sload\n      dup2\n      0xffffffffffffffffffffffffffffffffffffffff\n      mul\n      not\n      and\n      swap1\n      dup4\n      0xffffffffffffffffffffffffffffffffffffffff\n      and\n      mul\n      or\n      swap1\n      sstore\n      pop\n        /* \"contracts/NFT.sol\":1039:1072  _setTokenURI(newItemId, tokenURI) */\n      tag_151\n        /* \"contracts/NFT.sol\":1052:1061  newItemId */\n      dup2\n        /* \"contracts/NFT.sol\":1063:1071  tokenURI */\n      dup5\n        /* \"contracts/NFT.sol\":1039:1051  _setTokenURI */\n      tag_152\n        /* \"contracts/NFT.sol\":1039:1072  _setTokenURI(newItemId, tokenURI) */\n      jump\t// in\n    tag_151:\n        /* \"contracts/NFT.sol\":1158:1201  setApprovalForAll(marketplaceAddress, true) */\n      tag_153\n        /* \"contracts/NFT.sol\":1176:1194  marketplaceAddress */\n      0x08\n      0x00\n      swap1\n      sload\n      swap1\n      0x0100\n      exp\n      swap1\n      div\n      0xffffffffffffffffffffffffffffffffffffffff\n      and\n        /* \"contracts/NFT.sol\":1196:1200  true */\n      0x01\n        /* \"contracts/NFT.sol\":1158:1175  setApprovalForAll */\n      tag_82\n        /* \"contracts/NFT.sol\":1158:1201  setApprovalForAll(marketplaceAddress, true) */\n      jump\t// in\n    tag_153:\n        /* \"contracts/NFT.sol\":1231:1240  newItemId */\n      dup1\n        /* \"contracts/NFT.sol\":1219:1271  TokenMinted(newItemId, tokenURI, marketplaceAddress) */\n      0x9ef9d09a98563c827f651a028105395cc17f94ef23eb26b70d241439386a62f4\n        /* \"contracts/NFT.sol\":1242:1250  tokenURI */\n      dup5\n        /* \"contracts/NFT.sol\":1252:1270  marketplaceAddress */\n      0x08\n      0x00\n      swap1\n      sload\n      swap1\n      0x0100\n      exp\n      swap1\n      div\n      0xffffffffffffffffffffffffffffffffffffffff\n      and\n        /* \"contracts/NFT.sol\":1219:1271  TokenMinted(newItemId, tokenURI, marketplaceAddress) */\n      mload(0x40)\n      tag_154\n      swap3\n      swap2\n      swap1\n      tag_155\n      jump\t// in\n    tag_154:\n      mload(0x40)\n      dup1\n      swap2\n      sub\n      swap1\n      log2\n        /* \"contracts/NFT.sol\":1289:1298  newItemId */\n      dup1\n        /* \"contracts/NFT.sol\":1282:1298  return newItemId */\n      swap2\n      pop\n      pop\n        /* \"contracts/NFT.sol\":795:1306  function mintToken(string memory tokenURI) public returns (uint256) {... */\n      swap2\n      swap1\n      pop\n      jump\t// out\n        /* \"@openzeppelin/contracts/token/ERC721/ERC721.sol\":4787:4919  function safeTransferFrom(address from, address to, uint256 tokenId) public {... */\n    tag_59:\n        /* \"@openzeppelin/contracts/token/ERC721/ERC721.sol\":4873:4912  safeTransferFrom(from, to, tokenId, \"\") */\n      tag_157\n        /* \"@openzeppelin/contracts/token/ERC721/ERC721.sol\":4890:4894  from */\n      dup4\n        /* \"@openzeppelin/contracts/token/ERC721/ERC721.sol\":4896:4898  to */\n      dup4\n        /* \"@openzeppelin/contracts/token/ERC721/ERC721.sol\":4900:4907  tokenId */\n      dup4\n        /* \"@openzeppelin/contracts/token/ERC721/ERC721.sol\":4873:4912  safeTransferFrom(from, to, tokenId, \"\") */\n      mload(0x40)\n      dup1\n      0x20\n      add\n      0x40\n      mstore\n      dup1\n      0x00\n      dup2\n      mstore\n      pop\n        /* \"@openzeppelin/contracts/token/ERC721/ERC721.sol\":4873:4889  safeTransferFrom */\n      tag_86\n        /* \"@openzeppelin/contracts/token/ERC721/ERC721.sol\":4873:4912  safeTransferFrom(from, to, tokenId, \"\") */\n      jump\t// in\n    tag_157:\n        /* \"@openzeppelin/contracts/token/ERC721/ERC721.sol\":4787:4919  function safeTransferFrom(address from, address to, uint256 tokenId) public {... */\n      pop\n      pop\n      pop\n      jump\t// out\n        /* \"contracts/NFT.sol\":2056:2873  function getTokensCreatedByMe() public view returns (uint256[] memory) {... */\n    tag_61:\n        /* \"contracts/NFT.sol\":2109:2125  uint256[] memory */\n      0x60\n        /* \"contracts/NFT.sol\":2138:2168  uint256 numberOfExistingTokens */\n      0x00\n        /* \"contracts/NFT.sol\":2171:2190  _tokenIds.current() */\n      tag_159\n        /* \"contracts/NFT.sol\":2171:2180  _tokenIds */\n      0x07\n        /* \"contracts/NFT.sol\":2171:2188  _tokenIds.current */\n      tag_119\n        /* \"contracts/NFT.sol\":2171:2190  _tokenIds.current() */\n      jump\t// in\n    tag_159:\n        /* \"contracts/NFT.sol\":2138:2190  uint256 numberOfExistingTokens = _tokenIds.current() */\n      swap1\n      pop\n        /* \"contracts/NFT.sol\":2201:2230  uint256 numberOfTokensCreated */\n      0x00\n        /* \"contracts/NFT.sol\":2252:2261  uint256 i */\n      dup1\n        /* \"contracts/NFT.sol\":2247:2452  for (uint256 i = 0; i < numberOfExistingTokens; i++) {... */\n    tag_160:\n        /* \"contracts/NFT.sol\":2271:2293  numberOfExistingTokens */\n      dup3\n        /* \"contracts/NFT.sol\":2267:2268  i */\n      dup2\n        /* \"contracts/NFT.sol\":2267:2293  i < numberOfExistingTokens */\n      lt\n        /* \"contracts/NFT.sol\":2247:2452  for (uint256 i = 0; i < numberOfExistingTokens; i++) {... */\n      iszero\n      tag_161\n      jumpi\n        /* \"contracts/NFT.sol\":2315:2330  uint256 tokenId */\n      0x00\n        /* \"contracts/NFT.sol\":2337:2338  1 */\n      0x01\n        /* \"contracts/NFT.sol\":2333:2334  i */\n      dup3\n        /* \"contracts/NFT.sol\":2333:2338  i + 1 */\n      tag_163\n      swap2\n      swap1\n      tag_129\n      jump\t// in\n    tag_163:\n        /* \"contracts/NFT.sol\":2315:2338  uint256 tokenId = i + 1 */\n      swap1\n      pop\n        /* \"contracts/NFT.sol\":2379:2389  msg.sender */\n      caller\n        /* \"contracts/NFT.sol\":2357:2389  _creators[tokenId] != msg.sender */\n      0xffffffffffffffffffffffffffffffffffffffff\n      and\n        /* \"contracts/NFT.sol\":2357:2366  _creators */\n      0x09\n        /* \"contracts/NFT.sol\":2357:2375  _creators[tokenId] */\n      0x00\n        /* \"contracts/NFT.sol\":2367:2374  tokenId */\n      dup4\n        /* \"contracts/NFT.sol\":2357:2375  _creators[tokenId] */\n      dup2\n      mstore\n      0x20\n      add\n      swap1\n      dup2\n      mstore\n      0x20\n      add\n      0x00\n      keccak256\n      0x00\n      swap1\n      sload\n      swap1\n      0x0100\n      exp\n      swap1\n      div\n      0xffffffffffffffffffffffffffffffffffffffff\n      and\n        /* \"contracts/NFT.sol\":2357:2389  _creators[tokenId] != msg.sender */\n      0xffffffffffffffffffffffffffffffffffffffff\n      and\n      eq\n        /* \"contracts/NFT.sol\":2353:2399  if (_creators[tokenId] != msg.sender) continue */\n      tag_164\n      jumpi\n        /* \"contracts/NFT.sol\":2391:2399  continue */\n      pop\n      jump(tag_162)\n        /* \"contracts/NFT.sol\":2353:2399  if (_creators[tokenId] != msg.sender) continue */\n    tag_164:\n        /* \"contracts/NFT.sol\":2439:2440  1 */\n      0x01\n        /* \"contracts/NFT.sol\":2414:2440  numberOfTokensCreated += 1 */\n      dup4\n      tag_165\n      swap2\n      swap1\n      tag_129\n      jump\t// in\n    tag_165:\n      swap3\n      pop\n        /* \"contracts/NFT.sol\":2300:2452  {... */\n      pop\n        /* \"contracts/NFT.sol\":2247:2452  for (uint256 i = 0; i < numberOfExistingTokens; i++) {... */\n    tag_162:\n        /* \"contracts/NFT.sol\":2295:2298  i++ */\n      dup1\n      dup1\n      0x01\n      add\n      swap2\n      pop\n      pop\n        /* \"contracts/NFT.sol\":2247:2452  for (uint256 i = 0; i < numberOfExistingTokens; i++) {... */\n      jump(tag_160)\n    tag_161:\n      pop\n        /* \"contracts/NFT.sol\":2464:2496  uint256[] memory createdTokenIds */\n      0x00\n        /* \"contracts/NFT.sol\":2513:2534  numberOfTokensCreated */\n      dup2\n        /* \"contracts/NFT.sol\":2499:2535  new uint256[](numberOfTokensCreated) */\n      0xffffffffffffffff\n      dup2\n      gt\n      iszero\n      tag_166\n      jumpi\n      tag_167\n      tag_123\n      jump\t// in\n    tag_167:\n    tag_166:\n      mload(0x40)\n      swap1\n      dup1\n      dup3\n      mstore\n      dup1\n      0x20\n      mul\n      0x20\n      add\n      dup3\n      add\n      0x40\n      mstore\n      dup1\n      iszero\n      tag_168\n      jumpi\n      dup2\n      0x20\n      add\n      0x20\n      dup3\n      mul\n      dup1\n      calldatasize\n      dup4\n      calldatacopy\n      dup1\n      dup3\n      add\n      swap2\n      pop\n      pop\n      swap1\n      pop\n    tag_168:\n      pop\n        /* \"contracts/NFT.sol\":2464:2535  uint256[] memory createdTokenIds = new uint256[](numberOfTokensCreated) */\n      swap1\n      pop\n        /* \"contracts/NFT.sol\":2546:2566  uint256 currentIndex */\n      0x00\n        /* \"contracts/NFT.sol\":2586:2595  uint256 i */\n      dup1\n        /* \"contracts/NFT.sol\":2581:2831  for (uint256 i = 0; i < numberOfExistingTokens; i++) {... */\n    tag_169:\n        /* \"contracts/NFT.sol\":2605:2627  numberOfExistingTokens */\n      dup5\n        /* \"contracts/NFT.sol\":2601:2602  i */\n      dup2\n        /* \"contracts/NFT.sol\":2601:2627  i < numberOfExistingTokens */\n      lt\n        /* \"contracts/NFT.sol\":2581:2831  for (uint256 i = 0; i < numberOfExistingTokens; i++) {... */\n      iszero\n      tag_170\n      jumpi\n        /* \"contracts/NFT.sol\":2649:2664  uint256 tokenId */\n      0x00\n        /* \"contracts/NFT.sol\":2671:2672  1 */\n      0x01\n        /* \"contracts/NFT.sol\":2667:2668  i */\n      dup3\n        /* \"contracts/NFT.sol\":2667:2672  i + 1 */\n      tag_172\n      swap2\n      swap1\n      tag_129\n      jump\t// in\n    tag_172:\n        /* \"contracts/NFT.sol\":2649:2672  uint256 tokenId = i + 1 */\n      swap1\n      pop\n        /* \"contracts/NFT.sol\":2713:2723  msg.sender */\n      caller\n        /* \"contracts/NFT.sol\":2691:2723  _creators[tokenId] != msg.sender */\n      0xffffffffffffffffffffffffffffffffffffffff\n      and\n        /* \"contracts/NFT.sol\":2691:2700  _creators */\n      0x09\n        /* \"contracts/NFT.sol\":2691:2709  _creators[tokenId] */\n      0x00\n        /* \"contracts/NFT.sol\":2701:2708  tokenId */\n      dup4\n        /* \"contracts/NFT.sol\":2691:2709  _creators[tokenId] */\n      dup2\n      mstore\n      0x20\n      add\n      swap1\n      dup2\n      mstore\n      0x20\n      add\n      0x00\n      keccak256\n      0x00\n      swap1\n      sload\n      swap1\n      0x0100\n      exp\n      swap1\n      div\n      0xffffffffffffffffffffffffffffffffffffffff\n      and\n        /* \"contracts/NFT.sol\":2691:2723  _creators[tokenId] != msg.sender */\n      0xffffffffffffffffffffffffffffffffffffffff\n      and\n      eq\n        /* \"contracts/NFT.sol\":2687:2733  if (_creators[tokenId] != msg.sender) continue */\n      tag_173\n      jumpi\n        /* \"contracts/NFT.sol\":2725:2733  continue */\n      pop\n      jump(tag_171)\n        /* \"contracts/NFT.sol\":2687:2733  if (_creators[tokenId] != msg.sender) continue */\n    tag_173:\n        /* \"contracts/NFT.sol\":2780:2787  tokenId */\n      dup1\n        /* \"contracts/NFT.sol\":2748:2763  createdTokenIds */\n      dup5\n        /* \"contracts/NFT.sol\":2764:2776  currentIndex */\n      dup5\n        /* \"contracts/NFT.sol\":2748:2777  createdTokenIds[currentIndex] */\n      dup2\n      mload\n      dup2\n      lt\n      tag_174\n      jumpi\n      tag_175\n      tag_134\n      jump\t// in\n    tag_175:\n    tag_174:\n      0x20\n      mul\n      0x20\n      add\n      add\n        /* \"contracts/NFT.sol\":2748:2787  createdTokenIds[currentIndex] = tokenId */\n      dup2\n      dup2\n      mstore\n      pop\n      pop\n        /* \"contracts/NFT.sol\":2818:2819  1 */\n      0x01\n        /* \"contracts/NFT.sol\":2802:2819  currentIndex += 1 */\n      dup4\n      tag_176\n      swap2\n      swap1\n      tag_129\n      jump\t// in\n    tag_176:\n      swap3\n      pop\n        /* \"contracts/NFT.sol\":2634:2831  {... */\n      pop\n        /* \"contracts/NFT.sol\":2581:2831  for (uint256 i = 0; i < numberOfExistingTokens; i++) {... */\n    tag_171:\n        /* \"contracts/NFT.sol\":2629:2632  i++ */\n      dup1\n      dup1\n      0x01\n      add\n      swap2\n      pop\n      pop\n        /* \"contracts/NFT.sol\":2581:2831  for (uint256 i = 0; i < numberOfExistingTokens; i++) {... */\n      jump(tag_169)\n    tag_170:\n      pop\n        /* \"contracts/NFT.sol\":2850:2865  createdTokenIds */\n      dup2\n        /* \"contracts/NFT.sol\":2843:2865  return createdTokenIds */\n      swap5\n      pop\n      pop\n      pop\n      pop\n      pop\n        /* \"contracts/NFT.sol\":2056:2873  function getTokensCreatedByMe() public view returns (uint256[] memory) {... */\n      swap1\n      jump\t// out\n        /* \"@openzeppelin/contracts/token/ERC721/ERC721.sol\":2185:2303  function ownerOf(uint256 tokenId) public view virtual returns (address) {... */\n    tag_65:\n        /* \"@openzeppelin/contracts/token/ERC721/ERC721.sol\":2248:2255  address */\n      0x00\n        /* \"@openzeppelin/contracts/token/ERC721/ERC721.sol\":2274:2296  _requireOwned(tokenId) */\n      tag_178\n        /* \"@openzeppelin/contracts/token/ERC721/ERC721.sol\":2288:2295  tokenId */\n      dup3\n        /* \"@openzeppelin/contracts/token/ERC721/ERC721.sol\":2274:2287  _requireOwned */\n      tag_109\n        /* \"@openzeppelin/contracts/token/ERC721/ERC721.sol\":2274:2296  _requireOwned(tokenId) */\n      jump\t// in\n    tag_178:\n        /* \"@openzeppelin/contracts/token/ERC721/ERC721.sol\":2267:2296  return _requireOwned(tokenId) */\n      swap1\n      pop\n        /* \"@openzeppelin/contracts/token/ERC721/ERC721.sol\":2185:2303  function ownerOf(uint256 tokenId) public view virtual returns (address) {... */\n      swap2\n      swap1\n      pop\n      jump\t// out\n        /* \"@openzeppelin/contracts/token/ERC721/ERC721.sol\":1920:2128  function balanceOf(address owner) public view virtual returns (uint256) {... */\n    tag_70:\n        /* \"@openzeppelin/contracts/token/ERC721/ERC721.sol\":1983:1990  uint256 */\n      0x00\n        /* \"@openzeppelin/contracts/token/ERC721/ERC721.sol\":2023:2024  0 */\n      dup1\n        /* \"@openzeppelin/contracts/token/ERC721/ERC721.sol\":2006:2025  owner == address(0) */\n      0xffffffffffffffffffffffffffffffffffffffff\n      and\n        /* \"@openzeppelin/contracts/token/ERC721/ERC721.sol\":2006:2011  owner */\n      dup3\n        /* \"@openzeppelin/contracts/token/ERC721/ERC721.sol\":2006:2025  owner == address(0) */\n      0xffffffffffffffffffffffffffffffffffffffff\n      and\n      sub\n        /* \"@openzeppelin/contracts/token/ERC721/ERC721.sol\":2002:2089  if (owner == address(0)) {... */\n      tag_180\n      jumpi\n        /* \"@openzeppelin/contracts/token/ERC721/ERC721.sol\":2075:2076  0 */\n      0x00\n        /* \"@openzeppelin/contracts/token/ERC721/ERC721.sol\":2048:2078  ERC721InvalidOwner(address(0)) */\n      mload(0x40)\n      0x89c62b6400000000000000000000000000000000000000000000000000000000\n      dup2\n      mstore\n      0x04\n      add\n      tag_181\n      swap2\n      swap1\n      tag_38\n      jump\t// in\n    tag_181:\n      mload(0x40)\n      dup1\n      swap2\n      sub\n      swap1\n      revert\n        /* \"@openzeppelin/contracts/token/ERC721/ERC721.sol\":2002:2089  if (owner == address(0)) {... */\n    tag_180:\n        /* \"@openzeppelin/contracts/token/ERC721/ERC721.sol\":2105:2114  _balances */\n      0x03\n        /* \"@openzeppelin/contracts/token/ERC721/ERC721.sol\":2105:2121  _balances[owner] */\n      0x00\n        /* \"@openzeppelin/contracts/token/ERC721/ERC721.sol\":2115:2120  owner */\n      dup4\n        /* \"@openzeppelin/contracts/token/ERC721/ERC721.sol\":2105:2121  _balances[owner] */\n      0xffffffffffffffffffffffffffffffffffffffff\n      and\n      0xffffffffffffffffffffffffffffffffffffffff\n      and\n      dup2\n      mstore\n      0x20\n      add\n      swap1\n      dup2\n      mstore\n      0x20\n      add\n      0x00\n      keccak256\n      sload\n        /* \"@openzeppelin/contracts/token/ERC721/ERC721.sol\":2098:2121  return _balances[owner] */\n      swap1\n      pop\n        /* \"@openzeppelin/contracts/token/ERC721/ERC721.sol\":1920:2128  function balanceOf(address owner) public view virtual returns (uint256) {... */\n      swap2\n      swap1\n      pop\n      jump\t// out\n        /* \"contracts/NFT.sol\":1928:2048  function getTokenCreatorById(uint256 tokenId) public view returns (address) {... */\n    tag_74:\n        /* \"contracts/NFT.sol\":1995:2002  address */\n      0x00\n        /* \"contracts/NFT.sol\":2022:2031  _creators */\n      0x09\n        /* \"contracts/NFT.sol\":2022:2040  _creators[tokenId] */\n      0x00\n        /* \"contracts/NFT.sol\":2032:2039  tokenId */\n      dup4\n        /* \"contracts/NFT.sol\":2022:2040  _creators[tokenId] */\n      dup2\n      mstore\n      0x20\n      add\n      swap1\n      dup2\n      mstore\n      0x20\n      add\n      0x00\n      keccak256\n      0x00\n      swap1\n      sload\n      swap1\n      0x0100\n      exp\n      swap1\n      div\n      0xffffffffffffffffffffffffffffffffffffffff\n      and\n        /* \"contracts/NFT.sol\":2015:2040  return _creators[tokenId] */\n      swap1\n      pop\n        /* \"contracts/NFT.sol\":1928:2048  function getTokenCreatorById(uint256 tokenId) public view returns (address) {... */\n      swap2\n      swap1\n      pop\n      jump\t// out\n        /* \"@openzeppelin/contracts/token/ERC721/ERC721.sol\":2518:2611  function symbol() public view virtual returns (string memory) {... */\n    tag_77:\n        /* \"@openzeppelin/contracts/token/ERC721/ERC721.sol\":2565:2578  string memory */\n      0x60\n        /* \"@openzeppelin/contracts/token/ERC721/ERC721.sol\":2597:2604  _symbol */\n      0x01\n        /* \"@openzeppelin/contracts/token/ERC721/ERC721.sol\":2590:2604  return _symbol */\n      dup1\n      sload\n      tag_184\n      swap1\n      tag_102\n      jump\t// in\n    tag_184:\n      dup1\n      0x1f\n      add\n      0x20\n      dup1\n      swap2\n      div\n      mul\n      0x20\n      add\n      mload(0x40)\n      swap1\n      dup2\n      add\n      0x40\n      mstore\n      dup1\n      swap3\n      swap2\n      swap1\n      dup2\n      dup2\n      mstore\n      0x20\n      add\n      dup3\n      dup1\n      sload\n      tag_185\n      swap1\n      tag_102\n      jump\t// in\n    tag_185:\n      dup1\n      iszero\n      tag_186\n      jumpi\n      dup1\n      0x1f\n      lt\n      tag_187\n      jumpi\n      0x0100\n      dup1\n      dup4\n      sload\n      div\n      mul\n      dup4\n      mstore\n      swap2\n      0x20\n      add\n      swap2\n      jump(tag_186)\n    tag_187:\n      dup3\n      add\n      swap2\n      swap1\n      0x00\n      mstore\n      keccak256(0x00, 0x20)\n      swap1\n    tag_188:\n      dup2\n      sload\n      dup2\n      mstore\n      swap1\n      0x01\n      add\n      swap1\n      0x20\n      add\n      dup1\n      dup4\n      gt\n      tag_188\n      jumpi\n      dup3\n      swap1\n      sub\n      0x1f\n      and\n      dup3\n      add\n      swap2\n    tag_186:\n      pop\n      pop\n      pop\n      pop\n      pop\n      swap1\n      pop\n        /* \"@openzeppelin/contracts/token/ERC721/ERC721.sol\":2518:2611  function symbol() public view virtual returns (string memory) {... */\n      swap1\n      jump\t// out\n        /* \"@openzeppelin/contracts/token/ERC721/ERC721.sol\":3718:3862  function setApprovalForAll(address operator, bool approved) public virtual {... */\n    tag_82:\n        /* \"@openzeppelin/contracts/token/ERC721/ERC721.sol\":3803:3855  _setApprovalForAll(_msgSender(), operator, approved) */\n      tag_190\n        /* \"@openzeppelin/contracts/token/ERC721/ERC721.sol\":3822:3834  _msgSender() */\n      tag_191\n        /* \"@openzeppelin/contracts/token/ERC721/ERC721.sol\":3822:3832  _msgSender */\n      tag_115\n        /* \"@openzeppelin/contracts/token/ERC721/ERC721.sol\":3822:3834  _msgSender() */\n      jump\t// in\n    tag_191:\n        /* \"@openzeppelin/contracts/token/ERC721/ERC721.sol\":3836:3844  operator */\n      dup4\n        /* \"@openzeppelin/contracts/token/ERC721/ERC721.sol\":3846:3854  approved */\n      dup4\n        /* \"@openzeppelin/contracts/token/ERC721/ERC721.sol\":3803:3821  _setApprovalForAll */\n      tag_192\n        /* \"@openzeppelin/contracts/token/ERC721/ERC721.sol\":3803:3855  _setApprovalForAll(_msgSender(), operator, approved) */\n      jump\t// in\n    tag_190:\n        /* \"@openzeppelin/contracts/token/ERC721/ERC721.sol\":3718:3862  function setApprovalForAll(address operator, bool approved) public virtual {... */\n      pop\n      pop\n      jump\t// out\n        /* \"@openzeppelin/contracts/token/ERC721/ERC721.sol\":4985:5193  function safeTransferFrom(address from, address to, uint256 tokenId, bytes memory data) public virtual {... */\n    tag_86:\n        /* \"@openzeppelin/contracts/token/ERC721/ERC721.sol\":5098:5129  transferFrom(from, to, tokenId) */\n      tag_194\n        /* \"@openzeppelin/contracts/token/ERC721/ERC721.sol\":5111:5115  from */\n      dup5\n        /* \"@openzeppelin/contracts/token/ERC721/ERC721.sol\":5117:5119  to */\n      dup5\n        /* \"@openzeppelin/contracts/token/ERC721/ERC721.sol\":5121:5128  tokenId */\n      dup5\n        /* \"@openzeppelin/contracts/token/ERC721/ERC721.sol\":5098:5110  transferFrom */\n      tag_50\n        /* \"@openzeppelin/contracts/token/ERC721/ERC721.sol\":5098:5129  transferFrom(from, to, tokenId) */\n      jump\t// in\n    tag_194:\n        /* \"@openzeppelin/contracts/token/ERC721/ERC721.sol\":5139:5186  _checkOnERC721Received(from, to, tokenId, data) */\n      tag_195\n        /* \"@openzeppelin/contracts/token/ERC721/ERC721.sol\":5162:5166  from */\n      dup5\n        /* \"@openzeppelin/contracts/token/ERC721/ERC721.sol\":5168:5170  to */\n      dup5\n        /* \"@openzeppelin/contracts/token/ERC721/ERC721.sol\":5172:5179  tokenId */\n      dup5\n        /* \"@openzeppelin/contracts/token/ERC721/ERC721.sol\":5181:5185  data */\n      dup5\n        /* \"@openzeppelin/contracts/token/ERC721/ERC721.sol\":5139:5161  _checkOnERC721Received */\n      tag_196\n        /* \"@openzeppelin/contracts/token/ERC721/ERC721.sol\":5139:5186  _checkOnERC721Received(from, to, tokenId, data) */\n      jump\t// in\n    tag_195:\n        /* \"@openzeppelin/contracts/token/ERC721/ERC721.sol\":4985:5193  function safeTransferFrom(address from, address to, uint256 tokenId, bytes memory data) public virtual {... */\n      pop\n      pop\n      pop\n      pop\n      jump\t// out\n        /* \"@openzeppelin/contracts/token/ERC721/extensions/ERC721URIStorage.sol\":1210:1803  function tokenURI(uint256 tokenId) public view virtual override returns (string memory) {... */\n    tag_89:\n        /* \"@openzeppelin/contracts/token/ERC721/extensions/ERC721URIStorage.sol\":1283:1296  string memory */\n      0x60\n        /* \"@openzeppelin/contracts/token/ERC721/extensions/ERC721URIStorage.sol\":1308:1330  _requireOwned(tokenId) */\n      tag_198\n        /* \"@openzeppelin/contracts/token/ERC721/extensions/ERC721URIStorage.sol\":1322:1329  tokenId */\n      dup3\n        /* \"@openzeppelin/contracts/token/ERC721/extensions/ERC721URIStorage.sol\":1308:1321  _requireOwned */\n      tag_109\n        /* \"@openzeppelin/contracts/token/ERC721/extensions/ERC721URIStorage.sol\":1308:1330  _requireOwned(tokenId) */\n      jump\t// in\n    tag_198:\n      pop\n        /* \"@openzeppelin/contracts/token/ERC721/extensions/ERC721URIStorage.sol\":1341:1364  string memory _tokenURI */\n      0x00\n        /* \"@openzeppelin/contracts/token/ERC721/extensions/ERC721URIStorage.sol\":1367:1377  _tokenURIs */\n      0x06\n        /* \"@openzeppelin/contracts/token/ERC721/extensions/ERC721URIStorage.sol\":1367:1386  _tokenURIs[tokenId] */\n      0x00\n        /* \"@openzeppelin/contracts/token/ERC721/extensions/ERC721URIStorage.sol\":1378:1385  tokenId */\n      dup5\n        /* \"@openzeppelin/contracts/token/ERC721/extensions/ERC721URIStorage.sol\":1367:1386  _tokenURIs[tokenId] */\n      dup2\n      mstore\n      0x20\n      add\n      swap1\n      dup2\n      mstore\n      0x20\n      add\n      0x00\n      keccak256\n        /* \"@openzeppelin/contracts/token/ERC721/extensions/ERC721URIStorage.sol\":1341:1386  string memory _tokenURI = _tokenURIs[tokenId] */\n      dup1\n      sload\n      tag_199\n      swap1\n      tag_102\n      jump\t// in\n    tag_199:\n      dup1\n      0x1f\n      add\n      0x20\n      dup1\n      swap2\n      div\n      mul\n      0x20\n      add\n      mload(0x40)\n      swap1\n      dup2\n      add\n      0x40\n      mstore\n      dup1\n      swap3\n      swap2\n      swap1\n      dup2\n      dup2\n      mstore\n      0x20\n      add\n      dup3\n      dup1\n      sload\n      tag_200\n      swap1\n      tag_102\n      jump\t// in\n    tag_200:\n      dup1\n      iszero\n      tag_201\n      jumpi\n      dup1\n      0x1f\n      lt\n      tag_202\n      jumpi\n      0x0100\n      dup1\n      dup4\n      sload\n      div\n      mul\n      dup4\n      mstore\n      swap2\n      0x20\n      add\n      swap2\n      jump(tag_201)\n    tag_202:\n      dup3\n      add\n      swap2\n      swap1\n      0x00\n      mstore\n      keccak256(0x00, 0x20)\n      swap1\n    tag_203:\n      dup2\n      sload\n      dup2\n      mstore\n      swap1\n      0x01\n      add\n      swap1\n      0x20\n      add\n      dup1\n      dup4\n      gt\n      tag_203\n      jumpi\n      dup3\n      swap1\n      sub\n      0x1f\n      and\n      dup3\n      add\n      swap2\n    tag_201:\n      pop\n      pop\n      pop\n      pop\n      pop\n      swap1\n      pop\n        /* \"@openzeppelin/contracts/token/ERC721/extensions/ERC721URIStorage.sol\":1396:1414  string memory base */\n      0x00\n        /* \"@openzeppelin/contracts/token/ERC721/extensions/ERC721URIStorage.sol\":1417:1427  _baseURI() */\n      tag_204\n        /* \"@openzeppelin/contracts/token/ERC721/extensions/ERC721URIStorage.sol\":1417:1425  _baseURI */\n      tag_205\n        /* \"@openzeppelin/contracts/token/ERC721/extensions/ERC721URIStorage.sol\":1417:1427  _baseURI() */\n      jump\t// in\n    tag_204:\n        /* \"@openzeppelin/contracts/token/ERC721/extensions/ERC721URIStorage.sol\":1396:1427  string memory base = _baseURI() */\n      swap1\n      pop\n        /* \"@openzeppelin/contracts/token/ERC721/extensions/ERC721URIStorage.sol\":1522:1523  0 */\n      0x00\n        /* \"@openzeppelin/contracts/token/ERC721/extensions/ERC721URIStorage.sol\":1506:1510  base */\n      dup2\n        /* \"@openzeppelin/contracts/token/ERC721/extensions/ERC721URIStorage.sol\":1500:1518  bytes(base).length */\n      mload\n        /* \"@openzeppelin/contracts/token/ERC721/extensions/ERC721URIStorage.sol\":1500:1523  bytes(base).length == 0 */\n      sub\n        /* \"@openzeppelin/contracts/token/ERC721/extensions/ERC721URIStorage.sol\":1496:1566  if (bytes(base).length == 0) {... */\n      tag_206\n      jumpi\n        /* \"@openzeppelin/contracts/token/ERC721/extensions/ERC721URIStorage.sol\":1546:1555  _tokenURI */\n      dup2\n        /* \"@openzeppelin/contracts/token/ERC721/extensions/ERC721URIStorage.sol\":1539:1555  return _tokenURI */\n      swap3\n      pop\n      pop\n      pop\n      jump(tag_197)\n        /* \"@openzeppelin/contracts/token/ERC721/extensions/ERC721URIStorage.sol\":1496:1566  if (bytes(base).length == 0) {... */\n    tag_206:\n        /* \"@openzeppelin/contracts/token/ERC721/extensions/ERC721URIStorage.sol\":1691:1692  0 */\n      0x00\n        /* \"@openzeppelin/contracts/token/ERC721/extensions/ERC721URIStorage.sol\":1671:1680  _tokenURI */\n      dup3\n        /* \"@openzeppelin/contracts/token/ERC721/extensions/ERC721URIStorage.sol\":1665:1688  bytes(_tokenURI).length */\n      mload\n        /* \"@openzeppelin/contracts/token/ERC721/extensions/ERC721URIStorage.sol\":1665:1692  bytes(_tokenURI).length > 0 */\n      gt\n        /* \"@openzeppelin/contracts/token/ERC721/extensions/ERC721URIStorage.sol\":1661:1756  if (bytes(_tokenURI).length > 0) {... */\n      iszero\n      tag_207\n      jumpi\n        /* \"@openzeppelin/contracts/token/ERC721/extensions/ERC721URIStorage.sol\":1729:1733  base */\n      dup1\n        /* \"@openzeppelin/contracts/token/ERC721/extensions/ERC721URIStorage.sol\":1735:1744  _tokenURI */\n      dup3\n        /* \"@openzeppelin/contracts/token/ERC721/extensions/ERC721URIStorage.sol\":1715:1745  string.concat(base, _tokenURI) */\n      add(0x20, mload(0x40))\n      tag_208\n      swap3\n      swap2\n      swap1\n      tag_209\n      jump\t// in\n    tag_208:\n      mload(0x40)\n      0x20\n      dup2\n      dup4\n      sub\n      sub\n      dup2\n      mstore\n      swap1\n      0x40\n      mstore\n        /* \"@openzeppelin/contracts/token/ERC721/extensions/ERC721URIStorage.sol\":1708:1745  return string.concat(base, _tokenURI) */\n      swap3\n      pop\n      pop\n      pop\n      jump(tag_197)\n        /* \"@openzeppelin/contracts/token/ERC721/extensions/ERC721URIStorage.sol\":1661:1756  if (bytes(_tokenURI).length > 0) {... */\n    tag_207:\n        /* \"@openzeppelin/contracts/token/ERC721/extensions/ERC721URIStorage.sol\":1773:1796  super.tokenURI(tokenId) */\n      tag_210\n        /* \"@openzeppelin/contracts/token/ERC721/extensions/ERC721URIStorage.sol\":1788:1795  tokenId */\n      dup5\n        /* \"@openzeppelin/contracts/token/ERC721/extensions/ERC721URIStorage.sol\":1773:1787  super.tokenURI */\n      tag_211\n        /* \"@openzeppelin/contracts/token/ERC721/extensions/ERC721URIStorage.sol\":1773:1796  super.tokenURI(tokenId) */\n      jump\t// in\n    tag_210:\n        /* \"@openzeppelin/contracts/token/ERC721/extensions/ERC721URIStorage.sol\":1766:1796  return super.tokenURI(tokenId) */\n      swap3\n      pop\n      pop\n      pop\n        /* \"@openzeppelin/contracts/token/ERC721/extensions/ERC721URIStorage.sol\":1210:1803  function tokenURI(uint256 tokenId) public view virtual override returns (string memory) {... */\n    tag_197:\n      swap2\n      swap1\n      pop\n      jump\t// out\n        /* \"@openzeppelin/contracts/token/ERC721/ERC721.sol\":3928:4081  function isApprovedForAll(address owner, address operator) public view virtual returns (bool) {... */\n    tag_94:\n        /* \"@openzeppelin/contracts/token/ERC721/ERC721.sol\":4016:4020  bool */\n      0x00\n        /* \"@openzeppelin/contracts/token/ERC721/ERC721.sol\":4039:4057  _operatorApprovals */\n      0x05\n        /* \"@openzeppelin/contracts/token/ERC721/ERC721.sol\":4039:4064  _operatorApprovals[owner] */\n      0x00\n        /* \"@openzeppelin/contracts/token/ERC721/ERC721.sol\":4058:4063  owner */\n      dup5\n        /* \"@openzeppelin/contracts/token/ERC721/ERC721.sol\":4039:4064  _operatorApprovals[owner] */\n      0xffffffffffffffffffffffffffffffffffffffff\n      and\n      0xffffffffffffffffffffffffffffffffffffffff\n      and\n      dup2\n      mstore\n      0x20\n      add\n      swap1\n      dup2\n      mstore\n      0x20\n      add\n      0x00\n      keccak256\n        /* \"@openzeppelin/contracts/token/ERC721/ERC721.sol\":4039:4074  _operatorApprovals[owner][operator] */\n      0x00\n        /* \"@openzeppelin/contracts/token/ERC721/ERC721.sol\":4065:4073  operator */\n      dup4\n        /* \"@openzeppelin/contracts/token/ERC721/ERC721.sol\":4039:4074  _operatorApprovals[owner][operator] */\n      0xffffffffffffffffffffffffffffffffffffffff\n      and\n      0xffffffffffffffffffffffffffffffffffffffff\n      and\n      dup2\n      mstore\n      0x20\n      add\n      swap1\n      dup2\n      mstore\n      0x20\n      add\n      0x00\n      keccak256\n      0x00\n      swap1\n      sload\n      swap1\n      0x0100\n      exp\n      swap1\n      div\n      0xff\n      and\n        /* \"@openzeppelin/contracts/token/ERC721/ERC721.sol\":4032:4074  return _operatorApprovals[owner][operator] */\n      swap1\n      pop\n        /* \"@openzeppelin/contracts/token/ERC721/ERC721.sol\":3928:4081  function isApprovedForAll(address owner, address operator) public view virtual returns (bool) {... */\n      swap3\n      swap2\n      pop\n      pop\n      jump\t// out\n        /* \"@openzeppelin/contracts/token/ERC721/ERC721.sol\":1561:1861  function supportsInterface(bytes4 interfaceId) public view virtual override(ERC165, IERC165) returns (bool) {... */\n    tag_99:\n        /* \"@openzeppelin/contracts/token/ERC721/ERC721.sol\":1663:1667  bool */\n      0x00\n        /* \"@openzeppelin/contracts/token/ERC721/ERC721.sol\":1713:1738  type(IERC721).interfaceId */\n      0x80ac58cd00000000000000000000000000000000000000000000000000000000\n        /* \"@openzeppelin/contracts/token/ERC721/ERC721.sol\":1698:1738  interfaceId == type(IERC721).interfaceId */\n      not(0xffffffffffffffffffffffffffffffffffffffffffffffffffffffff)\n      and\n        /* \"@openzeppelin/contracts/token/ERC721/ERC721.sol\":1698:1709  interfaceId */\n      dup3\n        /* \"@openzeppelin/contracts/token/ERC721/ERC721.sol\":1698:1738  interfaceId == type(IERC721).interfaceId */\n      not(0xffffffffffffffffffffffffffffffffffffffffffffffffffffffff)\n      and\n      eq\n        /* \"@openzeppelin/contracts/token/ERC721/ERC721.sol\":1698:1802  interfaceId == type(IERC721).interfaceId ||... */\n      dup1\n      tag_214\n      jumpi\n      pop\n        /* \"@openzeppelin/contracts/token/ERC721/ERC721.sol\":1769:1802  type(IERC721Metadata).interfaceId */\n      0x5b5e139f00000000000000000000000000000000000000000000000000000000\n        /* \"@openzeppelin/contracts/token/ERC721/ERC721.sol\":1754:1802  interfaceId == type(IERC721Metadata).interfaceId */\n      not(0xffffffffffffffffffffffffffffffffffffffffffffffffffffffff)\n      and\n        /* \"@openzeppelin/contracts/token/ERC721/ERC721.sol\":1754:1765  interfaceId */\n      dup3\n        /* \"@openzeppelin/contracts/token/ERC721/ERC721.sol\":1754:1802  interfaceId == type(IERC721Metadata).interfaceId */\n      not(0xffffffffffffffffffffffffffffffffffffffffffffffffffffffff)\n      and\n      eq\n        /* \"@openzeppelin/contracts/token/ERC721/ERC721.sol\":1698:1802  interfaceId == type(IERC721).interfaceId ||... */\n    tag_214:\n        /* \"@openzeppelin/contracts/token/ERC721/ERC721.sol\":1698:1854  interfaceId == type(IERC721).interfaceId ||... */\n      dup1\n      tag_215\n      jumpi\n      pop\n        /* \"@openzeppelin/contracts/token/ERC721/ERC721.sol\":1818:1854  super.supportsInterface(interfaceId) */\n      tag_216\n        /* \"@openzeppelin/contracts/token/ERC721/ERC721.sol\":1842:1853  interfaceId */\n      dup3\n        /* \"@openzeppelin/contracts/token/ERC721/ERC721.sol\":1818:1841  super.supportsInterface */\n      tag_217\n        /* \"@openzeppelin/contracts/token/ERC721/ERC721.sol\":1818:1854  super.supportsInterface(interfaceId) */\n      jump\t// in\n    tag_216:\n        /* \"@openzeppelin/contracts/token/ERC721/ERC721.sol\":1698:1854  interfaceId == type(IERC721).interfaceId ||... */\n    tag_215:\n        /* \"@openzeppelin/contracts/token/ERC721/ERC721.sol\":1679:1854  return... */\n      swap1\n      pop\n        /* \"@openzeppelin/contracts/token/ERC721/ERC721.sol\":1561:1861  function supportsInterface(bytes4 interfaceId) public view virtual override(ERC165, IERC165) returns (bool) {... */\n      swap2\n      swap1\n      pop\n      jump\t// out\n        /* \"@openzeppelin/contracts/token/ERC721/ERC721.sol\":16138:16379  function _requireOwned(uint256 tokenId) internal view returns (address) {... */\n    tag_109:\n        /* \"@openzeppelin/contracts/token/ERC721/ERC721.sol\":16201:16208  address */\n      0x00\n        /* \"@openzeppelin/contracts/token/ERC721/ERC721.sol\":16220:16233  address owner */\n      dup1\n        /* \"@openzeppelin/contracts/token/ERC721/ERC721.sol\":16236:16253  _ownerOf(tokenId) */\n      tag_219\n        /* \"@openzeppelin/contracts/token/ERC721/ERC721.sol\":16245:16252  tokenId */\n      dup4\n        /* \"@openzeppelin/contracts/token/ERC721/ERC721.sol\":16236:16244  _ownerOf */\n      tag_220\n        /* \"@openzeppelin/contracts/token/ERC721/ERC721.sol\":16236:16253  _ownerOf(tokenId) */\n      jump\t// in\n    tag_219:\n        /* \"@openzeppelin/contracts/token/ERC721/ERC721.sol\":16220:16253  address owner = _ownerOf(tokenId) */\n      swap1\n      pop\n        /* \"@openzeppelin/contracts/token/ERC721/ERC721.sol\":16284:16285  0 */\n      0x00\n        /* \"@openzeppelin/contracts/token/ERC721/ERC721.sol\":16267:16286  owner == address(0) */\n      0xffffffffffffffffffffffffffffffffffffffff\n      and\n        /* \"@openzeppelin/contracts/token/ERC721/ERC721.sol\":16267:16272  owner */\n      dup2\n        /* \"@openzeppelin/contracts/token/ERC721/ERC721.sol\":16267:16286  owner == address(0) */\n      0xffffffffffffffffffffffffffffffffffffffff\n      and\n      sub\n        /* \"@openzeppelin/contracts/token/ERC721/ERC721.sol\":16263:16351  if (owner == address(0)) {... */\n      tag_221\n      jumpi\n        /* \"@openzeppelin/contracts/token/ERC721/ERC721.sol\":16332:16339  tokenId */\n      dup3\n        /* \"@openzeppelin/contracts/token/ERC721/ERC721.sol\":16309:16340  ERC721NonexistentToken(tokenId) */\n      mload(0x40)\n      0x7e27328900000000000000000000000000000000000000000000000000000000\n      dup2\n      mstore\n      0x04\n      add\n      tag_222\n      swap2\n      swap1\n      tag_56\n      jump\t// in\n    tag_222:\n      mload(0x40)\n      dup1\n      swap2\n      sub\n      swap1\n      revert\n        /* \"@openzeppelin/contracts/token/ERC721/ERC721.sol\":16263:16351  if (owner == address(0)) {... */\n    tag_221:\n        /* \"@openzeppelin/contracts/token/ERC721/ERC721.sol\":16367:16372  owner */\n      dup1\n        /* \"@openzeppelin/contracts/token/ERC721/ERC721.sol\":16360:16372  return owner */\n      swap2\n      pop\n      pop\n        /* \"@openzeppelin/contracts/token/ERC721/ERC721.sol\":16138:16379  function _requireOwned(uint256 tokenId) internal view returns (address) {... */\n      swap2\n      swap1\n      pop\n      jump\t// out\n        /* \"@openzeppelin/contracts/token/ERC721/ERC721.sol\":5938:6065  function _getApproved(uint256 tokenId) internal view virtual returns (address) {... */\n    tag_111:\n        /* \"@openzeppelin/contracts/token/ERC721/ERC721.sol\":6008:6015  address */\n      0x00\n        /* \"@openzeppelin/contracts/token/ERC721/ERC721.sol\":6034:6049  _tokenApprovals */\n      0x04\n        /* \"@openzeppelin/contracts/token/ERC721/ERC721.sol\":6034:6058  _tokenApprovals[tokenId] */\n      0x00\n        /* \"@openzeppelin/contracts/token/ERC721/ERC721.sol\":6050:6057  tokenId */\n      dup4\n        /* \"@openzeppelin/contracts/token/ERC721/ERC721.sol\":6034:6058  _tokenApprovals[tokenId] */\n      dup2\n      mstore\n      0x20\n      add\n      swap1\n      dup2\n      mstore\n      0x20\n      add\n      0x00\n      keccak256\n      0x00\n      swap1\n      sload\n      swap1\n      0x0100\n      exp\n      swap1\n      div\n      0xffffffffffffffffffffffffffffffffffffffff\n      and\n        /* \"@openzeppelin/contracts/token/ERC721/ERC721.sol\":6027:6058  return _tokenApprovals[tokenId] */\n      swap1\n      pop\n        /* \"@openzeppelin/contracts/token/ERC721/ERC721.sol\":5938:6065  function _getApproved(uint256 tokenId) internal view virtual returns (address) {... */\n      swap2\n      swap1\n      pop\n      jump\t// out\n        /* \"@openzeppelin/contracts/utils/Context.sol\":656:752  function _msgSender() internal view virtual returns (address) {... */\n    tag_115:\n        /* \"@openzeppelin/contracts/utils/Context.sol\":709:716  address */\n      0x00\n        /* \"@openzeppelin/contracts/utils/Context.sol\":735:745  msg.sender */\n      caller\n        /* \"@openzeppelin/contracts/utils/Context.sol\":728:745  return msg.sender */\n      swap1\n      pop\n        /* \"@openzeppelin/contracts/utils/Context.sol\":656:752  function _msgSender() internal view virtual returns (address) {... */\n      swap1\n      jump\t// out\n        /* \"@openzeppelin/contracts/token/ERC721/ERC721.sol\":14418:14538  function _approve(address to, uint256 tokenId, address auth) internal {... */\n    tag_116:\n        /* \"@openzeppelin/contracts/token/ERC721/ERC721.sol\":14498:14531  _approve(to, tokenId, auth, true) */\n      tag_226\n        /* \"@openzeppelin/contracts/token/ERC721/ERC721.sol\":14507:14509  to */\n      dup4\n        /* \"@openzeppelin/contracts/token/ERC721/ERC721.sol\":14511:14518  tokenId */\n      dup4\n        /* \"@openzeppelin/contracts/token/ERC721/ERC721.sol\":14520:14524  auth */\n      dup4\n        /* \"@openzeppelin/contracts/token/ERC721/ERC721.sol\":14526:14530  true */\n      0x01\n        /* \"@openzeppelin/contracts/token/ERC721/ERC721.sol\":14498:14506  _approve */\n      tag_227\n        /* \"@openzeppelin/contracts/token/ERC721/ERC721.sol\":14498:14531  _approve(to, tokenId, auth, true) */\n      jump\t// in\n    tag_226:\n        /* \"@openzeppelin/contracts/token/ERC721/ERC721.sol\":14418:14538  function _approve(address to, uint256 tokenId, address auth) internal {... */\n      pop\n      pop\n      pop\n      jump\t// out\n        /* \"@openzeppelin/contracts/utils/Counters.sol\":827:939  function current(Counter storage counter) internal view returns (uint256) {... */\n    tag_119:\n        /* \"@openzeppelin/contracts/utils/Counters.sol\":892:899  uint256 */\n      0x00\n        /* \"@openzeppelin/contracts/utils/Counters.sol\":918:925  counter */\n      dup2\n        /* \"@openzeppelin/contracts/utils/Counters.sol\":918:932  counter._value */\n      0x00\n      add\n      sload\n        /* \"@openzeppelin/contracts/utils/Counters.sol\":911:932  return counter._value */\n      swap1\n      pop\n        /* \"@openzeppelin/contracts/utils/Counters.sol\":827:939  function current(Counter storage counter) internal view returns (uint256) {... */\n      swap2\n      swap1\n      pop\n      jump\t// out\n        /* \"@openzeppelin/contracts/token/ERC721/ERC721.sol\":8838:9633  function _update(address to, uint256 tokenId, address auth) internal virtual returns (address) {... */\n    tag_141:\n        /* \"@openzeppelin/contracts/token/ERC721/ERC721.sol\":8924:8931  address */\n      0x00\n        /* \"@openzeppelin/contracts/token/ERC721/ERC721.sol\":8943:8955  address from */\n      dup1\n        /* \"@openzeppelin/contracts/token/ERC721/ERC721.sol\":8958:8975  _ownerOf(tokenId) */\n      tag_230\n        /* \"@openzeppelin/contracts/token/ERC721/ERC721.sol\":8967:8974  tokenId */\n      dup5\n        /* \"@openzeppelin/contracts/token/ERC721/ERC721.sol\":8958:8966  _ownerOf */\n      tag_220\n        /* \"@openzeppelin/contracts/token/ERC721/ERC721.sol\":8958:8975  _ownerOf(tokenId) */\n      jump\t// in\n    tag_230:\n        /* \"@openzeppelin/contracts/token/ERC721/ERC721.sol\":8943:8975  address from = _ownerOf(tokenId) */\n      swap1\n      pop\n        /* \"@openzeppelin/contracts/token/ERC721/ERC721.sol\":9051:9052  0 */\n      0x00\n        /* \"@openzeppelin/contracts/token/ERC721/ERC721.sol\":9035:9053  auth != address(0) */\n      0xffffffffffffffffffffffffffffffffffffffff\n      and\n        /* \"@openzeppelin/contracts/token/ERC721/ERC721.sol\":9035:9039  auth */\n      dup4\n        /* \"@openzeppelin/contracts/token/ERC721/ERC721.sol\":9035:9053  auth != address(0) */\n      0xffffffffffffffffffffffffffffffffffffffff\n      and\n      eq\n        /* \"@openzeppelin/contracts/token/ERC721/ERC721.sol\":9031:9117  if (auth != address(0)) {... */\n      tag_231\n      jumpi\n        /* \"@openzeppelin/contracts/token/ERC721/ERC721.sol\":9069:9106  _checkAuthorized(from, auth, tokenId) */\n      tag_232\n        /* \"@openzeppelin/contracts/token/ERC721/ERC721.sol\":9086:9090  from */\n      dup2\n        /* \"@openzeppelin/contracts/token/ERC721/ERC721.sol\":9092:9096  auth */\n      dup5\n        /* \"@openzeppelin/contracts/token/ERC721/ERC721.sol\":9098:9105  tokenId */\n      dup7\n        /* \"@openzeppelin/contracts/token/ERC721/ERC721.sol\":9069:9085  _checkAuthorized */\n      tag_233\n        /* \"@openzeppelin/contracts/token/ERC721/ERC721.sol\":9069:9106  _checkAuthorized(from, auth, tokenId) */\n      jump\t// in\n    tag_232:\n        /* \"@openzeppelin/contracts/token/ERC721/ERC721.sol\":9031:9117  if (auth != address(0)) {... */\n    tag_231:\n        /* \"@openzeppelin/contracts/token/ERC721/ERC721.sol\":9177:9178  0 */\n      0x00\n        /* \"@openzeppelin/contracts/token/ERC721/ERC721.sol\":9161:9179  from != address(0) */\n      0xffffffffffffffffffffffffffffffffffffffff\n      and\n        /* \"@openzeppelin/contracts/token/ERC721/ERC721.sol\":9161:9165  from */\n      dup2\n        /* \"@openzeppelin/contracts/token/ERC721/ERC721.sol\":9161:9179  from != address(0) */\n      0xffffffffffffffffffffffffffffffffffffffff\n      and\n      eq\n        /* \"@openzeppelin/contracts/token/ERC721/ERC721.sol\":9157:9413  if (from != address(0)) {... */\n      tag_234\n      jumpi\n        /* \"@openzeppelin/contracts/token/ERC721/ERC721.sol\":9277:9325  _approve(address(0), tokenId, address(0), false) */\n      tag_235\n        /* \"@openzeppelin/contracts/token/ERC721/ERC721.sol\":9294:9295  0 */\n      0x00\n        /* \"@openzeppelin/contracts/token/ERC721/ERC721.sol\":9298:9305  tokenId */\n      dup6\n        /* \"@openzeppelin/contracts/token/ERC721/ERC721.sol\":9315:9316  0 */\n      0x00\n        /* \"@openzeppelin/contracts/token/ERC721/ERC721.sol\":9319:9324  false */\n      dup1\n        /* \"@openzeppelin/contracts/token/ERC721/ERC721.sol\":9277:9285  _approve */\n      tag_227\n        /* \"@openzeppelin/contracts/token/ERC721/ERC721.sol\":9277:9325  _approve(address(0), tokenId, address(0), false) */\n      jump\t// in\n    tag_235:\n        /* \"@openzeppelin/contracts/token/ERC721/ERC721.sol\":9387:9388  1 */\n      0x01\n        /* \"@openzeppelin/contracts/token/ERC721/ERC721.sol\":9368:9377  _balances */\n      0x03\n        /* \"@openzeppelin/contracts/token/ERC721/ERC721.sol\":9368:9383  _balances[from] */\n      0x00\n        /* \"@openzeppelin/contracts/token/ERC721/ERC721.sol\":9378:9382  from */\n      dup4\n        /* \"@openzeppelin/contracts/token/ERC721/ERC721.sol\":9368:9383  _balances[from] */\n      0xffffffffffffffffffffffffffffffffffffffff\n      and\n      0xffffffffffffffffffffffffffffffffffffffff\n      and\n      dup2\n      mstore\n      0x20\n      add\n      swap1\n      dup2\n      mstore\n      0x20\n      add\n      0x00\n      keccak256\n      0x00\n        /* \"@openzeppelin/contracts/token/ERC721/ERC721.sol\":9368:9388  _balances[from] -= 1 */\n      dup3\n      dup3\n      sload\n      sub\n      swap3\n      pop\n      pop\n      dup2\n      swap1\n      sstore\n      pop\n        /* \"@openzeppelin/contracts/token/ERC721/ERC721.sol\":9157:9413  if (from != address(0)) {... */\n    tag_234:\n        /* \"@openzeppelin/contracts/token/ERC721/ERC721.sol\":9441:9442  0 */\n      0x00\n        /* \"@openzeppelin/contracts/token/ERC721/ERC721.sol\":9427:9443  to != address(0) */\n      0xffffffffffffffffffffffffffffffffffffffff\n      and\n        /* \"@openzeppelin/contracts/token/ERC721/ERC721.sol\":9427:9429  to */\n      dup6\n        /* \"@openzeppelin/contracts/token/ERC721/ERC721.sol\":9427:9443  to != address(0) */\n      0xffffffffffffffffffffffffffffffffffffffff\n      and\n      eq\n        /* \"@openzeppelin/contracts/token/ERC721/ERC721.sol\":9423:9530  if (to != address(0)) {... */\n      tag_236\n      jumpi\n        /* \"@openzeppelin/contracts/token/ERC721/ERC721.sol\":9504:9505  1 */\n      0x01\n        /* \"@openzeppelin/contracts/token/ERC721/ERC721.sol\":9487:9496  _balances */\n      0x03\n        /* \"@openzeppelin/contracts/token/ERC721/ERC721.sol\":9487:9500  _balances[to] */\n      0x00\n        /* \"@openzeppelin/contracts/token/ERC721/ERC721.sol\":9497:9499  to */\n      dup8\n        /* \"@openzeppelin/contracts/token/ERC721/ERC721.sol\":9487:9500  _balances[to] */\n      0xffffffffffffffffffffffffffffffffffffffff\n      and\n      0xffffffffffffffffffffffffffffffffffffffff\n      and\n      dup2\n      mstore\n      0x20\n      add\n      swap1\n      dup2\n      mstore\n      0x20\n      add\n      0x00\n      keccak256\n      0x00\n        /* \"@openzeppelin/contracts/token/ERC721/ERC721.sol\":9487:9505  _balances[to] += 1 */\n      dup3\n      dup3\n      sload\n      add\n      swap3\n      pop\n      pop\n      dup2\n      swap1\n      sstore\n      pop\n        /* \"@openzeppelin/contracts/token/ERC721/ERC721.sol\":9423:9530  if (to != address(0)) {... */\n    tag_236:\n        /* \"@openzeppelin/contracts/token/ERC721/ERC721.sol\":9559:9561  to */\n      dup5\n        /* \"@openzeppelin/contracts/token/ERC721/ERC721.sol\":9540:9547  _owners */\n      0x02\n        /* \"@openzeppelin/contracts/token/ERC721/ERC721.sol\":9540:9556  _owners[tokenId] */\n      0x00\n        /* \"@openzeppelin/contracts/token/ERC721/ERC721.sol\":9548:9555  tokenId */\n      dup7\n        /* \"@openzeppelin/contracts/token/ERC721/ERC721.sol\":9540:9556  _owners[tokenId] */\n      dup2\n      mstore\n      0x20\n      add\n      swap1\n      dup2\n      mstore\n      0x20\n      add\n      0x00\n      keccak256\n      0x00\n        /* \"@openzeppelin/contracts/token/ERC721/ERC721.sol\":9540:9561  _owners[tokenId] = to */\n      0x0100\n      exp\n      dup2\n      sload\n      dup2\n      0xffffffffffffffffffffffffffffffffffffffff\n      mul\n      not\n      and\n      swap1\n      dup4\n      0xffffffffffffffffffffffffffffffffffffffff\n      and\n      mul\n      or\n      swap1\n      sstore\n      pop\n        /* \"@openzeppelin/contracts/token/ERC721/ERC721.sol\":9596:9603  tokenId */\n      dup4\n        /* \"@openzeppelin/contracts/token/ERC721/ERC721.sol\":9592:9594  to */\n      dup6\n        /* \"@openzeppelin/contracts/token/ERC721/ERC721.sol\":9577:9604  Transfer(from, to, tokenId) */\n      0xffffffffffffffffffffffffffffffffffffffff\n      and\n        /* \"@openzeppelin/contracts/token/ERC721/ERC721.sol\":9586:9590  from */\n      dup3\n        /* \"@openzeppelin/contracts/token/ERC721/ERC721.sol\":9577:9604  Transfer(from, to, tokenId) */\n      0xffffffffffffffffffffffffffffffffffffffff\n      and\n      0xddf252ad1be2c89b69c2b068fc378daa952ba7f163c4a11628f55a4df523b3ef\n      mload(0x40)\n      mload(0x40)\n      dup1\n      swap2\n      sub\n      swap1\n      log4\n        /* \"@openzeppelin/contracts/token/ERC721/ERC721.sol\":9622:9626  from */\n      dup1\n        /* \"@openzeppelin/contracts/token/ERC721/ERC721.sol\":9615:9626  return from */\n      swap2\n      pop\n      pop\n        /* \"@openzeppelin/contracts/token/ERC721/ERC721.sol\":8838:9633  function _update(address to, uint256 tokenId, address auth) internal virtual returns (address) {... */\n      swap4\n      swap3\n      pop\n      pop\n      pop\n      jump\t// out\n        /* \"@openzeppelin/contracts/utils/Counters.sol\":945:1068  function increment(Counter storage counter) internal {... */\n    tag_147:\n        /* \"@openzeppelin/contracts/utils/Counters.sol\":1050:1051  1 */\n      0x01\n        /* \"@openzeppelin/contracts/utils/Counters.sol\":1032:1039  counter */\n      dup2\n        /* \"@openzeppelin/contracts/utils/Counters.sol\":1032:1046  counter._value */\n      0x00\n      add\n      0x00\n        /* \"@openzeppelin/contracts/utils/Counters.sol\":1032:1051  counter._value += 1 */\n      dup3\n      dup3\n      sload\n      add\n      swap3\n      pop\n      pop\n      dup2\n      swap1\n      sstore\n      pop\n        /* \"@openzeppelin/contracts/utils/Counters.sol\":945:1068  function increment(Counter storage counter) internal {... */\n      pop\n      jump\t// out\n        /* \"@openzeppelin/contracts/token/ERC721/ERC721.sol\":9955:10282  function _mint(address to, uint256 tokenId) internal {... */\n    tag_150:\n        /* \"@openzeppelin/contracts/token/ERC721/ERC721.sol\":10036:10037  0 */\n      0x00\n        /* \"@openzeppelin/contracts/token/ERC721/ERC721.sol\":10022:10038  to == address(0) */\n      0xffffffffffffffffffffffffffffffffffffffff\n      and\n        /* \"@openzeppelin/contracts/token/ERC721/ERC721.sol\":10022:10024  to */\n      dup3\n        /* \"@openzeppelin/contracts/token/ERC721/ERC721.sol\":10022:10038  to == address(0) */\n      0xffffffffffffffffffffffffffffffffffffffff\n      and\n      sub\n        /* \"@openzeppelin/contracts/token/ERC721/ERC721.sol\":10018:10105  if (to == address(0)) {... */\n      tag_239\n      jumpi\n        /* \"@openzeppelin/contracts/token/ERC721/ERC721.sol\":10091:10092  0 */\n      0x00\n        /* \"@openzeppelin/contracts/token/ERC721/ERC721.sol\":10061:10094  ERC721InvalidReceiver(address(0)) */\n      mload(0x40)\n      0x64a0ae9200000000000000000000000000000000000000000000000000000000\n      dup2\n      mstore\n      0x04\n      add\n      tag_240\n      swap2\n      swap1\n      tag_38\n      jump\t// in\n    tag_240:\n      mload(0x40)\n      dup1\n      swap2\n      sub\n      swap1\n      revert\n        /* \"@openzeppelin/contracts/token/ERC721/ERC721.sol\":10018:10105  if (to == address(0)) {... */\n    tag_239:\n        /* \"@openzeppelin/contracts/token/ERC721/ERC721.sol\":10114:10135  address previousOwner */\n      0x00\n        /* \"@openzeppelin/contracts/token/ERC721/ERC721.sol\":10138:10170  _update(to, tokenId, address(0)) */\n      tag_241\n        /* \"@openzeppelin/contracts/token/ERC721/ERC721.sol\":10146:10148  to */\n      dup4\n        /* \"@openzeppelin/contracts/token/ERC721/ERC721.sol\":10150:10157  tokenId */\n      dup4\n        /* \"@openzeppelin/contracts/token/ERC721/ERC721.sol\":10167:10168  0 */\n      0x00\n        /* \"@openzeppelin/contracts/token/ERC721/ERC721.sol\":10138:10145  _update */\n      tag_141\n        /* \"@openzeppelin/contracts/token/ERC721/ERC721.sol\":10138:10170  _update(to, tokenId, address(0)) */\n      jump\t// in\n    tag_241:\n        /* \"@openzeppelin/contracts/token/ERC721/ERC721.sol\":10114:10170  address previousOwner = _update(to, tokenId, address(0)) */\n      swap1\n      pop\n        /* \"@openzeppelin/contracts/token/ERC721/ERC721.sol\":10209:10210  0 */\n      0x00\n        /* \"@openzeppelin/contracts/token/ERC721/ERC721.sol\":10184:10211  previousOwner != address(0) */\n      0xffffffffffffffffffffffffffffffffffffffff\n      and\n        /* \"@openzeppelin/contracts/token/ERC721/ERC721.sol\":10184:10197  previousOwner */\n      dup2\n        /* \"@openzeppelin/contracts/token/ERC721/ERC721.sol\":10184:10211  previousOwner != address(0) */\n      0xffffffffffffffffffffffffffffffffffffffff\n      and\n      eq\n        /* \"@openzeppelin/contracts/token/ERC721/ERC721.sol\":10180:10276  if (previousOwner != address(0)) {... */\n      tag_242\n      jumpi\n        /* \"@openzeppelin/contracts/token/ERC721/ERC721.sol\":10262:10263  0 */\n      0x00\n        /* \"@openzeppelin/contracts/token/ERC721/ERC721.sol\":10234:10265  ERC721InvalidSender(address(0)) */\n      mload(0x40)\n      0x73c6ac6e00000000000000000000000000000000000000000000000000000000\n      dup2\n      mstore\n      0x04\n      add\n      tag_243\n      swap2\n      swap1\n      tag_38\n      jump\t// in\n    tag_243:\n      mload(0x40)\n      dup1\n      swap2\n      sub\n      swap1\n      revert\n        /* \"@openzeppelin/contracts/token/ERC721/ERC721.sol\":10180:10276  if (previousOwner != address(0)) {... */\n    tag_242:\n        /* \"@openzeppelin/contracts/token/ERC721/ERC721.sol\":10008:10282  {... */\n      pop\n        /* \"@openzeppelin/contracts/token/ERC721/ERC721.sol\":9955:10282  function _mint(address to, uint256 tokenId) internal {... */\n      pop\n      pop\n      jump\t// out\n        /* \"@openzeppelin/contracts/token/ERC721/extensions/ERC721URIStorage.sol\":1922:2089  function _setTokenURI(uint256 tokenId, string memory _tokenURI) internal virtual {... */\n    tag_152:\n        /* \"@openzeppelin/contracts/token/ERC721/extensions/ERC721URIStorage.sol\":2035:2044  _tokenURI */\n      dup1\n        /* \"@openzeppelin/contracts/token/ERC721/extensions/ERC721URIStorage.sol\":2013:2023  _tokenURIs */\n      0x06\n        /* \"@openzeppelin/contracts/token/ERC721/extensions/ERC721URIStorage.sol\":2013:2032  _tokenURIs[tokenId] */\n      0x00\n        /* \"@openzeppelin/contracts/token/ERC721/extensions/ERC721URIStorage.sol\":2024:2031  tokenId */\n      dup5\n        /* \"@openzeppelin/contracts/token/ERC721/extensions/ERC721URIStorage.sol\":2013:2032  _tokenURIs[tokenId] */\n      dup2\n      mstore\n      0x20\n      add\n      swap1\n      dup2\n      mstore\n      0x20\n      add\n      0x00\n      keccak256\n        /* \"@openzeppelin/contracts/token/ERC721/extensions/ERC721URIStorage.sol\":2013:2044  _tokenURIs[tokenId] = _tokenURI */\n      swap1\n      dup2\n      tag_245\n      swap2\n      swap1\n      tag_246\n      jump\t// in\n    tag_245:\n      pop\n        /* \"@openzeppelin/contracts/token/ERC721/extensions/ERC721URIStorage.sol\":2059:2082  MetadataUpdate(tokenId) */\n      0xf8e1a15aba9398e019f0b49df1a4fde98ee17ae345cb5f6b5e2c27f5033e8ce7\n        /* \"@openzeppelin/contracts/token/ERC721/extensions/ERC721URIStorage.sol\":2074:2081  tokenId */\n      dup3\n        /* \"@openzeppelin/contracts/token/ERC721/extensions/ERC721URIStorage.sol\":2059:2082  MetadataUpdate(tokenId) */\n      mload(0x40)\n      tag_247\n      swap2\n      swap1\n      tag_56\n      jump\t// in\n    tag_247:\n      mload(0x40)\n      dup1\n      swap2\n      sub\n      swap1\n      log1\n        /* \"@openzeppelin/contracts/token/ERC721/extensions/ERC721URIStorage.sol\":1922:2089  function _setTokenURI(uint256 tokenId, string memory _tokenURI) internal virtual {... */\n      pop\n      pop\n      jump\t// out\n        /* \"@openzeppelin/contracts/token/ERC721/ERC721.sol\":15591:15903  function _setApprovalForAll(address owner, address operator, bool approved) internal virtual {... */\n    tag_192:\n        /* \"@openzeppelin/contracts/token/ERC721/ERC721.sol\":15718:15719  0 */\n      0x00\n        /* \"@openzeppelin/contracts/token/ERC721/ERC721.sol\":15698:15720  operator == address(0) */\n      0xffffffffffffffffffffffffffffffffffffffff\n      and\n        /* \"@openzeppelin/contracts/token/ERC721/ERC721.sol\":15698:15706  operator */\n      dup3\n        /* \"@openzeppelin/contracts/token/ERC721/ERC721.sol\":15698:15720  operator == address(0) */\n      0xffffffffffffffffffffffffffffffffffffffff\n      and\n      sub\n        /* \"@openzeppelin/contracts/token/ERC721/ERC721.sol\":15694:15785  if (operator == address(0)) {... */\n      tag_249\n      jumpi\n        /* \"@openzeppelin/contracts/token/ERC721/ERC721.sol\":15765:15773  operator */\n      dup2\n        /* \"@openzeppelin/contracts/token/ERC721/ERC721.sol\":15743:15774  ERC721InvalidOperator(operator) */\n      mload(0x40)\n      0x5b08ba1800000000000000000000000000000000000000000000000000000000\n      dup2\n      mstore\n      0x04\n      add\n      tag_250\n      swap2\n      swap1\n      tag_38\n      jump\t// in\n    tag_250:\n      mload(0x40)\n      dup1\n      swap2\n      sub\n      swap1\n      revert\n        /* \"@openzeppelin/contracts/token/ERC721/ERC721.sol\":15694:15785  if (operator == address(0)) {... */\n    tag_249:\n        /* \"@openzeppelin/contracts/token/ERC721/ERC721.sol\":15832:15840  approved */\n      dup1\n        /* \"@openzeppelin/contracts/token/ERC721/ERC721.sol\":15794:15812  _operatorApprovals */\n      0x05\n        /* \"@openzeppelin/contracts/token/ERC721/ERC721.sol\":15794:15819  _operatorApprovals[owner] */\n      0x00\n        /* \"@openzeppelin/contracts/token/ERC721/ERC721.sol\":15813:15818  owner */\n      dup6\n        /* \"@openzeppelin/contracts/token/ERC721/ERC721.sol\":15794:15819  _operatorApprovals[owner] */\n      0xffffffffffffffffffffffffffffffffffffffff\n      and\n      0xffffffffffffffffffffffffffffffffffffffff\n      and\n      dup2\n      mstore\n      0x20\n      add\n      swap1\n      dup2\n      mstore\n      0x20\n      add\n      0x00\n      keccak256\n        /* \"@openzeppelin/contracts/token/ERC721/ERC721.sol\":15794:15829  _operatorApprovals[owner][operator] */\n      0x00\n        /* \"@openzeppelin/contracts/token/ERC721/ERC721.sol\":15820:15828  operator */\n      dup5\n        /* \"@openzeppelin/contracts/token/ERC721/ERC721.sol\":15794:15829  _operatorApprovals[owner][operator] */\n      0xffffffffffffffffffffffffffffffffffffffff\n      and\n      0xffffffffffffffffffffffffffffffffffffffff\n      and\n      dup2\n      mstore\n      0x20\n      add\n      swap1\n      dup2\n      mstore\n      0x20\n      add\n      0x00\n      keccak256\n      0x00\n        /* \"@openzeppelin/contracts/token/ERC721/ERC721.sol\":15794:15840  _operatorApprovals[owner][operator] = approved */\n      0x0100\n      exp\n      dup2\n      sload\n      dup2\n      0xff\n      mul\n      not\n      and\n      swap1\n      dup4\n      iszero\n      iszero\n      mul\n      or\n      swap1\n      sstore\n      pop\n        /* \"@openzeppelin/contracts/token/ERC721/ERC721.sol\":15877:15885  operator */\n      dup2\n        /* \"@openzeppelin/contracts/token/ERC721/ERC721.sol\":15855:15896  ApprovalForAll(owner, operator, approved) */\n      0xffffffffffffffffffffffffffffffffffffffff\n      and\n        /* \"@openzeppelin/contracts/token/ERC721/ERC721.sol\":15870:15875  owner */\n      dup4\n        /* \"@openzeppelin/contracts/token/ERC721/ERC721.sol\":15855:15896  ApprovalForAll(owner, operator, approved) */\n      0xffffffffffffffffffffffffffffffffffffffff\n      and\n      0x17307eab39ab6107e8899845ad3d59bd9653f200f220920489ca2b5937696c31\n        /* \"@openzeppelin/contracts/token/ERC721/ERC721.sol\":15887:15895  approved */\n      dup4\n        /* \"@openzeppelin/contracts/token/ERC721/ERC721.sol\":15855:15896  ApprovalForAll(owner, operator, approved) */\n      mload(0x40)\n      tag_251\n      swap2\n      swap1\n      tag_28\n      jump\t// in\n    tag_251:\n      mload(0x40)\n      dup1\n      swap2\n      sub\n      swap1\n      log3\n        /* \"@openzeppelin/contracts/token/ERC721/ERC721.sol\":15591:15903  function _setApprovalForAll(address owner, address operator, bool approved) internal virtual {... */\n      pop\n      pop\n      pop\n      jump\t// out\n        /* \"@openzeppelin/contracts/token/ERC721/ERC721.sol\":16918:17700  function _checkOnERC721Received(address from, address to, uint256 tokenId, bytes memory data) private {... */\n    tag_196:\n        /* \"@openzeppelin/contracts/token/ERC721/ERC721.sol\":17051:17052  0 */\n      0x00\n        /* \"@openzeppelin/contracts/token/ERC721/ERC721.sol\":17034:17036  to */\n      dup4\n        /* \"@openzeppelin/contracts/token/ERC721/ERC721.sol\":17034:17048  to.code.length */\n      0xffffffffffffffffffffffffffffffffffffffff\n      and\n      extcodesize\n        /* \"@openzeppelin/contracts/token/ERC721/ERC721.sol\":17034:17052  to.code.length > 0 */\n      gt\n        /* \"@openzeppelin/contracts/token/ERC721/ERC721.sol\":17030:17694  if (to.code.length > 0) {... */\n      iszero\n      tag_253\n      jumpi\n        /* \"@openzeppelin/contracts/token/ERC721/ERC721.sol\":17088:17090  to */\n      dup3\n        /* \"@openzeppelin/contracts/token/ERC721/ERC721.sol\":17072:17108  IERC721Receiver(to).onERC721Received */\n      0xffffffffffffffffffffffffffffffffffffffff\n      and\n      0x150b7a02\n        /* \"@openzeppelin/contracts/token/ERC721/ERC721.sol\":17109:17121  _msgSender() */\n      tag_254\n        /* \"@openzeppelin/contracts/token/ERC721/ERC721.sol\":17109:17119  _msgSender */\n      tag_115\n        /* \"@openzeppelin/contracts/token/ERC721/ERC721.sol\":17109:17121  _msgSender() */\n      jump\t// in\n    tag_254:\n        /* \"@openzeppelin/contracts/token/ERC721/ERC721.sol\":17123:17127  from */\n      dup7\n        /* \"@openzeppelin/contracts/token/ERC721/ERC721.sol\":17129:17136  tokenId */\n      dup6\n        /* \"@openzeppelin/contracts/token/ERC721/ERC721.sol\":17138:17142  data */\n      dup6\n        /* \"@openzeppelin/contracts/token/ERC721/ERC721.sol\":17072:17143  IERC721Receiver(to).onERC721Received(_msgSender(), from, tokenId, data) */\n      mload(0x40)\n      dup6\n      0xffffffff\n      and\n      0xe0\n      shl\n      dup2\n      mstore\n      0x04\n      add\n      tag_255\n      swap5\n      swap4\n      swap3\n      swap2\n      swap1\n      tag_256\n      jump\t// in\n    tag_255:\n      0x20\n      mload(0x40)\n      dup1\n      dup4\n      sub\n      dup2\n      0x00\n      dup8\n      gas\n      call\n      swap3\n      pop\n      pop\n      pop\n      dup1\n      iszero\n      tag_257\n      jumpi\n      pop\n      mload(0x40)\n      returndatasize\n      not(0x1f)\n      0x1f\n      dup3\n      add\n      and\n      dup3\n      add\n      dup1\n      0x40\n      mstore\n      pop\n      dup2\n      add\n      swap1\n      tag_258\n      swap2\n      swap1\n      tag_259\n      jump\t// in\n    tag_258:\n      0x01\n    tag_257:\n        /* \"@openzeppelin/contracts/token/ERC721/ERC721.sol\":17068:17684  try IERC721Receiver(to).onERC721Received(_msgSender(), from, tokenId, data) returns (bytes4 retval) {... */\n      tag_260\n      jumpi\n      returndatasize\n      dup1\n      0x00\n      dup2\n      eq\n      tag_265\n      jumpi\n      mload(0x40)\n      swap2\n      pop\n      and(add(returndatasize, 0x3f), not(0x1f))\n      dup3\n      add\n      0x40\n      mstore\n      returndatasize\n      dup3\n      mstore\n      returndatasize\n      0x00\n      0x20\n      dup5\n      add\n      returndatacopy\n      jump(tag_264)\n    tag_265:\n      0x60\n      swap2\n      pop\n    tag_264:\n      pop\n        /* \"@openzeppelin/contracts/token/ERC721/ERC721.sol\":17398:17399  0 */\n      0x00\n        /* \"@openzeppelin/contracts/token/ERC721/ERC721.sol\":17381:17387  reason */\n      dup2\n        /* \"@openzeppelin/contracts/token/ERC721/ERC721.sol\":17381:17394  reason.length */\n      mload\n        /* \"@openzeppelin/contracts/token/ERC721/ERC721.sol\":17381:17399  reason.length == 0 */\n      sub\n        /* \"@openzeppelin/contracts/token/ERC721/ERC721.sol\":17377:17670  if (reason.length == 0) {... */\n      tag_266\n      jumpi\n        /* \"@openzeppelin/contracts/token/ERC721/ERC721.sol\":17452:17454  to */\n      dup4\n        /* \"@openzeppelin/contracts/token/ERC721/ERC721.sol\":17430:17455  ERC721InvalidReceiver(to) */\n      mload(0x40)\n      0x64a0ae9200000000000000000000000000000000000000000000000000000000\n      dup2\n      mstore\n      0x04\n      add\n      tag_267\n      swap2\n      swap1\n      tag_38\n      jump\t// in\n    tag_267:\n      mload(0x40)\n      dup1\n      swap2\n      sub\n      swap1\n      revert\n        /* \"@openzeppelin/contracts/token/ERC721/ERC721.sol\":17377:17670  if (reason.length == 0) {... */\n    tag_266:\n        /* \"@openzeppelin/contracts/token/ERC721/ERC721.sol\":17622:17628  reason */\n      dup1\n        /* \"@openzeppelin/contracts/token/ERC721/ERC721.sol\":17616:17629  mload(reason) */\n      mload\n        /* \"@openzeppelin/contracts/token/ERC721/ERC721.sol\":17607:17613  reason */\n      dup2\n        /* \"@openzeppelin/contracts/token/ERC721/ERC721.sol\":17603:17605  32 */\n      0x20\n        /* \"@openzeppelin/contracts/token/ERC721/ERC721.sol\":17599:17614  add(32, reason) */\n      add\n        /* \"@openzeppelin/contracts/token/ERC721/ERC721.sol\":17592:17630  revert(add(32, reason), mload(reason)) */\n      revert\n        /* \"@openzeppelin/contracts/token/ERC721/ERC721.sol\":17068:17684  try IERC721Receiver(to).onERC721Received(_msgSender(), from, tokenId, data) returns (bytes4 retval) {... */\n    tag_260:\n        /* \"@openzeppelin/contracts/token/ERC721/ERC721.sol\":17200:17241  IERC721Receiver.onERC721Received.selector */\n      shl(0xe0, 0x150b7a02)\n        /* \"@openzeppelin/contracts/token/ERC721/ERC721.sol\":17190:17241  retval != IERC721Receiver.onERC721Received.selector */\n      not(0xffffffffffffffffffffffffffffffffffffffffffffffffffffffff)\n      and\n        /* \"@openzeppelin/contracts/token/ERC721/ERC721.sol\":17190:17196  retval */\n      dup2\n        /* \"@openzeppelin/contracts/token/ERC721/ERC721.sol\":17190:17241  retval != IERC721Receiver.onERC721Received.selector */\n      not(0xffffffffffffffffffffffffffffffffffffffffffffffffffffffff)\n      and\n      eq\n        /* \"@openzeppelin/contracts/token/ERC721/ERC721.sol\":17186:17316  if (retval != IERC721Receiver.onERC721Received.selector) {... */\n      tag_270\n      jumpi\n        /* \"@openzeppelin/contracts/token/ERC721/ERC721.sol\":17294:17296  to */\n      dup4\n        /* \"@openzeppelin/contracts/token/ERC721/ERC721.sol\":17272:17297  ERC721InvalidReceiver(to) */\n      mload(0x40)\n      0x64a0ae9200000000000000000000000000000000000000000000000000000000\n      dup2\n      mstore\n      0x04\n      add\n      tag_271\n      swap2\n      swap1\n      tag_38\n      jump\t// in\n    tag_271:\n      mload(0x40)\n      dup1\n      swap2\n      sub\n      swap1\n      revert\n        /* \"@openzeppelin/contracts/token/ERC721/ERC721.sol\":17186:17316  if (retval != IERC721Receiver.onERC721Received.selector) {... */\n    tag_270:\n        /* \"@openzeppelin/contracts/token/ERC721/ERC721.sol\":17144:17330  returns (bytes4 retval) {... */\n      pop\n        /* \"@openzeppelin/contracts/token/ERC721/ERC721.sol\":17030:17694  if (to.code.length > 0) {... */\n    tag_253:\n        /* \"@openzeppelin/contracts/token/ERC721/ERC721.sol\":16918:17700  function _checkOnERC721Received(address from, address to, uint256 tokenId, bytes memory data) private {... */\n      pop\n      pop\n      pop\n      pop\n      jump\t// out\n        /* \"@openzeppelin/contracts/token/ERC721/ERC721.sol\":3174:3266  function _baseURI() internal view virtual returns (string memory) {... */\n    tag_205:\n        /* \"@openzeppelin/contracts/token/ERC721/ERC721.sol\":3225:3238  string memory */\n      0x60\n        /* \"@openzeppelin/contracts/token/ERC721/ERC721.sol\":3250:3259  return \"\" */\n      mload(0x40)\n      dup1\n      0x20\n      add\n      0x40\n      mstore\n      dup1\n      0x00\n      dup2\n      mstore\n      pop\n      swap1\n      pop\n        /* \"@openzeppelin/contracts/token/ERC721/ERC721.sol\":3174:3266  function _baseURI() internal view virtual returns (string memory) {... */\n      swap1\n      jump\t// out\n        /* \"@openzeppelin/contracts/token/ERC721/ERC721.sol\":2677:2932  function tokenURI(uint256 tokenId) public view virtual returns (string memory) {... */\n    tag_211:\n        /* \"@openzeppelin/contracts/token/ERC721/ERC721.sol\":2741:2754  string memory */\n      0x60\n        /* \"@openzeppelin/contracts/token/ERC721/ERC721.sol\":2766:2788  _requireOwned(tokenId) */\n      tag_274\n        /* \"@openzeppelin/contracts/token/ERC721/ERC721.sol\":2780:2787  tokenId */\n      dup3\n        /* \"@openzeppelin/contracts/token/ERC721/ERC721.sol\":2766:2779  _requireOwned */\n      tag_109\n        /* \"@openzeppelin/contracts/token/ERC721/ERC721.sol\":2766:2788  _requireOwned(tokenId) */\n      jump\t// in\n    tag_274:\n      pop\n        /* \"@openzeppelin/contracts/token/ERC721/ERC721.sol\":2799:2820  string memory baseURI */\n      0x00\n        /* \"@openzeppelin/contracts/token/ERC721/ERC721.sol\":2823:2833  _baseURI() */\n      tag_275\n        /* \"@openzeppelin/contracts/token/ERC721/ERC721.sol\":2823:2831  _baseURI */\n      tag_205\n        /* \"@openzeppelin/contracts/token/ERC721/ERC721.sol\":2823:2833  _baseURI() */\n      jump\t// in\n    tag_275:\n        /* \"@openzeppelin/contracts/token/ERC721/ERC721.sol\":2799:2833  string memory baseURI = _baseURI() */\n      swap1\n      pop\n        /* \"@openzeppelin/contracts/token/ERC721/ERC721.sol\":2874:2875  0 */\n      0x00\n        /* \"@openzeppelin/contracts/token/ERC721/ERC721.sol\":2856:2863  baseURI */\n      dup2\n        /* \"@openzeppelin/contracts/token/ERC721/ERC721.sol\":2850:2871  bytes(baseURI).length */\n      mload\n        /* \"@openzeppelin/contracts/token/ERC721/ERC721.sol\":2850:2875  bytes(baseURI).length > 0 */\n      gt\n        /* \"@openzeppelin/contracts/token/ERC721/ERC721.sol\":2850:2925  bytes(baseURI).length > 0 ? string.concat(baseURI, tokenId.toString()) : \"\" */\n      tag_276\n      jumpi\n      mload(0x40)\n      dup1\n      0x20\n      add\n      0x40\n      mstore\n      dup1\n      0x00\n      dup2\n      mstore\n      pop\n      jump(tag_277)\n    tag_276:\n        /* \"@openzeppelin/contracts/token/ERC721/ERC721.sol\":2892:2899  baseURI */\n      dup1\n        /* \"@openzeppelin/contracts/token/ERC721/ERC721.sol\":2901:2919  tokenId.toString() */\n      tag_278\n        /* \"@openzeppelin/contracts/token/ERC721/ERC721.sol\":2901:2908  tokenId */\n      dup5\n        /* \"@openzeppelin/contracts/token/ERC721/ERC721.sol\":2901:2917  tokenId.toString */\n      tag_279\n        /* \"@openzeppelin/contracts/token/ERC721/ERC721.sol\":2901:2919  tokenId.toString() */\n      jump\t// in\n    tag_278:\n        /* \"@openzeppelin/contracts/token/ERC721/ERC721.sol\":2878:2920  string.concat(baseURI, tokenId.toString()) */\n      add(0x20, mload(0x40))\n      tag_280\n      swap3\n      swap2\n      swap1\n      tag_209\n      jump\t// in\n    tag_280:\n      mload(0x40)\n      0x20\n      dup2\n      dup4\n      sub\n      sub\n      dup2\n      mstore\n      swap1\n      0x40\n      mstore\n        /* \"@openzeppelin/contracts/token/ERC721/ERC721.sol\":2850:2925  bytes(baseURI).length > 0 ? string.concat(baseURI, tokenId.toString()) : \"\" */\n    tag_277:\n        /* \"@openzeppelin/contracts/token/ERC721/ERC721.sol\":2843:2925  return bytes(baseURI).length > 0 ? string.concat(baseURI, tokenId.toString()) : \"\" */\n      swap2\n      pop\n      pop\n        /* \"@openzeppelin/contracts/token/ERC721/ERC721.sol\":2677:2932  function tokenURI(uint256 tokenId) public view virtual returns (string memory) {... */\n      swap2\n      swap1\n      pop\n      jump\t// out\n        /* \"@openzeppelin/contracts/utils/introspection/ERC165.sol\":762:908  function supportsInterface(bytes4 interfaceId) public view virtual returns (bool) {... */\n    tag_217:\n        /* \"@openzeppelin/contracts/utils/introspection/ERC165.sol\":838:842  bool */\n      0x00\n        /* \"@openzeppelin/contracts/utils/introspection/ERC165.sol\":876:901  type(IERC165).interfaceId */\n      0x01ffc9a700000000000000000000000000000000000000000000000000000000\n        /* \"@openzeppelin/contracts/utils/introspection/ERC165.sol\":861:901  interfaceId == type(IERC165).interfaceId */\n      not(0xffffffffffffffffffffffffffffffffffffffffffffffffffffffff)\n      and\n        /* \"@openzeppelin/contracts/utils/introspection/ERC165.sol\":861:872  interfaceId */\n      dup3\n        /* \"@openzeppelin/contracts/utils/introspection/ERC165.sol\":861:901  interfaceId == type(IERC165).interfaceId */\n      not(0xffffffffffffffffffffffffffffffffffffffffffffffffffffffff)\n      and\n      eq\n        /* \"@openzeppelin/contracts/utils/introspection/ERC165.sol\":854:901  return interfaceId == type(IERC165).interfaceId */\n      swap1\n      pop\n        /* \"@openzeppelin/contracts/utils/introspection/ERC165.sol\":762:908  function supportsInterface(bytes4 interfaceId) public view virtual returns (bool) {... */\n      swap2\n      swap1\n      pop\n      jump\t// out\n        /* \"@openzeppelin/contracts/token/ERC721/ERC721.sol\":5707:5822  function _ownerOf(uint256 tokenId) internal view virtual returns (address) {... */\n    tag_220:\n        /* \"@openzeppelin/contracts/token/ERC721/ERC721.sol\":5773:5780  address */\n      0x00\n        /* \"@openzeppelin/contracts/token/ERC721/ERC721.sol\":5799:5806  _owners */\n      0x02\n        /* \"@openzeppelin/contracts/token/ERC721/ERC721.sol\":5799:5815  _owners[tokenId] */\n      0x00\n        /* \"@openzeppelin/contracts/token/ERC721/ERC721.sol\":5807:5814  tokenId */\n      dup4\n        /* \"@openzeppelin/contracts/token/ERC721/ERC721.sol\":5799:5815  _owners[tokenId] */\n      dup2\n      mstore\n      0x20\n      add\n      swap1\n      dup2\n      mstore\n      0x20\n      add\n      0x00\n      keccak256\n      0x00\n      swap1\n      sload\n      swap1\n      0x0100\n      exp\n      swap1\n      div\n      0xffffffffffffffffffffffffffffffffffffffff\n      and\n        /* \"@openzeppelin/contracts/token/ERC721/ERC721.sol\":5792:5815  return _owners[tokenId] */\n      swap1\n      pop\n        /* \"@openzeppelin/contracts/token/ERC721/ERC721.sol\":5707:5822  function _ownerOf(uint256 tokenId) internal view virtual returns (address) {... */\n      swap2\n      swap1\n      pop\n      jump\t// out\n        /* \"@openzeppelin/contracts/token/ERC721/ERC721.sol\":14720:15382  function _approve(address to, uint256 tokenId, address auth, bool emitEvent) internal virtual {... */\n    tag_227:\n        /* \"@openzeppelin/contracts/token/ERC721/ERC721.sol\":14880:14889  emitEvent */\n      dup1\n        /* \"@openzeppelin/contracts/token/ERC721/ERC721.sol\":14880:14911  emitEvent || auth != address(0) */\n      dup1\n      tag_284\n      jumpi\n      pop\n        /* \"@openzeppelin/contracts/token/ERC721/ERC721.sol\":14909:14910  0 */\n      0x00\n        /* \"@openzeppelin/contracts/token/ERC721/ERC721.sol\":14893:14911  auth != address(0) */\n      0xffffffffffffffffffffffffffffffffffffffff\n      and\n        /* \"@openzeppelin/contracts/token/ERC721/ERC721.sol\":14893:14897  auth */\n      dup3\n        /* \"@openzeppelin/contracts/token/ERC721/ERC721.sol\":14893:14911  auth != address(0) */\n      0xffffffffffffffffffffffffffffffffffffffff\n      and\n      eq\n      iszero\n        /* \"@openzeppelin/contracts/token/ERC721/ERC721.sol\":14880:14911  emitEvent || auth != address(0) */\n    tag_284:\n        /* \"@openzeppelin/contracts/token/ERC721/ERC721.sol\":14876:15336  if (emitEvent || auth != address(0)) {... */\n      iszero\n      tag_285\n      jumpi\n        /* \"@openzeppelin/contracts/token/ERC721/ERC721.sol\":14927:14940  address owner */\n      0x00\n        /* \"@openzeppelin/contracts/token/ERC721/ERC721.sol\":14943:14965  _requireOwned(tokenId) */\n      tag_286\n        /* \"@openzeppelin/contracts/token/ERC721/ERC721.sol\":14957:14964  tokenId */\n      dup5\n        /* \"@openzeppelin/contracts/token/ERC721/ERC721.sol\":14943:14956  _requireOwned */\n      tag_109\n        /* \"@openzeppelin/contracts/token/ERC721/ERC721.sol\":14943:14965  _requireOwned(tokenId) */\n      jump\t// in\n    tag_286:\n        /* \"@openzeppelin/contracts/token/ERC721/ERC721.sol\":14927:14965  address owner = _requireOwned(tokenId) */\n      swap1\n      pop\n        /* \"@openzeppelin/contracts/token/ERC721/ERC721.sol\":15109:15110  0 */\n      0x00\n        /* \"@openzeppelin/contracts/token/ERC721/ERC721.sol\":15093:15111  auth != address(0) */\n      0xffffffffffffffffffffffffffffffffffffffff\n      and\n        /* \"@openzeppelin/contracts/token/ERC721/ERC721.sol\":15093:15097  auth */\n      dup4\n        /* \"@openzeppelin/contracts/token/ERC721/ERC721.sol\":15093:15111  auth != address(0) */\n      0xffffffffffffffffffffffffffffffffffffffff\n      and\n      eq\n      iszero\n        /* \"@openzeppelin/contracts/token/ERC721/ERC721.sol\":15093:15128  auth != address(0) && owner != auth */\n      dup1\n      iszero\n      tag_287\n      jumpi\n      pop\n        /* \"@openzeppelin/contracts/token/ERC721/ERC721.sol\":15124:15128  auth */\n      dup3\n        /* \"@openzeppelin/contracts/token/ERC721/ERC721.sol\":15115:15128  owner != auth */\n      0xffffffffffffffffffffffffffffffffffffffff\n      and\n        /* \"@openzeppelin/contracts/token/ERC721/ERC721.sol\":15115:15120  owner */\n      dup2\n        /* \"@openzeppelin/contracts/token/ERC721/ERC721.sol\":15115:15128  owner != auth */\n      0xffffffffffffffffffffffffffffffffffffffff\n      and\n      eq\n      iszero\n        /* \"@openzeppelin/contracts/token/ERC721/ERC721.sol\":15093:15128  auth != address(0) && owner != auth */\n    tag_287:\n        /* \"@openzeppelin/contracts/token/ERC721/ERC721.sol\":15093:15162  auth != address(0) && owner != auth && !isApprovedForAll(owner, auth) */\n      dup1\n      iszero\n      tag_288\n      jumpi\n      pop\n        /* \"@openzeppelin/contracts/token/ERC721/ERC721.sol\":15133:15162  isApprovedForAll(owner, auth) */\n      tag_289\n        /* \"@openzeppelin/contracts/token/ERC721/ERC721.sol\":15150:15155  owner */\n      dup2\n        /* \"@openzeppelin/contracts/token/ERC721/ERC721.sol\":15157:15161  auth */\n      dup5\n        /* \"@openzeppelin/contracts/token/ERC721/ERC721.sol\":15133:15149  isApprovedForAll */\n      tag_94\n        /* \"@openzeppelin/contracts/token/ERC721/ERC721.sol\":15133:15162  isApprovedForAll(owner, auth) */\n      jump\t// in\n    tag_289:\n        /* \"@openzeppelin/contracts/token/ERC721/ERC721.sol\":15132:15162  !isApprovedForAll(owner, auth) */\n      iszero\n        /* \"@openzeppelin/contracts/token/ERC721/ERC721.sol\":15093:15162  auth != address(0) && owner != auth && !isApprovedForAll(owner, auth) */\n    tag_288:\n        /* \"@openzeppelin/contracts/token/ERC721/ERC721.sol\":15089:15231  if (auth != address(0) && owner != auth && !isApprovedForAll(owner, auth)) {... */\n      iszero\n      tag_290\n      jumpi\n        /* \"@openzeppelin/contracts/token/ERC721/ERC721.sol\":15211:15215  auth */\n      dup3\n        /* \"@openzeppelin/contracts/token/ERC721/ERC721.sol\":15189:15216  ERC721InvalidApprover(auth) */\n      mload(0x40)\n      0xa9fbf51f00000000000000000000000000000000000000000000000000000000\n      dup2\n      mstore\n      0x04\n      add\n      tag_291\n      swap2\n      swap1\n      tag_38\n      jump\t// in\n    tag_291:\n      mload(0x40)\n      dup1\n      swap2\n      sub\n      swap1\n      revert\n        /* \"@openzeppelin/contracts/token/ERC721/ERC721.sol\":15089:15231  if (auth != address(0) && owner != auth && !isApprovedForAll(owner, auth)) {... */\n    tag_290:\n        /* \"@openzeppelin/contracts/token/ERC721/ERC721.sol\":15249:15258  emitEvent */\n      dup2\n        /* \"@openzeppelin/contracts/token/ERC721/ERC721.sol\":15245:15326  if (emitEvent) {... */\n      iszero\n      tag_292\n      jumpi\n        /* \"@openzeppelin/contracts/token/ERC721/ERC721.sol\":15303:15310  tokenId */\n      dup4\n        /* \"@openzeppelin/contracts/token/ERC721/ERC721.sol\":15299:15301  to */\n      dup6\n        /* \"@openzeppelin/contracts/token/ERC721/ERC721.sol\":15283:15311  Approval(owner, to, tokenId) */\n      0xffffffffffffffffffffffffffffffffffffffff\n      and\n        /* \"@openzeppelin/contracts/token/ERC721/ERC721.sol\":15292:15297  owner */\n      dup3\n        /* \"@openzeppelin/contracts/token/ERC721/ERC721.sol\":15283:15311  Approval(owner, to, tokenId) */\n      0xffffffffffffffffffffffffffffffffffffffff\n      and\n      0x8c5be1e5ebec7d5bd14f71427d1e84f3dd0314c0f7b2291e5b200ac8c7c3b925\n      mload(0x40)\n      mload(0x40)\n      dup1\n      swap2\n      sub\n      swap1\n      log4\n        /* \"@openzeppelin/contracts/token/ERC721/ERC721.sol\":15245:15326  if (emitEvent) {... */\n    tag_292:\n        /* \"@openzeppelin/contracts/token/ERC721/ERC721.sol\":14913:15336  {... */\n      pop\n        /* \"@openzeppelin/contracts/token/ERC721/ERC721.sol\":14876:15336  if (emitEvent || auth != address(0)) {... */\n    tag_285:\n        /* \"@openzeppelin/contracts/token/ERC721/ERC721.sol\":15373:15375  to */\n      dup4\n        /* \"@openzeppelin/contracts/token/ERC721/ERC721.sol\":15346:15361  _tokenApprovals */\n      0x04\n        /* \"@openzeppelin/contracts/token/ERC721/ERC721.sol\":15346:15370  _tokenApprovals[tokenId] */\n      0x00\n        /* \"@openzeppelin/contracts/token/ERC721/ERC721.sol\":15362:15369  tokenId */\n      dup6\n        /* \"@openzeppelin/contracts/token/ERC721/ERC721.sol\":15346:15370  _tokenApprovals[tokenId] */\n      dup2\n      mstore\n      0x20\n      add\n      swap1\n      dup2\n      mstore\n      0x20\n      add\n      0x00\n      keccak256\n      0x00\n        /* \"@openzeppelin/contracts/token/ERC721/ERC721.sol\":15346:15375  _tokenApprovals[tokenId] = to */\n      0x0100\n      exp\n      dup2\n      sload\n      dup2\n      0xffffffffffffffffffffffffffffffffffffffff\n      mul\n      not\n      and\n      swap1\n      dup4\n      0xffffffffffffffffffffffffffffffffffffffff\n      and\n      mul\n      or\n      swap1\n      sstore\n      pop\n        /* \"@openzeppelin/contracts/token/ERC721/ERC721.sol\":14720:15382  function _approve(address to, uint256 tokenId, address auth, bool emitEvent) internal virtual {... */\n      pop\n      pop\n      pop\n      pop\n      jump\t// out\n        /* \"@openzeppelin/contracts/token/ERC721/ERC721.sol\":7082:7450  function _checkAuthorized(address owner, address spender, uint256 tokenId) internal view virtual {... */\n    tag_233:\n        /* \"@openzeppelin/contracts/token/ERC721/ERC721.sol\":7194:7232  _isAuthorized(owner, spender, tokenId) */\n      tag_294\n        /* \"@openzeppelin/contracts/token/ERC721/ERC721.sol\":7208:7213  owner */\n      dup4\n        /* \"@openzeppelin/contracts/token/ERC721/ERC721.sol\":7215:7222  spender */\n      dup4\n        /* \"@openzeppelin/contracts/token/ERC721/ERC721.sol\":7224:7231  tokenId */\n      dup4\n        /* \"@openzeppelin/contracts/token/ERC721/ERC721.sol\":7194:7207  _isAuthorized */\n      tag_295\n        /* \"@openzeppelin/contracts/token/ERC721/ERC721.sol\":7194:7232  _isAuthorized(owner, spender, tokenId) */\n      jump\t// in\n    tag_294:\n        /* \"@openzeppelin/contracts/token/ERC721/ERC721.sol\":7189:7444  if (!_isAuthorized(owner, spender, tokenId)) {... */\n      tag_296\n      jumpi\n        /* \"@openzeppelin/contracts/token/ERC721/ERC721.sol\":7269:7270  0 */\n      0x00\n        /* \"@openzeppelin/contracts/token/ERC721/ERC721.sol\":7252:7271  owner == address(0) */\n      0xffffffffffffffffffffffffffffffffffffffff\n      and\n        /* \"@openzeppelin/contracts/token/ERC721/ERC721.sol\":7252:7257  owner */\n      dup4\n        /* \"@openzeppelin/contracts/token/ERC721/ERC721.sol\":7252:7271  owner == address(0) */\n      0xffffffffffffffffffffffffffffffffffffffff\n      and\n      sub\n        /* \"@openzeppelin/contracts/token/ERC721/ERC721.sol\":7248:7434  if (owner == address(0)) {... */\n      tag_297\n      jumpi\n        /* \"@openzeppelin/contracts/token/ERC721/ERC721.sol\":7321:7328  tokenId */\n      dup1\n        /* \"@openzeppelin/contracts/token/ERC721/ERC721.sol\":7298:7329  ERC721NonexistentToken(tokenId) */\n      mload(0x40)\n      0x7e27328900000000000000000000000000000000000000000000000000000000\n      dup2\n      mstore\n      0x04\n      add\n      tag_298\n      swap2\n      swap1\n      tag_56\n      jump\t// in\n    tag_298:\n      mload(0x40)\n      dup1\n      swap2\n      sub\n      swap1\n      revert\n        /* \"@openzeppelin/contracts/token/ERC721/ERC721.sol\":7248:7434  if (owner == address(0)) {... */\n    tag_297:\n        /* \"@openzeppelin/contracts/token/ERC721/ERC721.sol\":7402:7409  spender */\n      dup2\n        /* \"@openzeppelin/contracts/token/ERC721/ERC721.sol\":7411:7418  tokenId */\n      dup2\n        /* \"@openzeppelin/contracts/token/ERC721/ERC721.sol\":7375:7419  ERC721InsufficientApproval(spender, tokenId) */\n      mload(0x40)\n      0x177e802f00000000000000000000000000000000000000000000000000000000\n      dup2\n      mstore\n      0x04\n      add\n      tag_300\n      swap3\n      swap2\n      swap1\n      tag_301\n      jump\t// in\n    tag_300:\n      mload(0x40)\n      dup1\n      swap2\n      sub\n      swap1\n      revert\n        /* \"@openzeppelin/contracts/token/ERC721/ERC721.sol\":7189:7444  if (!_isAuthorized(owner, spender, tokenId)) {... */\n    tag_296:\n        /* \"@openzeppelin/contracts/token/ERC721/ERC721.sol\":7082:7450  function _checkAuthorized(address owner, address spender, uint256 tokenId) internal view virtual {... */\n      pop\n      pop\n      pop\n      jump\t// out\n        /* \"@openzeppelin/contracts/utils/Strings.sol\":637:1335  function toString(uint256 value) internal pure returns (string memory) {... */\n    tag_279:\n        /* \"@openzeppelin/contracts/utils/Strings.sol\":693:706  string memory */\n      0x60\n        /* \"@openzeppelin/contracts/utils/Strings.sol\":742:756  uint256 length */\n      0x00\n        /* \"@openzeppelin/contracts/utils/Strings.sol\":779:780  1 */\n      0x01\n        /* \"@openzeppelin/contracts/utils/Strings.sol\":759:776  Math.log10(value) */\n      tag_303\n        /* \"@openzeppelin/contracts/utils/Strings.sol\":770:775  value */\n      dup5\n        /* \"@openzeppelin/contracts/utils/Strings.sol\":759:769  Math.log10 */\n      tag_304\n        /* \"@openzeppelin/contracts/utils/Strings.sol\":759:776  Math.log10(value) */\n      jump\t// in\n    tag_303:\n        /* \"@openzeppelin/contracts/utils/Strings.sol\":759:780  Math.log10(value) + 1 */\n      add\n        /* \"@openzeppelin/contracts/utils/Strings.sol\":742:780  uint256 length = Math.log10(value) + 1 */\n      swap1\n      pop\n        /* \"@openzeppelin/contracts/utils/Strings.sol\":794:814  string memory buffer */\n      0x00\n        /* \"@openzeppelin/contracts/utils/Strings.sol\":828:834  length */\n      dup2\n        /* \"@openzeppelin/contracts/utils/Strings.sol\":817:835  new string(length) */\n      0xffffffffffffffff\n      dup2\n      gt\n      iszero\n      tag_305\n      jumpi\n      tag_306\n      tag_123\n      jump\t// in\n    tag_306:\n    tag_305:\n      mload(0x40)\n      swap1\n      dup1\n      dup3\n      mstore\n      dup1\n      0x1f\n      add\n      not(0x1f)\n      and\n      0x20\n      add\n      dup3\n      add\n      0x40\n      mstore\n      dup1\n      iszero\n      tag_307\n      jumpi\n      dup2\n      0x20\n      add\n      0x01\n      dup3\n      mul\n      dup1\n      calldatasize\n      dup4\n      calldatacopy\n      dup1\n      dup3\n      add\n      swap2\n      pop\n      pop\n      swap1\n      pop\n    tag_307:\n      pop\n        /* \"@openzeppelin/contracts/utils/Strings.sol\":794:835  string memory buffer = new string(length) */\n      swap1\n      pop\n        /* \"@openzeppelin/contracts/utils/Strings.sol\":849:860  uint256 ptr */\n      0x00\n        /* \"@openzeppelin/contracts/utils/Strings.sol\":975:981  length */\n      dup3\n        /* \"@openzeppelin/contracts/utils/Strings.sol\":971:973  32 */\n      0x20\n        /* \"@openzeppelin/contracts/utils/Strings.sol\":967:982  add(32, length) */\n      add\n        /* \"@openzeppelin/contracts/utils/Strings.sol\":959:965  buffer */\n      dup3\n        /* \"@openzeppelin/contracts/utils/Strings.sol\":955:983  add(buffer, add(32, length)) */\n      add\n        /* \"@openzeppelin/contracts/utils/Strings.sol\":948:983  ptr := add(buffer, add(32, length)) */\n      swap1\n      pop\n        /* \"@openzeppelin/contracts/utils/Strings.sol\":1010:1292  while (true) {... */\n    tag_308:\n        /* \"@openzeppelin/contracts/utils/Strings.sol\":1017:1021  true */\n      0x01\n        /* \"@openzeppelin/contracts/utils/Strings.sol\":1010:1292  while (true) {... */\n      iszero\n      tag_309\n      jumpi\n        /* \"@openzeppelin/contracts/utils/Strings.sol\":1041:1046  ptr-- */\n      dup1\n      dup1\n      0x01\n      swap1\n      sub\n      swap2\n      pop\n      pop\n        /* \"@openzeppelin/contracts/utils/Strings.sol\":1180:1190  HEX_DIGITS */\n      0x3031323334353637383961626364656600000000000000000000000000000000\n        /* \"@openzeppelin/contracts/utils/Strings.sol\":1175:1177  10 */\n      0x0a\n        /* \"@openzeppelin/contracts/utils/Strings.sol\":1168:1173  value */\n      dup7\n        /* \"@openzeppelin/contracts/utils/Strings.sol\":1164:1178  mod(value, 10) */\n      mod\n        /* \"@openzeppelin/contracts/utils/Strings.sol\":1159:1191  byte(mod(value, 10), HEX_DIGITS) */\n      byte\n        /* \"@openzeppelin/contracts/utils/Strings.sol\":1154:1157  ptr */\n      dup2\n        /* \"@openzeppelin/contracts/utils/Strings.sol\":1146:1192  mstore8(ptr, byte(mod(value, 10), HEX_DIGITS)) */\n      mstore8\n        /* \"@openzeppelin/contracts/utils/Strings.sol\":1236:1238  10 */\n      0x0a\n        /* \"@openzeppelin/contracts/utils/Strings.sol\":1227:1238  value /= 10 */\n      dup6\n      dup2\n      tag_310\n      jumpi\n      tag_311\n      tag_312\n      jump\t// in\n    tag_311:\n    tag_310:\n      div\n      swap5\n      pop\n        /* \"@openzeppelin/contracts/utils/Strings.sol\":1269:1270  0 */\n      0x00\n        /* \"@openzeppelin/contracts/utils/Strings.sol\":1260:1265  value */\n      dup6\n        /* \"@openzeppelin/contracts/utils/Strings.sol\":1260:1270  value == 0 */\n      sub\n        /* \"@openzeppelin/contracts/utils/Strings.sol\":1010:1292  while (true) {... */\n      tag_308\n        /* \"@openzeppelin/contracts/utils/Strings.sol\":1256:1277  if (value == 0) break */\n      jumpi\n        /* \"@openzeppelin/contracts/utils/Strings.sol\":1010:1292  while (true) {... */\n    tag_309:\n        /* \"@openzeppelin/contracts/utils/Strings.sol\":1312:1318  buffer */\n      dup2\n        /* \"@openzeppelin/contracts/utils/Strings.sol\":1305:1318  return buffer */\n      swap4\n      pop\n      pop\n      pop\n      pop\n        /* \"@openzeppelin/contracts/utils/Strings.sol\":637:1335  function toString(uint256 value) internal pure returns (string memory) {... */\n      swap2\n      swap1\n      pop\n      jump\t// out\n        /* \"@openzeppelin/contracts/token/ERC721/ERC721.sol\":6376:6648  function _isAuthorized(address owner, address spender, uint256 tokenId) internal view virtual returns (bool) {... */\n    tag_295:\n        /* \"@openzeppelin/contracts/token/ERC721/ERC721.sol\":6479:6483  bool */\n      0x00\n        /* \"@openzeppelin/contracts/token/ERC721/ERC721.sol\":6533:6534  0 */\n      dup1\n        /* \"@openzeppelin/contracts/token/ERC721/ERC721.sol\":6514:6535  spender != address(0) */\n      0xffffffffffffffffffffffffffffffffffffffff\n      and\n        /* \"@openzeppelin/contracts/token/ERC721/ERC721.sol\":6514:6521  spender */\n      dup4\n        /* \"@openzeppelin/contracts/token/ERC721/ERC721.sol\":6514:6535  spender != address(0) */\n      0xffffffffffffffffffffffffffffffffffffffff\n      and\n      eq\n      iszero\n        /* \"@openzeppelin/contracts/token/ERC721/ERC721.sol\":6514:6641  spender != address(0) &&... */\n      dup1\n      iszero\n      tag_315\n      jumpi\n      pop\n        /* \"@openzeppelin/contracts/token/ERC721/ERC721.sol\":6561:6568  spender */\n      dup3\n        /* \"@openzeppelin/contracts/token/ERC721/ERC721.sol\":6552:6568  owner == spender */\n      0xffffffffffffffffffffffffffffffffffffffff\n      and\n        /* \"@openzeppelin/contracts/token/ERC721/ERC721.sol\":6552:6557  owner */\n      dup5\n        /* \"@openzeppelin/contracts/token/ERC721/ERC721.sol\":6552:6568  owner == spender */\n      0xffffffffffffffffffffffffffffffffffffffff\n      and\n      eq\n        /* \"@openzeppelin/contracts/token/ERC721/ERC721.sol\":6552:6604  owner == spender || isApprovedForAll(owner, spender) */\n      dup1\n      tag_316\n      jumpi\n      pop\n        /* \"@openzeppelin/contracts/token/ERC721/ERC721.sol\":6572:6604  isApprovedForAll(owner, spender) */\n      tag_317\n        /* \"@openzeppelin/contracts/token/ERC721/ERC721.sol\":6589:6594  owner */\n      dup5\n        /* \"@openzeppelin/contracts/token/ERC721/ERC721.sol\":6596:6603  spender */\n      dup5\n        /* \"@openzeppelin/contracts/token/ERC721/ERC721.sol\":6572:6588  isApprovedForAll */\n      tag_94\n        /* \"@openzeppelin/contracts/token/ERC721/ERC721.sol\":6572:6604  isApprovedForAll(owner, spender) */\n      jump\t// in\n    tag_317:\n        /* \"@openzeppelin/contracts/token/ERC721/ERC721.sol\":6552:6604  owner == spender || isApprovedForAll(owner, spender) */\n    tag_316:\n        /* \"@openzeppelin/contracts/token/ERC721/ERC721.sol\":6552:6640  owner == spender || isApprovedForAll(owner, spender) || _getApproved(tokenId) == spender */\n      dup1\n      tag_318\n      jumpi\n      pop\n        /* \"@openzeppelin/contracts/token/ERC721/ERC721.sol\":6633:6640  spender */\n      dup3\n        /* \"@openzeppelin/contracts/token/ERC721/ERC721.sol\":6608:6640  _getApproved(tokenId) == spender */\n      0xffffffffffffffffffffffffffffffffffffffff\n      and\n        /* \"@openzeppelin/contracts/token/ERC721/ERC721.sol\":6608:6629  _getApproved(tokenId) */\n      tag_319\n        /* \"@openzeppelin/contracts/token/ERC721/ERC721.sol\":6621:6628  tokenId */\n      dup4\n        /* \"@openzeppelin/contracts/token/ERC721/ERC721.sol\":6608:6620  _getApproved */\n      tag_111\n        /* \"@openzeppelin/contracts/token/ERC721/ERC721.sol\":6608:6629  _getApproved(tokenId) */\n      jump\t// in\n    tag_319:\n        /* \"@openzeppelin/contracts/token/ERC721/ERC721.sol\":6608:6640  _getApproved(tokenId) == spender */\n      0xffffffffffffffffffffffffffffffffffffffff\n      and\n      eq\n        /* \"@openzeppelin/contracts/token/ERC721/ERC721.sol\":6552:6640  owner == spender || isApprovedForAll(owner, spender) || _getApproved(tokenId) == spender */\n    tag_318:\n        /* \"@openzeppelin/contracts/token/ERC721/ERC721.sol\":6514:6641  spender != address(0) &&... */\n    tag_315:\n        /* \"@openzeppelin/contracts/token/ERC721/ERC721.sol\":6495:6641  return... */\n      swap1\n      pop\n        /* \"@openzeppelin/contracts/token/ERC721/ERC721.sol\":6376:6648  function _isAuthorized(address owner, address spender, uint256 tokenId) internal view virtual returns (bool) {... */\n      swap4\n      swap3\n      pop\n      pop\n      pop\n      jump\t// out\n        /* \"@openzeppelin/contracts/utils/math/Math.sol\":12214:13130  function log10(uint256 value) internal pure returns (uint256) {... */\n    tag_304:\n        /* \"@openzeppelin/contracts/utils/math/Math.sol\":12267:12274  uint256 */\n      0x00\n        /* \"@openzeppelin/contracts/utils/math/Math.sol\":12286:12300  uint256 result */\n      dup1\n        /* \"@openzeppelin/contracts/utils/math/Math.sol\":12303:12304  0 */\n      0x00\n        /* \"@openzeppelin/contracts/utils/math/Math.sol\":12286:12304  uint256 result = 0 */\n      swap1\n      pop\n        /* \"@openzeppelin/contracts/utils/math/Math.sol\":12351:12359  10 ** 64 */\n      0x184f03e93ff9f4daa797ed6e38ed64bf6a1f010000000000000000\n        /* \"@openzeppelin/contracts/utils/math/Math.sol\":12342:12347  value */\n      dup4\n        /* \"@openzeppelin/contracts/utils/math/Math.sol\":12342:12359  value >= 10 ** 64 */\n      lt\n        /* \"@openzeppelin/contracts/utils/math/Math.sol\":12338:12441  if (value >= 10 ** 64) {... */\n      tag_321\n      jumpi\n        /* \"@openzeppelin/contracts/utils/math/Math.sol\":12388:12396  10 ** 64 */\n      0x184f03e93ff9f4daa797ed6e38ed64bf6a1f010000000000000000\n        /* \"@openzeppelin/contracts/utils/math/Math.sol\":12379:12396  value /= 10 ** 64 */\n      dup4\n      dup2\n      tag_322\n      jumpi\n      tag_323\n      tag_312\n      jump\t// in\n    tag_323:\n    tag_322:\n      div\n      swap3\n      pop\n        /* \"@openzeppelin/contracts/utils/math/Math.sol\":12424:12426  64 */\n      0x40\n        /* \"@openzeppelin/contracts/utils/math/Math.sol\":12414:12426  result += 64 */\n      dup2\n      add\n      swap1\n      pop\n        /* \"@openzeppelin/contracts/utils/math/Math.sol\":12338:12441  if (value >= 10 ** 64) {... */\n    tag_321:\n        /* \"@openzeppelin/contracts/utils/math/Math.sol\":12467:12475  10 ** 32 */\n      0x04ee2d6d415b85acef8100000000\n        /* \"@openzeppelin/contracts/utils/math/Math.sol\":12458:12463  value */\n      dup4\n        /* \"@openzeppelin/contracts/utils/math/Math.sol\":12458:12475  value >= 10 ** 32 */\n      lt\n        /* \"@openzeppelin/contracts/utils/math/Math.sol\":12454:12557  if (value >= 10 ** 32) {... */\n      tag_324\n      jumpi\n        /* \"@openzeppelin/contracts/utils/math/Math.sol\":12504:12512  10 ** 32 */\n      0x04ee2d6d415b85acef8100000000\n        /* \"@openzeppelin/contracts/utils/math/Math.sol\":12495:12512  value /= 10 ** 32 */\n      dup4\n      dup2\n      tag_325\n      jumpi\n      tag_326\n      tag_312\n      jump\t// in\n    tag_326:\n    tag_325:\n      div\n      swap3\n      pop\n        /* \"@openzeppelin/contracts/utils/math/Math.sol\":12540:12542  32 */\n      0x20\n        /* \"@openzeppelin/contracts/utils/math/Math.sol\":12530:12542  result += 32 */\n      dup2\n      add\n      swap1\n      pop\n        /* \"@openzeppelin/contracts/utils/math/Math.sol\":12454:12557  if (value >= 10 ** 32) {... */\n    tag_324:\n        /* \"@openzeppelin/contracts/utils/math/Math.sol\":12583:12591  10 ** 16 */\n      0x2386f26fc10000\n        /* \"@openzeppelin/contracts/utils/math/Math.sol\":12574:12579  value */\n      dup4\n        /* \"@openzeppelin/contracts/utils/math/Math.sol\":12574:12591  value >= 10 ** 16 */\n      lt\n        /* \"@openzeppelin/contracts/utils/math/Math.sol\":12570:12673  if (value >= 10 ** 16) {... */\n      tag_327\n      jumpi\n        /* \"@openzeppelin/contracts/utils/math/Math.sol\":12620:12628  10 ** 16 */\n      0x2386f26fc10000\n        /* \"@openzeppelin/contracts/utils/math/Math.sol\":12611:12628  value /= 10 ** 16 */\n      dup4\n      dup2\n      tag_328\n      jumpi\n      tag_329\n      tag_312\n      jump\t// in\n    tag_329:\n    tag_328:\n      div\n      swap3\n      pop\n        /* \"@openzeppelin/contracts/utils/math/Math.sol\":12656:12658  16 */\n      0x10\n        /* \"@openzeppelin/contracts/utils/math/Math.sol\":12646:12658  result += 16 */\n      dup2\n      add\n      swap1\n      pop\n        /* \"@openzeppelin/contracts/utils/math/Math.sol\":12570:12673  if (value >= 10 ** 16) {... */\n    tag_327:\n        /* \"@openzeppelin/contracts/utils/math/Math.sol\":12699:12706  10 ** 8 */\n      0x05f5e100\n        /* \"@openzeppelin/contracts/utils/math/Math.sol\":12690:12695  value */\n      dup4\n        /* \"@openzeppelin/contracts/utils/math/Math.sol\":12690:12706  value >= 10 ** 8 */\n      lt\n        /* \"@openzeppelin/contracts/utils/math/Math.sol\":12686:12786  if (value >= 10 ** 8) {... */\n      tag_330\n      jumpi\n        /* \"@openzeppelin/contracts/utils/math/Math.sol\":12735:12742  10 ** 8 */\n      0x05f5e100\n        /* \"@openzeppelin/contracts/utils/math/Math.sol\":12726:12742  value /= 10 ** 8 */\n      dup4\n      dup2\n      tag_331\n      jumpi\n      tag_332\n      tag_312\n      jump\t// in\n    tag_332:\n    tag_331:\n      div\n      swap3\n      pop\n        /* \"@openzeppelin/contracts/utils/math/Math.sol\":12770:12771  8 */\n      0x08\n        /* \"@openzeppelin/contracts/utils/math/Math.sol\":12760:12771  result += 8 */\n      dup2\n      add\n      swap1\n      pop\n        /* \"@openzeppelin/contracts/utils/math/Math.sol\":12686:12786  if (value >= 10 ** 8) {... */\n    tag_330:\n        /* \"@openzeppelin/contracts/utils/math/Math.sol\":12812:12819  10 ** 4 */\n      0x2710\n        /* \"@openzeppelin/contracts/utils/math/Math.sol\":12803:12808  value */\n      dup4\n        /* \"@openzeppelin/contracts/utils/math/Math.sol\":12803:12819  value >= 10 ** 4 */\n      lt\n        /* \"@openzeppelin/contracts/utils/math/Math.sol\":12799:12899  if (value >= 10 ** 4) {... */\n      tag_333\n      jumpi\n        /* \"@openzeppelin/contracts/utils/math/Math.sol\":12848:12855  10 ** 4 */\n      0x2710\n        /* \"@openzeppelin/contracts/utils/math/Math.sol\":12839:12855  value /= 10 ** 4 */\n      dup4\n      dup2\n      tag_334\n      jumpi\n      tag_335\n      tag_312\n      jump\t// in\n    tag_335:\n    tag_334:\n      div\n      swap3\n      pop\n        /* \"@openzeppelin/contracts/utils/math/Math.sol\":12883:12884  4 */\n      0x04\n        /* \"@openzeppelin/contracts/utils/math/Math.sol\":12873:12884  result += 4 */\n      dup2\n      add\n      swap1\n      pop\n        /* \"@openzeppelin/contracts/utils/math/Math.sol\":12799:12899  if (value >= 10 ** 4) {... */\n    tag_333:\n        /* \"@openzeppelin/contracts/utils/math/Math.sol\":12925:12932  10 ** 2 */\n      0x64\n        /* \"@openzeppelin/contracts/utils/math/Math.sol\":12916:12921  value */\n      dup4\n        /* \"@openzeppelin/contracts/utils/math/Math.sol\":12916:12932  value >= 10 ** 2 */\n      lt\n        /* \"@openzeppelin/contracts/utils/math/Math.sol\":12912:13012  if (value >= 10 ** 2) {... */\n      tag_336\n      jumpi\n        /* \"@openzeppelin/contracts/utils/math/Math.sol\":12961:12968  10 ** 2 */\n      0x64\n        /* \"@openzeppelin/contracts/utils/math/Math.sol\":12952:12968  value /= 10 ** 2 */\n      dup4\n      dup2\n      tag_337\n      jumpi\n      tag_338\n      tag_312\n      jump\t// in\n    tag_338:\n    tag_337:\n      div\n      swap3\n      pop\n        /* \"@openzeppelin/contracts/utils/math/Math.sol\":12996:12997  2 */\n      0x02\n        /* \"@openzeppelin/contracts/utils/math/Math.sol\":12986:12997  result += 2 */\n      dup2\n      add\n      swap1\n      pop\n        /* \"@openzeppelin/contracts/utils/math/Math.sol\":12912:13012  if (value >= 10 ** 2) {... */\n    tag_336:\n        /* \"@openzeppelin/contracts/utils/math/Math.sol\":13038:13045  10 ** 1 */\n      0x0a\n        /* \"@openzeppelin/contracts/utils/math/Math.sol\":13029:13034  value */\n      dup4\n        /* \"@openzeppelin/contracts/utils/math/Math.sol\":13029:13045  value >= 10 ** 1 */\n      lt\n        /* \"@openzeppelin/contracts/utils/math/Math.sol\":13025:13091  if (value >= 10 ** 1) {... */\n      tag_339\n      jumpi\n        /* \"@openzeppelin/contracts/utils/math/Math.sol\":13075:13076  1 */\n      0x01\n        /* \"@openzeppelin/contracts/utils/math/Math.sol\":13065:13076  result += 1 */\n      dup2\n      add\n      swap1\n      pop\n        /* \"@openzeppelin/contracts/utils/math/Math.sol\":13025:13091  if (value >= 10 ** 1) {... */\n    tag_339:\n        /* \"@openzeppelin/contracts/utils/math/Math.sol\":13117:13123  result */\n      dup1\n        /* \"@openzeppelin/contracts/utils/math/Math.sol\":13110:13123  return result */\n      swap2\n      pop\n      pop\n        /* \"@openzeppelin/contracts/utils/math/Math.sol\":12214:13130  function log10(uint256 value) internal pure returns (uint256) {... */\n      swap2\n      swap1\n      pop\n      jump\t// out\n        /* \"#utility.yul\":7:82   */\n    tag_340:\n        /* \"#utility.yul\":40:46   */\n      0x00\n        /* \"#utility.yul\":73:75   */\n      0x40\n        /* \"#utility.yul\":67:76   */\n      mload\n        /* \"#utility.yul\":57:76   */\n      swap1\n      pop\n        /* \"#utility.yul\":7:82   */\n      swap1\n      jump\t// out\n        /* \"#utility.yul\":88:205   */\n    tag_341:\n        /* \"#utility.yul\":197:198   */\n      0x00\n        /* \"#utility.yul\":194:195   */\n      dup1\n        /* \"#utility.yul\":187:199   */\n      revert\n        /* \"#utility.yul\":211:328   */\n    tag_342:\n        /* \"#utility.yul\":320:321   */\n      0x00\n        /* \"#utility.yul\":317:318   */\n      dup1\n        /* \"#utility.yul\":310:322   */\n      revert\n        /* \"#utility.yul\":334:483   */\n    tag_343:\n        /* \"#utility.yul\":370:377   */\n      0x00\n        /* \"#utility.yul\":410:476   */\n      0xffffffff00000000000000000000000000000000000000000000000000000000\n        /* \"#utility.yul\":403:408   */\n      dup3\n        /* \"#utility.yul\":399:477   */\n      and\n        /* \"#utility.yul\":388:477   */\n      swap1\n      pop\n        /* \"#utility.yul\":334:483   */\n      swap2\n      swap1\n      pop\n      jump\t// out\n        /* \"#utility.yul\":489:609   */\n    tag_344:\n        /* \"#utility.yul\":561:584   */\n      tag_411\n        /* \"#utility.yul\":578:583   */\n      dup2\n        /* \"#utility.yul\":561:584   */\n      tag_343\n      jump\t// in\n    tag_411:\n        /* \"#utility.yul\":554:559   */\n      dup2\n        /* \"#utility.yul\":551:585   */\n      eq\n        /* \"#utility.yul\":541:603   */\n      tag_412\n      jumpi\n        /* \"#utility.yul\":599:600   */\n      0x00\n        /* \"#utility.yul\":596:597   */\n      dup1\n        /* \"#utility.yul\":589:601   */\n      revert\n        /* \"#utility.yul\":541:603   */\n    tag_412:\n        /* \"#utility.yul\":489:609   */\n      pop\n      jump\t// out\n        /* \"#utility.yul\":615:752   */\n    tag_345:\n        /* \"#utility.yul\":660:665   */\n      0x00\n        /* \"#utility.yul\":698:704   */\n      dup2\n        /* \"#utility.yul\":685:705   */\n      calldataload\n        /* \"#utility.yul\":676:705   */\n      swap1\n      pop\n        /* \"#utility.yul\":714:746   */\n      tag_414\n        /* \"#utility.yul\":740:745   */\n      dup2\n        /* \"#utility.yul\":714:746   */\n      tag_344\n      jump\t// in\n    tag_414:\n        /* \"#utility.yul\":615:752   */\n      swap3\n      swap2\n      pop\n      pop\n      jump\t// out\n        /* \"#utility.yul\":758:1085   */\n    tag_25:\n        /* \"#utility.yul\":816:822   */\n      0x00\n        /* \"#utility.yul\":865:867   */\n      0x20\n        /* \"#utility.yul\":853:862   */\n      dup3\n        /* \"#utility.yul\":844:851   */\n      dup5\n        /* \"#utility.yul\":840:863   */\n      sub\n        /* \"#utility.yul\":836:868   */\n      slt\n        /* \"#utility.yul\":833:952   */\n      iszero\n      tag_416\n      jumpi\n        /* \"#utility.yul\":871:950   */\n      tag_417\n      tag_341\n      jump\t// in\n    tag_417:\n        /* \"#utility.yul\":833:952   */\n    tag_416:\n        /* \"#utility.yul\":991:992   */\n      0x00\n        /* \"#utility.yul\":1016:1068   */\n      tag_418\n        /* \"#utility.yul\":1060:1067   */\n      dup5\n        /* \"#utility.yul\":1051:1057   */\n      dup3\n        /* \"#utility.yul\":1040:1049   */\n      dup6\n        /* \"#utility.yul\":1036:1058   */\n      add\n        /* \"#utility.yul\":1016:1068   */\n      tag_345\n      jump\t// in\n    tag_418:\n        /* \"#utility.yul\":1006:1068   */\n      swap2\n      pop\n        /* \"#utility.yul\":962:1078   */\n      pop\n        /* \"#utility.yul\":758:1085   */\n      swap3\n      swap2\n      pop\n      pop\n      jump\t// out\n        /* \"#utility.yul\":1091:1181   */\n    tag_346:\n        /* \"#utility.yul\":1125:1132   */\n      0x00\n        /* \"#utility.yul\":1168:1173   */\n      dup2\n        /* \"#utility.yul\":1161:1174   */\n      iszero\n        /* \"#utility.yul\":1154:1175   */\n      iszero\n        /* \"#utility.yul\":1143:1175   */\n      swap1\n      pop\n        /* \"#utility.yul\":1091:1181   */\n      swap2\n      swap1\n      pop\n      jump\t// out\n        /* \"#utility.yul\":1187:1296   */\n    tag_347:\n        /* \"#utility.yul\":1268:1289   */\n      tag_421\n        /* \"#utility.yul\":1283:1288   */\n      dup2\n        /* \"#utility.yul\":1268:1289   */\n      tag_346\n      jump\t// in\n    tag_421:\n        /* \"#utility.yul\":1263:1266   */\n      dup3\n        /* \"#utility.yul\":1256:1290   */\n      mstore\n        /* \"#utility.yul\":1187:1296   */\n      pop\n      pop\n      jump\t// out\n        /* \"#utility.yul\":1302:1512   */\n    tag_28:\n        /* \"#utility.yul\":1389:1393   */\n      0x00\n        /* \"#utility.yul\":1427:1429   */\n      0x20\n        /* \"#utility.yul\":1416:1425   */\n      dup3\n        /* \"#utility.yul\":1412:1430   */\n      add\n        /* \"#utility.yul\":1404:1430   */\n      swap1\n      pop\n        /* \"#utility.yul\":1440:1505   */\n      tag_423\n        /* \"#utility.yul\":1502:1503   */\n      0x00\n        /* \"#utility.yul\":1491:1500   */\n      dup4\n        /* \"#utility.yul\":1487:1504   */\n      add\n        /* \"#utility.yul\":1478:1484   */\n      dup5\n        /* \"#utility.yul\":1440:1505   */\n      tag_347\n      jump\t// in\n    tag_423:\n        /* \"#utility.yul\":1302:1512   */\n      swap3\n      swap2\n      pop\n      pop\n      jump\t// out\n        /* \"#utility.yul\":1518:1617   */\n    tag_348:\n        /* \"#utility.yul\":1570:1576   */\n      0x00\n        /* \"#utility.yul\":1604:1609   */\n      dup2\n        /* \"#utility.yul\":1598:1610   */\n      mload\n        /* \"#utility.yul\":1588:1610   */\n      swap1\n      pop\n        /* \"#utility.yul\":1518:1617   */\n      swap2\n      swap1\n      pop\n      jump\t// out\n        /* \"#utility.yul\":1623:1792   */\n    tag_349:\n        /* \"#utility.yul\":1707:1718   */\n      0x00\n        /* \"#utility.yul\":1741:1747   */\n      dup3\n        /* \"#utility.yul\":1736:1739   */\n      dup3\n        /* \"#utility.yul\":1729:1748   */\n      mstore\n        /* \"#utility.yul\":1781:1785   */\n      0x20\n        /* \"#utility.yul\":1776:1779   */\n      dup3\n        /* \"#utility.yul\":1772:1786   */\n      add\n        /* \"#utility.yul\":1757:1786   */\n      swap1\n      pop\n        /* \"#utility.yul\":1623:1792   */\n      swap3\n      swap2\n      pop\n      pop\n      jump\t// out\n        /* \"#utility.yul\":1798:1937   */\n    tag_350:\n        /* \"#utility.yul\":1887:1893   */\n      dup3\n        /* \"#utility.yul\":1882:1885   */\n      dup2\n        /* \"#utility.yul\":1877:1880   */\n      dup4\n        /* \"#utility.yul\":1871:1894   */\n      mcopy\n        /* \"#utility.yul\":1928:1929   */\n      0x00\n        /* \"#utility.yul\":1919:1925   */\n      dup4\n        /* \"#utility.yul\":1914:1917   */\n      dup4\n        /* \"#utility.yul\":1910:1926   */\n      add\n        /* \"#utility.yul\":1903:1930   */\n      mstore\n        /* \"#utility.yul\":1798:1937   */\n      pop\n      pop\n      pop\n      jump\t// out\n        /* \"#utility.yul\":1943:2045   */\n    tag_351:\n        /* \"#utility.yul\":1984:1990   */\n      0x00\n        /* \"#utility.yul\":2035:2037   */\n      0x1f\n        /* \"#utility.yul\":2031:2038   */\n      not\n        /* \"#utility.yul\":2026:2028   */\n      0x1f\n        /* \"#utility.yul\":2019:2024   */\n      dup4\n        /* \"#utility.yul\":2015:2029   */\n      add\n        /* \"#utility.yul\":2011:2039   */\n      and\n        /* \"#utility.yul\":2001:2039   */\n      swap1\n      pop\n        /* \"#utility.yul\":1943:2045   */\n      swap2\n      swap1\n      pop\n      jump\t// out\n        /* \"#utility.yul\":2051:2428   */\n    tag_352:\n        /* \"#utility.yul\":2139:2142   */\n      0x00\n        /* \"#utility.yul\":2167:2206   */\n      tag_429\n        /* \"#utility.yul\":2200:2205   */\n      dup3\n        /* \"#utility.yul\":2167:2206   */\n      tag_348\n      jump\t// in\n    tag_429:\n        /* \"#utility.yul\":2222:2293   */\n      tag_430\n        /* \"#utility.yul\":2286:2292   */\n      dup2\n        /* \"#utility.yul\":2281:2284   */\n      dup6\n        /* \"#utility.yul\":2222:2293   */\n      tag_349\n      jump\t// in\n    tag_430:\n        /* \"#utility.yul\":2215:2293   */\n      swap4\n      pop\n        /* \"#utility.yul\":2302:2367   */\n      tag_431\n        /* \"#utility.yul\":2360:2366   */\n      dup2\n        /* \"#utility.yul\":2355:2358   */\n      dup6\n        /* \"#utility.yul\":2348:2352   */\n      0x20\n        /* \"#utility.yul\":2341:2346   */\n      dup7\n        /* \"#utility.yul\":2337:2353   */\n      add\n        /* \"#utility.yul\":2302:2367   */\n      tag_350\n      jump\t// in\n    tag_431:\n        /* \"#utility.yul\":2392:2421   */\n      tag_432\n        /* \"#utility.yul\":2414:2420   */\n      dup2\n        /* \"#utility.yul\":2392:2421   */\n      tag_351\n      jump\t// in\n    tag_432:\n        /* \"#utility.yul\":2387:2390   */\n      dup5\n        /* \"#utility.yul\":2383:2422   */\n      add\n        /* \"#utility.yul\":2376:2422   */\n      swap2\n      pop\n        /* \"#utility.yul\":2143:2428   */\n      pop\n        /* \"#utility.yul\":2051:2428   */\n      swap3\n      swap2\n      pop\n      pop\n      jump\t// out\n        /* \"#utility.yul\":2434:2747   */\n    tag_32:\n        /* \"#utility.yul\":2547:2551   */\n      0x00\n        /* \"#utility.yul\":2585:2587   */\n      0x20\n        /* \"#utility.yul\":2574:2583   */\n      dup3\n        /* \"#utility.yul\":2570:2588   */\n      add\n        /* \"#utility.yul\":2562:2588   */\n      swap1\n      pop\n        /* \"#utility.yul\":2634:2643   */\n      dup2\n        /* \"#utility.yul\":2628:2632   */\n      dup2\n        /* \"#utility.yul\":2624:2644   */\n      sub\n        /* \"#utility.yul\":2620:2621   */\n      0x00\n        /* \"#utility.yul\":2609:2618   */\n      dup4\n        /* \"#utility.yul\":2605:2622   */\n      add\n        /* \"#utility.yul\":2598:2645   */\n      mstore\n        /* \"#utility.yul\":2662:2740   */\n      tag_434\n        /* \"#utility.yul\":2735:2739   */\n      dup2\n        /* \"#utility.yul\":2726:2732   */\n      dup5\n        /* \"#utility.yul\":2662:2740   */\n      tag_352\n      jump\t// in\n    tag_434:\n        /* \"#utility.yul\":2654:2740   */\n      swap1\n      pop\n        /* \"#utility.yul\":2434:2747   */\n      swap3\n      swap2\n      pop\n      pop\n      jump\t// out\n        /* \"#utility.yul\":2753:2830   */\n    tag_353:\n        /* \"#utility.yul\":2790:2797   */\n      0x00\n        /* \"#utility.yul\":2819:2824   */\n      dup2\n        /* \"#utility.yul\":2808:2824   */\n      swap1\n      pop\n        /* \"#utility.yul\":2753:2830   */\n      swap2\n      swap1\n      pop\n      jump\t// out\n        /* \"#utility.yul\":2836:2958   */\n    tag_354:\n        /* \"#utility.yul\":2909:2933   */\n      tag_437\n        /* \"#utility.yul\":2927:2932   */\n      dup2\n        /* \"#utility.yul\":2909:2933   */\n      tag_353\n      jump\t// in\n    tag_437:\n        /* \"#utility.yul\":2902:2907   */\n      dup2\n        /* \"#utility.yul\":2899:2934   */\n      eq\n        /* \"#utility.yul\":2889:2952   */\n      tag_438\n      jumpi\n        /* \"#utility.yul\":2948:2949   */\n      0x00\n        /* \"#utility.yul\":2945:2946   */\n      dup1\n        /* \"#utility.yul\":2938:2950   */\n      revert\n        /* \"#utility.yul\":2889:2952   */\n    tag_438:\n        /* \"#utility.yul\":2836:2958   */\n      pop\n      jump\t// out\n        /* \"#utility.yul\":2964:3103   */\n    tag_355:\n        /* \"#utility.yul\":3010:3015   */\n      0x00\n        /* \"#utility.yul\":3048:3054   */\n      dup2\n        /* \"#utility.yul\":3035:3055   */\n      calldataload\n        /* \"#utility.yul\":3026:3055   */\n      swap1\n      pop\n        /* \"#utility.yul\":3064:3097   */\n      tag_440\n        /* \"#utility.yul\":3091:3096   */\n      dup2\n        /* \"#utility.yul\":3064:3097   */\n      tag_354\n      jump\t// in\n    tag_440:\n        /* \"#utility.yul\":2964:3103   */\n      swap3\n      swap2\n      pop\n      pop\n      jump\t// out\n        /* \"#utility.yul\":3109:3438   */\n    tag_35:\n        /* \"#utility.yul\":3168:3174   */\n      0x00\n        /* \"#utility.yul\":3217:3219   */\n      0x20\n        /* \"#utility.yul\":3205:3214   */\n      dup3\n        /* \"#utility.yul\":3196:3203   */\n      dup5\n        /* \"#utility.yul\":3192:3215   */\n      sub\n        /* \"#utility.yul\":3188:3220   */\n      slt\n        /* \"#utility.yul\":3185:3304   */\n      iszero\n      tag_442\n      jumpi\n        /* \"#utility.yul\":3223:3302   */\n      tag_443\n      tag_341\n      jump\t// in\n    tag_443:\n        /* \"#utility.yul\":3185:3304   */\n    tag_442:\n        /* \"#utility.yul\":3343:3344   */\n      0x00\n        /* \"#utility.yul\":3368:3421   */\n      tag_444\n        /* \"#utility.yul\":3413:3420   */\n      dup5\n        /* \"#utility.yul\":3404:3410   */\n      dup3\n        /* \"#utility.yul\":3393:3402   */\n      dup6\n        /* \"#utility.yul\":3389:3411   */\n      add\n        /* \"#utility.yul\":3368:3421   */\n      tag_355\n      jump\t// in\n    tag_444:\n        /* \"#utility.yul\":3358:3421   */\n      swap2\n      pop\n        /* \"#utility.yul\":3314:3431   */\n      pop\n        /* \"#utility.yul\":3109:3438   */\n      swap3\n      swap2\n      pop\n      pop\n      jump\t// out\n        /* \"#utility.yul\":3444:3570   */\n    tag_356:\n        /* \"#utility.yul\":3481:3488   */\n      0x00\n        /* \"#utility.yul\":3521:3563   */\n      0xffffffffffffffffffffffffffffffffffffffff\n        /* \"#utility.yul\":3514:3519   */\n      dup3\n        /* \"#utility.yul\":3510:3564   */\n      and\n        /* \"#utility.yul\":3499:3564   */\n      swap1\n      pop\n        /* \"#utility.yul\":3444:3570   */\n      swap2\n      swap1\n      pop\n      jump\t// out\n        /* \"#utility.yul\":3576:3672   */\n    tag_357:\n        /* \"#utility.yul\":3613:3620   */\n      0x00\n        /* \"#utility.yul\":3642:3666   */\n      tag_447\n        /* \"#utility.yul\":3660:3665   */\n      dup3\n        /* \"#utility.yul\":3642:3666   */\n      tag_356\n      jump\t// in\n    tag_447:\n        /* \"#utility.yul\":3631:3666   */\n      swap1\n      pop\n        /* \"#utility.yul\":3576:3672   */\n      swap2\n      swap1\n      pop\n      jump\t// out\n        /* \"#utility.yul\":3678:3796   */\n    tag_358:\n        /* \"#utility.yul\":3765:3789   */\n      tag_449\n        /* \"#utility.yul\":3783:3788   */\n      dup2\n        /* \"#utility.yul\":3765:3789   */\n      tag_357\n      jump\t// in\n    tag_449:\n        /* \"#utility.yul\":3760:3763   */\n      dup3\n        /* \"#utility.yul\":3753:3790   */\n      mstore\n        /* \"#utility.yul\":3678:3796   */\n      pop\n      pop\n      jump\t// out\n        /* \"#utility.yul\":3802:4024   */\n    tag_38:\n        /* \"#utility.yul\":3895:3899   */\n      0x00\n        /* \"#utility.yul\":3933:3935   */\n      0x20\n        /* \"#utility.yul\":3922:3931   */\n      dup3\n        /* \"#utility.yul\":3918:3936   */\n      add\n        /* \"#utility.yul\":3910:3936   */\n      swap1\n      pop\n        /* \"#utility.yul\":3946:4017   */\n      tag_451\n        /* \"#utility.yul\":4014:4015   */\n      0x00\n        /* \"#utility.yul\":4003:4012   */\n      dup4\n        /* \"#utility.yul\":3999:4016   */\n      add\n        /* \"#utility.yul\":3990:3996   */\n      dup5\n        /* \"#utility.yul\":3946:4017   */\n      tag_358\n      jump\t// in\n    tag_451:\n        /* \"#utility.yul\":3802:4024   */\n      swap3\n      swap2\n      pop\n      pop\n      jump\t// out\n        /* \"#utility.yul\":4030:4152   */\n    tag_359:\n        /* \"#utility.yul\":4103:4127   */\n      tag_453\n        /* \"#utility.yul\":4121:4126   */\n      dup2\n        /* \"#utility.yul\":4103:4127   */\n      tag_357\n      jump\t// in\n    tag_453:\n        /* \"#utility.yul\":4096:4101   */\n      dup2\n        /* \"#utility.yul\":4093:4128   */\n      eq\n        /* \"#utility.yul\":4083:4146   */\n      tag_454\n      jumpi\n        /* \"#utility.yul\":4142:4143   */\n      0x00\n        /* \"#utility.yul\":4139:4140   */\n      dup1\n        /* \"#utility.yul\":4132:4144   */\n      revert\n        /* \"#utility.yul\":4083:4146   */\n    tag_454:\n        /* \"#utility.yul\":4030:4152   */\n      pop\n      jump\t// out\n        /* \"#utility.yul\":4158:4297   */\n    tag_360:\n        /* \"#utility.yul\":4204:4209   */\n      0x00\n        /* \"#utility.yul\":4242:4248   */\n      dup2\n        /* \"#utility.yul\":4229:4249   */\n      calldataload\n        /* \"#utility.yul\":4220:4249   */\n      swap1\n      pop\n        /* \"#utility.yul\":4258:4291   */\n      tag_456\n        /* \"#utility.yul\":4285:4290   */\n      dup2\n        /* \"#utility.yul\":4258:4291   */\n      tag_359\n      jump\t// in\n    tag_456:\n        /* \"#utility.yul\":4158:4297   */\n      swap3\n      swap2\n      pop\n      pop\n      jump\t// out\n        /* \"#utility.yul\":4303:4777   */\n    tag_41:\n        /* \"#utility.yul\":4371:4377   */\n      0x00\n        /* \"#utility.yul\":4379:4385   */\n      dup1\n        /* \"#utility.yul\":4428:4430   */\n      0x40\n        /* \"#utility.yul\":4416:4425   */\n      dup4\n        /* \"#utility.yul\":4407:4414   */\n      dup6\n        /* \"#utility.yul\":4403:4426   */\n      sub\n        /* \"#utility.yul\":4399:4431   */\n      slt\n        /* \"#utility.yul\":4396:4515   */\n      iszero\n      tag_458\n      jumpi\n        /* \"#utility.yul\":4434:4513   */\n      tag_459\n      tag_341\n      jump\t// in\n    tag_459:\n        /* \"#utility.yul\":4396:4515   */\n    tag_458:\n        /* \"#utility.yul\":4554:4555   */\n      0x00\n        /* \"#utility.yul\":4579:4632   */\n      tag_460\n        /* \"#utility.yul\":4624:4631   */\n      dup6\n        /* \"#utility.yul\":4615:4621   */\n      dup3\n        /* \"#utility.yul\":4604:4613   */\n      dup7\n        /* \"#utility.yul\":4600:4622   */\n      add\n        /* \"#utility.yul\":4579:4632   */\n      tag_360\n      jump\t// in\n    tag_460:\n        /* \"#utility.yul\":4569:4632   */\n      swap3\n      pop\n        /* \"#utility.yul\":4525:4642   */\n      pop\n        /* \"#utility.yul\":4681:4683   */\n      0x20\n        /* \"#utility.yul\":4707:4760   */\n      tag_461\n        /* \"#utility.yul\":4752:4759   */\n      dup6\n        /* \"#utility.yul\":4743:4749   */\n      dup3\n        /* \"#utility.yul\":4732:4741   */\n      dup7\n        /* \"#utility.yul\":4728:4750   */\n      add\n        /* \"#utility.yul\":4707:4760   */\n      tag_355\n      jump\t// in\n    tag_461:\n        /* \"#utility.yul\":4697:4760   */\n      swap2\n      pop\n        /* \"#utility.yul\":4652:4770   */\n      pop\n        /* \"#utility.yul\":4303:4777   */\n      swap3\n      pop\n      swap3\n      swap1\n      pop\n      jump\t// out\n        /* \"#utility.yul\":4783:4897   */\n    tag_361:\n        /* \"#utility.yul\":4850:4856   */\n      0x00\n        /* \"#utility.yul\":4884:4889   */\n      dup2\n        /* \"#utility.yul\":4878:4890   */\n      mload\n        /* \"#utility.yul\":4868:4890   */\n      swap1\n      pop\n        /* \"#utility.yul\":4783:4897   */\n      swap2\n      swap1\n      pop\n      jump\t// out\n        /* \"#utility.yul\":4903:5087   */\n    tag_362:\n        /* \"#utility.yul\":5002:5013   */\n      0x00\n        /* \"#utility.yul\":5036:5042   */\n      dup3\n        /* \"#utility.yul\":5031:5034   */\n      dup3\n        /* \"#utility.yul\":5024:5043   */\n      mstore\n        /* \"#utility.yul\":5076:5080   */\n      0x20\n        /* \"#utility.yul\":5071:5074   */\n      dup3\n        /* \"#utility.yul\":5067:5081   */\n      add\n        /* \"#utility.yul\":5052:5081   */\n      swap1\n      pop\n        /* \"#utility.yul\":4903:5087   */\n      swap3\n      swap2\n      pop\n      pop\n      jump\t// out\n        /* \"#utility.yul\":5093:5225   */\n    tag_363:\n        /* \"#utility.yul\":5160:5164   */\n      0x00\n        /* \"#utility.yul\":5183:5186   */\n      dup2\n        /* \"#utility.yul\":5175:5186   */\n      swap1\n      pop\n        /* \"#utility.yul\":5213:5217   */\n      0x20\n        /* \"#utility.yul\":5208:5211   */\n      dup3\n        /* \"#utility.yul\":5204:5218   */\n      add\n        /* \"#utility.yul\":5196:5218   */\n      swap1\n      pop\n        /* \"#utility.yul\":5093:5225   */\n      swap2\n      swap1\n      pop\n      jump\t// out\n        /* \"#utility.yul\":5231:5339   */\n    tag_364:\n        /* \"#utility.yul\":5308:5332   */\n      tag_466\n        /* \"#utility.yul\":5326:5331   */\n      dup2\n        /* \"#utility.yul\":5308:5332   */\n      tag_353\n      jump\t// in\n    tag_466:\n        /* \"#utility.yul\":5303:5306   */\n      dup3\n        /* \"#utility.yul\":5296:5333   */\n      mstore\n        /* \"#utility.yul\":5231:5339   */\n      pop\n      pop\n      jump\t// out\n        /* \"#utility.yul\":5345:5524   */\n    tag_365:\n        /* \"#utility.yul\":5414:5424   */\n      0x00\n        /* \"#utility.yul\":5435:5481   */\n      tag_468\n        /* \"#utility.yul\":5477:5480   */\n      dup4\n        /* \"#utility.yul\":5469:5475   */\n      dup4\n        /* \"#utility.yul\":5435:5481   */\n      tag_364\n      jump\t// in\n    tag_468:\n        /* \"#utility.yul\":5513:5517   */\n      0x20\n        /* \"#utility.yul\":5508:5511   */\n      dup4\n        /* \"#utility.yul\":5504:5518   */\n      add\n        /* \"#utility.yul\":5490:5518   */\n      swap1\n      pop\n        /* \"#utility.yul\":5345:5524   */\n      swap3\n      swap2\n      pop\n      pop\n      jump\t// out\n        /* \"#utility.yul\":5530:5643   */\n    tag_366:\n        /* \"#utility.yul\":5600:5604   */\n      0x00\n        /* \"#utility.yul\":5632:5636   */\n      0x20\n        /* \"#utility.yul\":5627:5630   */\n      dup3\n        /* \"#utility.yul\":5623:5637   */\n      add\n        /* \"#utility.yul\":5615:5637   */\n      swap1\n      pop\n        /* \"#utility.yul\":5530:5643   */\n      swap2\n      swap1\n      pop\n      jump\t// out\n        /* \"#utility.yul\":5679:6411   */\n    tag_367:\n        /* \"#utility.yul\":5798:5801   */\n      0x00\n        /* \"#utility.yul\":5827:5881   */\n      tag_471\n        /* \"#utility.yul\":5875:5880   */\n      dup3\n        /* \"#utility.yul\":5827:5881   */\n      tag_361\n      jump\t// in\n    tag_471:\n        /* \"#utility.yul\":5897:5983   */\n      tag_472\n        /* \"#utility.yul\":5976:5982   */\n      dup2\n        /* \"#utility.yul\":5971:5974   */\n      dup6\n        /* \"#utility.yul\":5897:5983   */\n      tag_362\n      jump\t// in\n    tag_472:\n        /* \"#utility.yul\":5890:5983   */\n      swap4\n      pop\n        /* \"#utility.yul\":6007:6063   */\n      tag_473\n        /* \"#utility.yul\":6057:6062   */\n      dup4\n        /* \"#utility.yul\":6007:6063   */\n      tag_363\n      jump\t// in\n    tag_473:\n        /* \"#utility.yul\":6086:6093   */\n      dup1\n        /* \"#utility.yul\":6117:6118   */\n      0x00\n        /* \"#utility.yul\":6102:6386   */\n    tag_474:\n        /* \"#utility.yul\":6127:6133   */\n      dup4\n        /* \"#utility.yul\":6124:6125   */\n      dup2\n        /* \"#utility.yul\":6121:6134   */\n      lt\n        /* \"#utility.yul\":6102:6386   */\n      iszero\n      tag_476\n      jumpi\n        /* \"#utility.yul\":6203:6209   */\n      dup2\n        /* \"#utility.yul\":6197:6210   */\n      mload\n        /* \"#utility.yul\":6230:6293   */\n      tag_477\n        /* \"#utility.yul\":6289:6292   */\n      dup9\n        /* \"#utility.yul\":6274:6287   */\n      dup3\n        /* \"#utility.yul\":6230:6293   */\n      tag_365\n      jump\t// in\n    tag_477:\n        /* \"#utility.yul\":6223:6293   */\n      swap8\n      pop\n        /* \"#utility.yul\":6316:6376   */\n      tag_478\n        /* \"#utility.yul\":6369:6375   */\n      dup4\n        /* \"#utility.yul\":6316:6376   */\n      tag_366\n      jump\t// in\n    tag_478:\n        /* \"#utility.yul\":6306:6376   */\n      swap3\n      pop\n        /* \"#utility.yul\":6162:6386   */\n      pop\n        /* \"#utility.yul\":6149:6150   */\n      0x01\n        /* \"#utility.yul\":6146:6147   */\n      dup2\n        /* \"#utility.yul\":6142:6151   */\n      add\n        /* \"#utility.yul\":6137:6151   */\n      swap1\n      pop\n        /* \"#utility.yul\":6102:6386   */\n      jump(tag_474)\n    tag_476:\n        /* \"#utility.yul\":6106:6120   */\n      pop\n        /* \"#utility.yul\":6402:6405   */\n      dup6\n        /* \"#utility.yul\":6395:6405   */\n      swap4\n      pop\n        /* \"#utility.yul\":5803:6411   */\n      pop\n      pop\n      pop\n        /* \"#utility.yul\":5679:6411   */\n      swap3\n      swap2\n      pop\n      pop\n      jump\t// out\n        /* \"#utility.yul\":6417:6790   */\n    tag_46:\n        /* \"#utility.yul\":6560:6564   */\n      0x00\n        /* \"#utility.yul\":6598:6600   */\n      0x20\n        /* \"#utility.yul\":6587:6596   */\n      dup3\n        /* \"#utility.yul\":6583:6601   */\n      add\n        /* \"#utility.yul\":6575:6601   */\n      swap1\n      pop\n        /* \"#utility.yul\":6647:6656   */\n      dup2\n        /* \"#utility.yul\":6641:6645   */\n      dup2\n        /* \"#utility.yul\":6637:6657   */\n      sub\n        /* \"#utility.yul\":6633:6634   */\n      0x00\n        /* \"#utility.yul\":6622:6631   */\n      dup4\n        /* \"#utility.yul\":6618:6635   */\n      add\n        /* \"#utility.yul\":6611:6658   */\n      mstore\n        /* \"#utility.yul\":6675:6783   */\n      tag_480\n        /* \"#utility.yul\":6778:6782   */\n      dup2\n        /* \"#utility.yul\":6769:6775   */\n      dup5\n        /* \"#utility.yul\":6675:6783   */\n      tag_367\n      jump\t// in\n    tag_480:\n        /* \"#utility.yul\":6667:6783   */\n      swap1\n      pop\n        /* \"#utility.yul\":6417:6790   */\n      swap3\n      swap2\n      pop\n      pop\n      jump\t// out\n        /* \"#utility.yul\":6796:7415   */\n    tag_49:\n        /* \"#utility.yul\":6873:6879   */\n      0x00\n        /* \"#utility.yul\":6881:6887   */\n      dup1\n        /* \"#utility.yul\":6889:6895   */\n      0x00\n        /* \"#utility.yul\":6938:6940   */\n      0x60\n        /* \"#utility.yul\":6926:6935   */\n      dup5\n        /* \"#utility.yul\":6917:6924   */\n      dup7\n        /* \"#utility.yul\":6913:6936   */\n      sub\n        /* \"#utility.yul\":6909:6941   */\n      slt\n        /* \"#utility.yul\":6906:7025   */\n      iszero\n      tag_482\n      jumpi\n        /* \"#utility.yul\":6944:7023   */\n      tag_483\n      tag_341\n      jump\t// in\n    tag_483:\n        /* \"#utility.yul\":6906:7025   */\n    tag_482:\n        /* \"#utility.yul\":7064:7065   */\n      0x00\n        /* \"#utility.yul\":7089:7142   */\n      tag_484\n        /* \"#utility.yul\":7134:7141   */\n      dup7\n        /* \"#utility.yul\":7125:7131   */\n      dup3\n        /* \"#utility.yul\":7114:7123   */\n      dup8\n        /* \"#utility.yul\":7110:7132   */\n      add\n        /* \"#utility.yul\":7089:7142   */\n      tag_360\n      jump\t// in\n    tag_484:\n        /* \"#utility.yul\":7079:7142   */\n      swap4\n      pop\n        /* \"#utility.yul\":7035:7152   */\n      pop\n        /* \"#utility.yul\":7191:7193   */\n      0x20\n        /* \"#utility.yul\":7217:7270   */\n      tag_485\n        /* \"#utility.yul\":7262:7269   */\n      dup7\n        /* \"#utility.yul\":7253:7259   */\n      dup3\n        /* \"#utility.yul\":7242:7251   */\n      dup8\n        /* \"#utility.yul\":7238:7260   */\n      add\n        /* \"#utility.yul\":7217:7270   */\n      tag_360\n      jump\t// in\n    tag_485:\n        /* \"#utility.yul\":7207:7270   */\n      swap3\n      pop\n        /* \"#utility.yul\":7162:7280   */\n      pop\n        /* \"#utility.yul\":7319:7321   */\n      0x40\n        /* \"#utility.yul\":7345:7398   */\n      tag_486\n        /* \"#utility.yul\":7390:7397   */\n      dup7\n        /* \"#utility.yul\":7381:7387   */\n      dup3\n        /* \"#utility.yul\":7370:7379   */\n      dup8\n        /* \"#utility.yul\":7366:7388   */\n      add\n        /* \"#utility.yul\":7345:7398   */\n      tag_355\n      jump\t// in\n    tag_486:\n        /* \"#utility.yul\":7335:7398   */\n      swap2\n      pop\n        /* \"#utility.yul\":7290:7408   */\n      pop\n        /* \"#utility.yul\":6796:7415   */\n      swap3\n      pop\n      swap3\n      pop\n      swap3\n      jump\t// out\n        /* \"#utility.yul\":7421:7538   */\n    tag_368:\n        /* \"#utility.yul\":7530:7531   */\n      0x00\n        /* \"#utility.yul\":7527:7528   */\n      dup1\n        /* \"#utility.yul\":7520:7532   */\n      revert\n        /* \"#utility.yul\":7544:7661   */\n    tag_369:\n        /* \"#utility.yul\":7653:7654   */\n      0x00\n        /* \"#utility.yul\":7650:7651   */\n      dup1\n        /* \"#utility.yul\":7643:7655   */\n      revert\n        /* \"#utility.yul\":7667:7847   */\n    tag_123:\n        /* \"#utility.yul\":7715:7792   */\n      0x4e487b7100000000000000000000000000000000000000000000000000000000\n        /* \"#utility.yul\":7712:7713   */\n      0x00\n        /* \"#utility.yul\":7705:7793   */\n      mstore\n        /* \"#utility.yul\":7812:7816   */\n      0x41\n        /* \"#utility.yul\":7809:7810   */\n      0x04\n        /* \"#utility.yul\":7802:7817   */\n      mstore\n        /* \"#utility.yul\":7836:7840   */\n      0x24\n        /* \"#utility.yul\":7833:7834   */\n      0x00\n        /* \"#utility.yul\":7826:7841   */\n      revert\n        /* \"#utility.yul\":7853:8134   */\n    tag_370:\n        /* \"#utility.yul\":7936:7963   */\n      tag_491\n        /* \"#utility.yul\":7958:7962   */\n      dup3\n        /* \"#utility.yul\":7936:7963   */\n      tag_351\n      jump\t// in\n    tag_491:\n        /* \"#utility.yul\":7928:7934   */\n      dup2\n        /* \"#utility.yul\":7924:7964   */\n      add\n        /* \"#utility.yul\":8066:8072   */\n      dup2\n        /* \"#utility.yul\":8054:8064   */\n      dup2\n        /* \"#utility.yul\":8051:8073   */\n      lt\n        /* \"#utility.yul\":8030:8048   */\n      0xffffffffffffffff\n        /* \"#utility.yul\":8018:8028   */\n      dup3\n        /* \"#utility.yul\":8015:8049   */\n      gt\n        /* \"#utility.yul\":8012:8074   */\n      or\n        /* \"#utility.yul\":8009:8097   */\n      iszero\n      tag_492\n      jumpi\n        /* \"#utility.yul\":8077:8095   */\n      tag_493\n      tag_123\n      jump\t// in\n    tag_493:\n        /* \"#utility.yul\":8009:8097   */\n    tag_492:\n        /* \"#utility.yul\":8117:8127   */\n      dup1\n        /* \"#utility.yul\":8113:8115   */\n      0x40\n        /* \"#utility.yul\":8106:8128   */\n      mstore\n        /* \"#utility.yul\":7896:8134   */\n      pop\n        /* \"#utility.yul\":7853:8134   */\n      pop\n      pop\n      jump\t// out\n        /* \"#utility.yul\":8140:8269   */\n    tag_371:\n        /* \"#utility.yul\":8174:8180   */\n      0x00\n        /* \"#utility.yul\":8201:8221   */\n      tag_495\n      tag_340\n      jump\t// in\n    tag_495:\n        /* \"#utility.yul\":8191:8221   */\n      swap1\n      pop\n        /* \"#utility.yul\":8230:8263   */\n      tag_496\n        /* \"#utility.yul\":8258:8262   */\n      dup3\n        /* \"#utility.yul\":8250:8256   */\n      dup3\n        /* \"#utility.yul\":8230:8263   */\n      tag_370\n      jump\t// in\n    tag_496:\n        /* \"#utility.yul\":8140:8269   */\n      swap2\n      swap1\n      pop\n      jump\t// out\n        /* \"#utility.yul\":8275:8583   */\n    tag_372:\n        /* \"#utility.yul\":8337:8341   */\n      0x00\n        /* \"#utility.yul\":8427:8445   */\n      0xffffffffffffffff\n        /* \"#utility.yul\":8419:8425   */\n      dup3\n        /* \"#utility.yul\":8416:8446   */\n      gt\n        /* \"#utility.yul\":8413:8469   */\n      iszero\n      tag_498\n      jumpi\n        /* \"#utility.yul\":8449:8467   */\n      tag_499\n      tag_123\n      jump\t// in\n    tag_499:\n        /* \"#utility.yul\":8413:8469   */\n    tag_498:\n        /* \"#utility.yul\":8487:8516   */\n      tag_500\n        /* \"#utility.yul\":8509:8515   */\n      dup3\n        /* \"#utility.yul\":8487:8516   */\n      tag_351\n      jump\t// in\n    tag_500:\n        /* \"#utility.yul\":8479:8516   */\n      swap1\n      pop\n        /* \"#utility.yul\":8571:8575   */\n      0x20\n        /* \"#utility.yul\":8565:8569   */\n      dup2\n        /* \"#utility.yul\":8561:8576   */\n      add\n        /* \"#utility.yul\":8553:8576   */\n      swap1\n      pop\n        /* \"#utility.yul\":8275:8583   */\n      swap2\n      swap1\n      pop\n      jump\t// out\n        /* \"#utility.yul\":8589:8737   */\n    tag_373:\n        /* \"#utility.yul\":8687:8693   */\n      dup3\n        /* \"#utility.yul\":8682:8685   */\n      dup2\n        /* \"#utility.yul\":8677:8680   */\n      dup4\n        /* \"#utility.yul\":8664:8694   */\n      calldatacopy\n        /* \"#utility.yul\":8728:8729   */\n      0x00\n        /* \"#utility.yul\":8719:8725   */\n      dup4\n        /* \"#utility.yul\":8714:8717   */\n      dup4\n        /* \"#utility.yul\":8710:8726   */\n      add\n        /* \"#utility.yul\":8703:8730   */\n      mstore\n        /* \"#utility.yul\":8589:8737   */\n      pop\n      pop\n      pop\n      jump\t// out\n        /* \"#utility.yul\":8743:9168   */\n    tag_374:\n        /* \"#utility.yul\":8821:8826   */\n      0x00\n        /* \"#utility.yul\":8846:8912   */\n      tag_503\n        /* \"#utility.yul\":8862:8911   */\n      tag_504\n        /* \"#utility.yul\":8904:8910   */\n      dup5\n        /* \"#utility.yul\":8862:8911   */\n      tag_372\n      jump\t// in\n    tag_504:\n        /* \"#utility.yul\":8846:8912   */\n      tag_371\n      jump\t// in\n    tag_503:\n        /* \"#utility.yul\":8837:8912   */\n      swap1\n      pop\n        /* \"#utility.yul\":8935:8941   */\n      dup3\n        /* \"#utility.yul\":8928:8933   */\n      dup2\n        /* \"#utility.yul\":8921:8942   */\n      mstore\n        /* \"#utility.yul\":8973:8977   */\n      0x20\n        /* \"#utility.yul\":8966:8971   */\n      dup2\n        /* \"#utility.yul\":8962:8978   */\n      add\n        /* \"#utility.yul\":9011:9014   */\n      dup5\n        /* \"#utility.yul\":9002:9008   */\n      dup5\n        /* \"#utility.yul\":8997:9000   */\n      dup5\n        /* \"#utility.yul\":8993:9009   */\n      add\n        /* \"#utility.yul\":8990:9015   */\n      gt\n        /* \"#utility.yul\":8987:9099   */\n      iszero\n      tag_505\n      jumpi\n        /* \"#utility.yul\":9018:9097   */\n      tag_506\n      tag_369\n      jump\t// in\n    tag_506:\n        /* \"#utility.yul\":8987:9099   */\n    tag_505:\n        /* \"#utility.yul\":9108:9162   */\n      tag_507\n        /* \"#utility.yul\":9155:9161   */\n      dup5\n        /* \"#utility.yul\":9150:9153   */\n      dup3\n        /* \"#utility.yul\":9145:9148   */\n      dup6\n        /* \"#utility.yul\":9108:9162   */\n      tag_373\n      jump\t// in\n    tag_507:\n        /* \"#utility.yul\":8827:9168   */\n      pop\n        /* \"#utility.yul\":8743:9168   */\n      swap4\n      swap3\n      pop\n      pop\n      pop\n      jump\t// out\n        /* \"#utility.yul\":9188:9528   */\n    tag_375:\n        /* \"#utility.yul\":9244:9249   */\n      0x00\n        /* \"#utility.yul\":9293:9296   */\n      dup3\n        /* \"#utility.yul\":9286:9290   */\n      0x1f\n        /* \"#utility.yul\":9278:9284   */\n      dup4\n        /* \"#utility.yul\":9274:9291   */\n      add\n        /* \"#utility.yul\":9270:9297   */\n      slt\n        /* \"#utility.yul\":9260:9382   */\n      tag_509\n      jumpi\n        /* \"#utility.yul\":9301:9380   */\n      tag_510\n      tag_368\n      jump\t// in\n    tag_510:\n        /* \"#utility.yul\":9260:9382   */\n    tag_509:\n        /* \"#utility.yul\":9418:9424   */\n      dup2\n        /* \"#utility.yul\":9405:9425   */\n      calldataload\n        /* \"#utility.yul\":9443:9522   */\n      tag_511\n        /* \"#utility.yul\":9518:9521   */\n      dup5\n        /* \"#utility.yul\":9510:9516   */\n      dup3\n        /* \"#utility.yul\":9503:9507   */\n      0x20\n        /* \"#utility.yul\":9495:9501   */\n      dup7\n        /* \"#utility.yul\":9491:9508   */\n      add\n        /* \"#utility.yul\":9443:9522   */\n      tag_374\n      jump\t// in\n    tag_511:\n        /* \"#utility.yul\":9434:9522   */\n      swap2\n      pop\n        /* \"#utility.yul\":9250:9528   */\n      pop\n        /* \"#utility.yul\":9188:9528   */\n      swap3\n      swap2\n      pop\n      pop\n      jump\t// out\n        /* \"#utility.yul\":9534:10043   */\n    tag_53:\n        /* \"#utility.yul\":9603:9609   */\n      0x00\n        /* \"#utility.yul\":9652:9654   */\n      0x20\n        /* \"#utility.yul\":9640:9649   */\n      dup3\n        /* \"#utility.yul\":9631:9638   */\n      dup5\n        /* \"#utility.yul\":9627:9650   */\n      sub\n        /* \"#utility.yul\":9623:9655   */\n      slt\n        /* \"#utility.yul\":9620:9739   */\n      iszero\n      tag_513\n      jumpi\n        /* \"#utility.yul\":9658:9737   */\n      tag_514\n      tag_341\n      jump\t// in\n    tag_514:\n        /* \"#utility.yul\":9620:9739   */\n    tag_513:\n        /* \"#utility.yul\":9806:9807   */\n      0x00\n        /* \"#utility.yul\":9795:9804   */\n      dup3\n        /* \"#utility.yul\":9791:9808   */\n      add\n        /* \"#utility.yul\":9778:9809   */\n      calldataload\n        /* \"#utility.yul\":9836:9854   */\n      0xffffffffffffffff\n        /* \"#utility.yul\":9828:9834   */\n      dup2\n        /* \"#utility.yul\":9825:9855   */\n      gt\n        /* \"#utility.yul\":9822:9939   */\n      iszero\n      tag_515\n      jumpi\n        /* \"#utility.yul\":9858:9937   */\n      tag_516\n      tag_342\n      jump\t// in\n    tag_516:\n        /* \"#utility.yul\":9822:9939   */\n    tag_515:\n        /* \"#utility.yul\":9963:10026   */\n      tag_517\n        /* \"#utility.yul\":10018:10025   */\n      dup5\n        /* \"#utility.yul\":10009:10015   */\n      dup3\n        /* \"#utility.yul\":9998:10007   */\n      dup6\n        /* \"#utility.yul\":9994:10016   */\n      add\n        /* \"#utility.yul\":9963:10026   */\n      tag_375\n      jump\t// in\n    tag_517:\n        /* \"#utility.yul\":9953:10026   */\n      swap2\n      pop\n        /* \"#utility.yul\":9749:10036   */\n      pop\n        /* \"#utility.yul\":9534:10043   */\n      swap3\n      swap2\n      pop\n      pop\n      jump\t// out\n        /* \"#utility.yul\":10049:10167   */\n    tag_376:\n        /* \"#utility.yul\":10136:10160   */\n      tag_519\n        /* \"#utility.yul\":10154:10159   */\n      dup2\n        /* \"#utility.yul\":10136:10160   */\n      tag_353\n      jump\t// in\n    tag_519:\n        /* \"#utility.yul\":10131:10134   */\n      dup3\n        /* \"#utility.yul\":10124:10161   */\n      mstore\n        /* \"#utility.yul\":10049:10167   */\n      pop\n      pop\n      jump\t// out\n        /* \"#utility.yul\":10173:10395   */\n    tag_56:\n        /* \"#utility.yul\":10266:10270   */\n      0x00\n        /* \"#utility.yul\":10304:10306   */\n      0x20\n        /* \"#utility.yul\":10293:10302   */\n      dup3\n        /* \"#utility.yul\":10289:10307   */\n      add\n        /* \"#utility.yul\":10281:10307   */\n      swap1\n      pop\n        /* \"#utility.yul\":10317:10388   */\n      tag_521\n        /* \"#utility.yul\":10385:10386   */\n      0x00\n        /* \"#utility.yul\":10374:10383   */\n      dup4\n        /* \"#utility.yul\":10370:10387   */\n      add\n        /* \"#utility.yul\":10361:10367   */\n      dup5\n        /* \"#utility.yul\":10317:10388   */\n      tag_376\n      jump\t// in\n    tag_521:\n        /* \"#utility.yul\":10173:10395   */\n      swap3\n      swap2\n      pop\n      pop\n      jump\t// out\n        /* \"#utility.yul\":10401:10730   */\n    tag_69:\n        /* \"#utility.yul\":10460:10466   */\n      0x00\n        /* \"#utility.yul\":10509:10511   */\n      0x20\n        /* \"#utility.yul\":10497:10506   */\n      dup3\n        /* \"#utility.yul\":10488:10495   */\n      dup5\n        /* \"#utility.yul\":10484:10507   */\n      sub\n        /* \"#utility.yul\":10480:10512   */\n      slt\n        /* \"#utility.yul\":10477:10596   */\n      iszero\n      tag_523\n      jumpi\n        /* \"#utility.yul\":10515:10594   */\n      tag_524\n      tag_341\n      jump\t// in\n    tag_524:\n        /* \"#utility.yul\":10477:10596   */\n    tag_523:\n        /* \"#utility.yul\":10635:10636   */\n      0x00\n        /* \"#utility.yul\":10660:10713   */\n      tag_525\n        /* \"#utility.yul\":10705:10712   */\n      dup5\n        /* \"#utility.yul\":10696:10702   */\n      dup3\n        /* \"#utility.yul\":10685:10694   */\n      dup6\n        /* \"#utility.yul\":10681:10703   */\n      add\n        /* \"#utility.yul\":10660:10713   */\n      tag_360\n      jump\t// in\n    tag_525:\n        /* \"#utility.yul\":10650:10713   */\n      swap2\n      pop\n        /* \"#utility.yul\":10606:10723   */\n      pop\n        /* \"#utility.yul\":10401:10730   */\n      swap3\n      swap2\n      pop\n      pop\n      jump\t// out\n        /* \"#utility.yul\":10736:10852   */\n    tag_377:\n        /* \"#utility.yul\":10806:10827   */\n      tag_527\n        /* \"#utility.yul\":10821:10826   */\n      dup2\n        /* \"#utility.yul\":10806:10827   */\n      tag_346\n      jump\t// in\n    tag_527:\n        /* \"#utility.yul\":10799:10804   */\n      dup2\n        /* \"#utility.yul\":10796:10828   */\n      eq\n        /* \"#utility.yul\":10786:10846   */\n      tag_528\n      jumpi\n        /* \"#utility.yul\":10842:10843   */\n      0x00\n        /* \"#utility.yul\":10839:10840   */\n      dup1\n        /* \"#utility.yul\":10832:10844   */\n      revert\n        /* \"#utility.yul\":10786:10846   */\n    tag_528:\n        /* \"#utility.yul\":10736:10852   */\n      pop\n      jump\t// out\n        /* \"#utility.yul\":10858:10991   */\n    tag_378:\n        /* \"#utility.yul\":10901:10906   */\n      0x00\n        /* \"#utility.yul\":10939:10945   */\n      dup2\n        /* \"#utility.yul\":10926:10946   */\n      calldataload\n        /* \"#utility.yul\":10917:10946   */\n      swap1\n      pop\n        /* \"#utility.yul\":10955:10985   */\n      tag_530\n        /* \"#utility.yul\":10979:10984   */\n      dup2\n        /* \"#utility.yul\":10955:10985   */\n      tag_377\n      jump\t// in\n    tag_530:\n        /* \"#utility.yul\":10858:10991   */\n      swap3\n      swap2\n      pop\n      pop\n      jump\t// out\n        /* \"#utility.yul\":10997:11465   */\n    tag_81:\n        /* \"#utility.yul\":11062:11068   */\n      0x00\n        /* \"#utility.yul\":11070:11076   */\n      dup1\n        /* \"#utility.yul\":11119:11121   */\n      0x40\n        /* \"#utility.yul\":11107:11116   */\n      dup4\n        /* \"#utility.yul\":11098:11105   */\n      dup6\n        /* \"#utility.yul\":11094:11117   */\n      sub\n        /* \"#utility.yul\":11090:11122   */\n      slt\n        /* \"#utility.yul\":11087:11206   */\n      iszero\n      tag_532\n      jumpi\n        /* \"#utility.yul\":11125:11204   */\n      tag_533\n      tag_341\n      jump\t// in\n    tag_533:\n        /* \"#utility.yul\":11087:11206   */\n    tag_532:\n        /* \"#utility.yul\":11245:11246   */\n      0x00\n        /* \"#utility.yul\":11270:11323   */\n      tag_534\n        /* \"#utility.yul\":11315:11322   */\n      dup6\n        /* \"#utility.yul\":11306:11312   */\n      dup3\n        /* \"#utility.yul\":11295:11304   */\n      dup7\n        /* \"#utility.yul\":11291:11313   */\n      add\n        /* \"#utility.yul\":11270:11323   */\n      tag_360\n      jump\t// in\n    tag_534:\n        /* \"#utility.yul\":11260:11323   */\n      swap3\n      pop\n        /* \"#utility.yul\":11216:11333   */\n      pop\n        /* \"#utility.yul\":11372:11374   */\n      0x20\n        /* \"#utility.yul\":11398:11448   */\n      tag_535\n        /* \"#utility.yul\":11440:11447   */\n      dup6\n        /* \"#utility.yul\":11431:11437   */\n      dup3\n        /* \"#utility.yul\":11420:11429   */\n      dup7\n        /* \"#utility.yul\":11416:11438   */\n      add\n        /* \"#utility.yul\":11398:11448   */\n      tag_378\n      jump\t// in\n    tag_535:\n        /* \"#utility.yul\":11388:11448   */\n      swap2\n      pop\n        /* \"#utility.yul\":11343:11458   */\n      pop\n        /* \"#utility.yul\":10997:11465   */\n      swap3\n      pop\n      swap3\n      swap1\n      pop\n      jump\t// out\n        /* \"#utility.yul\":11471:11778   */\n    tag_379:\n        /* \"#utility.yul\":11532:11536   */\n      0x00\n        /* \"#utility.yul\":11622:11640   */\n      0xffffffffffffffff\n        /* \"#utility.yul\":11614:11620   */\n      dup3\n        /* \"#utility.yul\":11611:11641   */\n      gt\n        /* \"#utility.yul\":11608:11664   */\n      iszero\n      tag_537\n      jumpi\n        /* \"#utility.yul\":11644:11662   */\n      tag_538\n      tag_123\n      jump\t// in\n    tag_538:\n        /* \"#utility.yul\":11608:11664   */\n    tag_537:\n        /* \"#utility.yul\":11682:11711   */\n      tag_539\n        /* \"#utility.yul\":11704:11710   */\n      dup3\n        /* \"#utility.yul\":11682:11711   */\n      tag_351\n      jump\t// in\n    tag_539:\n        /* \"#utility.yul\":11674:11711   */\n      swap1\n      pop\n        /* \"#utility.yul\":11766:11770   */\n      0x20\n        /* \"#utility.yul\":11760:11764   */\n      dup2\n        /* \"#utility.yul\":11756:11771   */\n      add\n        /* \"#utility.yul\":11748:11771   */\n      swap1\n      pop\n        /* \"#utility.yul\":11471:11778   */\n      swap2\n      swap1\n      pop\n      jump\t// out\n        /* \"#utility.yul\":11784:12207   */\n    tag_380:\n        /* \"#utility.yul\":11861:11866   */\n      0x00\n        /* \"#utility.yul\":11886:11951   */\n      tag_541\n        /* \"#utility.yul\":11902:11950   */\n      tag_542\n        /* \"#utility.yul\":11943:11949   */\n      dup5\n        /* \"#utility.yul\":11902:11950   */\n      tag_379\n      jump\t// in\n    tag_542:\n        /* \"#utility.yul\":11886:11951   */\n      tag_371\n      jump\t// in\n    tag_541:\n        /* \"#utility.yul\":11877:11951   */\n      swap1\n      pop\n        /* \"#utility.yul\":11974:11980   */\n      dup3\n        /* \"#utility.yul\":11967:11972   */\n      dup2\n        /* \"#utility.yul\":11960:11981   */\n      mstore\n        /* \"#utility.yul\":12012:12016   */\n      0x20\n        /* \"#utility.yul\":12005:12010   */\n      dup2\n        /* \"#utility.yul\":12001:12017   */\n      add\n        /* \"#utility.yul\":12050:12053   */\n      dup5\n        /* \"#utility.yul\":12041:12047   */\n      dup5\n        /* \"#utility.yul\":12036:12039   */\n      dup5\n        /* \"#utility.yul\":12032:12048   */\n      add\n        /* \"#utility.yul\":12029:12054   */\n      gt\n        /* \"#utility.yul\":12026:12138   */\n      iszero\n      tag_543\n      jumpi\n        /* \"#utility.yul\":12057:12136   */\n      tag_544\n      tag_369\n      jump\t// in\n    tag_544:\n        /* \"#utility.yul\":12026:12138   */\n    tag_543:\n        /* \"#utility.yul\":12147:12201   */\n      tag_545\n        /* \"#utility.yul\":12194:12200   */\n      dup5\n        /* \"#utility.yul\":12189:12192   */\n      dup3\n        /* \"#utility.yul\":12184:12187   */\n      dup6\n        /* \"#utility.yul\":12147:12201   */\n      tag_373\n      jump\t// in\n    tag_545:\n        /* \"#utility.yul\":11867:12207   */\n      pop\n        /* \"#utility.yul\":11784:12207   */\n      swap4\n      swap3\n      pop\n      pop\n      pop\n      jump\t// out\n        /* \"#utility.yul\":12226:12564   */\n    tag_381:\n        /* \"#utility.yul\":12281:12286   */\n      0x00\n        /* \"#utility.yul\":12330:12333   */\n      dup3\n        /* \"#utility.yul\":12323:12327   */\n      0x1f\n        /* \"#utility.yul\":12315:12321   */\n      dup4\n        /* \"#utility.yul\":12311:12328   */\n      add\n        /* \"#utility.yul\":12307:12334   */\n      slt\n        /* \"#utility.yul\":12297:12419   */\n      tag_547\n      jumpi\n        /* \"#utility.yul\":12338:12417   */\n      tag_548\n      tag_368\n      jump\t// in\n    tag_548:\n        /* \"#utility.yul\":12297:12419   */\n    tag_547:\n        /* \"#utility.yul\":12455:12461   */\n      dup2\n        /* \"#utility.yul\":12442:12462   */\n      calldataload\n        /* \"#utility.yul\":12480:12558   */\n      tag_549\n        /* \"#utility.yul\":12554:12557   */\n      dup5\n        /* \"#utility.yul\":12546:12552   */\n      dup3\n        /* \"#utility.yul\":12539:12543   */\n      0x20\n        /* \"#utility.yul\":12531:12537   */\n      dup7\n        /* \"#utility.yul\":12527:12544   */\n      add\n        /* \"#utility.yul\":12480:12558   */\n      tag_380\n      jump\t// in\n    tag_549:\n        /* \"#utility.yul\":12471:12558   */\n      swap2\n      pop\n        /* \"#utility.yul\":12287:12564   */\n      pop\n        /* \"#utility.yul\":12226:12564   */\n      swap3\n      swap2\n      pop\n      pop\n      jump\t// out\n        /* \"#utility.yul\":12570:13513   */\n    tag_85:\n        /* \"#utility.yul\":12665:12671   */\n      0x00\n        /* \"#utility.yul\":12673:12679   */\n      dup1\n        /* \"#utility.yul\":12681:12687   */\n      0x00\n        /* \"#utility.yul\":12689:12695   */\n      dup1\n        /* \"#utility.yul\":12738:12741   */\n      0x80\n        /* \"#utility.yul\":12726:12735   */\n      dup6\n        /* \"#utility.yul\":12717:12724   */\n      dup8\n        /* \"#utility.yul\":12713:12736   */\n      sub\n        /* \"#utility.yul\":12709:12742   */\n      slt\n        /* \"#utility.yul\":12706:12826   */\n      iszero\n      tag_551\n      jumpi\n        /* \"#utility.yul\":12745:12824   */\n      tag_552\n      tag_341\n      jump\t// in\n    tag_552:\n        /* \"#utility.yul\":12706:12826   */\n    tag_551:\n        /* \"#utility.yul\":12865:12866   */\n      0x00\n        /* \"#utility.yul\":12890:12943   */\n      tag_553\n        /* \"#utility.yul\":12935:12942   */\n      dup8\n        /* \"#utility.yul\":12926:12932   */\n      dup3\n        /* \"#utility.yul\":12915:12924   */\n      dup9\n        /* \"#utility.yul\":12911:12933   */\n      add\n        /* \"#utility.yul\":12890:12943   */\n      tag_360\n      jump\t// in\n    tag_553:\n        /* \"#utility.yul\":12880:12943   */\n      swap5\n      pop\n        /* \"#utility.yul\":12836:12953   */\n      pop\n        /* \"#utility.yul\":12992:12994   */\n      0x20\n        /* \"#utility.yul\":13018:13071   */\n      tag_554\n        /* \"#utility.yul\":13063:13070   */\n      dup8\n        /* \"#utility.yul\":13054:13060   */\n      dup3\n        /* \"#utility.yul\":13043:13052   */\n      dup9\n        /* \"#utility.yul\":13039:13061   */\n      add\n        /* \"#utility.yul\":13018:13071   */\n      tag_360\n      jump\t// in\n    tag_554:\n        /* \"#utility.yul\":13008:13071   */\n      swap4\n      pop\n        /* \"#utility.yul\":12963:13081   */\n      pop\n        /* \"#utility.yul\":13120:13122   */\n      0x40\n        /* \"#utility.yul\":13146:13199   */\n      tag_555\n        /* \"#utility.yul\":13191:13198   */\n      dup8\n        /* \"#utility.yul\":13182:13188   */\n      dup3\n        /* \"#utility.yul\":13171:13180   */\n      dup9\n        /* \"#utility.yul\":13167:13189   */\n      add\n        /* \"#utility.yul\":13146:13199   */\n      tag_355\n      jump\t// in\n    tag_555:\n        /* \"#utility.yul\":13136:13199   */\n      swap3\n      pop\n        /* \"#utility.yul\":13091:13209   */\n      pop\n        /* \"#utility.yul\":13276:13278   */\n      0x60\n        /* \"#utility.yul\":13265:13274   */\n      dup6\n        /* \"#utility.yul\":13261:13279   */\n      add\n        /* \"#utility.yul\":13248:13280   */\n      calldataload\n        /* \"#utility.yul\":13307:13325   */\n      0xffffffffffffffff\n        /* \"#utility.yul\":13299:13305   */\n      dup2\n        /* \"#utility.yul\":13296:13326   */\n      gt\n        /* \"#utility.yul\":13293:13410   */\n      iszero\n      tag_556\n      jumpi\n        /* \"#utility.yul\":13329:13408   */\n      tag_557\n      tag_342\n      jump\t// in\n    tag_557:\n        /* \"#utility.yul\":13293:13410   */\n    tag_556:\n        /* \"#utility.yul\":13434:13496   */\n      tag_558\n        /* \"#utility.yul\":13488:13495   */\n      dup8\n        /* \"#utility.yul\":13479:13485   */\n      dup3\n        /* \"#utility.yul\":13468:13477   */\n      dup9\n        /* \"#utility.yul\":13464:13486   */\n      add\n        /* \"#utility.yul\":13434:13496   */\n      tag_381\n      jump\t// in\n    tag_558:\n        /* \"#utility.yul\":13424:13496   */\n      swap2\n      pop\n        /* \"#utility.yul\":13219:13506   */\n      pop\n        /* \"#utility.yul\":12570:13513   */\n      swap3\n      swap6\n      swap2\n      swap5\n      pop\n      swap3\n      pop\n      jump\t// out\n        /* \"#utility.yul\":13519:13993   */\n    tag_93:\n        /* \"#utility.yul\":13587:13593   */\n      0x00\n        /* \"#utility.yul\":13595:13601   */\n      dup1\n        /* \"#utility.yul\":13644:13646   */\n      0x40\n        /* \"#utility.yul\":13632:13641   */\n      dup4\n        /* \"#utility.yul\":13623:13630   */\n      dup6\n        /* \"#utility.yul\":13619:13642   */\n      sub\n        /* \"#utility.yul\":13615:13647   */\n      slt\n        /* \"#utility.yul\":13612:13731   */\n      iszero\n      tag_560\n      jumpi\n        /* \"#utility.yul\":13650:13729   */\n      tag_561\n      tag_341\n      jump\t// in\n    tag_561:\n        /* \"#utility.yul\":13612:13731   */\n    tag_560:\n        /* \"#utility.yul\":13770:13771   */\n      0x00\n        /* \"#utility.yul\":13795:13848   */\n      tag_562\n        /* \"#utility.yul\":13840:13847   */\n      dup6\n        /* \"#utility.yul\":13831:13837   */\n      dup3\n        /* \"#utility.yul\":13820:13829   */\n      dup7\n        /* \"#utility.yul\":13816:13838   */\n      add\n        /* \"#utility.yul\":13795:13848   */\n      tag_360\n      jump\t// in\n    tag_562:\n        /* \"#utility.yul\":13785:13848   */\n      swap3\n      pop\n        /* \"#utility.yul\":13741:13858   */\n      pop\n        /* \"#utility.yul\":13897:13899   */\n      0x20\n        /* \"#utility.yul\":13923:13976   */\n      tag_563\n        /* \"#utility.yul\":13968:13975   */\n      dup6\n        /* \"#utility.yul\":13959:13965   */\n      dup3\n        /* \"#utility.yul\":13948:13957   */\n      dup7\n        /* \"#utility.yul\":13944:13966   */\n      add\n        /* \"#utility.yul\":13923:13976   */\n      tag_360\n      jump\t// in\n    tag_563:\n        /* \"#utility.yul\":13913:13976   */\n      swap2\n      pop\n        /* \"#utility.yul\":13868:13986   */\n      pop\n        /* \"#utility.yul\":13519:13993   */\n      swap3\n      pop\n      swap3\n      swap1\n      pop\n      jump\t// out\n        /* \"#utility.yul\":13999:14179   */\n    tag_382:\n        /* \"#utility.yul\":14047:14124   */\n      0x4e487b7100000000000000000000000000000000000000000000000000000000\n        /* \"#utility.yul\":14044:14045   */\n      0x00\n        /* \"#utility.yul\":14037:14125   */\n      mstore\n        /* \"#utility.yul\":14144:14148   */\n      0x22\n        /* \"#utility.yul\":14141:14142   */\n      0x04\n        /* \"#utility.yul\":14134:14149   */\n      mstore\n        /* \"#utility.yul\":14168:14172   */\n      0x24\n        /* \"#utility.yul\":14165:14166   */\n      0x00\n        /* \"#utility.yul\":14158:14173   */\n      revert\n        /* \"#utility.yul\":14185:14505   */\n    tag_102:\n        /* \"#utility.yul\":14229:14235   */\n      0x00\n        /* \"#utility.yul\":14266:14267   */\n      0x02\n        /* \"#utility.yul\":14260:14264   */\n      dup3\n        /* \"#utility.yul\":14256:14268   */\n      div\n        /* \"#utility.yul\":14246:14268   */\n      swap1\n      pop\n        /* \"#utility.yul\":14313:14314   */\n      0x01\n        /* \"#utility.yul\":14307:14311   */\n      dup3\n        /* \"#utility.yul\":14303:14315   */\n      and\n        /* \"#utility.yul\":14334:14352   */\n      dup1\n        /* \"#utility.yul\":14324:14405   */\n      tag_566\n      jumpi\n        /* \"#utility.yul\":14390:14394   */\n      0x7f\n        /* \"#utility.yul\":14382:14388   */\n      dup3\n        /* \"#utility.yul\":14378:14395   */\n      and\n        /* \"#utility.yul\":14368:14395   */\n      swap2\n      pop\n        /* \"#utility.yul\":14324:14405   */\n    tag_566:\n        /* \"#utility.yul\":14452:14454   */\n      0x20\n        /* \"#utility.yul\":14444:14450   */\n      dup3\n        /* \"#utility.yul\":14441:14455   */\n      lt\n        /* \"#utility.yul\":14421:14439   */\n      dup2\n        /* \"#utility.yul\":14418:14456   */\n      sub\n        /* \"#utility.yul\":14415:14499   */\n      tag_567\n      jumpi\n        /* \"#utility.yul\":14471:14489   */\n      tag_568\n      tag_382\n      jump\t// in\n    tag_568:\n        /* \"#utility.yul\":14415:14499   */\n    tag_567:\n        /* \"#utility.yul\":14236:14505   */\n      pop\n        /* \"#utility.yul\":14185:14505   */\n      swap2\n      swap1\n      pop\n      jump\t// out\n        /* \"#utility.yul\":14511:14691   */\n    tag_383:\n        /* \"#utility.yul\":14559:14636   */\n      0x4e487b7100000000000000000000000000000000000000000000000000000000\n        /* \"#utility.yul\":14556:14557   */\n      0x00\n        /* \"#utility.yul\":14549:14637   */\n      mstore\n        /* \"#utility.yul\":14656:14660   */\n      0x11\n        /* \"#utility.yul\":14653:14654   */\n      0x04\n        /* \"#utility.yul\":14646:14661   */\n      mstore\n        /* \"#utility.yul\":14680:14684   */\n      0x24\n        /* \"#utility.yul\":14677:14678   */\n      0x00\n        /* \"#utility.yul\":14670:14685   */\n      revert\n        /* \"#utility.yul\":14697:14888   */\n    tag_129:\n        /* \"#utility.yul\":14737:14740   */\n      0x00\n        /* \"#utility.yul\":14756:14776   */\n      tag_571\n        /* \"#utility.yul\":14774:14775   */\n      dup3\n        /* \"#utility.yul\":14756:14776   */\n      tag_353\n      jump\t// in\n    tag_571:\n        /* \"#utility.yul\":14751:14776   */\n      swap2\n      pop\n        /* \"#utility.yul\":14790:14810   */\n      tag_572\n        /* \"#utility.yul\":14808:14809   */\n      dup4\n        /* \"#utility.yul\":14790:14810   */\n      tag_353\n      jump\t// in\n    tag_572:\n        /* \"#utility.yul\":14785:14810   */\n      swap3\n      pop\n        /* \"#utility.yul\":14833:14834   */\n      dup3\n        /* \"#utility.yul\":14830:14831   */\n      dup3\n        /* \"#utility.yul\":14826:14835   */\n      add\n        /* \"#utility.yul\":14819:14835   */\n      swap1\n      pop\n        /* \"#utility.yul\":14854:14857   */\n      dup1\n        /* \"#utility.yul\":14851:14852   */\n      dup3\n        /* \"#utility.yul\":14848:14858   */\n      gt\n        /* \"#utility.yul\":14845:14881   */\n      iszero\n      tag_573\n      jumpi\n        /* \"#utility.yul\":14861:14879   */\n      tag_574\n      tag_383\n      jump\t// in\n    tag_574:\n        /* \"#utility.yul\":14845:14881   */\n    tag_573:\n        /* \"#utility.yul\":14697:14888   */\n      swap3\n      swap2\n      pop\n      pop\n      jump\t// out\n        /* \"#utility.yul\":14894:15074   */\n    tag_134:\n        /* \"#utility.yul\":14942:15019   */\n      0x4e487b7100000000000000000000000000000000000000000000000000000000\n        /* \"#utility.yul\":14939:14940   */\n      0x00\n        /* \"#utility.yul\":14932:15020   */\n      mstore\n        /* \"#utility.yul\":15039:15043   */\n      0x32\n        /* \"#utility.yul\":15036:15037   */\n      0x04\n        /* \"#utility.yul\":15029:15044   */\n      mstore\n        /* \"#utility.yul\":15063:15067   */\n      0x24\n        /* \"#utility.yul\":15060:15061   */\n      0x00\n        /* \"#utility.yul\":15053:15068   */\n      revert\n        /* \"#utility.yul\":15080:15522   */\n    tag_144:\n        /* \"#utility.yul\":15229:15233   */\n      0x00\n        /* \"#utility.yul\":15267:15269   */\n      0x60\n        /* \"#utility.yul\":15256:15265   */\n      dup3\n        /* \"#utility.yul\":15252:15270   */\n      add\n        /* \"#utility.yul\":15244:15270   */\n      swap1\n      pop\n        /* \"#utility.yul\":15280:15351   */\n      tag_577\n        /* \"#utility.yul\":15348:15349   */\n      0x00\n        /* \"#utility.yul\":15337:15346   */\n      dup4\n        /* \"#utility.yul\":15333:15350   */\n      add\n        /* \"#utility.yul\":15324:15330   */\n      dup7\n        /* \"#utility.yul\":15280:15351   */\n      tag_358\n      jump\t// in\n    tag_577:\n        /* \"#utility.yul\":15361:15433   */\n      tag_578\n        /* \"#utility.yul\":15429:15431   */\n      0x20\n        /* \"#utility.yul\":15418:15427   */\n      dup4\n        /* \"#utility.yul\":15414:15432   */\n      add\n        /* \"#utility.yul\":15405:15411   */\n      dup6\n        /* \"#utility.yul\":15361:15433   */\n      tag_376\n      jump\t// in\n    tag_578:\n        /* \"#utility.yul\":15443:15515   */\n      tag_579\n        /* \"#utility.yul\":15511:15513   */\n      0x40\n        /* \"#utility.yul\":15500:15509   */\n      dup4\n        /* \"#utility.yul\":15496:15514   */\n      add\n        /* \"#utility.yul\":15487:15493   */\n      dup5\n        /* \"#utility.yul\":15443:15515   */\n      tag_358\n      jump\t// in\n    tag_579:\n        /* \"#utility.yul\":15080:15522   */\n      swap5\n      swap4\n      pop\n      pop\n      pop\n      pop\n      jump\t// out\n        /* \"#utility.yul\":15528:15951   */\n    tag_155:\n        /* \"#utility.yul\":15669:15673   */\n      0x00\n        /* \"#utility.yul\":15707:15709   */\n      0x40\n        /* \"#utility.yul\":15696:15705   */\n      dup3\n        /* \"#utility.yul\":15692:15710   */\n      add\n        /* \"#utility.yul\":15684:15710   */\n      swap1\n      pop\n        /* \"#utility.yul\":15756:15765   */\n      dup2\n        /* \"#utility.yul\":15750:15754   */\n      dup2\n        /* \"#utility.yul\":15746:15766   */\n      sub\n        /* \"#utility.yul\":15742:15743   */\n      0x00\n        /* \"#utility.yul\":15731:15740   */\n      dup4\n        /* \"#utility.yul\":15727:15744   */\n      add\n        /* \"#utility.yul\":15720:15767   */\n      mstore\n        /* \"#utility.yul\":15784:15862   */\n      tag_581\n        /* \"#utility.yul\":15857:15861   */\n      dup2\n        /* \"#utility.yul\":15848:15854   */\n      dup6\n        /* \"#utility.yul\":15784:15862   */\n      tag_352\n      jump\t// in\n    tag_581:\n        /* \"#utility.yul\":15776:15862   */\n      swap1\n      pop\n        /* \"#utility.yul\":15872:15944   */\n      tag_582\n        /* \"#utility.yul\":15940:15942   */\n      0x20\n        /* \"#utility.yul\":15929:15938   */\n      dup4\n        /* \"#utility.yul\":15925:15943   */\n      add\n        /* \"#utility.yul\":15916:15922   */\n      dup5\n        /* \"#utility.yul\":15872:15944   */\n      tag_358\n      jump\t// in\n    tag_582:\n        /* \"#utility.yul\":15528:15951   */\n      swap4\n      swap3\n      pop\n      pop\n      pop\n      jump\t// out\n        /* \"#utility.yul\":15957:16105   */\n    tag_384:\n        /* \"#utility.yul\":16059:16070   */\n      0x00\n        /* \"#utility.yul\":16096:16099   */\n      dup2\n        /* \"#utility.yul\":16081:16099   */\n      swap1\n      pop\n        /* \"#utility.yul\":15957:16105   */\n      swap3\n      swap2\n      pop\n      pop\n      jump\t// out\n        /* \"#utility.yul\":16111:16501   */\n    tag_385:\n        /* \"#utility.yul\":16217:16220   */\n      0x00\n        /* \"#utility.yul\":16245:16284   */\n      tag_585\n        /* \"#utility.yul\":16278:16283   */\n      dup3\n        /* \"#utility.yul\":16245:16284   */\n      tag_348\n      jump\t// in\n    tag_585:\n        /* \"#utility.yul\":16300:16389   */\n      tag_586\n        /* \"#utility.yul\":16382:16388   */\n      dup2\n        /* \"#utility.yul\":16377:16380   */\n      dup6\n        /* \"#utility.yul\":16300:16389   */\n      tag_384\n      jump\t// in\n    tag_586:\n        /* \"#utility.yul\":16293:16389   */\n      swap4\n      pop\n        /* \"#utility.yul\":16398:16463   */\n      tag_587\n        /* \"#utility.yul\":16456:16462   */\n      dup2\n        /* \"#utility.yul\":16451:16454   */\n      dup6\n        /* \"#utility.yul\":16444:16448   */\n      0x20\n        /* \"#utility.yul\":16437:16442   */\n      dup7\n        /* \"#utility.yul\":16433:16449   */\n      add\n        /* \"#utility.yul\":16398:16463   */\n      tag_350\n      jump\t// in\n    tag_587:\n        /* \"#utility.yul\":16488:16494   */\n      dup1\n        /* \"#utility.yul\":16483:16486   */\n      dup5\n        /* \"#utility.yul\":16479:16495   */\n      add\n        /* \"#utility.yul\":16472:16495   */\n      swap2\n      pop\n        /* \"#utility.yul\":16221:16501   */\n      pop\n        /* \"#utility.yul\":16111:16501   */\n      swap3\n      swap2\n      pop\n      pop\n      jump\t// out\n        /* \"#utility.yul\":16507:16942   */\n    tag_209:\n        /* \"#utility.yul\":16687:16690   */\n      0x00\n        /* \"#utility.yul\":16709:16804   */\n      tag_589\n        /* \"#utility.yul\":16800:16803   */\n      dup3\n        /* \"#utility.yul\":16791:16797   */\n      dup6\n        /* \"#utility.yul\":16709:16804   */\n      tag_385\n      jump\t// in\n    tag_589:\n        /* \"#utility.yul\":16702:16804   */\n      swap2\n      pop\n        /* \"#utility.yul\":16821:16916   */\n      tag_590\n        /* \"#utility.yul\":16912:16915   */\n      dup3\n        /* \"#utility.yul\":16903:16909   */\n      dup5\n        /* \"#utility.yul\":16821:16916   */\n      tag_385\n      jump\t// in\n    tag_590:\n        /* \"#utility.yul\":16814:16916   */\n      swap2\n      pop\n        /* \"#utility.yul\":16933:16936   */\n      dup2\n        /* \"#utility.yul\":16926:16936   */\n      swap1\n      pop\n        /* \"#utility.yul\":16507:16942   */\n      swap4\n      swap3\n      pop\n      pop\n      pop\n      jump\t// out\n        /* \"#utility.yul\":16948:17089   */\n    tag_386:\n        /* \"#utility.yul\":16997:17001   */\n      0x00\n        /* \"#utility.yul\":17020:17023   */\n      dup2\n        /* \"#utility.yul\":17012:17023   */\n      swap1\n      pop\n        /* \"#utility.yul\":17043:17046   */\n      dup2\n        /* \"#utility.yul\":17040:17041   */\n      0x00\n        /* \"#utility.yul\":17033:17047   */\n      mstore\n        /* \"#utility.yul\":17077:17081   */\n      0x20\n        /* \"#utility.yul\":17074:17075   */\n      0x00\n        /* \"#utility.yul\":17064:17082   */\n      keccak256\n        /* \"#utility.yul\":17056:17082   */\n      swap1\n      pop\n        /* \"#utility.yul\":16948:17089   */\n      swap2\n      swap1\n      pop\n      jump\t// out\n        /* \"#utility.yul\":17095:17188   */\n    tag_387:\n        /* \"#utility.yul\":17132:17138   */\n      0x00\n        /* \"#utility.yul\":17179:17181   */\n      0x20\n        /* \"#utility.yul\":17174:17176   */\n      0x1f\n        /* \"#utility.yul\":17167:17172   */\n      dup4\n        /* \"#utility.yul\":17163:17177   */\n      add\n        /* \"#utility.yul\":17159:17182   */\n      div\n        /* \"#utility.yul\":17149:17182   */\n      swap1\n      pop\n        /* \"#utility.yul\":17095:17188   */\n      swap2\n      swap1\n      pop\n      jump\t// out\n        /* \"#utility.yul\":17194:17301   */\n    tag_388:\n        /* \"#utility.yul\":17238:17246   */\n      0x00\n        /* \"#utility.yul\":17288:17293   */\n      dup3\n        /* \"#utility.yul\":17282:17286   */\n      dup3\n        /* \"#utility.yul\":17278:17294   */\n      shl\n        /* \"#utility.yul\":17257:17294   */\n      swap1\n      pop\n        /* \"#utility.yul\":17194:17301   */\n      swap3\n      swap2\n      pop\n      pop\n      jump\t// out\n        /* \"#utility.yul\":17307:17700   */\n    tag_389:\n        /* \"#utility.yul\":17376:17382   */\n      0x00\n        /* \"#utility.yul\":17426:17427   */\n      0x08\n        /* \"#utility.yul\":17414:17424   */\n      dup4\n        /* \"#utility.yul\":17410:17428   */\n      mul\n        /* \"#utility.yul\":17449:17546   */\n      tag_595\n        /* \"#utility.yul\":17479:17545   */\n      0xffffffffffffffffffffffffffffffffffffffffffffffffffffffffffffffff\n        /* \"#utility.yul\":17468:17477   */\n      dup3\n        /* \"#utility.yul\":17449:17546   */\n      tag_388\n      jump\t// in\n    tag_595:\n        /* \"#utility.yul\":17567:17606   */\n      tag_596\n        /* \"#utility.yul\":17597:17605   */\n      dup7\n        /* \"#utility.yul\":17586:17595   */\n      dup4\n        /* \"#utility.yul\":17567:17606   */\n      tag_388\n      jump\t// in\n    tag_596:\n        /* \"#utility.yul\":17555:17606   */\n      swap6\n      pop\n        /* \"#utility.yul\":17639:17643   */\n      dup1\n        /* \"#utility.yul\":17635:17644   */\n      not\n        /* \"#utility.yul\":17628:17633   */\n      dup5\n        /* \"#utility.yul\":17624:17645   */\n      and\n        /* \"#utility.yul\":17615:17645   */\n      swap4\n      pop\n        /* \"#utility.yul\":17688:17692   */\n      dup1\n        /* \"#utility.yul\":17678:17686   */\n      dup7\n        /* \"#utility.yul\":17674:17693   */\n      and\n        /* \"#utility.yul\":17667:17672   */\n      dup5\n        /* \"#utility.yul\":17664:17694   */\n      or\n        /* \"#utility.yul\":17654:17694   */\n      swap3\n      pop\n        /* \"#utility.yul\":17383:17700   */\n      pop\n      pop\n        /* \"#utility.yul\":17307:17700   */\n      swap4\n      swap3\n      pop\n      pop\n      pop\n      jump\t// out\n        /* \"#utility.yul\":17706:17766   */\n    tag_390:\n        /* \"#utility.yul\":17734:17737   */\n      0x00\n        /* \"#utility.yul\":17755:17760   */\n      dup2\n        /* \"#utility.yul\":17748:17760   */\n      swap1\n      pop\n        /* \"#utility.yul\":17706:17766   */\n      swap2\n      swap1\n      pop\n      jump\t// out\n        /* \"#utility.yul\":17772:17914   */\n    tag_391:\n        /* \"#utility.yul\":17822:17831   */\n      0x00\n        /* \"#utility.yul\":17855:17908   */\n      tag_599\n        /* \"#utility.yul\":17873:17907   */\n      tag_600\n        /* \"#utility.yul\":17882:17906   */\n      tag_601\n        /* \"#utility.yul\":17900:17905   */\n      dup5\n        /* \"#utility.yul\":17882:17906   */\n      tag_353\n      jump\t// in\n    tag_601:\n        /* \"#utility.yul\":17873:17907   */\n      tag_390\n      jump\t// in\n    tag_600:\n        /* \"#utility.yul\":17855:17908   */\n      tag_353\n      jump\t// in\n    tag_599:\n        /* \"#utility.yul\":17842:17908   */\n      swap1\n      pop\n        /* \"#utility.yul\":17772:17914   */\n      swap2\n      swap1\n      pop\n      jump\t// out\n        /* \"#utility.yul\":17920:17995   */\n    tag_392:\n        /* \"#utility.yul\":17963:17966   */\n      0x00\n        /* \"#utility.yul\":17984:17989   */\n      dup2\n        /* \"#utility.yul\":17977:17989   */\n      swap1\n      pop\n        /* \"#utility.yul\":17920:17995   */\n      swap2\n      swap1\n      pop\n      jump\t// out\n        /* \"#utility.yul\":18001:18270   */\n    tag_393:\n        /* \"#utility.yul\":18111:18150   */\n      tag_604\n        /* \"#utility.yul\":18142:18149   */\n      dup4\n        /* \"#utility.yul\":18111:18150   */\n      tag_391\n      jump\t// in\n    tag_604:\n        /* \"#utility.yul\":18172:18263   */\n      tag_605\n        /* \"#utility.yul\":18221:18262   */\n      tag_606\n        /* \"#utility.yul\":18245:18261   */\n      dup3\n        /* \"#utility.yul\":18221:18262   */\n      tag_392\n      jump\t// in\n    tag_606:\n        /* \"#utility.yul\":18213:18219   */\n      dup5\n        /* \"#utility.yul\":18206:18210   */\n      dup5\n        /* \"#utility.yul\":18200:18211   */\n      sload\n        /* \"#utility.yul\":18172:18263   */\n      tag_389\n      jump\t// in\n    tag_605:\n        /* \"#utility.yul\":18166:18170   */\n      dup3\n        /* \"#utility.yul\":18159:18264   */\n      sstore\n        /* \"#utility.yul\":18077:18270   */\n      pop\n        /* \"#utility.yul\":18001:18270   */\n      pop\n      pop\n      pop\n      jump\t// out\n        /* \"#utility.yul\":18276:18349   */\n    tag_394:\n        /* \"#utility.yul\":18321:18324   */\n      0x00\n        /* \"#utility.yul\":18276:18349   */\n      swap1\n      jump\t// out\n        /* \"#utility.yul\":18355:18544   */\n    tag_395:\n        /* \"#utility.yul\":18432:18464   */\n      tag_609\n      tag_394\n      jump\t// in\n    tag_609:\n        /* \"#utility.yul\":18473:18538   */\n      tag_610\n        /* \"#utility.yul\":18531:18537   */\n      dup2\n        /* \"#utility.yul\":18523:18529   */\n      dup5\n        /* \"#utility.yul\":18517:18521   */\n      dup5\n        /* \"#utility.yul\":18473:18538   */\n      tag_393\n      jump\t// in\n    tag_610:\n        /* \"#utility.yul\":18408:18544   */\n      pop\n        /* \"#utility.yul\":18355:18544   */\n      pop\n      pop\n      jump\t// out\n        /* \"#utility.yul\":18550:18736   */\n    tag_396:\n        /* \"#utility.yul\":18610:18730   */\n    tag_612:\n        /* \"#utility.yul\":18627:18630   */\n      dup2\n        /* \"#utility.yul\":18620:18625   */\n      dup2\n        /* \"#utility.yul\":18617:18631   */\n      lt\n        /* \"#utility.yul\":18610:18730   */\n      iszero\n      tag_614\n      jumpi\n        /* \"#utility.yul\":18681:18720   */\n      tag_615\n        /* \"#utility.yul\":18718:18719   */\n      0x00\n        /* \"#utility.yul\":18711:18716   */\n      dup3\n        /* \"#utility.yul\":18681:18720   */\n      tag_395\n      jump\t// in\n    tag_615:\n        /* \"#utility.yul\":18654:18655   */\n      0x01\n        /* \"#utility.yul\":18647:18652   */\n      dup2\n        /* \"#utility.yul\":18643:18656   */\n      add\n        /* \"#utility.yul\":18634:18656   */\n      swap1\n      pop\n        /* \"#utility.yul\":18610:18730   */\n      jump(tag_612)\n    tag_614:\n        /* \"#utility.yul\":18550:18736   */\n      pop\n      pop\n      jump\t// out\n        /* \"#utility.yul\":18742:19285   */\n    tag_397:\n        /* \"#utility.yul\":18843:18845   */\n      0x1f\n        /* \"#utility.yul\":18838:18841   */\n      dup3\n        /* \"#utility.yul\":18835:18846   */\n      gt\n        /* \"#utility.yul\":18832:19278   */\n      iszero\n      tag_617\n      jumpi\n        /* \"#utility.yul\":18877:18915   */\n      tag_618\n        /* \"#utility.yul\":18909:18914   */\n      dup2\n        /* \"#utility.yul\":18877:18915   */\n      tag_386\n      jump\t// in\n    tag_618:\n        /* \"#utility.yul\":18961:18990   */\n      tag_619\n        /* \"#utility.yul\":18979:18989   */\n      dup5\n        /* \"#utility.yul\":18961:18990   */\n      tag_387\n      jump\t// in\n    tag_619:\n        /* \"#utility.yul\":18951:18959   */\n      dup2\n        /* \"#utility.yul\":18947:18991   */\n      add\n        /* \"#utility.yul\":19144:19146   */\n      0x20\n        /* \"#utility.yul\":19132:19142   */\n      dup6\n        /* \"#utility.yul\":19129:19147   */\n      lt\n        /* \"#utility.yul\":19126:19175   */\n      iszero\n      tag_620\n      jumpi\n        /* \"#utility.yul\":19165:19173   */\n      dup2\n        /* \"#utility.yul\":19150:19173   */\n      swap1\n      pop\n        /* \"#utility.yul\":19126:19175   */\n    tag_620:\n        /* \"#utility.yul\":19188:19268   */\n      tag_621\n        /* \"#utility.yul\":19244:19266   */\n      tag_622\n        /* \"#utility.yul\":19262:19265   */\n      dup6\n        /* \"#utility.yul\":19244:19266   */\n      tag_387\n      jump\t// in\n    tag_622:\n        /* \"#utility.yul\":19234:19242   */\n      dup4\n        /* \"#utility.yul\":19230:19267   */\n      add\n        /* \"#utility.yul\":19217:19228   */\n      dup3\n        /* \"#utility.yul\":19188:19268   */\n      tag_396\n      jump\t// in\n    tag_621:\n        /* \"#utility.yul\":18847:19278   */\n      pop\n      pop\n        /* \"#utility.yul\":18832:19278   */\n    tag_617:\n        /* \"#utility.yul\":18742:19285   */\n      pop\n      pop\n      pop\n      jump\t// out\n        /* \"#utility.yul\":19291:19408   */\n    tag_398:\n        /* \"#utility.yul\":19345:19353   */\n      0x00\n        /* \"#utility.yul\":19395:19400   */\n      dup3\n        /* \"#utility.yul\":19389:19393   */\n      dup3\n        /* \"#utility.yul\":19385:19401   */\n      shr\n        /* \"#utility.yul\":19364:19401   */\n      swap1\n      pop\n        /* \"#utility.yul\":19291:19408   */\n      swap3\n      swap2\n      pop\n      pop\n      jump\t// out\n        /* \"#utility.yul\":19414:19583   */\n    tag_399:\n        /* \"#utility.yul\":19458:19464   */\n      0x00\n        /* \"#utility.yul\":19491:19542   */\n      tag_625\n        /* \"#utility.yul\":19539:19540   */\n      0x00\n        /* \"#utility.yul\":19535:19541   */\n      not\n        /* \"#utility.yul\":19527:19532   */\n      dup5\n        /* \"#utility.yul\":19524:19525   */\n      0x08\n        /* \"#utility.yul\":19520:19533   */\n      mul\n        /* \"#utility.yul\":19491:19542   */\n      tag_398\n      jump\t// in\n    tag_625:\n        /* \"#utility.yul\":19487:19543   */\n      not\n        /* \"#utility.yul\":19572:19576   */\n      dup1\n        /* \"#utility.yul\":19566:19570   */\n      dup4\n        /* \"#utility.yul\":19562:19577   */\n      and\n        /* \"#utility.yul\":19552:19577   */\n      swap2\n      pop\n        /* \"#utility.yul\":19465:19583   */\n      pop\n        /* \"#utility.yul\":19414:19583   */\n      swap3\n      swap2\n      pop\n      pop\n      jump\t// out\n        /* \"#utility.yul\":19588:19883   */\n    tag_400:\n        /* \"#utility.yul\":19664:19668   */\n      0x00\n        /* \"#utility.yul\":19810:19839   */\n      tag_627\n        /* \"#utility.yul\":19835:19838   */\n      dup4\n        /* \"#utility.yul\":19829:19833   */\n      dup4\n        /* \"#utility.yul\":19810:19839   */\n      tag_399\n      jump\t// in\n    tag_627:\n        /* \"#utility.yul\":19802:19839   */\n      swap2\n      pop\n        /* \"#utility.yul\":19872:19875   */\n      dup3\n        /* \"#utility.yul\":19869:19870   */\n      0x02\n        /* \"#utility.yul\":19865:19876   */\n      mul\n        /* \"#utility.yul\":19859:19863   */\n      dup3\n        /* \"#utility.yul\":19856:19877   */\n      or\n        /* \"#utility.yul\":19848:19877   */\n      swap1\n      pop\n        /* \"#utility.yul\":19588:19883   */\n      swap3\n      swap2\n      pop\n      pop\n      jump\t// out\n        /* \"#utility.yul\":19888:21283   */\n    tag_246:\n        /* \"#utility.yul\":20005:20042   */\n      tag_629\n        /* \"#utility.yul\":20038:20041   */\n      dup3\n        /* \"#utility.yul\":20005:20042   */\n      tag_348\n      jump\t// in\n    tag_629:\n        /* \"#utility.yul\":20107:20125   */\n      0xffffffffffffffff\n        /* \"#utility.yul\":20099:20105   */\n      dup2\n        /* \"#utility.yul\":20096:20126   */\n      gt\n        /* \"#utility.yul\":20093:20149   */\n      iszero\n      tag_630\n      jumpi\n        /* \"#utility.yul\":20129:20147   */\n      tag_631\n      tag_123\n      jump\t// in\n    tag_631:\n        /* \"#utility.yul\":20093:20149   */\n    tag_630:\n        /* \"#utility.yul\":20173:20211   */\n      tag_632\n        /* \"#utility.yul\":20205:20209   */\n      dup3\n        /* \"#utility.yul\":20199:20210   */\n      sload\n        /* \"#utility.yul\":20173:20211   */\n      tag_102\n      jump\t// in\n    tag_632:\n        /* \"#utility.yul\":20258:20325   */\n      tag_633\n        /* \"#utility.yul\":20318:20324   */\n      dup3\n        /* \"#utility.yul\":20310:20316   */\n      dup3\n        /* \"#utility.yul\":20304:20308   */\n      dup6\n        /* \"#utility.yul\":20258:20325   */\n      tag_397\n      jump\t// in\n    tag_633:\n        /* \"#utility.yul\":20352:20353   */\n      0x00\n        /* \"#utility.yul\":20376:20380   */\n      0x20\n        /* \"#utility.yul\":20363:20380   */\n      swap1\n      pop\n        /* \"#utility.yul\":20408:20410   */\n      0x1f\n        /* \"#utility.yul\":20400:20406   */\n      dup4\n        /* \"#utility.yul\":20397:20411   */\n      gt\n        /* \"#utility.yul\":20425:20426   */\n      0x01\n        /* \"#utility.yul\":20420:21038   */\n      dup2\n      eq\n      tag_635\n      jumpi\n        /* \"#utility.yul\":21082:21083   */\n      0x00\n        /* \"#utility.yul\":21099:21105   */\n      dup5\n        /* \"#utility.yul\":21096:21173   */\n      iszero\n      tag_636\n      jumpi\n        /* \"#utility.yul\":21148:21157   */\n      dup3\n        /* \"#utility.yul\":21143:21146   */\n      dup8\n        /* \"#utility.yul\":21139:21158   */\n      add\n        /* \"#utility.yul\":21133:21159   */\n      mload\n        /* \"#utility.yul\":21124:21159   */\n      swap1\n      pop\n        /* \"#utility.yul\":21096:21173   */\n    tag_636:\n        /* \"#utility.yul\":21199:21266   */\n      tag_637\n        /* \"#utility.yul\":21259:21265   */\n      dup6\n        /* \"#utility.yul\":21252:21257   */\n      dup3\n        /* \"#utility.yul\":21199:21266   */\n      tag_400\n      jump\t// in\n    tag_637:\n        /* \"#utility.yul\":21193:21197   */\n      dup7\n        /* \"#utility.yul\":21186:21267   */\n      sstore\n        /* \"#utility.yul\":21055:21277   */\n      pop\n        /* \"#utility.yul\":20390:21277   */\n      jump(tag_634)\n        /* \"#utility.yul\":20420:21038   */\n    tag_635:\n        /* \"#utility.yul\":20472:20476   */\n      0x1f\n        /* \"#utility.yul\":20468:20477   */\n      not\n        /* \"#utility.yul\":20460:20466   */\n      dup5\n        /* \"#utility.yul\":20456:20478   */\n      and\n        /* \"#utility.yul\":20506:20543   */\n      tag_638\n        /* \"#utility.yul\":20538:20542   */\n      dup7\n        /* \"#utility.yul\":20506:20543   */\n      tag_386\n      jump\t// in\n    tag_638:\n        /* \"#utility.yul\":20565:20566   */\n      0x00\n        /* \"#utility.yul\":20579:20787   */\n    tag_639:\n        /* \"#utility.yul\":20593:20600   */\n      dup3\n        /* \"#utility.yul\":20590:20591   */\n      dup2\n        /* \"#utility.yul\":20587:20601   */\n      lt\n        /* \"#utility.yul\":20579:20787   */\n      iszero\n      tag_641\n      jumpi\n        /* \"#utility.yul\":20672:20681   */\n      dup5\n        /* \"#utility.yul\":20667:20670   */\n      dup10\n        /* \"#utility.yul\":20663:20682   */\n      add\n        /* \"#utility.yul\":20657:20683   */\n      mload\n        /* \"#utility.yul\":20649:20655   */\n      dup3\n        /* \"#utility.yul\":20642:20684   */\n      sstore\n        /* \"#utility.yul\":20723:20724   */\n      0x01\n        /* \"#utility.yul\":20715:20721   */\n      dup3\n        /* \"#utility.yul\":20711:20725   */\n      add\n        /* \"#utility.yul\":20701:20725   */\n      swap2\n      pop\n        /* \"#utility.yul\":20770:20772   */\n      0x20\n        /* \"#utility.yul\":20759:20768   */\n      dup6\n        /* \"#utility.yul\":20755:20773   */\n      add\n        /* \"#utility.yul\":20742:20773   */\n      swap5\n      pop\n        /* \"#utility.yul\":20616:20620   */\n      0x20\n        /* \"#utility.yul\":20613:20614   */\n      dup2\n        /* \"#utility.yul\":20609:20621   */\n      add\n        /* \"#utility.yul\":20604:20621   */\n      swap1\n      pop\n        /* \"#utility.yul\":20579:20787   */\n      jump(tag_639)\n    tag_641:\n        /* \"#utility.yul\":20815:20821   */\n      dup7\n        /* \"#utility.yul\":20806:20813   */\n      dup4\n        /* \"#utility.yul\":20803:20822   */\n      lt\n        /* \"#utility.yul\":20800:20979   */\n      iszero\n      tag_642\n      jumpi\n        /* \"#utility.yul\":20873:20882   */\n      dup5\n        /* \"#utility.yul\":20868:20871   */\n      dup10\n        /* \"#utility.yul\":20864:20883   */\n      add\n        /* \"#utility.yul\":20858:20884   */\n      mload\n        /* \"#utility.yul\":20916:20964   */\n      tag_643\n        /* \"#utility.yul\":20958:20962   */\n      0x1f\n        /* \"#utility.yul\":20950:20956   */\n      dup10\n        /* \"#utility.yul\":20946:20963   */\n      and\n        /* \"#utility.yul\":20935:20944   */\n      dup3\n        /* \"#utility.yul\":20916:20964   */\n      tag_399\n      jump\t// in\n    tag_643:\n        /* \"#utility.yul\":20908:20914   */\n      dup4\n        /* \"#utility.yul\":20901:20965   */\n      sstore\n        /* \"#utility.yul\":20823:20979   */\n      pop\n        /* \"#utility.yul\":20800:20979   */\n    tag_642:\n        /* \"#utility.yul\":21025:21026   */\n      0x01\n        /* \"#utility.yul\":21021:21022   */\n      0x02\n        /* \"#utility.yul\":21013:21019   */\n      dup9\n        /* \"#utility.yul\":21009:21023   */\n      mul\n        /* \"#utility.yul\":21005:21027   */\n      add\n        /* \"#utility.yul\":20999:21003   */\n      dup9\n        /* \"#utility.yul\":20992:21028   */\n      sstore\n        /* \"#utility.yul\":20427:21038   */\n      pop\n      pop\n      pop\n        /* \"#utility.yul\":20390:21277   */\n    tag_634:\n      pop\n        /* \"#utility.yul\":19980:21283   */\n      pop\n      pop\n      pop\n        /* \"#utility.yul\":19888:21283   */\n      pop\n      pop\n      jump\t// out\n        /* \"#utility.yul\":21289:21387   */\n    tag_401:\n        /* \"#utility.yul\":21340:21346   */\n      0x00\n        /* \"#utility.yul\":21374:21379   */\n      dup2\n        /* \"#utility.yul\":21368:21380   */\n      mload\n        /* \"#utility.yul\":21358:21380   */\n      swap1\n      pop\n        /* \"#utility.yul\":21289:21387   */\n      swap2\n      swap1\n      pop\n      jump\t// out\n        /* \"#utility.yul\":21393:21561   */\n    tag_402:\n        /* \"#utility.yul\":21476:21487   */\n      0x00\n        /* \"#utility.yul\":21510:21516   */\n      dup3\n        /* \"#utility.yul\":21505:21508   */\n      dup3\n        /* \"#utility.yul\":21498:21517   */\n      mstore\n        /* \"#utility.yul\":21550:21554   */\n      0x20\n        /* \"#utility.yul\":21545:21548   */\n      dup3\n        /* \"#utility.yul\":21541:21555   */\n      add\n        /* \"#utility.yul\":21526:21555   */\n      swap1\n      pop\n        /* \"#utility.yul\":21393:21561   */\n      swap3\n      swap2\n      pop\n      pop\n      jump\t// out\n        /* \"#utility.yul\":21567:21940   */\n    tag_403:\n        /* \"#utility.yul\":21653:21656   */\n      0x00\n        /* \"#utility.yul\":21681:21719   */\n      tag_647\n        /* \"#utility.yul\":21713:21718   */\n      dup3\n        /* \"#utility.yul\":21681:21719   */\n      tag_401\n      jump\t// in\n    tag_647:\n        /* \"#utility.yul\":21735:21805   */\n      tag_648\n        /* \"#utility.yul\":21798:21804   */\n      dup2\n        /* \"#utility.yul\":21793:21796   */\n      dup6\n        /* \"#utility.yul\":21735:21805   */\n      tag_402\n      jump\t// in\n    tag_648:\n        /* \"#utility.yul\":21728:21805   */\n      swap4\n      pop\n        /* \"#utility.yul\":21814:21879   */\n      tag_649\n        /* \"#utility.yul\":21872:21878   */\n      dup2\n        /* \"#utility.yul\":21867:21870   */\n      dup6\n        /* \"#utility.yul\":21860:21864   */\n      0x20\n        /* \"#utility.yul\":21853:21858   */\n      dup7\n        /* \"#utility.yul\":21849:21865   */\n      add\n        /* \"#utility.yul\":21814:21879   */\n      tag_350\n      jump\t// in\n    tag_649:\n        /* \"#utility.yul\":21904:21933   */\n      tag_650\n        /* \"#utility.yul\":21926:21932   */\n      dup2\n        /* \"#utility.yul\":21904:21933   */\n      tag_351\n      jump\t// in\n    tag_650:\n        /* \"#utility.yul\":21899:21902   */\n      dup5\n        /* \"#utility.yul\":21895:21934   */\n      add\n        /* \"#utility.yul\":21888:21934   */\n      swap2\n      pop\n        /* \"#utility.yul\":21657:21940   */\n      pop\n        /* \"#utility.yul\":21567:21940   */\n      swap3\n      swap2\n      pop\n      pop\n      jump\t// out\n        /* \"#utility.yul\":21946:22586   */\n    tag_256:\n        /* \"#utility.yul\":22141:22145   */\n      0x00\n        /* \"#utility.yul\":22179:22182   */\n      0x80\n        /* \"#utility.yul\":22168:22177   */\n      dup3\n        /* \"#utility.yul\":22164:22183   */\n      add\n        /* \"#utility.yul\":22156:22183   */\n      swap1\n      pop\n        /* \"#utility.yul\":22193:22264   */\n      tag_652\n        /* \"#utility.yul\":22261:22262   */\n      0x00\n        /* \"#utility.yul\":22250:22259   */\n      dup4\n        /* \"#utility.yul\":22246:22263   */\n      add\n        /* \"#utility.yul\":22237:22243   */\n      dup8\n        /* \"#utility.yul\":22193:22264   */\n      tag_358\n      jump\t// in\n    tag_652:\n        /* \"#utility.yul\":22274:22346   */\n      tag_653\n        /* \"#utility.yul\":22342:22344   */\n      0x20\n        /* \"#utility.yul\":22331:22340   */\n      dup4\n        /* \"#utility.yul\":22327:22345   */\n      add\n        /* \"#utility.yul\":22318:22324   */\n      dup7\n        /* \"#utility.yul\":22274:22346   */\n      tag_358\n      jump\t// in\n    tag_653:\n        /* \"#utility.yul\":22356:22428   */\n      tag_654\n        /* \"#utility.yul\":22424:22426   */\n      0x40\n        /* \"#utility.yul\":22413:22422   */\n      dup4\n        /* \"#utility.yul\":22409:22427   */\n      add\n        /* \"#utility.yul\":22400:22406   */\n      dup6\n        /* \"#utility.yul\":22356:22428   */\n      tag_376\n      jump\t// in\n    tag_654:\n        /* \"#utility.yul\":22475:22484   */\n      dup2\n        /* \"#utility.yul\":22469:22473   */\n      dup2\n        /* \"#utility.yul\":22465:22485   */\n      sub\n        /* \"#utility.yul\":22460:22462   */\n      0x60\n        /* \"#utility.yul\":22449:22458   */\n      dup4\n        /* \"#utility.yul\":22445:22463   */\n      add\n        /* \"#utility.yul\":22438:22486   */\n      mstore\n        /* \"#utility.yul\":22503:22579   */\n      tag_655\n        /* \"#utility.yul\":22574:22578   */\n      dup2\n        /* \"#utility.yul\":22565:22571   */\n      dup5\n        /* \"#utility.yul\":22503:22579   */\n      tag_403\n      jump\t// in\n    tag_655:\n        /* \"#utility.yul\":22495:22579   */\n      swap1\n      pop\n        /* \"#utility.yul\":21946:22586   */\n      swap6\n      swap5\n      pop\n      pop\n      pop\n      pop\n      pop\n      jump\t// out\n        /* \"#utility.yul\":22592:22733   */\n    tag_404:\n        /* \"#utility.yul\":22648:22653   */\n      0x00\n        /* \"#utility.yul\":22679:22685   */\n      dup2\n        /* \"#utility.yul\":22673:22686   */\n      mload\n        /* \"#utility.yul\":22664:22686   */\n      swap1\n      pop\n        /* \"#utility.yul\":22695:22727   */\n      tag_657\n        /* \"#utility.yul\":22721:22726   */\n      dup2\n        /* \"#utility.yul\":22695:22727   */\n      tag_344\n      jump\t// in\n    tag_657:\n        /* \"#utility.yul\":22592:22733   */\n      swap3\n      swap2\n      pop\n      pop\n      jump\t// out\n        /* \"#utility.yul\":22739:23088   */\n    tag_259:\n        /* \"#utility.yul\":22808:22814   */\n      0x00\n        /* \"#utility.yul\":22857:22859   */\n      0x20\n        /* \"#utility.yul\":22845:22854   */\n      dup3\n        /* \"#utility.yul\":22836:22843   */\n      dup5\n        /* \"#utility.yul\":22832:22855   */\n      sub\n        /* \"#utility.yul\":22828:22860   */\n      slt\n        /* \"#utility.yul\":22825:22944   */\n      iszero\n      tag_659\n      jumpi\n        /* \"#utility.yul\":22863:22942   */\n      tag_660\n      tag_341\n      jump\t// in\n    tag_660:\n        /* \"#utility.yul\":22825:22944   */\n    tag_659:\n        /* \"#utility.yul\":22983:22984   */\n      0x00\n        /* \"#utility.yul\":23008:23071   */\n      tag_661\n        /* \"#utility.yul\":23063:23070   */\n      dup5\n        /* \"#utility.yul\":23054:23060   */\n      dup3\n        /* \"#utility.yul\":23043:23052   */\n      dup6\n        /* \"#utility.yul\":23039:23061   */\n      add\n        /* \"#utility.yul\":23008:23071   */\n      tag_404\n      jump\t// in\n    tag_661:\n        /* \"#utility.yul\":22998:23071   */\n      swap2\n      pop\n        /* \"#utility.yul\":22954:23081   */\n      pop\n        /* \"#utility.yul\":22739:23088   */\n      swap3\n      swap2\n      pop\n      pop\n      jump\t// out\n        /* \"#utility.yul\":23094:23426   */\n    tag_301:\n        /* \"#utility.yul\":23215:23219   */\n      0x00\n        /* \"#utility.yul\":23253:23255   */\n      0x40\n        /* \"#utility.yul\":23242:23251   */\n      dup3\n        /* \"#utility.yul\":23238:23256   */\n      add\n        /* \"#utility.yul\":23230:23256   */\n      swap1\n      pop\n        /* \"#utility.yul\":23266:23337   */\n      tag_663\n        /* \"#utility.yul\":23334:23335   */\n      0x00\n        /* \"#utility.yul\":23323:23332   */\n      dup4\n        /* \"#utility.yul\":23319:23336   */\n      add\n        /* \"#utility.yul\":23310:23316   */\n      dup6\n        /* \"#utility.yul\":23266:23337   */\n      tag_358\n      jump\t// in\n    tag_663:\n        /* \"#utility.yul\":23347:23419   */\n      tag_664\n        /* \"#utility.yul\":23415:23417   */\n      0x20\n        /* \"#utility.yul\":23404:23413   */\n      dup4\n        /* \"#utility.yul\":23400:23418   */\n      add\n        /* \"#utility.yul\":23391:23397   */\n      dup5\n        /* \"#utility.yul\":23347:23419   */\n      tag_376\n      jump\t// in\n    tag_664:\n        /* \"#utility.yul\":23094:23426   */\n      swap4\n      swap3\n      pop\n      pop\n      pop\n      jump\t// out\n        /* \"#utility.yul\":23432:23612   */\n    tag_312:\n        /* \"#utility.yul\":23480:23557   */\n      0x4e487b7100000000000000000000000000000000000000000000000000000000\n        /* \"#utility.yul\":23477:23478   */\n      0x00\n        /* \"#utility.yul\":23470:23558   */\n      mstore\n        /* \"#utility.yul\":23577:23581   */\n      0x12\n        /* \"#utility.yul\":23574:23575   */\n      0x04\n        /* \"#utility.yul\":23567:23582   */\n      mstore\n        /* \"#utility.yul\":23601:23605   */\n      0x24\n        /* \"#utility.yul\":23598:23599   */\n      0x00\n        /* \"#utility.yul\":23591:23606   */\n      revert\n\n    auxdata: 0xa264697066735822122010321f004229c5126ff6478e923851f02bc38d215b216af7873c8d99b04b4b4a64736f6c634300081a0033\n}\n",
				"bytecode": {
					"linkReferences": {},
					"object": "608060405234801561000f575f80fd5b50604051612d15380380612d1583398181016040528101906100319190610162565b6040518060400160405280600781526020017f4d61726b4b6f70000000000000000000000000000000000000000000000000008152506040518060400160405280600481526020017f4d41524b00000000000000000000000000000000000000000000000000000000815250815f90816100ab91906103c7565b5080600190816100bb91906103c7565b5050508060085f6101000a81548173ffffffffffffffffffffffffffffffffffffffff021916908373ffffffffffffffffffffffffffffffffffffffff16021790555050610496565b5f80fd5b5f73ffffffffffffffffffffffffffffffffffffffff82169050919050565b5f61013182610108565b9050919050565b61014181610127565b811461014b575f80fd5b50565b5f8151905061015c81610138565b92915050565b5f6020828403121561017757610176610104565b5b5f6101848482850161014e565b91505092915050565b5f81519050919050565b7f4e487b71000000000000000000000000000000000000000000000000000000005f52604160045260245ffd5b7f4e487b71000000000000000000000000000000000000000000000000000000005f52602260045260245ffd5b5f600282049050600182168061020857607f821691505b60208210810361021b5761021a6101c4565b5b50919050565b5f819050815f5260205f209050919050565b5f6020601f8301049050919050565b5f82821b905092915050565b5f6008830261027d7fffffffffffffffffffffffffffffffffffffffffffffffffffffffffffffffff82610242565b6102878683610242565b95508019841693508086168417925050509392505050565b5f819050919050565b5f819050919050565b5f6102cb6102c66102c18461029f565b6102a8565b61029f565b9050919050565b5f819050919050565b6102e4836102b1565b6102f86102f0826102d2565b84845461024e565b825550505050565b5f90565b61030c610300565b6103178184846102db565b505050565b5b8181101561033a5761032f5f82610304565b60018101905061031d565b5050565b601f82111561037f5761035081610221565b61035984610233565b81016020851015610368578190505b61037c61037485610233565b83018261031c565b50505b505050565b5f82821c905092915050565b5f61039f5f1984600802610384565b1980831691505092915050565b5f6103b78383610390565b9150826002028217905092915050565b6103d08261018d565b67ffffffffffffffff8111156103e9576103e8610197565b5b6103f382546101f1565b6103fe82828561033e565b5f60209050601f83116001811461042f575f841561041d578287015190505b61042785826103ac565b86555061048e565b601f19841661043d86610221565b5f5b828110156104645784890151825560018201915060208501945060208101905061043f565b86831015610481578489015161047d601f891682610390565b8355505b6001600288020188555050505b505050505050565b612872806104a35f395ff3fe608060405234801561000f575f80fd5b5060043610610109575f3560e01c80635ba37742116100a057806395d89b411161006f57806395d89b41146102db578063a22cb465146102f9578063b88d4fde14610315578063c87b56dd14610331578063e985e9c51461036157610109565b80635ba377421461022d5780636352211e1461024b57806370a082311461027b578063867d3397146102ab57610109565b80630a989d9c116100dc5780630a989d9c146101a757806323b872dd146101c557806333eba49a146101e157806342842e0e1461021157610109565b806301ffc9a71461010d57806306fdde031461013d578063081812fc1461015b578063095ea7b31461018b575b5f80fd5b61012760048036038101906101229190611c3a565b610391565b6040516101349190611c7f565b60405180910390f35b6101456103f1565b6040516101529190611d08565b60405180910390f35b61017560048036038101906101709190611d5b565b610480565b6040516101829190611dc5565b60405180910390f35b6101a560048036038101906101a09190611e08565b61049b565b005b6101af6104b1565b6040516101bc9190611efd565b60405180910390f35b6101df60048036038101906101da9190611f1d565b6105bd565b005b6101fb60048036038101906101f69190612099565b6106bc565b60405161020891906120ef565b60405180910390f35b61022b60048036038101906102269190611f1d565b6107c7565b005b6102356107e6565b6040516102429190611efd565b60405180910390f35b61026560048036038101906102609190611d5b565b6109b1565b6040516102729190611dc5565b60405180910390f35b61029560048036038101906102909190612108565b6109c2565b6040516102a291906120ef565b60405180910390f35b6102c560048036038101906102c09190611d5b565b610a78565b6040516102d29190611dc5565b60405180910390f35b6102e3610ab1565b6040516102f09190611d08565b60405180910390f35b610313600480360381019061030e919061215d565b610b41565b005b61032f600480360381019061032a9190612239565b610b57565b005b61034b60048036038101906103469190611d5b565b610b74565b6040516103589190611d08565b60405180910390f35b61037b600480360381019061037691906122b9565b610c7f565b6040516103889190611c7f565b60405180910390f35b5f634906490660e01b7bffffffffffffffffffffffffffffffffffffffffffffffffffffffff1916827bffffffffffffffffffffffffffffffffffffffffffffffffffffffff191614806103ea57506103e982610d0d565b5b9050919050565b60605f80546103ff90612324565b80601f016020809104026020016040519081016040528092919081815260200182805461042b90612324565b80156104765780601f1061044d57610100808354040283529160200191610476565b820191905f5260205f20905b81548152906001019060200180831161045957829003601f168201915b5050505050905090565b5f61048a82610dee565b5061049482610e74565b9050919050565b6104ad82826104a8610ead565b610eb4565b5050565b60605f6104be6007610ec6565b90505f6104ca336109c2565b90505f8167ffffffffffffffff8111156104e7576104e6611f75565b5b6040519080825280602002602001820160405280156105155781602001602082028036833780820191505090505b5090505f805b848110156105b2575f6001826105319190612381565b90503373ffffffffffffffffffffffffffffffffffffffff16610553826109b1565b73ffffffffffffffffffffffffffffffffffffffff161461057457506105a5565b80848481518110610588576105876123b4565b5b6020026020010181815250506001836105a19190612381565b9250505b808060010191505061051b565b508194505050505090565b5f73ffffffffffffffffffffffffffffffffffffffff168273ffffffffffffffffffffffffffffffffffffffff160361062d575f6040517f64a0ae920000000000000000000000000000000000000000000000000000000081526004016106249190611dc5565b60405180910390fd5b5f610640838361063b610ead565b610ed2565b90508373ffffffffffffffffffffffffffffffffffffffff168173ffffffffffffffffffffffffffffffffffffffff16146106b6578382826040517f64283d7b0000000000000000000000000000000000000000000000000000000081526004016106ad939291906123e1565b60405180910390fd5b50505050565b5f6106c760076110dd565b5f6106d26007610ec6565b90506106de33826110f1565b3360095f8381526020019081526020015f205f6101000a81548173ffffffffffffffffffffffffffffffffffffffff021916908373ffffffffffffffffffffffffffffffffffffffff16021790555061073781846111e4565b61076360085f9054906101000a900473ffffffffffffffffffffffffffffffffffffffff166001610b41565b807f9ef9d09a98563c827f651a028105395cc17f94ef23eb26b70d241439386a62f48460085f9054906101000a900473ffffffffffffffffffffffffffffffffffffffff166040516107b6929190612416565b60405180910390a280915050919050565b6107e183838360405180602001604052805f815250610b57565b505050565b60605f6107f36007610ec6565b90505f805b82811015610897575f60018261080e9190612381565b90503373ffffffffffffffffffffffffffffffffffffffff1660095f8381526020019081526020015f205f9054906101000a900473ffffffffffffffffffffffffffffffffffffffff1673ffffffffffffffffffffffffffffffffffffffff1614610879575061088a565b6001836108869190612381565b9250505b80806001019150506107f8565b505f8167ffffffffffffffff8111156108b3576108b2611f75565b5b6040519080825280602002602001820160405280156108e15781602001602082028036833780820191505090505b5090505f805b848110156109a6575f6001826108fd9190612381565b90503373ffffffffffffffffffffffffffffffffffffffff1660095f8381526020019081526020015f205f9054906101000a900473ffffffffffffffffffffffffffffffffffffffff1673ffffffffffffffffffffffffffffffffffffffff16146109685750610999565b8084848151811061097c5761097b6123b4565b5b6020026020010181815250506001836109959190612381565b9250505b80806001019150506108e7565b508194505050505090565b5f6109bb82610dee565b9050919050565b5f8073ffffffffffffffffffffffffffffffffffffffff168273ffffffffffffffffffffffffffffffffffffffff1603610a33575f6040517f89c62b64000000000000000000000000000000000000000000000000000000008152600401610a2a9190611dc5565b60405180910390fd5b60035f8373ffffffffffffffffffffffffffffffffffffffff1673ffffffffffffffffffffffffffffffffffffffff1681526020019081526020015f20549050919050565b5f60095f8381526020019081526020015f205f9054906101000a900473ffffffffffffffffffffffffffffffffffffffff169050919050565b606060018054610ac090612324565b80601f0160208091040260200160405190810160405280929190818152602001828054610aec90612324565b8015610b375780601f10610b0e57610100808354040283529160200191610b37565b820191905f5260205f20905b815481529060010190602001808311610b1a57829003601f168201915b5050505050905090565b610b53610b4c610ead565b838361123e565b5050565b610b628484846105bd565b610b6e848484846113a7565b50505050565b6060610b7f82610dee565b505f60065f8481526020019081526020015f208054610b9d90612324565b80601f0160208091040260200160405190810160405280929190818152602001828054610bc990612324565b8015610c145780601f10610beb57610100808354040283529160200191610c14565b820191905f5260205f20905b815481529060010190602001808311610bf757829003601f168201915b505050505090505f610c24611559565b90505f815103610c38578192505050610c7a565b5f82511115610c6c578082604051602001610c5492919061247e565b60405160208183030381529060405292505050610c7a565b610c758461156f565b925050505b919050565b5f60055f8473ffffffffffffffffffffffffffffffffffffffff1673ffffffffffffffffffffffffffffffffffffffff1681526020019081526020015f205f8373ffffffffffffffffffffffffffffffffffffffff1673ffffffffffffffffffffffffffffffffffffffff1681526020019081526020015f205f9054906101000a900460ff16905092915050565b5f7f80ac58cd000000000000000000000000000000000000000000000000000000007bffffffffffffffffffffffffffffffffffffffffffffffffffffffff1916827bffffffffffffffffffffffffffffffffffffffffffffffffffffffff19161480610dd757507f5b5e139f000000000000000000000000000000000000000000000000000000007bffffffffffffffffffffffffffffffffffffffffffffffffffffffff1916827bffffffffffffffffffffffffffffffffffffffffffffffffffffffff1916145b80610de75750610de6826115d5565b5b9050919050565b5f80610df98361163e565b90505f73ffffffffffffffffffffffffffffffffffffffff168173ffffffffffffffffffffffffffffffffffffffff1603610e6b57826040517f7e273289000000000000000000000000000000000000000000000000000000008152600401610e6291906120ef565b60405180910390fd5b80915050919050565b5f60045f8381526020019081526020015f205f9054906101000a900473ffffffffffffffffffffffffffffffffffffffff169050919050565b5f33905090565b610ec18383836001611677565b505050565b5f815f01549050919050565b5f80610edd8461163e565b90505f73ffffffffffffffffffffffffffffffffffffffff168373ffffffffffffffffffffffffffffffffffffffff1614610f1e57610f1d818486611836565b5b5f73ffffffffffffffffffffffffffffffffffffffff168173ffffffffffffffffffffffffffffffffffffffff1614610fa957610f5d5f855f80611677565b600160035f8373ffffffffffffffffffffffffffffffffffffffff1673ffffffffffffffffffffffffffffffffffffffff1681526020019081526020015f205f82825403925050819055505b5f73ffffffffffffffffffffffffffffffffffffffff168573ffffffffffffffffffffffffffffffffffffffff161461102857600160035f8773ffffffffffffffffffffffffffffffffffffffff1673ffffffffffffffffffffffffffffffffffffffff1681526020019081526020015f205f82825401925050819055505b8460025f8681526020019081526020015f205f6101000a81548173ffffffffffffffffffffffffffffffffffffffff021916908373ffffffffffffffffffffffffffffffffffffffff160217905550838573ffffffffffffffffffffffffffffffffffffffff168273ffffffffffffffffffffffffffffffffffffffff167fddf252ad1be2c89b69c2b068fc378daa952ba7f163c4a11628f55a4df523b3ef60405160405180910390a4809150509392505050565b6001815f015f828254019250508190555050565b5f73ffffffffffffffffffffffffffffffffffffffff168273ffffffffffffffffffffffffffffffffffffffff1603611161575f6040517f64a0ae920000000000000000000000000000000000000000000000000000000081526004016111589190611dc5565b60405180910390fd5b5f61116d83835f610ed2565b90505f73ffffffffffffffffffffffffffffffffffffffff168173ffffffffffffffffffffffffffffffffffffffff16146111df575f6040517f73c6ac6e0000000000000000000000000000000000000000000000000000000081526004016111d69190611dc5565b60405180910390fd5b505050565b8060065f8481526020019081526020015f209081611202919061263e565b507ff8e1a15aba9398e019f0b49df1a4fde98ee17ae345cb5f6b5e2c27f5033e8ce78260405161123291906120ef565b60405180910390a15050565b5f73ffffffffffffffffffffffffffffffffffffffff168273ffffffffffffffffffffffffffffffffffffffff16036112ae57816040517f5b08ba180000000000000000000000000000000000000000000000000000000081526004016112a59190611dc5565b60405180910390fd5b8060055f8573ffffffffffffffffffffffffffffffffffffffff1673ffffffffffffffffffffffffffffffffffffffff1681526020019081526020015f205f8473ffffffffffffffffffffffffffffffffffffffff1673ffffffffffffffffffffffffffffffffffffffff1681526020019081526020015f205f6101000a81548160ff0219169083151502179055508173ffffffffffffffffffffffffffffffffffffffff168373ffffffffffffffffffffffffffffffffffffffff167f17307eab39ab6107e8899845ad3d59bd9653f200f220920489ca2b5937696c318360405161139a9190611c7f565b60405180910390a3505050565b5f8373ffffffffffffffffffffffffffffffffffffffff163b1115611553578273ffffffffffffffffffffffffffffffffffffffff1663150b7a026113ea610ead565b8685856040518563ffffffff1660e01b815260040161140c949392919061275f565b6020604051808303815f875af192505050801561144757506040513d601f19601f8201168201806040525081019061144491906127bd565b60015b6114c8573d805f8114611475576040519150601f19603f3d011682016040523d82523d5f602084013e61147a565b606091505b505f8151036114c057836040517f64a0ae920000000000000000000000000000000000000000000000000000000081526004016114b79190611dc5565b60405180910390fd5b805181602001fd5b63150b7a0260e01b7bffffffffffffffffffffffffffffffffffffffffffffffffffffffff1916817bffffffffffffffffffffffffffffffffffffffffffffffffffffffff19161461155157836040517f64a0ae920000000000000000000000000000000000000000000000000000000081526004016115489190611dc5565b60405180910390fd5b505b50505050565b606060405180602001604052805f815250905090565b606061157a82610dee565b505f611584611559565b90505f8151116115a25760405180602001604052805f8152506115cd565b806115ac846118f9565b6040516020016115bd92919061247e565b6040516020818303038152906040525b915050919050565b5f7f01ffc9a7000000000000000000000000000000000000000000000000000000007bffffffffffffffffffffffffffffffffffffffffffffffffffffffff1916827bffffffffffffffffffffffffffffffffffffffffffffffffffffffff1916149050919050565b5f60025f8381526020019081526020015f205f9054906101000a900473ffffffffffffffffffffffffffffffffffffffff169050919050565b80806116af57505f73ffffffffffffffffffffffffffffffffffffffff168273ffffffffffffffffffffffffffffffffffffffff1614155b156117e1575f6116be84610dee565b90505f73ffffffffffffffffffffffffffffffffffffffff168373ffffffffffffffffffffffffffffffffffffffff161415801561172857508273ffffffffffffffffffffffffffffffffffffffff168173ffffffffffffffffffffffffffffffffffffffff1614155b801561173b57506117398184610c7f565b155b1561177d57826040517fa9fbf51f0000000000000000000000000000000000000000000000000000000081526004016117749190611dc5565b60405180910390fd5b81156117df57838573ffffffffffffffffffffffffffffffffffffffff168273ffffffffffffffffffffffffffffffffffffffff167f8c5be1e5ebec7d5bd14f71427d1e84f3dd0314c0f7b2291e5b200ac8c7c3b92560405160405180910390a45b505b8360045f8581526020019081526020015f205f6101000a81548173ffffffffffffffffffffffffffffffffffffffff021916908373ffffffffffffffffffffffffffffffffffffffff16021790555050505050565b6118418383836119c3565b6118f4575f73ffffffffffffffffffffffffffffffffffffffff168373ffffffffffffffffffffffffffffffffffffffff16036118b557806040517f7e2732890000000000000000000000000000000000000000000000000000000081526004016118ac91906120ef565b60405180910390fd5b81816040517f177e802f0000000000000000000000000000000000000000000000000000000081526004016118eb9291906127e8565b60405180910390fd5b505050565b60605f600161190784611a83565b0190505f8167ffffffffffffffff81111561192557611924611f75565b5b6040519080825280601f01601f1916602001820160405280156119575781602001600182028036833780820191505090505b5090505f82602001820190505b6001156119b8578080600190039150507f3031323334353637383961626364656600000000000000000000000000000000600a86061a8153600a85816119ad576119ac61280f565b5b0494505f8503611964575b819350505050919050565b5f8073ffffffffffffffffffffffffffffffffffffffff168373ffffffffffffffffffffffffffffffffffffffff1614158015611a7a57508273ffffffffffffffffffffffffffffffffffffffff168473ffffffffffffffffffffffffffffffffffffffff161480611a3b5750611a3a8484610c7f565b5b80611a7957508273ffffffffffffffffffffffffffffffffffffffff16611a6183610e74565b73ffffffffffffffffffffffffffffffffffffffff16145b5b90509392505050565b5f805f90507a184f03e93ff9f4daa797ed6e38ed64bf6a1f0100000000000000008310611adf577a184f03e93ff9f4daa797ed6e38ed64bf6a1f0100000000000000008381611ad557611ad461280f565b5b0492506040810190505b6d04ee2d6d415b85acef81000000008310611b1c576d04ee2d6d415b85acef81000000008381611b1257611b1161280f565b5b0492506020810190505b662386f26fc100008310611b4b57662386f26fc100008381611b4157611b4061280f565b5b0492506010810190505b6305f5e1008310611b74576305f5e1008381611b6a57611b6961280f565b5b0492506008810190505b6127108310611b99576127108381611b8f57611b8e61280f565b5b0492506004810190505b60648310611bbc5760648381611bb257611bb161280f565b5b0492506002810190505b600a8310611bcb576001810190505b80915050919050565b5f604051905090565b5f80fd5b5f80fd5b5f7fffffffff0000000000000000000000000000000000000000000000000000000082169050919050565b611c1981611be5565b8114611c23575f80fd5b50565b5f81359050611c3481611c10565b92915050565b5f60208284031215611c4f57611c4e611bdd565b5b5f611c5c84828501611c26565b91505092915050565b5f8115159050919050565b611c7981611c65565b82525050565b5f602082019050611c925f830184611c70565b92915050565b5f81519050919050565b5f82825260208201905092915050565b8281835e5f83830152505050565b5f601f19601f8301169050919050565b5f611cda82611c98565b611ce48185611ca2565b9350611cf4818560208601611cb2565b611cfd81611cc0565b840191505092915050565b5f6020820190508181035f830152611d208184611cd0565b905092915050565b5f819050919050565b611d3a81611d28565b8114611d44575f80fd5b50565b5f81359050611d5581611d31565b92915050565b5f60208284031215611d7057611d6f611bdd565b5b5f611d7d84828501611d47565b91505092915050565b5f73ffffffffffffffffffffffffffffffffffffffff82169050919050565b5f611daf82611d86565b9050919050565b611dbf81611da5565b82525050565b5f602082019050611dd85f830184611db6565b92915050565b611de781611da5565b8114611df1575f80fd5b50565b5f81359050611e0281611dde565b92915050565b5f8060408385031215611e1e57611e1d611bdd565b5b5f611e2b85828601611df4565b9250506020611e3c85828601611d47565b9150509250929050565b5f81519050919050565b5f82825260208201905092915050565b5f819050602082019050919050565b611e7881611d28565b82525050565b5f611e898383611e6f565b60208301905092915050565b5f602082019050919050565b5f611eab82611e46565b611eb58185611e50565b9350611ec083611e60565b805f5b83811015611ef0578151611ed78882611e7e565b9750611ee283611e95565b925050600181019050611ec3565b5085935050505092915050565b5f6020820190508181035f830152611f158184611ea1565b905092915050565b5f805f60608486031215611f3457611f33611bdd565b5b5f611f4186828701611df4565b9350506020611f5286828701611df4565b9250506040611f6386828701611d47565b9150509250925092565b5f80fd5b5f80fd5b7f4e487b71000000000000000000000000000000000000000000000000000000005f52604160045260245ffd5b611fab82611cc0565b810181811067ffffffffffffffff82111715611fca57611fc9611f75565b5b80604052505050565b5f611fdc611bd4565b9050611fe88282611fa2565b919050565b5f67ffffffffffffffff82111561200757612006611f75565b5b61201082611cc0565b9050602081019050919050565b828183375f83830152505050565b5f61203d61203884611fed565b611fd3565b90508281526020810184848401111561205957612058611f71565b5b61206484828561201d565b509392505050565b5f82601f8301126120805761207f611f6d565b5b813561209084826020860161202b565b91505092915050565b5f602082840312156120ae576120ad611bdd565b5b5f82013567ffffffffffffffff8111156120cb576120ca611be1565b5b6120d78482850161206c565b91505092915050565b6120e981611d28565b82525050565b5f6020820190506121025f8301846120e0565b92915050565b5f6020828403121561211d5761211c611bdd565b5b5f61212a84828501611df4565b91505092915050565b61213c81611c65565b8114612146575f80fd5b50565b5f8135905061215781612133565b92915050565b5f806040838503121561217357612172611bdd565b5b5f61218085828601611df4565b925050602061219185828601612149565b9150509250929050565b5f67ffffffffffffffff8211156121b5576121b4611f75565b5b6121be82611cc0565b9050602081019050919050565b5f6121dd6121d88461219b565b611fd3565b9050828152602081018484840111156121f9576121f8611f71565b5b61220484828561201d565b509392505050565b5f82601f8301126122205761221f611f6d565b5b81356122308482602086016121cb565b91505092915050565b5f805f806080858703121561225157612250611bdd565b5b5f61225e87828801611df4565b945050602061226f87828801611df4565b935050604061228087828801611d47565b925050606085013567ffffffffffffffff8111156122a1576122a0611be1565b5b6122ad8782880161220c565b91505092959194509250565b5f80604083850312156122cf576122ce611bdd565b5b5f6122dc85828601611df4565b92505060206122ed85828601611df4565b9150509250929050565b7f4e487b71000000000000000000000000000000000000000000000000000000005f52602260045260245ffd5b5f600282049050600182168061233b57607f821691505b60208210810361234e5761234d6122f7565b5b50919050565b7f4e487b71000000000000000000000000000000000000000000000000000000005f52601160045260245ffd5b5f61238b82611d28565b915061239683611d28565b92508282019050808211156123ae576123ad612354565b5b92915050565b7f4e487b71000000000000000000000000000000000000000000000000000000005f52603260045260245ffd5b5f6060820190506123f45f830186611db6565b61240160208301856120e0565b61240e6040830184611db6565b949350505050565b5f6040820190508181035f83015261242e8185611cd0565b905061243d6020830184611db6565b9392505050565b5f81905092915050565b5f61245882611c98565b6124628185612444565b9350612472818560208601611cb2565b80840191505092915050565b5f612489828561244e565b9150612495828461244e565b91508190509392505050565b5f819050815f5260205f209050919050565b5f6020601f8301049050919050565b5f82821b905092915050565b5f600883026124fd7fffffffffffffffffffffffffffffffffffffffffffffffffffffffffffffffff826124c2565b61250786836124c2565b95508019841693508086168417925050509392505050565b5f819050919050565b5f61254261253d61253884611d28565b61251f565b611d28565b9050919050565b5f819050919050565b61255b83612528565b61256f61256782612549565b8484546124ce565b825550505050565b5f90565b612583612577565b61258e818484612552565b505050565b5b818110156125b1576125a65f8261257b565b600181019050612594565b5050565b601f8211156125f6576125c7816124a1565b6125d0846124b3565b810160208510156125df578190505b6125f36125eb856124b3565b830182612593565b50505b505050565b5f82821c905092915050565b5f6126165f19846008026125fb565b1980831691505092915050565b5f61262e8383612607565b9150826002028217905092915050565b61264782611c98565b67ffffffffffffffff8111156126605761265f611f75565b5b61266a8254612324565b6126758282856125b5565b5f60209050601f8311600181146126a6575f8415612694578287015190505b61269e8582612623565b865550612705565b601f1984166126b4866124a1565b5f5b828110156126db578489015182556001820191506020850194506020810190506126b6565b868310156126f857848901516126f4601f891682612607565b8355505b6001600288020188555050505b505050505050565b5f81519050919050565b5f82825260208201905092915050565b5f6127318261270d565b61273b8185612717565b935061274b818560208601611cb2565b61275481611cc0565b840191505092915050565b5f6080820190506127725f830187611db6565b61277f6020830186611db6565b61278c60408301856120e0565b818103606083015261279e8184612727565b905095945050505050565b5f815190506127b781611c10565b92915050565b5f602082840312156127d2576127d1611bdd565b5b5f6127df848285016127a9565b91505092915050565b5f6040820190506127fb5f830185611db6565b61280860208301846120e0565b9392505050565b7f4e487b71000000000000000000000000000000000000000000000000000000005f52601260045260245ffdfea264697066735822122010321f004229c5126ff6478e923851f02bc38d215b216af7873c8d99b04b4b4a64736f6c634300081a0033",
					"opcodes": "PUSH1 0x80 PUSH1 0x40 MSTORE CALLVALUE DUP1 ISZERO PUSH2 0xF JUMPI PUSH0 DUP1 REVERT JUMPDEST POP PUSH1 0x40 MLOAD PUSH2 0x2D15 CODESIZE SUB DUP1 PUSH2 0x2D15 DUP4 CODECOPY DUP2 DUP2 ADD PUSH1 0x40 MSTORE DUP2 ADD SWAP1 PUSH2 0x31 SWAP2 SWAP1 PUSH2 0x162 JUMP JUMPDEST PUSH1 0x40 MLOAD DUP1 PUSH1 0x40 ADD PUSH1 0x40 MSTORE DUP1 PUSH1 0x7 DUP2 MSTORE PUSH1 0x20 ADD PUSH32 0x4D61726B4B6F7000000000000000000000000000000000000000000000000000 DUP2 MSTORE POP PUSH1 0x40 MLOAD DUP1 PUSH1 0x40 ADD PUSH1 0x40 MSTORE DUP1 PUSH1 0x4 DUP2 MSTORE PUSH1 0x20 ADD PUSH32 0x4D41524B00000000000000000000000000000000000000000000000000000000 DUP2 MSTORE POP DUP2 PUSH0 SWAP1 DUP2 PUSH2 0xAB SWAP2 SWAP1 PUSH2 0x3C7 JUMP JUMPDEST POP DUP1 PUSH1 0x1 SWAP1 DUP2 PUSH2 0xBB SWAP2 SWAP1 PUSH2 0x3C7 JUMP JUMPDEST POP POP POP DUP1 PUSH1 0x8 PUSH0 PUSH2 0x100 EXP DUP2 SLOAD DUP2 PUSH20 0xFFFFFFFFFFFFFFFFFFFFFFFFFFFFFFFFFFFFFFFF MUL NOT AND SWAP1 DUP4 PUSH20 0xFFFFFFFFFFFFFFFFFFFFFFFFFFFFFFFFFFFFFFFF AND MUL OR SWAP1 SSTORE POP POP PUSH2 0x496 JUMP JUMPDEST PUSH0 DUP1 REVERT JUMPDEST PUSH0 PUSH20 0xFFFFFFFFFFFFFFFFFFFFFFFFFFFFFFFFFFFFFFFF DUP3 AND SWAP1 POP SWAP2 SWAP1 POP JUMP JUMPDEST PUSH0 PUSH2 0x131 DUP3 PUSH2 0x108 JUMP JUMPDEST SWAP1 POP SWAP2 SWAP1 POP JUMP JUMPDEST PUSH2 0x141 DUP2 PUSH2 0x127 JUMP JUMPDEST DUP2 EQ PUSH2 0x14B JUMPI PUSH0 DUP1 REVERT JUMPDEST POP JUMP JUMPDEST PUSH0 DUP2 MLOAD SWAP1 POP PUSH2 0x15C DUP2 PUSH2 0x138 JUMP JUMPDEST SWAP3 SWAP2 POP POP JUMP JUMPDEST PUSH0 PUSH1 0x20 DUP3 DUP5 SUB SLT ISZERO PUSH2 0x177 JUMPI PUSH2 0x176 PUSH2 0x104 JUMP JUMPDEST JUMPDEST PUSH0 PUSH2 0x184 DUP5 DUP3 DUP6 ADD PUSH2 0x14E JUMP JUMPDEST SWAP2 POP POP SWAP3 SWAP2 POP POP JUMP JUMPDEST PUSH0 DUP2 MLOAD SWAP1 POP SWAP2 SWAP1 POP JUMP JUMPDEST PUSH32 0x4E487B7100000000000000000000000000000000000000000000000000000000 PUSH0 MSTORE PUSH1 0x41 PUSH1 0x4 MSTORE PUSH1 0x24 PUSH0 REVERT JUMPDEST PUSH32 0x4E487B7100000000000000000000000000000000000000000000000000000000 PUSH0 MSTORE PUSH1 0x22 PUSH1 0x4 MSTORE PUSH1 0x24 PUSH0 REVERT JUMPDEST PUSH0 PUSH1 0x2 DUP3 DIV SWAP1 POP PUSH1 0x1 DUP3 AND DUP1 PUSH2 0x208 JUMPI PUSH1 0x7F DUP3 AND SWAP2 POP JUMPDEST PUSH1 0x20 DUP3 LT DUP2 SUB PUSH2 0x21B JUMPI PUSH2 0x21A PUSH2 0x1C4 JUMP JUMPDEST JUMPDEST POP SWAP2 SWAP1 POP JUMP JUMPDEST PUSH0 DUP2 SWAP1 POP DUP2 PUSH0 MSTORE PUSH1 0x20 PUSH0 KECCAK256 SWAP1 POP SWAP2 SWAP1 POP JUMP JUMPDEST PUSH0 PUSH1 0x20 PUSH1 0x1F DUP4 ADD DIV SWAP1 POP SWAP2 SWAP1 POP JUMP JUMPDEST PUSH0 DUP3 DUP3 SHL SWAP1 POP SWAP3 SWAP2 POP POP JUMP JUMPDEST PUSH0 PUSH1 0x8 DUP4 MUL PUSH2 0x27D PUSH32 0xFFFFFFFFFFFFFFFFFFFFFFFFFFFFFFFFFFFFFFFFFFFFFFFFFFFFFFFFFFFFFFFF DUP3 PUSH2 0x242 JUMP JUMPDEST PUSH2 0x287 DUP7 DUP4 PUSH2 0x242 JUMP JUMPDEST SWAP6 POP DUP1 NOT DUP5 AND SWAP4 POP DUP1 DUP7 AND DUP5 OR SWAP3 POP POP POP SWAP4 SWAP3 POP POP POP JUMP JUMPDEST PUSH0 DUP2 SWAP1 POP SWAP2 SWAP1 POP JUMP JUMPDEST PUSH0 DUP2 SWAP1 POP SWAP2 SWAP1 POP JUMP JUMPDEST PUSH0 PUSH2 0x2CB PUSH2 0x2C6 PUSH2 0x2C1 DUP5 PUSH2 0x29F JUMP JUMPDEST PUSH2 0x2A8 JUMP JUMPDEST PUSH2 0x29F JUMP JUMPDEST SWAP1 POP SWAP2 SWAP1 POP JUMP JUMPDEST PUSH0 DUP2 SWAP1 POP SWAP2 SWAP1 POP JUMP JUMPDEST PUSH2 0x2E4 DUP4 PUSH2 0x2B1 JUMP JUMPDEST PUSH2 0x2F8 PUSH2 0x2F0 DUP3 PUSH2 0x2D2 JUMP JUMPDEST DUP5 DUP5 SLOAD PUSH2 0x24E JUMP JUMPDEST DUP3 SSTORE POP POP POP POP JUMP JUMPDEST PUSH0 SWAP1 JUMP JUMPDEST PUSH2 0x30C PUSH2 0x300 JUMP JUMPDEST PUSH2 0x317 DUP2 DUP5 DUP5 PUSH2 0x2DB JUMP JUMPDEST POP POP POP JUMP JUMPDEST JUMPDEST DUP2 DUP2 LT ISZERO PUSH2 0x33A JUMPI PUSH2 0x32F PUSH0 DUP3 PUSH2 0x304 JUMP JUMPDEST PUSH1 0x1 DUP2 ADD SWAP1 POP PUSH2 0x31D JUMP JUMPDEST POP POP JUMP JUMPDEST PUSH1 0x1F DUP3 GT ISZERO PUSH2 0x37F JUMPI PUSH2 0x350 DUP2 PUSH2 0x221 JUMP JUMPDEST PUSH2 0x359 DUP5 PUSH2 0x233 JUMP JUMPDEST DUP2 ADD PUSH1 0x20 DUP6 LT ISZERO PUSH2 0x368 JUMPI DUP2 SWAP1 POP JUMPDEST PUSH2 0x37C PUSH2 0x374 DUP6 PUSH2 0x233 JUMP JUMPDEST DUP4 ADD DUP3 PUSH2 0x31C JUMP JUMPDEST POP POP JUMPDEST POP POP POP JUMP JUMPDEST PUSH0 DUP3 DUP3 SHR SWAP1 POP SWAP3 SWAP2 POP POP JUMP JUMPDEST PUSH0 PUSH2 0x39F PUSH0 NOT DUP5 PUSH1 0x8 MUL PUSH2 0x384 JUMP JUMPDEST NOT DUP1 DUP4 AND SWAP2 POP POP SWAP3 SWAP2 POP POP JUMP JUMPDEST PUSH0 PUSH2 0x3B7 DUP4 DUP4 PUSH2 0x390 JUMP JUMPDEST SWAP2 POP DUP3 PUSH1 0x2 MUL DUP3 OR SWAP1 POP SWAP3 SWAP2 POP POP JUMP JUMPDEST PUSH2 0x3D0 DUP3 PUSH2 0x18D JUMP JUMPDEST PUSH8 0xFFFFFFFFFFFFFFFF DUP2 GT ISZERO PUSH2 0x3E9 JUMPI PUSH2 0x3E8 PUSH2 0x197 JUMP JUMPDEST JUMPDEST PUSH2 0x3F3 DUP3 SLOAD PUSH2 0x1F1 JUMP JUMPDEST PUSH2 0x3FE DUP3 DUP3 DUP6 PUSH2 0x33E JUMP JUMPDEST PUSH0 PUSH1 0x20 SWAP1 POP PUSH1 0x1F DUP4 GT PUSH1 0x1 DUP2 EQ PUSH2 0x42F JUMPI PUSH0 DUP5 ISZERO PUSH2 0x41D JUMPI DUP3 DUP8 ADD MLOAD SWAP1 POP JUMPDEST PUSH2 0x427 DUP6 DUP3 PUSH2 0x3AC JUMP JUMPDEST DUP7 SSTORE POP PUSH2 0x48E JUMP JUMPDEST PUSH1 0x1F NOT DUP5 AND PUSH2 0x43D DUP7 PUSH2 0x221 JUMP JUMPDEST PUSH0 JUMPDEST DUP3 DUP2 LT ISZERO PUSH2 0x464 JUMPI DUP5 DUP10 ADD MLOAD DUP3 SSTORE PUSH1 0x1 DUP3 ADD SWAP2 POP PUSH1 0x20 DUP6 ADD SWAP5 POP PUSH1 0x20 DUP2 ADD SWAP1 POP PUSH2 0x43F JUMP JUMPDEST DUP7 DUP4 LT ISZERO PUSH2 0x481 JUMPI DUP5 DUP10 ADD MLOAD PUSH2 0x47D PUSH1 0x1F DUP10 AND DUP3 PUSH2 0x390 JUMP JUMPDEST DUP4 SSTORE POP JUMPDEST PUSH1 0x1 PUSH1 0x2 DUP9 MUL ADD DUP9 SSTORE POP POP POP JUMPDEST POP POP POP POP POP POP JUMP JUMPDEST PUSH2 0x2872 DUP1 PUSH2 0x4A3 PUSH0 CODECOPY PUSH0 RETURN INVALID PUSH1 0x80 PUSH1 0x40 MSTORE CALLVALUE DUP1 ISZERO PUSH2 0xF JUMPI PUSH0 DUP1 REVERT JUMPDEST POP PUSH1 0x4 CALLDATASIZE LT PUSH2 0x109 JUMPI PUSH0 CALLDATALOAD PUSH1 0xE0 SHR DUP1 PUSH4 0x5BA37742 GT PUSH2 0xA0 JUMPI DUP1 PUSH4 0x95D89B41 GT PUSH2 0x6F JUMPI DUP1 PUSH4 0x95D89B41 EQ PUSH2 0x2DB JUMPI DUP1 PUSH4 0xA22CB465 EQ PUSH2 0x2F9 JUMPI DUP1 PUSH4 0xB88D4FDE EQ PUSH2 0x315 JUMPI DUP1 PUSH4 0xC87B56DD EQ PUSH2 0x331 JUMPI DUP1 PUSH4 0xE985E9C5 EQ PUSH2 0x361 JUMPI PUSH2 0x109 JUMP JUMPDEST DUP1 PUSH4 0x5BA37742 EQ PUSH2 0x22D JUMPI DUP1 PUSH4 0x6352211E EQ PUSH2 0x24B JUMPI DUP1 PUSH4 0x70A08231 EQ PUSH2 0x27B JUMPI DUP1 PUSH4 0x867D3397 EQ PUSH2 0x2AB JUMPI PUSH2 0x109 JUMP JUMPDEST DUP1 PUSH4 0xA989D9C GT PUSH2 0xDC JUMPI DUP1 PUSH4 0xA989D9C EQ PUSH2 0x1A7 JUMPI DUP1 PUSH4 0x23B872DD EQ PUSH2 0x1C5 JUMPI DUP1 PUSH4 0x33EBA49A EQ PUSH2 0x1E1 JUMPI DUP1 PUSH4 0x42842E0E EQ PUSH2 0x211 JUMPI PUSH2 0x109 JUMP JUMPDEST DUP1 PUSH4 0x1FFC9A7 EQ PUSH2 0x10D JUMPI DUP1 PUSH4 0x6FDDE03 EQ PUSH2 0x13D JUMPI DUP1 PUSH4 0x81812FC EQ PUSH2 0x15B JUMPI DUP1 PUSH4 0x95EA7B3 EQ PUSH2 0x18B JUMPI JUMPDEST PUSH0 DUP1 REVERT JUMPDEST PUSH2 0x127 PUSH1 0x4 DUP1 CALLDATASIZE SUB DUP2 ADD SWAP1 PUSH2 0x122 SWAP2 SWAP1 PUSH2 0x1C3A JUMP JUMPDEST PUSH2 0x391 JUMP JUMPDEST PUSH1 0x40 MLOAD PUSH2 0x134 SWAP2 SWAP1 PUSH2 0x1C7F JUMP JUMPDEST PUSH1 0x40 MLOAD DUP1 SWAP2 SUB SWAP1 RETURN JUMPDEST PUSH2 0x145 PUSH2 0x3F1 JUMP JUMPDEST PUSH1 0x40 MLOAD PUSH2 0x152 SWAP2 SWAP1 PUSH2 0x1D08 JUMP JUMPDEST PUSH1 0x40 MLOAD DUP1 SWAP2 SUB SWAP1 RETURN JUMPDEST PUSH2 0x175 PUSH1 0x4 DUP1 CALLDATASIZE SUB DUP2 ADD SWAP1 PUSH2 0x170 SWAP2 SWAP1 PUSH2 0x1D5B JUMP JUMPDEST PUSH2 0x480 JUMP JUMPDEST PUSH1 0x40 MLOAD PUSH2 0x182 SWAP2 SWAP1 PUSH2 0x1DC5 JUMP JUMPDEST PUSH1 0x40 MLOAD DUP1 SWAP2 SUB SWAP1 RETURN JUMPDEST PUSH2 0x1A5 PUSH1 0x4 DUP1 CALLDATASIZE SUB DUP2 ADD SWAP1 PUSH2 0x1A0 SWAP2 SWAP1 PUSH2 0x1E08 JUMP JUMPDEST PUSH2 0x49B JUMP JUMPDEST STOP JUMPDEST PUSH2 0x1AF PUSH2 0x4B1 JUMP JUMPDEST PUSH1 0x40 MLOAD PUSH2 0x1BC SWAP2 SWAP1 PUSH2 0x1EFD JUMP JUMPDEST PUSH1 0x40 MLOAD DUP1 SWAP2 SUB SWAP1 RETURN JUMPDEST PUSH2 0x1DF PUSH1 0x4 DUP1 CALLDATASIZE SUB DUP2 ADD SWAP1 PUSH2 0x1DA SWAP2 SWAP1 PUSH2 0x1F1D JUMP JUMPDEST PUSH2 0x5BD JUMP JUMPDEST STOP JUMPDEST PUSH2 0x1FB PUSH1 0x4 DUP1 CALLDATASIZE SUB DUP2 ADD SWAP1 PUSH2 0x1F6 SWAP2 SWAP1 PUSH2 0x2099 JUMP JUMPDEST PUSH2 0x6BC JUMP JUMPDEST PUSH1 0x40 MLOAD PUSH2 0x208 SWAP2 SWAP1 PUSH2 0x20EF JUMP JUMPDEST PUSH1 0x40 MLOAD DUP1 SWAP2 SUB SWAP1 RETURN JUMPDEST PUSH2 0x22B PUSH1 0x4 DUP1 CALLDATASIZE SUB DUP2 ADD SWAP1 PUSH2 0x226 SWAP2 SWAP1 PUSH2 0x1F1D JUMP JUMPDEST PUSH2 0x7C7 JUMP JUMPDEST STOP JUMPDEST PUSH2 0x235 PUSH2 0x7E6 JUMP JUMPDEST PUSH1 0x40 MLOAD PUSH2 0x242 SWAP2 SWAP1 PUSH2 0x1EFD JUMP JUMPDEST PUSH1 0x40 MLOAD DUP1 SWAP2 SUB SWAP1 RETURN JUMPDEST PUSH2 0x265 PUSH1 0x4 DUP1 CALLDATASIZE SUB DUP2 ADD SWAP1 PUSH2 0x260 SWAP2 SWAP1 PUSH2 0x1D5B JUMP JUMPDEST PUSH2 0x9B1 JUMP JUMPDEST PUSH1 0x40 MLOAD PUSH2 0x272 SWAP2 SWAP1 PUSH2 0x1DC5 JUMP JUMPDEST PUSH1 0x40 MLOAD DUP1 SWAP2 SUB SWAP1 RETURN JUMPDEST PUSH2 0x295 PUSH1 0x4 DUP1 CALLDATASIZE SUB DUP2 ADD SWAP1 PUSH2 0x290 SWAP2 SWAP1 PUSH2 0x2108 JUMP JUMPDEST PUSH2 0x9C2 JUMP JUMPDEST PUSH1 0x40 MLOAD PUSH2 0x2A2 SWAP2 SWAP1 PUSH2 0x20EF JUMP JUMPDEST PUSH1 0x40 MLOAD DUP1 SWAP2 SUB SWAP1 RETURN JUMPDEST PUSH2 0x2C5 PUSH1 0x4 DUP1 CALLDATASIZE SUB DUP2 ADD SWAP1 PUSH2 0x2C0 SWAP2 SWAP1 PUSH2 0x1D5B JUMP JUMPDEST PUSH2 0xA78 JUMP JUMPDEST PUSH1 0x40 MLOAD PUSH2 0x2D2 SWAP2 SWAP1 PUSH2 0x1DC5 JUMP JUMPDEST PUSH1 0x40 MLOAD DUP1 SWAP2 SUB SWAP1 RETURN JUMPDEST PUSH2 0x2E3 PUSH2 0xAB1 JUMP JUMPDEST PUSH1 0x40 MLOAD PUSH2 0x2F0 SWAP2 SWAP1 PUSH2 0x1D08 JUMP JUMPDEST PUSH1 0x40 MLOAD DUP1 SWAP2 SUB SWAP1 RETURN JUMPDEST PUSH2 0x313 PUSH1 0x4 DUP1 CALLDATASIZE SUB DUP2 ADD SWAP1 PUSH2 0x30E SWAP2 SWAP1 PUSH2 0x215D JUMP JUMPDEST PUSH2 0xB41 JUMP JUMPDEST STOP JUMPDEST PUSH2 0x32F PUSH1 0x4 DUP1 CALLDATASIZE SUB DUP2 ADD SWAP1 PUSH2 0x32A SWAP2 SWAP1 PUSH2 0x2239 JUMP JUMPDEST PUSH2 0xB57 JUMP JUMPDEST STOP JUMPDEST PUSH2 0x34B PUSH1 0x4 DUP1 CALLDATASIZE SUB DUP2 ADD SWAP1 PUSH2 0x346 SWAP2 SWAP1 PUSH2 0x1D5B JUMP JUMPDEST PUSH2 0xB74 JUMP JUMPDEST PUSH1 0x40 MLOAD PUSH2 0x358 SWAP2 SWAP1 PUSH2 0x1D08 JUMP JUMPDEST PUSH1 0x40 MLOAD DUP1 SWAP2 SUB SWAP1 RETURN JUMPDEST PUSH2 0x37B PUSH1 0x4 DUP1 CALLDATASIZE SUB DUP2 ADD SWAP1 PUSH2 0x376 SWAP2 SWAP1 PUSH2 0x22B9 JUMP JUMPDEST PUSH2 0xC7F JUMP JUMPDEST PUSH1 0x40 MLOAD PUSH2 0x388 SWAP2 SWAP1 PUSH2 0x1C7F JUMP JUMPDEST PUSH1 0x40 MLOAD DUP1 SWAP2 SUB SWAP1 RETURN JUMPDEST PUSH0 PUSH4 0x49064906 PUSH1 0xE0 SHL PUSH28 0xFFFFFFFFFFFFFFFFFFFFFFFFFFFFFFFFFFFFFFFFFFFFFFFFFFFFFFFF NOT AND DUP3 PUSH28 0xFFFFFFFFFFFFFFFFFFFFFFFFFFFFFFFFFFFFFFFFFFFFFFFFFFFFFFFF NOT AND EQ DUP1 PUSH2 0x3EA JUMPI POP PUSH2 0x3E9 DUP3 PUSH2 0xD0D JUMP JUMPDEST JUMPDEST SWAP1 POP SWAP2 SWAP1 POP JUMP JUMPDEST PUSH1 0x60 PUSH0 DUP1 SLOAD PUSH2 0x3FF SWAP1 PUSH2 0x2324 JUMP JUMPDEST DUP1 PUSH1 0x1F ADD PUSH1 0x20 DUP1 SWAP2 DIV MUL PUSH1 0x20 ADD PUSH1 0x40 MLOAD SWAP1 DUP2 ADD PUSH1 0x40 MSTORE DUP1 SWAP3 SWAP2 SWAP1 DUP2 DUP2 MSTORE PUSH1 0x20 ADD DUP3 DUP1 SLOAD PUSH2 0x42B SWAP1 PUSH2 0x2324 JUMP JUMPDEST DUP1 ISZERO PUSH2 0x476 JUMPI DUP1 PUSH1 0x1F LT PUSH2 0x44D JUMPI PUSH2 0x100 DUP1 DUP4 SLOAD DIV MUL DUP4 MSTORE SWAP2 PUSH1 0x20 ADD SWAP2 PUSH2 0x476 JUMP JUMPDEST DUP3 ADD SWAP2 SWAP1 PUSH0 MSTORE PUSH1 0x20 PUSH0 KECCAK256 SWAP1 JUMPDEST DUP2 SLOAD DUP2 MSTORE SWAP1 PUSH1 0x1 ADD SWAP1 PUSH1 0x20 ADD DUP1 DUP4 GT PUSH2 0x459 JUMPI DUP3 SWAP1 SUB PUSH1 0x1F AND DUP3 ADD SWAP2 JUMPDEST POP POP POP POP POP SWAP1 POP SWAP1 JUMP JUMPDEST PUSH0 PUSH2 0x48A DUP3 PUSH2 0xDEE JUMP JUMPDEST POP PUSH2 0x494 DUP3 PUSH2 0xE74 JUMP JUMPDEST SWAP1 POP SWAP2 SWAP1 POP JUMP JUMPDEST PUSH2 0x4AD DUP3 DUP3 PUSH2 0x4A8 PUSH2 0xEAD JUMP JUMPDEST PUSH2 0xEB4 JUMP JUMPDEST POP POP JUMP JUMPDEST PUSH1 0x60 PUSH0 PUSH2 0x4BE PUSH1 0x7 PUSH2 0xEC6 JUMP JUMPDEST SWAP1 POP PUSH0 PUSH2 0x4CA CALLER PUSH2 0x9C2 JUMP JUMPDEST SWAP1 POP PUSH0 DUP2 PUSH8 0xFFFFFFFFFFFFFFFF DUP2 GT ISZERO PUSH2 0x4E7 JUMPI PUSH2 0x4E6 PUSH2 0x1F75 JUMP JUMPDEST JUMPDEST PUSH1 0x40 MLOAD SWAP1 DUP1 DUP3 MSTORE DUP1 PUSH1 0x20 MUL PUSH1 0x20 ADD DUP3 ADD PUSH1 0x40 MSTORE DUP1 ISZERO PUSH2 0x515 JUMPI DUP2 PUSH1 0x20 ADD PUSH1 0x20 DUP3 MUL DUP1 CALLDATASIZE DUP4 CALLDATACOPY DUP1 DUP3 ADD SWAP2 POP POP SWAP1 POP JUMPDEST POP SWAP1 POP PUSH0 DUP1 JUMPDEST DUP5 DUP2 LT ISZERO PUSH2 0x5B2 JUMPI PUSH0 PUSH1 0x1 DUP3 PUSH2 0x531 SWAP2 SWAP1 PUSH2 0x2381 JUMP JUMPDEST SWAP1 POP CALLER PUSH20 0xFFFFFFFFFFFFFFFFFFFFFFFFFFFFFFFFFFFFFFFF AND PUSH2 0x553 DUP3 PUSH2 0x9B1 JUMP JUMPDEST PUSH20 0xFFFFFFFFFFFFFFFFFFFFFFFFFFFFFFFFFFFFFFFF AND EQ PUSH2 0x574 JUMPI POP PUSH2 0x5A5 JUMP JUMPDEST DUP1 DUP5 DUP5 DUP2 MLOAD DUP2 LT PUSH2 0x588 JUMPI PUSH2 0x587 PUSH2 0x23B4 JUMP JUMPDEST JUMPDEST PUSH1 0x20 MUL PUSH1 0x20 ADD ADD DUP2 DUP2 MSTORE POP POP PUSH1 0x1 DUP4 PUSH2 0x5A1 SWAP2 SWAP1 PUSH2 0x2381 JUMP JUMPDEST SWAP3 POP POP JUMPDEST DUP1 DUP1 PUSH1 0x1 ADD SWAP2 POP POP PUSH2 0x51B JUMP JUMPDEST POP DUP2 SWAP5 POP POP POP POP POP SWAP1 JUMP JUMPDEST PUSH0 PUSH20 0xFFFFFFFFFFFFFFFFFFFFFFFFFFFFFFFFFFFFFFFF AND DUP3 PUSH20 0xFFFFFFFFFFFFFFFFFFFFFFFFFFFFFFFFFFFFFFFF AND SUB PUSH2 0x62D JUMPI PUSH0 PUSH1 0x40 MLOAD PUSH32 0x64A0AE9200000000000000000000000000000000000000000000000000000000 DUP2 MSTORE PUSH1 0x4 ADD PUSH2 0x624 SWAP2 SWAP1 PUSH2 0x1DC5 JUMP JUMPDEST PUSH1 0x40 MLOAD DUP1 SWAP2 SUB SWAP1 REVERT JUMPDEST PUSH0 PUSH2 0x640 DUP4 DUP4 PUSH2 0x63B PUSH2 0xEAD JUMP JUMPDEST PUSH2 0xED2 JUMP JUMPDEST SWAP1 POP DUP4 PUSH20 0xFFFFFFFFFFFFFFFFFFFFFFFFFFFFFFFFFFFFFFFF AND DUP2 PUSH20 0xFFFFFFFFFFFFFFFFFFFFFFFFFFFFFFFFFFFFFFFF AND EQ PUSH2 0x6B6 JUMPI DUP4 DUP3 DUP3 PUSH1 0x40 MLOAD PUSH32 0x64283D7B00000000000000000000000000000000000000000000000000000000 DUP2 MSTORE PUSH1 0x4 ADD PUSH2 0x6AD SWAP4 SWAP3 SWAP2 SWAP1 PUSH2 0x23E1 JUMP JUMPDEST PUSH1 0x40 MLOAD DUP1 SWAP2 SUB SWAP1 REVERT JUMPDEST POP POP POP POP JUMP JUMPDEST PUSH0 PUSH2 0x6C7 PUSH1 0x7 PUSH2 0x10DD JUMP JUMPDEST PUSH0 PUSH2 0x6D2 PUSH1 0x7 PUSH2 0xEC6 JUMP JUMPDEST SWAP1 POP PUSH2 0x6DE CALLER DUP3 PUSH2 0x10F1 JUMP JUMPDEST CALLER PUSH1 0x9 PUSH0 DUP4 DUP2 MSTORE PUSH1 0x20 ADD SWAP1 DUP2 MSTORE PUSH1 0x20 ADD PUSH0 KECCAK256 PUSH0 PUSH2 0x100 EXP DUP2 SLOAD DUP2 PUSH20 0xFFFFFFFFFFFFFFFFFFFFFFFFFFFFFFFFFFFFFFFF MUL NOT AND SWAP1 DUP4 PUSH20 0xFFFFFFFFFFFFFFFFFFFFFFFFFFFFFFFFFFFFFFFF AND MUL OR SWAP1 SSTORE POP PUSH2 0x737 DUP2 DUP5 PUSH2 0x11E4 JUMP JUMPDEST PUSH2 0x763 PUSH1 0x8 PUSH0 SWAP1 SLOAD SWAP1 PUSH2 0x100 EXP SWAP1 DIV PUSH20 0xFFFFFFFFFFFFFFFFFFFFFFFFFFFFFFFFFFFFFFFF AND PUSH1 0x1 PUSH2 0xB41 JUMP JUMPDEST DUP1 PUSH32 0x9EF9D09A98563C827F651A028105395CC17F94EF23EB26B70D241439386A62F4 DUP5 PUSH1 0x8 PUSH0 SWAP1 SLOAD SWAP1 PUSH2 0x100 EXP SWAP1 DIV PUSH20 0xFFFFFFFFFFFFFFFFFFFFFFFFFFFFFFFFFFFFFFFF AND PUSH1 0x40 MLOAD PUSH2 0x7B6 SWAP3 SWAP2 SWAP1 PUSH2 0x2416 JUMP JUMPDEST PUSH1 0x40 MLOAD DUP1 SWAP2 SUB SWAP1 LOG2 DUP1 SWAP2 POP POP SWAP2 SWAP1 POP JUMP JUMPDEST PUSH2 0x7E1 DUP4 DUP4 DUP4 PUSH1 0x40 MLOAD DUP1 PUSH1 0x20 ADD PUSH1 0x40 MSTORE DUP1 PUSH0 DUP2 MSTORE POP PUSH2 0xB57 JUMP JUMPDEST POP POP POP JUMP JUMPDEST PUSH1 0x60 PUSH0 PUSH2 0x7F3 PUSH1 0x7 PUSH2 0xEC6 JUMP JUMPDEST SWAP1 POP PUSH0 DUP1 JUMPDEST DUP3 DUP2 LT ISZERO PUSH2 0x897 JUMPI PUSH0 PUSH1 0x1 DUP3 PUSH2 0x80E SWAP2 SWAP1 PUSH2 0x2381 JUMP JUMPDEST SWAP1 POP CALLER PUSH20 0xFFFFFFFFFFFFFFFFFFFFFFFFFFFFFFFFFFFFFFFF AND PUSH1 0x9 PUSH0 DUP4 DUP2 MSTORE PUSH1 0x20 ADD SWAP1 DUP2 MSTORE PUSH1 0x20 ADD PUSH0 KECCAK256 PUSH0 SWAP1 SLOAD SWAP1 PUSH2 0x100 EXP SWAP1 DIV PUSH20 0xFFFFFFFFFFFFFFFFFFFFFFFFFFFFFFFFFFFFFFFF AND PUSH20 0xFFFFFFFFFFFFFFFFFFFFFFFFFFFFFFFFFFFFFFFF AND EQ PUSH2 0x879 JUMPI POP PUSH2 0x88A JUMP JUMPDEST PUSH1 0x1 DUP4 PUSH2 0x886 SWAP2 SWAP1 PUSH2 0x2381 JUMP JUMPDEST SWAP3 POP POP JUMPDEST DUP1 DUP1 PUSH1 0x1 ADD SWAP2 POP POP PUSH2 0x7F8 JUMP JUMPDEST POP PUSH0 DUP2 PUSH8 0xFFFFFFFFFFFFFFFF DUP2 GT ISZERO PUSH2 0x8B3 JUMPI PUSH2 0x8B2 PUSH2 0x1F75 JUMP JUMPDEST JUMPDEST PUSH1 0x40 MLOAD SWAP1 DUP1 DUP3 MSTORE DUP1 PUSH1 0x20 MUL PUSH1 0x20 ADD DUP3 ADD PUSH1 0x40 MSTORE DUP1 ISZERO PUSH2 0x8E1 JUMPI DUP2 PUSH1 0x20 ADD PUSH1 0x20 DUP3 MUL DUP1 CALLDATASIZE DUP4 CALLDATACOPY DUP1 DUP3 ADD SWAP2 POP POP SWAP1 POP JUMPDEST POP SWAP1 POP PUSH0 DUP1 JUMPDEST DUP5 DUP2 LT ISZERO PUSH2 0x9A6 JUMPI PUSH0 PUSH1 0x1 DUP3 PUSH2 0x8FD SWAP2 SWAP1 PUSH2 0x2381 JUMP JUMPDEST SWAP1 POP CALLER PUSH20 0xFFFFFFFFFFFFFFFFFFFFFFFFFFFFFFFFFFFFFFFF AND PUSH1 0x9 PUSH0 DUP4 DUP2 MSTORE PUSH1 0x20 ADD SWAP1 DUP2 MSTORE PUSH1 0x20 ADD PUSH0 KECCAK256 PUSH0 SWAP1 SLOAD SWAP1 PUSH2 0x100 EXP SWAP1 DIV PUSH20 0xFFFFFFFFFFFFFFFFFFFFFFFFFFFFFFFFFFFFFFFF AND PUSH20 0xFFFFFFFFFFFFFFFFFFFFFFFFFFFFFFFFFFFFFFFF AND EQ PUSH2 0x968 JUMPI POP PUSH2 0x999 JUMP JUMPDEST DUP1 DUP5 DUP5 DUP2 MLOAD DUP2 LT PUSH2 0x97C JUMPI PUSH2 0x97B PUSH2 0x23B4 JUMP JUMPDEST JUMPDEST PUSH1 0x20 MUL PUSH1 0x20 ADD ADD DUP2 DUP2 MSTORE POP POP PUSH1 0x1 DUP4 PUSH2 0x995 SWAP2 SWAP1 PUSH2 0x2381 JUMP JUMPDEST SWAP3 POP POP JUMPDEST DUP1 DUP1 PUSH1 0x1 ADD SWAP2 POP POP PUSH2 0x8E7 JUMP JUMPDEST POP DUP2 SWAP5 POP POP POP POP POP SWAP1 JUMP JUMPDEST PUSH0 PUSH2 0x9BB DUP3 PUSH2 0xDEE JUMP JUMPDEST SWAP1 POP SWAP2 SWAP1 POP JUMP JUMPDEST PUSH0 DUP1 PUSH20 0xFFFFFFFFFFFFFFFFFFFFFFFFFFFFFFFFFFFFFFFF AND DUP3 PUSH20 0xFFFFFFFFFFFFFFFFFFFFFFFFFFFFFFFFFFFFFFFF AND SUB PUSH2 0xA33 JUMPI PUSH0 PUSH1 0x40 MLOAD PUSH32 0x89C62B6400000000000000000000000000000000000000000000000000000000 DUP2 MSTORE PUSH1 0x4 ADD PUSH2 0xA2A SWAP2 SWAP1 PUSH2 0x1DC5 JUMP JUMPDEST PUSH1 0x40 MLOAD DUP1 SWAP2 SUB SWAP1 REVERT JUMPDEST PUSH1 0x3 PUSH0 DUP4 PUSH20 0xFFFFFFFFFFFFFFFFFFFFFFFFFFFFFFFFFFFFFFFF AND PUSH20 0xFFFFFFFFFFFFFFFFFFFFFFFFFFFFFFFFFFFFFFFF AND DUP2 MSTORE PUSH1 0x20 ADD SWAP1 DUP2 MSTORE PUSH1 0x20 ADD PUSH0 KECCAK256 SLOAD SWAP1 POP SWAP2 SWAP1 POP JUMP JUMPDEST PUSH0 PUSH1 0x9 PUSH0 DUP4 DUP2 MSTORE PUSH1 0x20 ADD SWAP1 DUP2 MSTORE PUSH1 0x20 ADD PUSH0 KECCAK256 PUSH0 SWAP1 SLOAD SWAP1 PUSH2 0x100 EXP SWAP1 DIV PUSH20 0xFFFFFFFFFFFFFFFFFFFFFFFFFFFFFFFFFFFFFFFF AND SWAP1 POP SWAP2 SWAP1 POP JUMP JUMPDEST PUSH1 0x60 PUSH1 0x1 DUP1 SLOAD PUSH2 0xAC0 SWAP1 PUSH2 0x2324 JUMP JUMPDEST DUP1 PUSH1 0x1F ADD PUSH1 0x20 DUP1 SWAP2 DIV MUL PUSH1 0x20 ADD PUSH1 0x40 MLOAD SWAP1 DUP2 ADD PUSH1 0x40 MSTORE DUP1 SWAP3 SWAP2 SWAP1 DUP2 DUP2 MSTORE PUSH1 0x20 ADD DUP3 DUP1 SLOAD PUSH2 0xAEC SWAP1 PUSH2 0x2324 JUMP JUMPDEST DUP1 ISZERO PUSH2 0xB37 JUMPI DUP1 PUSH1 0x1F LT PUSH2 0xB0E JUMPI PUSH2 0x100 DUP1 DUP4 SLOAD DIV MUL DUP4 MSTORE SWAP2 PUSH1 0x20 ADD SWAP2 PUSH2 0xB37 JUMP JUMPDEST DUP3 ADD SWAP2 SWAP1 PUSH0 MSTORE PUSH1 0x20 PUSH0 KECCAK256 SWAP1 JUMPDEST DUP2 SLOAD DUP2 MSTORE SWAP1 PUSH1 0x1 ADD SWAP1 PUSH1 0x20 ADD DUP1 DUP4 GT PUSH2 0xB1A JUMPI DUP3 SWAP1 SUB PUSH1 0x1F AND DUP3 ADD SWAP2 JUMPDEST POP POP POP POP POP SWAP1 POP SWAP1 JUMP JUMPDEST PUSH2 0xB53 PUSH2 0xB4C PUSH2 0xEAD JUMP JUMPDEST DUP4 DUP4 PUSH2 0x123E JUMP JUMPDEST POP POP JUMP JUMPDEST PUSH2 0xB62 DUP5 DUP5 DUP5 PUSH2 0x5BD JUMP JUMPDEST PUSH2 0xB6E DUP5 DUP5 DUP5 DUP5 PUSH2 0x13A7 JUMP JUMPDEST POP POP POP POP JUMP JUMPDEST PUSH1 0x60 PUSH2 0xB7F DUP3 PUSH2 0xDEE JUMP JUMPDEST POP PUSH0 PUSH1 0x6 PUSH0 DUP5 DUP2 MSTORE PUSH1 0x20 ADD SWAP1 DUP2 MSTORE PUSH1 0x20 ADD PUSH0 KECCAK256 DUP1 SLOAD PUSH2 0xB9D SWAP1 PUSH2 0x2324 JUMP JUMPDEST DUP1 PUSH1 0x1F ADD PUSH1 0x20 DUP1 SWAP2 DIV MUL PUSH1 0x20 ADD PUSH1 0x40 MLOAD SWAP1 DUP2 ADD PUSH1 0x40 MSTORE DUP1 SWAP3 SWAP2 SWAP1 DUP2 DUP2 MSTORE PUSH1 0x20 ADD DUP3 DUP1 SLOAD PUSH2 0xBC9 SWAP1 PUSH2 0x2324 JUMP JUMPDEST DUP1 ISZERO PUSH2 0xC14 JUMPI DUP1 PUSH1 0x1F LT PUSH2 0xBEB JUMPI PUSH2 0x100 DUP1 DUP4 SLOAD DIV MUL DUP4 MSTORE SWAP2 PUSH1 0x20 ADD SWAP2 PUSH2 0xC14 JUMP JUMPDEST DUP3 ADD SWAP2 SWAP1 PUSH0 MSTORE PUSH1 0x20 PUSH0 KECCAK256 SWAP1 JUMPDEST DUP2 SLOAD DUP2 MSTORE SWAP1 PUSH1 0x1 ADD SWAP1 PUSH1 0x20 ADD DUP1 DUP4 GT PUSH2 0xBF7 JUMPI DUP3 SWAP1 SUB PUSH1 0x1F AND DUP3 ADD SWAP2 JUMPDEST POP POP POP POP POP SWAP1 POP PUSH0 PUSH2 0xC24 PUSH2 0x1559 JUMP JUMPDEST SWAP1 POP PUSH0 DUP2 MLOAD SUB PUSH2 0xC38 JUMPI DUP2 SWAP3 POP POP POP PUSH2 0xC7A JUMP JUMPDEST PUSH0 DUP3 MLOAD GT ISZERO PUSH2 0xC6C JUMPI DUP1 DUP3 PUSH1 0x40 MLOAD PUSH1 0x20 ADD PUSH2 0xC54 SWAP3 SWAP2 SWAP1 PUSH2 0x247E JUMP JUMPDEST PUSH1 0x40 MLOAD PUSH1 0x20 DUP2 DUP4 SUB SUB DUP2 MSTORE SWAP1 PUSH1 0x40 MSTORE SWAP3 POP POP POP PUSH2 0xC7A JUMP JUMPDEST PUSH2 0xC75 DUP5 PUSH2 0x156F JUMP JUMPDEST SWAP3 POP POP POP JUMPDEST SWAP2 SWAP1 POP JUMP JUMPDEST PUSH0 PUSH1 0x5 PUSH0 DUP5 PUSH20 0xFFFFFFFFFFFFFFFFFFFFFFFFFFFFFFFFFFFFFFFF AND PUSH20 0xFFFFFFFFFFFFFFFFFFFFFFFFFFFFFFFFFFFFFFFF AND DUP2 MSTORE PUSH1 0x20 ADD SWAP1 DUP2 MSTORE PUSH1 0x20 ADD PUSH0 KECCAK256 PUSH0 DUP4 PUSH20 0xFFFFFFFFFFFFFFFFFFFFFFFFFFFFFFFFFFFFFFFF AND PUSH20 0xFFFFFFFFFFFFFFFFFFFFFFFFFFFFFFFFFFFFFFFF AND DUP2 MSTORE PUSH1 0x20 ADD SWAP1 DUP2 MSTORE PUSH1 0x20 ADD PUSH0 KECCAK256 PUSH0 SWAP1 SLOAD SWAP1 PUSH2 0x100 EXP SWAP1 DIV PUSH1 0xFF AND SWAP1 POP SWAP3 SWAP2 POP POP JUMP JUMPDEST PUSH0 PUSH32 0x80AC58CD00000000000000000000000000000000000000000000000000000000 PUSH28 0xFFFFFFFFFFFFFFFFFFFFFFFFFFFFFFFFFFFFFFFFFFFFFFFFFFFFFFFF NOT AND DUP3 PUSH28 0xFFFFFFFFFFFFFFFFFFFFFFFFFFFFFFFFFFFFFFFFFFFFFFFFFFFFFFFF NOT AND EQ DUP1 PUSH2 0xDD7 JUMPI POP PUSH32 0x5B5E139F00000000000000000000000000000000000000000000000000000000 PUSH28 0xFFFFFFFFFFFFFFFFFFFFFFFFFFFFFFFFFFFFFFFFFFFFFFFFFFFFFFFF NOT AND DUP3 PUSH28 0xFFFFFFFFFFFFFFFFFFFFFFFFFFFFFFFFFFFFFFFFFFFFFFFFFFFFFFFF NOT AND EQ JUMPDEST DUP1 PUSH2 0xDE7 JUMPI POP PUSH2 0xDE6 DUP3 PUSH2 0x15D5 JUMP JUMPDEST JUMPDEST SWAP1 POP SWAP2 SWAP1 POP JUMP JUMPDEST PUSH0 DUP1 PUSH2 0xDF9 DUP4 PUSH2 0x163E JUMP JUMPDEST SWAP1 POP PUSH0 PUSH20 0xFFFFFFFFFFFFFFFFFFFFFFFFFFFFFFFFFFFFFFFF AND DUP2 PUSH20 0xFFFFFFFFFFFFFFFFFFFFFFFFFFFFFFFFFFFFFFFF AND SUB PUSH2 0xE6B JUMPI DUP3 PUSH1 0x40 MLOAD PUSH32 0x7E27328900000000000000000000000000000000000000000000000000000000 DUP2 MSTORE PUSH1 0x4 ADD PUSH2 0xE62 SWAP2 SWAP1 PUSH2 0x20EF JUMP JUMPDEST PUSH1 0x40 MLOAD DUP1 SWAP2 SUB SWAP1 REVERT JUMPDEST DUP1 SWAP2 POP POP SWAP2 SWAP1 POP JUMP JUMPDEST PUSH0 PUSH1 0x4 PUSH0 DUP4 DUP2 MSTORE PUSH1 0x20 ADD SWAP1 DUP2 MSTORE PUSH1 0x20 ADD PUSH0 KECCAK256 PUSH0 SWAP1 SLOAD SWAP1 PUSH2 0x100 EXP SWAP1 DIV PUSH20 0xFFFFFFFFFFFFFFFFFFFFFFFFFFFFFFFFFFFFFFFF AND SWAP1 POP SWAP2 SWAP1 POP JUMP JUMPDEST PUSH0 CALLER SWAP1 POP SWAP1 JUMP JUMPDEST PUSH2 0xEC1 DUP4 DUP4 DUP4 PUSH1 0x1 PUSH2 0x1677 JUMP JUMPDEST POP POP POP JUMP JUMPDEST PUSH0 DUP2 PUSH0 ADD SLOAD SWAP1 POP SWAP2 SWAP1 POP JUMP JUMPDEST PUSH0 DUP1 PUSH2 0xEDD DUP5 PUSH2 0x163E JUMP JUMPDEST SWAP1 POP PUSH0 PUSH20 0xFFFFFFFFFFFFFFFFFFFFFFFFFFFFFFFFFFFFFFFF AND DUP4 PUSH20 0xFFFFFFFFFFFFFFFFFFFFFFFFFFFFFFFFFFFFFFFF AND EQ PUSH2 0xF1E JUMPI PUSH2 0xF1D DUP2 DUP5 DUP7 PUSH2 0x1836 JUMP JUMPDEST JUMPDEST PUSH0 PUSH20 0xFFFFFFFFFFFFFFFFFFFFFFFFFFFFFFFFFFFFFFFF AND DUP2 PUSH20 0xFFFFFFFFFFFFFFFFFFFFFFFFFFFFFFFFFFFFFFFF AND EQ PUSH2 0xFA9 JUMPI PUSH2 0xF5D PUSH0 DUP6 PUSH0 DUP1 PUSH2 0x1677 JUMP JUMPDEST PUSH1 0x1 PUSH1 0x3 PUSH0 DUP4 PUSH20 0xFFFFFFFFFFFFFFFFFFFFFFFFFFFFFFFFFFFFFFFF AND PUSH20 0xFFFFFFFFFFFFFFFFFFFFFFFFFFFFFFFFFFFFFFFF AND DUP2 MSTORE PUSH1 0x20 ADD SWAP1 DUP2 MSTORE PUSH1 0x20 ADD PUSH0 KECCAK256 PUSH0 DUP3 DUP3 SLOAD SUB SWAP3 POP POP DUP2 SWAP1 SSTORE POP JUMPDEST PUSH0 PUSH20 0xFFFFFFFFFFFFFFFFFFFFFFFFFFFFFFFFFFFFFFFF AND DUP6 PUSH20 0xFFFFFFFFFFFFFFFFFFFFFFFFFFFFFFFFFFFFFFFF AND EQ PUSH2 0x1028 JUMPI PUSH1 0x1 PUSH1 0x3 PUSH0 DUP8 PUSH20 0xFFFFFFFFFFFFFFFFFFFFFFFFFFFFFFFFFFFFFFFF AND PUSH20 0xFFFFFFFFFFFFFFFFFFFFFFFFFFFFFFFFFFFFFFFF AND DUP2 MSTORE PUSH1 0x20 ADD SWAP1 DUP2 MSTORE PUSH1 0x20 ADD PUSH0 KECCAK256 PUSH0 DUP3 DUP3 SLOAD ADD SWAP3 POP POP DUP2 SWAP1 SSTORE POP JUMPDEST DUP5 PUSH1 0x2 PUSH0 DUP7 DUP2 MSTORE PUSH1 0x20 ADD SWAP1 DUP2 MSTORE PUSH1 0x20 ADD PUSH0 KECCAK256 PUSH0 PUSH2 0x100 EXP DUP2 SLOAD DUP2 PUSH20 0xFFFFFFFFFFFFFFFFFFFFFFFFFFFFFFFFFFFFFFFF MUL NOT AND SWAP1 DUP4 PUSH20 0xFFFFFFFFFFFFFFFFFFFFFFFFFFFFFFFFFFFFFFFF AND MUL OR SWAP1 SSTORE POP DUP4 DUP6 PUSH20 0xFFFFFFFFFFFFFFFFFFFFFFFFFFFFFFFFFFFFFFFF AND DUP3 PUSH20 0xFFFFFFFFFFFFFFFFFFFFFFFFFFFFFFFFFFFFFFFF AND PUSH32 0xDDF252AD1BE2C89B69C2B068FC378DAA952BA7F163C4A11628F55A4DF523B3EF PUSH1 0x40 MLOAD PUSH1 0x40 MLOAD DUP1 SWAP2 SUB SWAP1 LOG4 DUP1 SWAP2 POP POP SWAP4 SWAP3 POP POP POP JUMP JUMPDEST PUSH1 0x1 DUP2 PUSH0 ADD PUSH0 DUP3 DUP3 SLOAD ADD SWAP3 POP POP DUP2 SWAP1 SSTORE POP POP JUMP JUMPDEST PUSH0 PUSH20 0xFFFFFFFFFFFFFFFFFFFFFFFFFFFFFFFFFFFFFFFF AND DUP3 PUSH20 0xFFFFFFFFFFFFFFFFFFFFFFFFFFFFFFFFFFFFFFFF AND SUB PUSH2 0x1161 JUMPI PUSH0 PUSH1 0x40 MLOAD PUSH32 0x64A0AE9200000000000000000000000000000000000000000000000000000000 DUP2 MSTORE PUSH1 0x4 ADD PUSH2 0x1158 SWAP2 SWAP1 PUSH2 0x1DC5 JUMP JUMPDEST PUSH1 0x40 MLOAD DUP1 SWAP2 SUB SWAP1 REVERT JUMPDEST PUSH0 PUSH2 0x116D DUP4 DUP4 PUSH0 PUSH2 0xED2 JUMP JUMPDEST SWAP1 POP PUSH0 PUSH20 0xFFFFFFFFFFFFFFFFFFFFFFFFFFFFFFFFFFFFFFFF AND DUP2 PUSH20 0xFFFFFFFFFFFFFFFFFFFFFFFFFFFFFFFFFFFFFFFF AND EQ PUSH2 0x11DF JUMPI PUSH0 PUSH1 0x40 MLOAD PUSH32 0x73C6AC6E00000000000000000000000000000000000000000000000000000000 DUP2 MSTORE PUSH1 0x4 ADD PUSH2 0x11D6 SWAP2 SWAP1 PUSH2 0x1DC5 JUMP JUMPDEST PUSH1 0x40 MLOAD DUP1 SWAP2 SUB SWAP1 REVERT JUMPDEST POP POP POP JUMP JUMPDEST DUP1 PUSH1 0x6 PUSH0 DUP5 DUP2 MSTORE PUSH1 0x20 ADD SWAP1 DUP2 MSTORE PUSH1 0x20 ADD PUSH0 KECCAK256 SWAP1 DUP2 PUSH2 0x1202 SWAP2 SWAP1 PUSH2 0x263E JUMP JUMPDEST POP PUSH32 0xF8E1A15ABA9398E019F0B49DF1A4FDE98EE17AE345CB5F6B5E2C27F5033E8CE7 DUP3 PUSH1 0x40 MLOAD PUSH2 0x1232 SWAP2 SWAP1 PUSH2 0x20EF JUMP JUMPDEST PUSH1 0x40 MLOAD DUP1 SWAP2 SUB SWAP1 LOG1 POP POP JUMP JUMPDEST PUSH0 PUSH20 0xFFFFFFFFFFFFFFFFFFFFFFFFFFFFFFFFFFFFFFFF AND DUP3 PUSH20 0xFFFFFFFFFFFFFFFFFFFFFFFFFFFFFFFFFFFFFFFF AND SUB PUSH2 0x12AE JUMPI DUP2 PUSH1 0x40 MLOAD PUSH32 0x5B08BA1800000000000000000000000000000000000000000000000000000000 DUP2 MSTORE PUSH1 0x4 ADD PUSH2 0x12A5 SWAP2 SWAP1 PUSH2 0x1DC5 JUMP JUMPDEST PUSH1 0x40 MLOAD DUP1 SWAP2 SUB SWAP1 REVERT JUMPDEST DUP1 PUSH1 0x5 PUSH0 DUP6 PUSH20 0xFFFFFFFFFFFFFFFFFFFFFFFFFFFFFFFFFFFFFFFF AND PUSH20 0xFFFFFFFFFFFFFFFFFFFFFFFFFFFFFFFFFFFFFFFF AND DUP2 MSTORE PUSH1 0x20 ADD SWAP1 DUP2 MSTORE PUSH1 0x20 ADD PUSH0 KECCAK256 PUSH0 DUP5 PUSH20 0xFFFFFFFFFFFFFFFFFFFFFFFFFFFFFFFFFFFFFFFF AND PUSH20 0xFFFFFFFFFFFFFFFFFFFFFFFFFFFFFFFFFFFFFFFF AND DUP2 MSTORE PUSH1 0x20 ADD SWAP1 DUP2 MSTORE PUSH1 0x20 ADD PUSH0 KECCAK256 PUSH0 PUSH2 0x100 EXP DUP2 SLOAD DUP2 PUSH1 0xFF MUL NOT AND SWAP1 DUP4 ISZERO ISZERO MUL OR SWAP1 SSTORE POP DUP2 PUSH20 0xFFFFFFFFFFFFFFFFFFFFFFFFFFFFFFFFFFFFFFFF AND DUP4 PUSH20 0xFFFFFFFFFFFFFFFFFFFFFFFFFFFFFFFFFFFFFFFF AND PUSH32 0x17307EAB39AB6107E8899845AD3D59BD9653F200F220920489CA2B5937696C31 DUP4 PUSH1 0x40 MLOAD PUSH2 0x139A SWAP2 SWAP1 PUSH2 0x1C7F JUMP JUMPDEST PUSH1 0x40 MLOAD DUP1 SWAP2 SUB SWAP1 LOG3 POP POP POP JUMP JUMPDEST PUSH0 DUP4 PUSH20 0xFFFFFFFFFFFFFFFFFFFFFFFFFFFFFFFFFFFFFFFF AND EXTCODESIZE GT ISZERO PUSH2 0x1553 JUMPI DUP3 PUSH20 0xFFFFFFFFFFFFFFFFFFFFFFFFFFFFFFFFFFFFFFFF AND PUSH4 0x150B7A02 PUSH2 0x13EA PUSH2 0xEAD JUMP JUMPDEST DUP7 DUP6 DUP6 PUSH1 0x40 MLOAD DUP6 PUSH4 0xFFFFFFFF AND PUSH1 0xE0 SHL DUP2 MSTORE PUSH1 0x4 ADD PUSH2 0x140C SWAP5 SWAP4 SWAP3 SWAP2 SWAP1 PUSH2 0x275F JUMP JUMPDEST PUSH1 0x20 PUSH1 0x40 MLOAD DUP1 DUP4 SUB DUP2 PUSH0 DUP8 GAS CALL SWAP3 POP POP POP DUP1 ISZERO PUSH2 0x1447 JUMPI POP PUSH1 0x40 MLOAD RETURNDATASIZE PUSH1 0x1F NOT PUSH1 0x1F DUP3 ADD AND DUP3 ADD DUP1 PUSH1 0x40 MSTORE POP DUP2 ADD SWAP1 PUSH2 0x1444 SWAP2 SWAP1 PUSH2 0x27BD JUMP JUMPDEST PUSH1 0x1 JUMPDEST PUSH2 0x14C8 JUMPI RETURNDATASIZE DUP1 PUSH0 DUP2 EQ PUSH2 0x1475 JUMPI PUSH1 0x40 MLOAD SWAP2 POP PUSH1 0x1F NOT PUSH1 0x3F RETURNDATASIZE ADD AND DUP3 ADD PUSH1 0x40 MSTORE RETURNDATASIZE DUP3 MSTORE RETURNDATASIZE PUSH0 PUSH1 0x20 DUP5 ADD RETURNDATACOPY PUSH2 0x147A JUMP JUMPDEST PUSH1 0x60 SWAP2 POP JUMPDEST POP PUSH0 DUP2 MLOAD SUB PUSH2 0x14C0 JUMPI DUP4 PUSH1 0x40 MLOAD PUSH32 0x64A0AE9200000000000000000000000000000000000000000000000000000000 DUP2 MSTORE PUSH1 0x4 ADD PUSH2 0x14B7 SWAP2 SWAP1 PUSH2 0x1DC5 JUMP JUMPDEST PUSH1 0x40 MLOAD DUP1 SWAP2 SUB SWAP1 REVERT JUMPDEST DUP1 MLOAD DUP2 PUSH1 0x20 ADD REVERT JUMPDEST PUSH4 0x150B7A02 PUSH1 0xE0 SHL PUSH28 0xFFFFFFFFFFFFFFFFFFFFFFFFFFFFFFFFFFFFFFFFFFFFFFFFFFFFFFFF NOT AND DUP2 PUSH28 0xFFFFFFFFFFFFFFFFFFFFFFFFFFFFFFFFFFFFFFFFFFFFFFFFFFFFFFFF NOT AND EQ PUSH2 0x1551 JUMPI DUP4 PUSH1 0x40 MLOAD PUSH32 0x64A0AE9200000000000000000000000000000000000000000000000000000000 DUP2 MSTORE PUSH1 0x4 ADD PUSH2 0x1548 SWAP2 SWAP1 PUSH2 0x1DC5 JUMP JUMPDEST PUSH1 0x40 MLOAD DUP1 SWAP2 SUB SWAP1 REVERT JUMPDEST POP JUMPDEST POP POP POP POP JUMP JUMPDEST PUSH1 0x60 PUSH1 0x40 MLOAD DUP1 PUSH1 0x20 ADD PUSH1 0x40 MSTORE DUP1 PUSH0 DUP2 MSTORE POP SWAP1 POP SWAP1 JUMP JUMPDEST PUSH1 0x60 PUSH2 0x157A DUP3 PUSH2 0xDEE JUMP JUMPDEST POP PUSH0 PUSH2 0x1584 PUSH2 0x1559 JUMP JUMPDEST SWAP1 POP PUSH0 DUP2 MLOAD GT PUSH2 0x15A2 JUMPI PUSH1 0x40 MLOAD DUP1 PUSH1 0x20 ADD PUSH1 0x40 MSTORE DUP1 PUSH0 DUP2 MSTORE POP PUSH2 0x15CD JUMP JUMPDEST DUP1 PUSH2 0x15AC DUP5 PUSH2 0x18F9 JUMP JUMPDEST PUSH1 0x40 MLOAD PUSH1 0x20 ADD PUSH2 0x15BD SWAP3 SWAP2 SWAP1 PUSH2 0x247E JUMP JUMPDEST PUSH1 0x40 MLOAD PUSH1 0x20 DUP2 DUP4 SUB SUB DUP2 MSTORE SWAP1 PUSH1 0x40 MSTORE JUMPDEST SWAP2 POP POP SWAP2 SWAP1 POP JUMP JUMPDEST PUSH0 PUSH32 0x1FFC9A700000000000000000000000000000000000000000000000000000000 PUSH28 0xFFFFFFFFFFFFFFFFFFFFFFFFFFFFFFFFFFFFFFFFFFFFFFFFFFFFFFFF NOT AND DUP3 PUSH28 0xFFFFFFFFFFFFFFFFFFFFFFFFFFFFFFFFFFFFFFFFFFFFFFFFFFFFFFFF NOT AND EQ SWAP1 POP SWAP2 SWAP1 POP JUMP JUMPDEST PUSH0 PUSH1 0x2 PUSH0 DUP4 DUP2 MSTORE PUSH1 0x20 ADD SWAP1 DUP2 MSTORE PUSH1 0x20 ADD PUSH0 KECCAK256 PUSH0 SWAP1 SLOAD SWAP1 PUSH2 0x100 EXP SWAP1 DIV PUSH20 0xFFFFFFFFFFFFFFFFFFFFFFFFFFFFFFFFFFFFFFFF AND SWAP1 POP SWAP2 SWAP1 POP JUMP JUMPDEST DUP1 DUP1 PUSH2 0x16AF JUMPI POP PUSH0 PUSH20 0xFFFFFFFFFFFFFFFFFFFFFFFFFFFFFFFFFFFFFFFF AND DUP3 PUSH20 0xFFFFFFFFFFFFFFFFFFFFFFFFFFFFFFFFFFFFFFFF AND EQ ISZERO JUMPDEST ISZERO PUSH2 0x17E1 JUMPI PUSH0 PUSH2 0x16BE DUP5 PUSH2 0xDEE JUMP JUMPDEST SWAP1 POP PUSH0 PUSH20 0xFFFFFFFFFFFFFFFFFFFFFFFFFFFFFFFFFFFFFFFF AND DUP4 PUSH20 0xFFFFFFFFFFFFFFFFFFFFFFFFFFFFFFFFFFFFFFFF AND EQ ISZERO DUP1 ISZERO PUSH2 0x1728 JUMPI POP DUP3 PUSH20 0xFFFFFFFFFFFFFFFFFFFFFFFFFFFFFFFFFFFFFFFF AND DUP2 PUSH20 0xFFFFFFFFFFFFFFFFFFFFFFFFFFFFFFFFFFFFFFFF AND EQ ISZERO JUMPDEST DUP1 ISZERO PUSH2 0x173B JUMPI POP PUSH2 0x1739 DUP2 DUP5 PUSH2 0xC7F JUMP JUMPDEST ISZERO JUMPDEST ISZERO PUSH2 0x177D JUMPI DUP3 PUSH1 0x40 MLOAD PUSH32 0xA9FBF51F00000000000000000000000000000000000000000000000000000000 DUP2 MSTORE PUSH1 0x4 ADD PUSH2 0x1774 SWAP2 SWAP1 PUSH2 0x1DC5 JUMP JUMPDEST PUSH1 0x40 MLOAD DUP1 SWAP2 SUB SWAP1 REVERT JUMPDEST DUP2 ISZERO PUSH2 0x17DF JUMPI DUP4 DUP6 PUSH20 0xFFFFFFFFFFFFFFFFFFFFFFFFFFFFFFFFFFFFFFFF AND DUP3 PUSH20 0xFFFFFFFFFFFFFFFFFFFFFFFFFFFFFFFFFFFFFFFF AND PUSH32 0x8C5BE1E5EBEC7D5BD14F71427D1E84F3DD0314C0F7B2291E5B200AC8C7C3B925 PUSH1 0x40 MLOAD PUSH1 0x40 MLOAD DUP1 SWAP2 SUB SWAP1 LOG4 JUMPDEST POP JUMPDEST DUP4 PUSH1 0x4 PUSH0 DUP6 DUP2 MSTORE PUSH1 0x20 ADD SWAP1 DUP2 MSTORE PUSH1 0x20 ADD PUSH0 KECCAK256 PUSH0 PUSH2 0x100 EXP DUP2 SLOAD DUP2 PUSH20 0xFFFFFFFFFFFFFFFFFFFFFFFFFFFFFFFFFFFFFFFF MUL NOT AND SWAP1 DUP4 PUSH20 0xFFFFFFFFFFFFFFFFFFFFFFFFFFFFFFFFFFFFFFFF AND MUL OR SWAP1 SSTORE POP POP POP POP POP JUMP JUMPDEST PUSH2 0x1841 DUP4 DUP4 DUP4 PUSH2 0x19C3 JUMP JUMPDEST PUSH2 0x18F4 JUMPI PUSH0 PUSH20 0xFFFFFFFFFFFFFFFFFFFFFFFFFFFFFFFFFFFFFFFF AND DUP4 PUSH20 0xFFFFFFFFFFFFFFFFFFFFFFFFFFFFFFFFFFFFFFFF AND SUB PUSH2 0x18B5 JUMPI DUP1 PUSH1 0x40 MLOAD PUSH32 0x7E27328900000000000000000000000000000000000000000000000000000000 DUP2 MSTORE PUSH1 0x4 ADD PUSH2 0x18AC SWAP2 SWAP1 PUSH2 0x20EF JUMP JUMPDEST PUSH1 0x40 MLOAD DUP1 SWAP2 SUB SWAP1 REVERT JUMPDEST DUP2 DUP2 PUSH1 0x40 MLOAD PUSH32 0x177E802F00000000000000000000000000000000000000000000000000000000 DUP2 MSTORE PUSH1 0x4 ADD PUSH2 0x18EB SWAP3 SWAP2 SWAP1 PUSH2 0x27E8 JUMP JUMPDEST PUSH1 0x40 MLOAD DUP1 SWAP2 SUB SWAP1 REVERT JUMPDEST POP POP POP JUMP JUMPDEST PUSH1 0x60 PUSH0 PUSH1 0x1 PUSH2 0x1907 DUP5 PUSH2 0x1A83 JUMP JUMPDEST ADD SWAP1 POP PUSH0 DUP2 PUSH8 0xFFFFFFFFFFFFFFFF DUP2 GT ISZERO PUSH2 0x1925 JUMPI PUSH2 0x1924 PUSH2 0x1F75 JUMP JUMPDEST JUMPDEST PUSH1 0x40 MLOAD SWAP1 DUP1 DUP3 MSTORE DUP1 PUSH1 0x1F ADD PUSH1 0x1F NOT AND PUSH1 0x20 ADD DUP3 ADD PUSH1 0x40 MSTORE DUP1 ISZERO PUSH2 0x1957 JUMPI DUP2 PUSH1 0x20 ADD PUSH1 0x1 DUP3 MUL DUP1 CALLDATASIZE DUP4 CALLDATACOPY DUP1 DUP3 ADD SWAP2 POP POP SWAP1 POP JUMPDEST POP SWAP1 POP PUSH0 DUP3 PUSH1 0x20 ADD DUP3 ADD SWAP1 POP JUMPDEST PUSH1 0x1 ISZERO PUSH2 0x19B8 JUMPI DUP1 DUP1 PUSH1 0x1 SWAP1 SUB SWAP2 POP POP PUSH32 0x3031323334353637383961626364656600000000000000000000000000000000 PUSH1 0xA DUP7 MOD BYTE DUP2 MSTORE8 PUSH1 0xA DUP6 DUP2 PUSH2 0x19AD JUMPI PUSH2 0x19AC PUSH2 0x280F JUMP JUMPDEST JUMPDEST DIV SWAP5 POP PUSH0 DUP6 SUB PUSH2 0x1964 JUMPI JUMPDEST DUP2 SWAP4 POP POP POP POP SWAP2 SWAP1 POP JUMP JUMPDEST PUSH0 DUP1 PUSH20 0xFFFFFFFFFFFFFFFFFFFFFFFFFFFFFFFFFFFFFFFF AND DUP4 PUSH20 0xFFFFFFFFFFFFFFFFFFFFFFFFFFFFFFFFFFFFFFFF AND EQ ISZERO DUP1 ISZERO PUSH2 0x1A7A JUMPI POP DUP3 PUSH20 0xFFFFFFFFFFFFFFFFFFFFFFFFFFFFFFFFFFFFFFFF AND DUP5 PUSH20 0xFFFFFFFFFFFFFFFFFFFFFFFFFFFFFFFFFFFFFFFF AND EQ DUP1 PUSH2 0x1A3B JUMPI POP PUSH2 0x1A3A DUP5 DUP5 PUSH2 0xC7F JUMP JUMPDEST JUMPDEST DUP1 PUSH2 0x1A79 JUMPI POP DUP3 PUSH20 0xFFFFFFFFFFFFFFFFFFFFFFFFFFFFFFFFFFFFFFFF AND PUSH2 0x1A61 DUP4 PUSH2 0xE74 JUMP JUMPDEST PUSH20 0xFFFFFFFFFFFFFFFFFFFFFFFFFFFFFFFFFFFFFFFF AND EQ JUMPDEST JUMPDEST SWAP1 POP SWAP4 SWAP3 POP POP POP JUMP JUMPDEST PUSH0 DUP1 PUSH0 SWAP1 POP PUSH27 0x184F03E93FF9F4DAA797ED6E38ED64BF6A1F010000000000000000 DUP4 LT PUSH2 0x1ADF JUMPI PUSH27 0x184F03E93FF9F4DAA797ED6E38ED64BF6A1F010000000000000000 DUP4 DUP2 PUSH2 0x1AD5 JUMPI PUSH2 0x1AD4 PUSH2 0x280F JUMP JUMPDEST JUMPDEST DIV SWAP3 POP PUSH1 0x40 DUP2 ADD SWAP1 POP JUMPDEST PUSH14 0x4EE2D6D415B85ACEF8100000000 DUP4 LT PUSH2 0x1B1C JUMPI PUSH14 0x4EE2D6D415B85ACEF8100000000 DUP4 DUP2 PUSH2 0x1B12 JUMPI PUSH2 0x1B11 PUSH2 0x280F JUMP JUMPDEST JUMPDEST DIV SWAP3 POP PUSH1 0x20 DUP2 ADD SWAP1 POP JUMPDEST PUSH7 0x2386F26FC10000 DUP4 LT PUSH2 0x1B4B JUMPI PUSH7 0x2386F26FC10000 DUP4 DUP2 PUSH2 0x1B41 JUMPI PUSH2 0x1B40 PUSH2 0x280F JUMP JUMPDEST JUMPDEST DIV SWAP3 POP PUSH1 0x10 DUP2 ADD SWAP1 POP JUMPDEST PUSH4 0x5F5E100 DUP4 LT PUSH2 0x1B74 JUMPI PUSH4 0x5F5E100 DUP4 DUP2 PUSH2 0x1B6A JUMPI PUSH2 0x1B69 PUSH2 0x280F JUMP JUMPDEST JUMPDEST DIV SWAP3 POP PUSH1 0x8 DUP2 ADD SWAP1 POP JUMPDEST PUSH2 0x2710 DUP4 LT PUSH2 0x1B99 JUMPI PUSH2 0x2710 DUP4 DUP2 PUSH2 0x1B8F JUMPI PUSH2 0x1B8E PUSH2 0x280F JUMP JUMPDEST JUMPDEST DIV SWAP3 POP PUSH1 0x4 DUP2 ADD SWAP1 POP JUMPDEST PUSH1 0x64 DUP4 LT PUSH2 0x1BBC JUMPI PUSH1 0x64 DUP4 DUP2 PUSH2 0x1BB2 JUMPI PUSH2 0x1BB1 PUSH2 0x280F JUMP JUMPDEST JUMPDEST DIV SWAP3 POP PUSH1 0x2 DUP2 ADD SWAP1 POP JUMPDEST PUSH1 0xA DUP4 LT PUSH2 0x1BCB JUMPI PUSH1 0x1 DUP2 ADD SWAP1 POP JUMPDEST DUP1 SWAP2 POP POP SWAP2 SWAP1 POP JUMP JUMPDEST PUSH0 PUSH1 0x40 MLOAD SWAP1 POP SWAP1 JUMP JUMPDEST PUSH0 DUP1 REVERT JUMPDEST PUSH0 DUP1 REVERT JUMPDEST PUSH0 PUSH32 0xFFFFFFFF00000000000000000000000000000000000000000000000000000000 DUP3 AND SWAP1 POP SWAP2 SWAP1 POP JUMP JUMPDEST PUSH2 0x1C19 DUP2 PUSH2 0x1BE5 JUMP JUMPDEST DUP2 EQ PUSH2 0x1C23 JUMPI PUSH0 DUP1 REVERT JUMPDEST POP JUMP JUMPDEST PUSH0 DUP2 CALLDATALOAD SWAP1 POP PUSH2 0x1C34 DUP2 PUSH2 0x1C10 JUMP JUMPDEST SWAP3 SWAP2 POP POP JUMP JUMPDEST PUSH0 PUSH1 0x20 DUP3 DUP5 SUB SLT ISZERO PUSH2 0x1C4F JUMPI PUSH2 0x1C4E PUSH2 0x1BDD JUMP JUMPDEST JUMPDEST PUSH0 PUSH2 0x1C5C DUP5 DUP3 DUP6 ADD PUSH2 0x1C26 JUMP JUMPDEST SWAP2 POP POP SWAP3 SWAP2 POP POP JUMP JUMPDEST PUSH0 DUP2 ISZERO ISZERO SWAP1 POP SWAP2 SWAP1 POP JUMP JUMPDEST PUSH2 0x1C79 DUP2 PUSH2 0x1C65 JUMP JUMPDEST DUP3 MSTORE POP POP JUMP JUMPDEST PUSH0 PUSH1 0x20 DUP3 ADD SWAP1 POP PUSH2 0x1C92 PUSH0 DUP4 ADD DUP5 PUSH2 0x1C70 JUMP JUMPDEST SWAP3 SWAP2 POP POP JUMP JUMPDEST PUSH0 DUP2 MLOAD SWAP1 POP SWAP2 SWAP1 POP JUMP JUMPDEST PUSH0 DUP3 DUP3 MSTORE PUSH1 0x20 DUP3 ADD SWAP1 POP SWAP3 SWAP2 POP POP JUMP JUMPDEST DUP3 DUP2 DUP4 MCOPY PUSH0 DUP4 DUP4 ADD MSTORE POP POP POP JUMP JUMPDEST PUSH0 PUSH1 0x1F NOT PUSH1 0x1F DUP4 ADD AND SWAP1 POP SWAP2 SWAP1 POP JUMP JUMPDEST PUSH0 PUSH2 0x1CDA DUP3 PUSH2 0x1C98 JUMP JUMPDEST PUSH2 0x1CE4 DUP2 DUP6 PUSH2 0x1CA2 JUMP JUMPDEST SWAP4 POP PUSH2 0x1CF4 DUP2 DUP6 PUSH1 0x20 DUP7 ADD PUSH2 0x1CB2 JUMP JUMPDEST PUSH2 0x1CFD DUP2 PUSH2 0x1CC0 JUMP JUMPDEST DUP5 ADD SWAP2 POP POP SWAP3 SWAP2 POP POP JUMP JUMPDEST PUSH0 PUSH1 0x20 DUP3 ADD SWAP1 POP DUP2 DUP2 SUB PUSH0 DUP4 ADD MSTORE PUSH2 0x1D20 DUP2 DUP5 PUSH2 0x1CD0 JUMP JUMPDEST SWAP1 POP SWAP3 SWAP2 POP POP JUMP JUMPDEST PUSH0 DUP2 SWAP1 POP SWAP2 SWAP1 POP JUMP JUMPDEST PUSH2 0x1D3A DUP2 PUSH2 0x1D28 JUMP JUMPDEST DUP2 EQ PUSH2 0x1D44 JUMPI PUSH0 DUP1 REVERT JUMPDEST POP JUMP JUMPDEST PUSH0 DUP2 CALLDATALOAD SWAP1 POP PUSH2 0x1D55 DUP2 PUSH2 0x1D31 JUMP JUMPDEST SWAP3 SWAP2 POP POP JUMP JUMPDEST PUSH0 PUSH1 0x20 DUP3 DUP5 SUB SLT ISZERO PUSH2 0x1D70 JUMPI PUSH2 0x1D6F PUSH2 0x1BDD JUMP JUMPDEST JUMPDEST PUSH0 PUSH2 0x1D7D DUP5 DUP3 DUP6 ADD PUSH2 0x1D47 JUMP JUMPDEST SWAP2 POP POP SWAP3 SWAP2 POP POP JUMP JUMPDEST PUSH0 PUSH20 0xFFFFFFFFFFFFFFFFFFFFFFFFFFFFFFFFFFFFFFFF DUP3 AND SWAP1 POP SWAP2 SWAP1 POP JUMP JUMPDEST PUSH0 PUSH2 0x1DAF DUP3 PUSH2 0x1D86 JUMP JUMPDEST SWAP1 POP SWAP2 SWAP1 POP JUMP JUMPDEST PUSH2 0x1DBF DUP2 PUSH2 0x1DA5 JUMP JUMPDEST DUP3 MSTORE POP POP JUMP JUMPDEST PUSH0 PUSH1 0x20 DUP3 ADD SWAP1 POP PUSH2 0x1DD8 PUSH0 DUP4 ADD DUP5 PUSH2 0x1DB6 JUMP JUMPDEST SWAP3 SWAP2 POP POP JUMP JUMPDEST PUSH2 0x1DE7 DUP2 PUSH2 0x1DA5 JUMP JUMPDEST DUP2 EQ PUSH2 0x1DF1 JUMPI PUSH0 DUP1 REVERT JUMPDEST POP JUMP JUMPDEST PUSH0 DUP2 CALLDATALOAD SWAP1 POP PUSH2 0x1E02 DUP2 PUSH2 0x1DDE JUMP JUMPDEST SWAP3 SWAP2 POP POP JUMP JUMPDEST PUSH0 DUP1 PUSH1 0x40 DUP4 DUP6 SUB SLT ISZERO PUSH2 0x1E1E JUMPI PUSH2 0x1E1D PUSH2 0x1BDD JUMP JUMPDEST JUMPDEST PUSH0 PUSH2 0x1E2B DUP6 DUP3 DUP7 ADD PUSH2 0x1DF4 JUMP JUMPDEST SWAP3 POP POP PUSH1 0x20 PUSH2 0x1E3C DUP6 DUP3 DUP7 ADD PUSH2 0x1D47 JUMP JUMPDEST SWAP2 POP POP SWAP3 POP SWAP3 SWAP1 POP JUMP JUMPDEST PUSH0 DUP2 MLOAD SWAP1 POP SWAP2 SWAP1 POP JUMP JUMPDEST PUSH0 DUP3 DUP3 MSTORE PUSH1 0x20 DUP3 ADD SWAP1 POP SWAP3 SWAP2 POP POP JUMP JUMPDEST PUSH0 DUP2 SWAP1 POP PUSH1 0x20 DUP3 ADD SWAP1 POP SWAP2 SWAP1 POP JUMP JUMPDEST PUSH2 0x1E78 DUP2 PUSH2 0x1D28 JUMP JUMPDEST DUP3 MSTORE POP POP JUMP JUMPDEST PUSH0 PUSH2 0x1E89 DUP4 DUP4 PUSH2 0x1E6F JUMP JUMPDEST PUSH1 0x20 DUP4 ADD SWAP1 POP SWAP3 SWAP2 POP POP JUMP JUMPDEST PUSH0 PUSH1 0x20 DUP3 ADD SWAP1 POP SWAP2 SWAP1 POP JUMP JUMPDEST PUSH0 PUSH2 0x1EAB DUP3 PUSH2 0x1E46 JUMP JUMPDEST PUSH2 0x1EB5 DUP2 DUP6 PUSH2 0x1E50 JUMP JUMPDEST SWAP4 POP PUSH2 0x1EC0 DUP4 PUSH2 0x1E60 JUMP JUMPDEST DUP1 PUSH0 JUMPDEST DUP4 DUP2 LT ISZERO PUSH2 0x1EF0 JUMPI DUP2 MLOAD PUSH2 0x1ED7 DUP9 DUP3 PUSH2 0x1E7E JUMP JUMPDEST SWAP8 POP PUSH2 0x1EE2 DUP4 PUSH2 0x1E95 JUMP JUMPDEST SWAP3 POP POP PUSH1 0x1 DUP2 ADD SWAP1 POP PUSH2 0x1EC3 JUMP JUMPDEST POP DUP6 SWAP4 POP POP POP POP SWAP3 SWAP2 POP POP JUMP JUMPDEST PUSH0 PUSH1 0x20 DUP3 ADD SWAP1 POP DUP2 DUP2 SUB PUSH0 DUP4 ADD MSTORE PUSH2 0x1F15 DUP2 DUP5 PUSH2 0x1EA1 JUMP JUMPDEST SWAP1 POP SWAP3 SWAP2 POP POP JUMP JUMPDEST PUSH0 DUP1 PUSH0 PUSH1 0x60 DUP5 DUP7 SUB SLT ISZERO PUSH2 0x1F34 JUMPI PUSH2 0x1F33 PUSH2 0x1BDD JUMP JUMPDEST JUMPDEST PUSH0 PUSH2 0x1F41 DUP7 DUP3 DUP8 ADD PUSH2 0x1DF4 JUMP JUMPDEST SWAP4 POP POP PUSH1 0x20 PUSH2 0x1F52 DUP7 DUP3 DUP8 ADD PUSH2 0x1DF4 JUMP JUMPDEST SWAP3 POP POP PUSH1 0x40 PUSH2 0x1F63 DUP7 DUP3 DUP8 ADD PUSH2 0x1D47 JUMP JUMPDEST SWAP2 POP POP SWAP3 POP SWAP3 POP SWAP3 JUMP JUMPDEST PUSH0 DUP1 REVERT JUMPDEST PUSH0 DUP1 REVERT JUMPDEST PUSH32 0x4E487B7100000000000000000000000000000000000000000000000000000000 PUSH0 MSTORE PUSH1 0x41 PUSH1 0x4 MSTORE PUSH1 0x24 PUSH0 REVERT JUMPDEST PUSH2 0x1FAB DUP3 PUSH2 0x1CC0 JUMP JUMPDEST DUP2 ADD DUP2 DUP2 LT PUSH8 0xFFFFFFFFFFFFFFFF DUP3 GT OR ISZERO PUSH2 0x1FCA JUMPI PUSH2 0x1FC9 PUSH2 0x1F75 JUMP JUMPDEST JUMPDEST DUP1 PUSH1 0x40 MSTORE POP POP POP JUMP JUMPDEST PUSH0 PUSH2 0x1FDC PUSH2 0x1BD4 JUMP JUMPDEST SWAP1 POP PUSH2 0x1FE8 DUP3 DUP3 PUSH2 0x1FA2 JUMP JUMPDEST SWAP2 SWAP1 POP JUMP JUMPDEST PUSH0 PUSH8 0xFFFFFFFFFFFFFFFF DUP3 GT ISZERO PUSH2 0x2007 JUMPI PUSH2 0x2006 PUSH2 0x1F75 JUMP JUMPDEST JUMPDEST PUSH2 0x2010 DUP3 PUSH2 0x1CC0 JUMP JUMPDEST SWAP1 POP PUSH1 0x20 DUP2 ADD SWAP1 POP SWAP2 SWAP1 POP JUMP JUMPDEST DUP3 DUP2 DUP4 CALLDATACOPY PUSH0 DUP4 DUP4 ADD MSTORE POP POP POP JUMP JUMPDEST PUSH0 PUSH2 0x203D PUSH2 0x2038 DUP5 PUSH2 0x1FED JUMP JUMPDEST PUSH2 0x1FD3 JUMP JUMPDEST SWAP1 POP DUP3 DUP2 MSTORE PUSH1 0x20 DUP2 ADD DUP5 DUP5 DUP5 ADD GT ISZERO PUSH2 0x2059 JUMPI PUSH2 0x2058 PUSH2 0x1F71 JUMP JUMPDEST JUMPDEST PUSH2 0x2064 DUP5 DUP3 DUP6 PUSH2 0x201D JUMP JUMPDEST POP SWAP4 SWAP3 POP POP POP JUMP JUMPDEST PUSH0 DUP3 PUSH1 0x1F DUP4 ADD SLT PUSH2 0x2080 JUMPI PUSH2 0x207F PUSH2 0x1F6D JUMP JUMPDEST JUMPDEST DUP2 CALLDATALOAD PUSH2 0x2090 DUP5 DUP3 PUSH1 0x20 DUP7 ADD PUSH2 0x202B JUMP JUMPDEST SWAP2 POP POP SWAP3 SWAP2 POP POP JUMP JUMPDEST PUSH0 PUSH1 0x20 DUP3 DUP5 SUB SLT ISZERO PUSH2 0x20AE JUMPI PUSH2 0x20AD PUSH2 0x1BDD JUMP JUMPDEST JUMPDEST PUSH0 DUP3 ADD CALLDATALOAD PUSH8 0xFFFFFFFFFFFFFFFF DUP2 GT ISZERO PUSH2 0x20CB JUMPI PUSH2 0x20CA PUSH2 0x1BE1 JUMP JUMPDEST JUMPDEST PUSH2 0x20D7 DUP5 DUP3 DUP6 ADD PUSH2 0x206C JUMP JUMPDEST SWAP2 POP POP SWAP3 SWAP2 POP POP JUMP JUMPDEST PUSH2 0x20E9 DUP2 PUSH2 0x1D28 JUMP JUMPDEST DUP3 MSTORE POP POP JUMP JUMPDEST PUSH0 PUSH1 0x20 DUP3 ADD SWAP1 POP PUSH2 0x2102 PUSH0 DUP4 ADD DUP5 PUSH2 0x20E0 JUMP JUMPDEST SWAP3 SWAP2 POP POP JUMP JUMPDEST PUSH0 PUSH1 0x20 DUP3 DUP5 SUB SLT ISZERO PUSH2 0x211D JUMPI PUSH2 0x211C PUSH2 0x1BDD JUMP JUMPDEST JUMPDEST PUSH0 PUSH2 0x212A DUP5 DUP3 DUP6 ADD PUSH2 0x1DF4 JUMP JUMPDEST SWAP2 POP POP SWAP3 SWAP2 POP POP JUMP JUMPDEST PUSH2 0x213C DUP2 PUSH2 0x1C65 JUMP JUMPDEST DUP2 EQ PUSH2 0x2146 JUMPI PUSH0 DUP1 REVERT JUMPDEST POP JUMP JUMPDEST PUSH0 DUP2 CALLDATALOAD SWAP1 POP PUSH2 0x2157 DUP2 PUSH2 0x2133 JUMP JUMPDEST SWAP3 SWAP2 POP POP JUMP JUMPDEST PUSH0 DUP1 PUSH1 0x40 DUP4 DUP6 SUB SLT ISZERO PUSH2 0x2173 JUMPI PUSH2 0x2172 PUSH2 0x1BDD JUMP JUMPDEST JUMPDEST PUSH0 PUSH2 0x2180 DUP6 DUP3 DUP7 ADD PUSH2 0x1DF4 JUMP JUMPDEST SWAP3 POP POP PUSH1 0x20 PUSH2 0x2191 DUP6 DUP3 DUP7 ADD PUSH2 0x2149 JUMP JUMPDEST SWAP2 POP POP SWAP3 POP SWAP3 SWAP1 POP JUMP JUMPDEST PUSH0 PUSH8 0xFFFFFFFFFFFFFFFF DUP3 GT ISZERO PUSH2 0x21B5 JUMPI PUSH2 0x21B4 PUSH2 0x1F75 JUMP JUMPDEST JUMPDEST PUSH2 0x21BE DUP3 PUSH2 0x1CC0 JUMP JUMPDEST SWAP1 POP PUSH1 0x20 DUP2 ADD SWAP1 POP SWAP2 SWAP1 POP JUMP JUMPDEST PUSH0 PUSH2 0x21DD PUSH2 0x21D8 DUP5 PUSH2 0x219B JUMP JUMPDEST PUSH2 0x1FD3 JUMP JUMPDEST SWAP1 POP DUP3 DUP2 MSTORE PUSH1 0x20 DUP2 ADD DUP5 DUP5 DUP5 ADD GT ISZERO PUSH2 0x21F9 JUMPI PUSH2 0x21F8 PUSH2 0x1F71 JUMP JUMPDEST JUMPDEST PUSH2 0x2204 DUP5 DUP3 DUP6 PUSH2 0x201D JUMP JUMPDEST POP SWAP4 SWAP3 POP POP POP JUMP JUMPDEST PUSH0 DUP3 PUSH1 0x1F DUP4 ADD SLT PUSH2 0x2220 JUMPI PUSH2 0x221F PUSH2 0x1F6D JUMP JUMPDEST JUMPDEST DUP2 CALLDATALOAD PUSH2 0x2230 DUP5 DUP3 PUSH1 0x20 DUP7 ADD PUSH2 0x21CB JUMP JUMPDEST SWAP2 POP POP SWAP3 SWAP2 POP POP JUMP JUMPDEST PUSH0 DUP1 PUSH0 DUP1 PUSH1 0x80 DUP6 DUP8 SUB SLT ISZERO PUSH2 0x2251 JUMPI PUSH2 0x2250 PUSH2 0x1BDD JUMP JUMPDEST JUMPDEST PUSH0 PUSH2 0x225E DUP8 DUP3 DUP9 ADD PUSH2 0x1DF4 JUMP JUMPDEST SWAP5 POP POP PUSH1 0x20 PUSH2 0x226F DUP8 DUP3 DUP9 ADD PUSH2 0x1DF4 JUMP JUMPDEST SWAP4 POP POP PUSH1 0x40 PUSH2 0x2280 DUP8 DUP3 DUP9 ADD PUSH2 0x1D47 JUMP JUMPDEST SWAP3 POP POP PUSH1 0x60 DUP6 ADD CALLDATALOAD PUSH8 0xFFFFFFFFFFFFFFFF DUP2 GT ISZERO PUSH2 0x22A1 JUMPI PUSH2 0x22A0 PUSH2 0x1BE1 JUMP JUMPDEST JUMPDEST PUSH2 0x22AD DUP8 DUP3 DUP9 ADD PUSH2 0x220C JUMP JUMPDEST SWAP2 POP POP SWAP3 SWAP6 SWAP2 SWAP5 POP SWAP3 POP JUMP JUMPDEST PUSH0 DUP1 PUSH1 0x40 DUP4 DUP6 SUB SLT ISZERO PUSH2 0x22CF JUMPI PUSH2 0x22CE PUSH2 0x1BDD JUMP JUMPDEST JUMPDEST PUSH0 PUSH2 0x22DC DUP6 DUP3 DUP7 ADD PUSH2 0x1DF4 JUMP JUMPDEST SWAP3 POP POP PUSH1 0x20 PUSH2 0x22ED DUP6 DUP3 DUP7 ADD PUSH2 0x1DF4 JUMP JUMPDEST SWAP2 POP POP SWAP3 POP SWAP3 SWAP1 POP JUMP JUMPDEST PUSH32 0x4E487B7100000000000000000000000000000000000000000000000000000000 PUSH0 MSTORE PUSH1 0x22 PUSH1 0x4 MSTORE PUSH1 0x24 PUSH0 REVERT JUMPDEST PUSH0 PUSH1 0x2 DUP3 DIV SWAP1 POP PUSH1 0x1 DUP3 AND DUP1 PUSH2 0x233B JUMPI PUSH1 0x7F DUP3 AND SWAP2 POP JUMPDEST PUSH1 0x20 DUP3 LT DUP2 SUB PUSH2 0x234E JUMPI PUSH2 0x234D PUSH2 0x22F7 JUMP JUMPDEST JUMPDEST POP SWAP2 SWAP1 POP JUMP JUMPDEST PUSH32 0x4E487B7100000000000000000000000000000000000000000000000000000000 PUSH0 MSTORE PUSH1 0x11 PUSH1 0x4 MSTORE PUSH1 0x24 PUSH0 REVERT JUMPDEST PUSH0 PUSH2 0x238B DUP3 PUSH2 0x1D28 JUMP JUMPDEST SWAP2 POP PUSH2 0x2396 DUP4 PUSH2 0x1D28 JUMP JUMPDEST SWAP3 POP DUP3 DUP3 ADD SWAP1 POP DUP1 DUP3 GT ISZERO PUSH2 0x23AE JUMPI PUSH2 0x23AD PUSH2 0x2354 JUMP JUMPDEST JUMPDEST SWAP3 SWAP2 POP POP JUMP JUMPDEST PUSH32 0x4E487B7100000000000000000000000000000000000000000000000000000000 PUSH0 MSTORE PUSH1 0x32 PUSH1 0x4 MSTORE PUSH1 0x24 PUSH0 REVERT JUMPDEST PUSH0 PUSH1 0x60 DUP3 ADD SWAP1 POP PUSH2 0x23F4 PUSH0 DUP4 ADD DUP7 PUSH2 0x1DB6 JUMP JUMPDEST PUSH2 0x2401 PUSH1 0x20 DUP4 ADD DUP6 PUSH2 0x20E0 JUMP JUMPDEST PUSH2 0x240E PUSH1 0x40 DUP4 ADD DUP5 PUSH2 0x1DB6 JUMP JUMPDEST SWAP5 SWAP4 POP POP POP POP JUMP JUMPDEST PUSH0 PUSH1 0x40 DUP3 ADD SWAP1 POP DUP2 DUP2 SUB PUSH0 DUP4 ADD MSTORE PUSH2 0x242E DUP2 DUP6 PUSH2 0x1CD0 JUMP JUMPDEST SWAP1 POP PUSH2 0x243D PUSH1 0x20 DUP4 ADD DUP5 PUSH2 0x1DB6 JUMP JUMPDEST SWAP4 SWAP3 POP POP POP JUMP JUMPDEST PUSH0 DUP2 SWAP1 POP SWAP3 SWAP2 POP POP JUMP JUMPDEST PUSH0 PUSH2 0x2458 DUP3 PUSH2 0x1C98 JUMP JUMPDEST PUSH2 0x2462 DUP2 DUP6 PUSH2 0x2444 JUMP JUMPDEST SWAP4 POP PUSH2 0x2472 DUP2 DUP6 PUSH1 0x20 DUP7 ADD PUSH2 0x1CB2 JUMP JUMPDEST DUP1 DUP5 ADD SWAP2 POP POP SWAP3 SWAP2 POP POP JUMP JUMPDEST PUSH0 PUSH2 0x2489 DUP3 DUP6 PUSH2 0x244E JUMP JUMPDEST SWAP2 POP PUSH2 0x2495 DUP3 DUP5 PUSH2 0x244E JUMP JUMPDEST SWAP2 POP DUP2 SWAP1 POP SWAP4 SWAP3 POP POP POP JUMP JUMPDEST PUSH0 DUP2 SWAP1 POP DUP2 PUSH0 MSTORE PUSH1 0x20 PUSH0 KECCAK256 SWAP1 POP SWAP2 SWAP1 POP JUMP JUMPDEST PUSH0 PUSH1 0x20 PUSH1 0x1F DUP4 ADD DIV SWAP1 POP SWAP2 SWAP1 POP JUMP JUMPDEST PUSH0 DUP3 DUP3 SHL SWAP1 POP SWAP3 SWAP2 POP POP JUMP JUMPDEST PUSH0 PUSH1 0x8 DUP4 MUL PUSH2 0x24FD PUSH32 0xFFFFFFFFFFFFFFFFFFFFFFFFFFFFFFFFFFFFFFFFFFFFFFFFFFFFFFFFFFFFFFFF DUP3 PUSH2 0x24C2 JUMP JUMPDEST PUSH2 0x2507 DUP7 DUP4 PUSH2 0x24C2 JUMP JUMPDEST SWAP6 POP DUP1 NOT DUP5 AND SWAP4 POP DUP1 DUP7 AND DUP5 OR SWAP3 POP POP POP SWAP4 SWAP3 POP POP POP JUMP JUMPDEST PUSH0 DUP2 SWAP1 POP SWAP2 SWAP1 POP JUMP JUMPDEST PUSH0 PUSH2 0x2542 PUSH2 0x253D PUSH2 0x2538 DUP5 PUSH2 0x1D28 JUMP JUMPDEST PUSH2 0x251F JUMP JUMPDEST PUSH2 0x1D28 JUMP JUMPDEST SWAP1 POP SWAP2 SWAP1 POP JUMP JUMPDEST PUSH0 DUP2 SWAP1 POP SWAP2 SWAP1 POP JUMP JUMPDEST PUSH2 0x255B DUP4 PUSH2 0x2528 JUMP JUMPDEST PUSH2 0x256F PUSH2 0x2567 DUP3 PUSH2 0x2549 JUMP JUMPDEST DUP5 DUP5 SLOAD PUSH2 0x24CE JUMP JUMPDEST DUP3 SSTORE POP POP POP POP JUMP JUMPDEST PUSH0 SWAP1 JUMP JUMPDEST PUSH2 0x2583 PUSH2 0x2577 JUMP JUMPDEST PUSH2 0x258E DUP2 DUP5 DUP5 PUSH2 0x2552 JUMP JUMPDEST POP POP POP JUMP JUMPDEST JUMPDEST DUP2 DUP2 LT ISZERO PUSH2 0x25B1 JUMPI PUSH2 0x25A6 PUSH0 DUP3 PUSH2 0x257B JUMP JUMPDEST PUSH1 0x1 DUP2 ADD SWAP1 POP PUSH2 0x2594 JUMP JUMPDEST POP POP JUMP JUMPDEST PUSH1 0x1F DUP3 GT ISZERO PUSH2 0x25F6 JUMPI PUSH2 0x25C7 DUP2 PUSH2 0x24A1 JUMP JUMPDEST PUSH2 0x25D0 DUP5 PUSH2 0x24B3 JUMP JUMPDEST DUP2 ADD PUSH1 0x20 DUP6 LT ISZERO PUSH2 0x25DF JUMPI DUP2 SWAP1 POP JUMPDEST PUSH2 0x25F3 PUSH2 0x25EB DUP6 PUSH2 0x24B3 JUMP JUMPDEST DUP4 ADD DUP3 PUSH2 0x2593 JUMP JUMPDEST POP POP JUMPDEST POP POP POP JUMP JUMPDEST PUSH0 DUP3 DUP3 SHR SWAP1 POP SWAP3 SWAP2 POP POP JUMP JUMPDEST PUSH0 PUSH2 0x2616 PUSH0 NOT DUP5 PUSH1 0x8 MUL PUSH2 0x25FB JUMP JUMPDEST NOT DUP1 DUP4 AND SWAP2 POP POP SWAP3 SWAP2 POP POP JUMP JUMPDEST PUSH0 PUSH2 0x262E DUP4 DUP4 PUSH2 0x2607 JUMP JUMPDEST SWAP2 POP DUP3 PUSH1 0x2 MUL DUP3 OR SWAP1 POP SWAP3 SWAP2 POP POP JUMP JUMPDEST PUSH2 0x2647 DUP3 PUSH2 0x1C98 JUMP JUMPDEST PUSH8 0xFFFFFFFFFFFFFFFF DUP2 GT ISZERO PUSH2 0x2660 JUMPI PUSH2 0x265F PUSH2 0x1F75 JUMP JUMPDEST JUMPDEST PUSH2 0x266A DUP3 SLOAD PUSH2 0x2324 JUMP JUMPDEST PUSH2 0x2675 DUP3 DUP3 DUP6 PUSH2 0x25B5 JUMP JUMPDEST PUSH0 PUSH1 0x20 SWAP1 POP PUSH1 0x1F DUP4 GT PUSH1 0x1 DUP2 EQ PUSH2 0x26A6 JUMPI PUSH0 DUP5 ISZERO PUSH2 0x2694 JUMPI DUP3 DUP8 ADD MLOAD SWAP1 POP JUMPDEST PUSH2 0x269E DUP6 DUP3 PUSH2 0x2623 JUMP JUMPDEST DUP7 SSTORE POP PUSH2 0x2705 JUMP JUMPDEST PUSH1 0x1F NOT DUP5 AND PUSH2 0x26B4 DUP7 PUSH2 0x24A1 JUMP JUMPDEST PUSH0 JUMPDEST DUP3 DUP2 LT ISZERO PUSH2 0x26DB JUMPI DUP5 DUP10 ADD MLOAD DUP3 SSTORE PUSH1 0x1 DUP3 ADD SWAP2 POP PUSH1 0x20 DUP6 ADD SWAP5 POP PUSH1 0x20 DUP2 ADD SWAP1 POP PUSH2 0x26B6 JUMP JUMPDEST DUP7 DUP4 LT ISZERO PUSH2 0x26F8 JUMPI DUP5 DUP10 ADD MLOAD PUSH2 0x26F4 PUSH1 0x1F DUP10 AND DUP3 PUSH2 0x2607 JUMP JUMPDEST DUP4 SSTORE POP JUMPDEST PUSH1 0x1 PUSH1 0x2 DUP9 MUL ADD DUP9 SSTORE POP POP POP JUMPDEST POP POP POP POP POP POP JUMP JUMPDEST PUSH0 DUP2 MLOAD SWAP1 POP SWAP2 SWAP1 POP JUMP JUMPDEST PUSH0 DUP3 DUP3 MSTORE PUSH1 0x20 DUP3 ADD SWAP1 POP SWAP3 SWAP2 POP POP JUMP JUMPDEST PUSH0 PUSH2 0x2731 DUP3 PUSH2 0x270D JUMP JUMPDEST PUSH2 0x273B DUP2 DUP6 PUSH2 0x2717 JUMP JUMPDEST SWAP4 POP PUSH2 0x274B DUP2 DUP6 PUSH1 0x20 DUP7 ADD PUSH2 0x1CB2 JUMP JUMPDEST PUSH2 0x2754 DUP2 PUSH2 0x1CC0 JUMP JUMPDEST DUP5 ADD SWAP2 POP POP SWAP3 SWAP2 POP POP JUMP JUMPDEST PUSH0 PUSH1 0x80 DUP3 ADD SWAP1 POP PUSH2 0x2772 PUSH0 DUP4 ADD DUP8 PUSH2 0x1DB6 JUMP JUMPDEST PUSH2 0x277F PUSH1 0x20 DUP4 ADD DUP7 PUSH2 0x1DB6 JUMP JUMPDEST PUSH2 0x278C PUSH1 0x40 DUP4 ADD DUP6 PUSH2 0x20E0 JUMP JUMPDEST DUP2 DUP2 SUB PUSH1 0x60 DUP4 ADD MSTORE PUSH2 0x279E DUP2 DUP5 PUSH2 0x2727 JUMP JUMPDEST SWAP1 POP SWAP6 SWAP5 POP POP POP POP POP JUMP JUMPDEST PUSH0 DUP2 MLOAD SWAP1 POP PUSH2 0x27B7 DUP2 PUSH2 0x1C10 JUMP JUMPDEST SWAP3 SWAP2 POP POP JUMP JUMPDEST PUSH0 PUSH1 0x20 DUP3 DUP5 SUB SLT ISZERO PUSH2 0x27D2 JUMPI PUSH2 0x27D1 PUSH2 0x1BDD JUMP JUMPDEST JUMPDEST PUSH0 PUSH2 0x27DF DUP5 DUP3 DUP6 ADD PUSH2 0x27A9 JUMP JUMPDEST SWAP2 POP POP SWAP3 SWAP2 POP POP JUMP JUMPDEST PUSH0 PUSH1 0x40 DUP3 ADD SWAP1 POP PUSH2 0x27FB PUSH0 DUP4 ADD DUP6 PUSH2 0x1DB6 JUMP JUMPDEST PUSH2 0x2808 PUSH1 0x20 DUP4 ADD DUP5 PUSH2 0x20E0 JUMP JUMPDEST SWAP4 SWAP3 POP POP POP JUMP JUMPDEST PUSH32 0x4E487B7100000000000000000000000000000000000000000000000000000000 PUSH0 MSTORE PUSH1 0x12 PUSH1 0x4 MSTORE PUSH1 0x24 PUSH0 REVERT INVALID LOG2 PUSH5 0x6970667358 0x22 SLT KECCAK256 LT ORIGIN 0x1F STOP TIMESTAMP 0x29 0xC5 SLT PUSH16 0xF6478E923851F02BC38D215B216AF787 EXTCODECOPY DUP14 SWAP10 0xB0 0x4B 0x4B BLOBBASEFEE PUSH5 0x736F6C6343 STOP ADDMOD BYTE STOP CALLER "
				},
				"gasEstimates": {
					"creation": {
						"codeDepositCost": "2070800",
						"executionCost": "infinite",
						"totalCost": "infinite"
					},
					"external": {
						"approve(address,uint256)": "infinite",
						"balanceOf(address)": "infinite",
						"getApproved(uint256)": "infinite",
						"getTokenCreatorById(uint256)": "2941",
						"getTokensCreatedByMe()": "infinite",
						"getTokensOwnedByMe()": "infinite",
						"isApprovedForAll(address,address)": "infinite",
						"mintToken(string)": "infinite",
						"name()": "infinite",
						"ownerOf(uint256)": "infinite",
						"safeTransferFrom(address,address,uint256)": "infinite",
						"safeTransferFrom(address,address,uint256,bytes)": "infinite",
						"setApprovalForAll(address,bool)": "infinite",
						"supportsInterface(bytes4)": "881",
						"symbol()": "infinite",
						"tokenURI(uint256)": "infinite",
						"transferFrom(address,address,uint256)": "infinite"
					}
				},
				"methodIdentifiers": {
					"approve(address,uint256)": "095ea7b3",
					"balanceOf(address)": "70a08231",
					"getApproved(uint256)": "081812fc",
					"getTokenCreatorById(uint256)": "867d3397",
					"getTokensCreatedByMe()": "5ba37742",
					"getTokensOwnedByMe()": "0a989d9c",
					"isApprovedForAll(address,address)": "e985e9c5",
					"mintToken(string)": "33eba49a",
					"name()": "06fdde03",
					"ownerOf(uint256)": "6352211e",
					"safeTransferFrom(address,address,uint256)": "42842e0e",
					"safeTransferFrom(address,address,uint256,bytes)": "b88d4fde",
					"setApprovalForAll(address,bool)": "a22cb465",
					"supportsInterface(bytes4)": "01ffc9a7",
					"symbol()": "95d89b41",
					"tokenURI(uint256)": "c87b56dd",
					"transferFrom(address,address,uint256)": "23b872dd"
				}
			},
			"storageLayout": {
				"storage": [
					{
						"astId": 201,
						"contract": "contracts/NFT.sol:NFT",
						"label": "_name",
						"offset": 0,
						"slot": "0",
						"type": "t_string_storage"
					},
					{
						"astId": 203,
						"contract": "contracts/NFT.sol:NFT",
						"label": "_symbol",
						"offset": 0,
						"slot": "1",
						"type": "t_string_storage"
					},
					{
						"astId": 207,
						"contract": "contracts/NFT.sol:NFT",
						"label": "_owners",
						"offset": 0,
						"slot": "2",
						"type": "t_mapping(t_uint256,t_address)"
					},
					{
						"astId": 211,
						"contract": "contracts/NFT.sol:NFT",
						"label": "_balances",
						"offset": 0,
						"slot": "3",
						"type": "t_mapping(t_address,t_uint256)"
					},
					{
						"astId": 215,
						"contract": "contracts/NFT.sol:NFT",
						"label": "_tokenApprovals",
						"offset": 0,
						"slot": "4",
						"type": "t_mapping(t_uint256,t_address)"
					},
					{
						"astId": 221,
						"contract": "contracts/NFT.sol:NFT",
						"label": "_operatorApprovals",
						"offset": 0,
						"slot": "5",
						"type": "t_mapping(t_address,t_mapping(t_address,t_bool))"
					},
					{
						"astId": 1340,
						"contract": "contracts/NFT.sol:NFT",
						"label": "_tokenURIs",
						"offset": 0,
						"slot": "6",
						"type": "t_mapping(t_uint256,t_string_storage)"
					},
					{
						"astId": 3034,
						"contract": "contracts/NFT.sol:NFT",
						"label": "_tokenIds",
						"offset": 0,
						"slot": "7",
						"type": "t_struct(Counter)1502_storage"
					},
					{
						"astId": 3036,
						"contract": "contracts/NFT.sol:NFT",
						"label": "marketplaceAddress",
						"offset": 0,
						"slot": "8",
						"type": "t_address"
					},
					{
						"astId": 3040,
						"contract": "contracts/NFT.sol:NFT",
						"label": "_creators",
						"offset": 0,
						"slot": "9",
						"type": "t_mapping(t_uint256,t_address)"
					}
				],
				"types": {
					"t_address": {
						"encoding": "inplace",
						"label": "address",
						"numberOfBytes": "20"
					},
					"t_bool": {
						"encoding": "inplace",
						"label": "bool",
						"numberOfBytes": "1"
					},
					"t_mapping(t_address,t_bool)": {
						"encoding": "mapping",
						"key": "t_address",
						"label": "mapping(address => bool)",
						"numberOfBytes": "32",
						"value": "t_bool"
					},
					"t_mapping(t_address,t_mapping(t_address,t_bool))": {
						"encoding": "mapping",
						"key": "t_address",
						"label": "mapping(address => mapping(address => bool))",
						"numberOfBytes": "32",
						"value": "t_mapping(t_address,t_bool)"
					},
					"t_mapping(t_address,t_uint256)": {
						"encoding": "mapping",
						"key": "t_address",
						"label": "mapping(address => uint256)",
						"numberOfBytes": "32",
						"value": "t_uint256"
					},
					"t_mapping(t_uint256,t_address)": {
						"encoding": "mapping",
						"key": "t_uint256",
						"label": "mapping(uint256 => address)",
						"numberOfBytes": "32",
						"value": "t_address"
					},
					"t_mapping(t_uint256,t_string_storage)": {
						"encoding": "mapping",
						"key": "t_uint256",
						"label": "mapping(uint256 => string)",
						"numberOfBytes": "32",
						"value": "t_string_storage"
					},
					"t_string_storage": {
						"encoding": "bytes",
						"label": "string",
						"numberOfBytes": "32"
					},
					"t_struct(Counter)1502_storage": {
						"encoding": "inplace",
						"label": "struct Counters.Counter",
						"members": [
							{
								"astId": 1501,
								"contract": "contracts/NFT.sol:NFT",
								"label": "_value",
								"offset": 0,
								"slot": "0",
								"type": "t_uint256"
							}
						],
						"numberOfBytes": "32"
					},
					"t_uint256": {
						"encoding": "inplace",
						"label": "uint256",
						"numberOfBytes": "32"
					}
				}
			},
			"userdoc": {
				"kind": "user",
				"methods": {},
				"version": 1
			}
		}
	}
}